{
  "abi": [
    {
      "inputs": [
        {
          "internalType": "address",
          "name": "_liquidityAsset",
          "type": "address"
        },
        {
          "internalType": "address",
          "name": "_llFactory",
          "type": "address"
        },
        {
          "internalType": "uint256",
          "name": "_lockupPeriod",
          "type": "uint256"
        },
        {
          "internalType": "uint256",
          "name": "_apy",
          "type": "uint256"
        },
        {
          "internalType": "uint256",
          "name": "_duration",
          "type": "uint256"
        },
        {
          "internalType": "uint256",
          "name": "_minInvestmentAmount",
          "type": "uint256"
        }
      ],
      "stateMutability": "nonpayable",
      "type": "constructor"
    },
    {
      "anonymous": false,
      "inputs": [
        {
          "indexed": true,
          "internalType": "address",
          "name": "owner",
          "type": "address"
        },
        {
          "indexed": true,
          "internalType": "address",
          "name": "spender",
          "type": "address"
        },
        {
          "indexed": false,
          "internalType": "uint256",
          "name": "value",
          "type": "uint256"
        }
      ],
      "name": "Approval",
      "type": "event"
    },
    {
      "anonymous": false,
      "inputs": [
        {
          "indexed": true,
          "internalType": "address",
          "name": "liquidityProvider",
          "type": "address"
        },
        {
          "indexed": true,
          "internalType": "address",
          "name": "token",
          "type": "address"
        },
        {
          "indexed": false,
          "internalType": "uint256",
          "name": "balance",
          "type": "uint256"
        }
      ],
      "name": "BalanceUpdated",
      "type": "event"
    },
    {
      "anonymous": false,
      "inputs": [
        {
          "indexed": true,
          "internalType": "address",
          "name": "investor",
          "type": "address"
        },
        {
          "indexed": false,
          "internalType": "uint256",
          "name": "amount",
          "type": "uint256"
        }
      ],
      "name": "Deposit",
      "type": "event"
    },
    {
      "anonymous": false,
      "inputs": [
        {
          "indexed": true,
          "internalType": "address",
          "name": "by",
          "type": "address"
        },
        {
          "indexed": false,
          "internalType": "uint256",
          "name": "fundsDistributed",
          "type": "uint256"
        }
      ],
      "name": "FundsDistributed",
      "type": "event"
    },
    {
      "anonymous": false,
      "inputs": [
        {
          "indexed": true,
          "internalType": "address",
          "name": "by",
          "type": "address"
        },
        {
          "indexed": false,
          "internalType": "uint256",
          "name": "fundsWithdrawn",
          "type": "uint256"
        },
        {
          "indexed": false,
          "internalType": "uint256",
          "name": "totalWithdrawn",
          "type": "uint256"
        }
      ],
      "name": "FundsWithdrawn",
      "type": "event"
    },
    {
      "anonymous": false,
      "inputs": [
        {
          "indexed": true,
          "internalType": "address",
          "name": "previousOwner",
          "type": "address"
        },
        {
          "indexed": true,
          "internalType": "address",
          "name": "newOwner",
          "type": "address"
        }
      ],
      "name": "OwnershipTransferred",
      "type": "event"
    },
    {
      "anonymous": false,
      "inputs": [
        {
          "indexed": false,
          "internalType": "address",
          "name": "account",
          "type": "address"
        }
      ],
      "name": "Paused",
      "type": "event"
    },
    {
      "anonymous": false,
      "inputs": [
        {
          "indexed": true,
          "internalType": "address",
          "name": "recipient",
          "type": "address"
        },
        {
          "indexed": false,
          "internalType": "uint256",
          "name": "amount",
          "type": "uint256"
        }
      ],
      "name": "PendingReward",
      "type": "event"
    },
    {
      "anonymous": false,
      "inputs": [
        {
          "indexed": true,
          "internalType": "address",
          "name": "recipient",
          "type": "address"
        },
        {
          "indexed": false,
          "internalType": "uint256",
          "name": "amount",
          "type": "uint256"
        }
      ],
      "name": "PendingRewardConcluded",
      "type": "event"
    },
    {
      "anonymous": false,
      "inputs": [
        {
          "indexed": true,
          "internalType": "address",
          "name": "investor",
          "type": "address"
        },
        {
          "indexed": false,
          "internalType": "uint256",
          "name": "amount",
          "type": "uint256"
        }
      ],
      "name": "PendingWithdrawal",
      "type": "event"
    },
    {
      "anonymous": false,
      "inputs": [
        {
          "indexed": true,
          "internalType": "address",
          "name": "investor",
          "type": "address"
        },
        {
          "indexed": false,
          "internalType": "uint256",
          "name": "amount",
          "type": "uint256"
        }
      ],
      "name": "PendingWithdrawalConcluded",
      "type": "event"
    },
    {
      "anonymous": false,
      "inputs": [
        {
          "indexed": true,
          "internalType": "address",
          "name": "account",
          "type": "address"
        },
        {
          "indexed": false,
          "internalType": "int256",
          "name": "pointsCorrection",
          "type": "int256"
        }
      ],
      "name": "PointsCorrectionUpdated",
      "type": "event"
    },
    {
      "anonymous": false,
      "inputs": [
        {
          "indexed": false,
          "internalType": "uint256",
          "name": "pointsPerShare",
          "type": "uint256"
        }
      ],
      "name": "PointsPerShareUpdated",
      "type": "event"
    },
    {
      "anonymous": false,
      "inputs": [
        {
          "indexed": true,
          "internalType": "address",
          "name": "regPool",
          "type": "address"
        },
        {
          "indexed": false,
          "internalType": "uint256",
          "name": "amount",
          "type": "uint256"
        }
      ],
      "name": "RegPoolDeposit",
      "type": "event"
    },
    {
      "anonymous": false,
      "inputs": [
        {
          "indexed": true,
          "internalType": "address",
          "name": "recipient",
          "type": "address"
        },
        {
          "indexed": false,
          "internalType": "uint256",
          "name": "amount",
          "type": "uint256"
        }
      ],
      "name": "RewardClaimed",
      "type": "event"
    },
    {
      "anonymous": false,
      "inputs": [
        {
          "indexed": true,
          "internalType": "address",
          "name": "from",
          "type": "address"
        },
        {
          "indexed": true,
          "internalType": "address",
          "name": "to",
          "type": "address"
        },
        {
          "indexed": false,
          "internalType": "uint256",
          "name": "value",
          "type": "uint256"
        }
      ],
      "name": "Transfer",
      "type": "event"
    },
    {
      "anonymous": false,
      "inputs": [
        {
          "indexed": false,
          "internalType": "address",
          "name": "account",
          "type": "address"
        }
      ],
      "name": "Unpaused",
      "type": "event"
    },
    {
      "anonymous": false,
      "inputs": [
        {
          "indexed": true,
          "internalType": "address",
          "name": "investor",
          "type": "address"
        },
        {
          "indexed": false,
          "internalType": "uint256",
          "name": "amount",
          "type": "uint256"
        }
      ],
      "name": "Withdrawal",
      "type": "event"
    },
    {
      "inputs": [
        {
          "internalType": "address",
          "name": "owner",
          "type": "address"
        }
      ],
      "name": "accumulativeFundsOf",
      "outputs": [
        {
          "internalType": "uint256",
          "name": "",
          "type": "uint256"
        }
      ],
      "stateMutability": "view",
      "type": "function"
    },
    {
      "inputs": [
        {
          "internalType": "address",
          "name": "_pool",
          "type": "address"
        }
      ],
      "name": "addPool",
      "outputs": [],
      "stateMutability": "nonpayable",
      "type": "function"
    },
    {
      "inputs": [
        {
          "internalType": "address[]",
          "name": "_pools",
          "type": "address[]"
        }
      ],
      "name": "addPools",
      "outputs": [],
      "stateMutability": "nonpayable",
      "type": "function"
    },
    {
      "inputs": [
        {
          "internalType": "address",
          "name": "owner",
          "type": "address"
        },
        {
          "internalType": "address",
          "name": "spender",
          "type": "address"
        }
      ],
      "name": "allowance",
      "outputs": [
        {
          "internalType": "uint256",
          "name": "",
          "type": "uint256"
        }
      ],
      "stateMutability": "view",
      "type": "function"
    },
    {
      "inputs": [
        {
          "internalType": "address",
          "name": "spender",
          "type": "address"
        },
        {
          "internalType": "uint256",
          "name": "amount",
          "type": "uint256"
        }
      ],
      "name": "approve",
      "outputs": [
        {
          "internalType": "bool",
          "name": "",
          "type": "bool"
        }
      ],
      "stateMutability": "nonpayable",
      "type": "function"
    },
    {
      "inputs": [
        {
          "internalType": "address",
          "name": "account",
          "type": "address"
        }
      ],
      "name": "balanceOf",
      "outputs": [
        {
          "internalType": "uint256",
          "name": "",
          "type": "uint256"
        }
      ],
      "stateMutability": "view",
      "type": "function"
    },
    {
      "inputs": [],
      "name": "borrower",
      "outputs": [
        {
          "internalType": "address",
          "name": "",
          "type": "address"
        }
      ],
      "stateMutability": "view",
      "type": "function"
    },
    {
      "inputs": [],
      "name": "claimReward",
      "outputs": [
        {
          "internalType": "bool",
          "name": "",
          "type": "bool"
        }
      ],
      "stateMutability": "nonpayable",
      "type": "function"
    },
    {
      "inputs": [
        {
          "internalType": "address",
          "name": "_recipient",
          "type": "address"
        }
      ],
      "name": "concludePendingReward",
      "outputs": [],
      "stateMutability": "nonpayable",
      "type": "function"
    },
    {
      "inputs": [
        {
          "internalType": "address",
          "name": "_recipient",
          "type": "address"
        }
      ],
      "name": "concludePendingWithdrawal",
      "outputs": [],
      "stateMutability": "nonpayable",
      "type": "function"
    },
    {
      "inputs": [],
      "name": "decimals",
      "outputs": [
        {
          "internalType": "uint8",
          "name": "",
          "type": "uint8"
        }
      ],
      "stateMutability": "view",
      "type": "function"
    },
    {
      "inputs": [
        {
          "internalType": "address",
          "name": "spender",
          "type": "address"
        },
        {
          "internalType": "uint256",
          "name": "subtractedValue",
          "type": "uint256"
        }
      ],
      "name": "decreaseAllowance",
      "outputs": [
        {
          "internalType": "bool",
          "name": "",
          "type": "bool"
        }
      ],
      "stateMutability": "nonpayable",
      "type": "function"
    },
    {
      "inputs": [
        {
          "internalType": "uint256",
          "name": "_amount",
          "type": "uint256"
        }
      ],
      "name": "deposit",
      "outputs": [],
      "stateMutability": "nonpayable",
      "type": "function"
    },
    {
      "inputs": [
        {
          "internalType": "address",
          "name": "",
          "type": "address"
        }
      ],
      "name": "depositDate",
      "outputs": [
        {
          "internalType": "uint256",
          "name": "",
          "type": "uint256"
        }
      ],
      "stateMutability": "view",
      "type": "function"
    },
    {
      "inputs": [
        {
          "internalType": "uint256",
          "name": "_amount",
          "type": "uint256"
        },
        {
          "internalType": "address[]",
          "name": "_holders",
          "type": "address[]"
        }
      ],
      "name": "distributeRewards",
      "outputs": [],
      "stateMutability": "nonpayable",
      "type": "function"
    },
    {
      "inputs": [
        {
          "internalType": "address",
          "name": "spender",
          "type": "address"
        },
        {
          "internalType": "uint256",
          "name": "addedValue",
          "type": "uint256"
        }
      ],
      "name": "increaseAllowance",
      "outputs": [
        {
          "internalType": "bool",
          "name": "",
          "type": "bool"
        }
      ],
      "stateMutability": "nonpayable",
      "type": "function"
    },
    {
      "inputs": [],
      "name": "interestBalance",
      "outputs": [
        {
          "internalType": "uint256",
          "name": "",
          "type": "uint256"
        }
      ],
      "stateMutability": "view",
      "type": "function"
    },
    {
      "inputs": [],
      "name": "interestSum",
      "outputs": [
        {
          "internalType": "uint256",
          "name": "",
          "type": "uint256"
        }
      ],
      "stateMutability": "view",
      "type": "function"
    },
    {
      "inputs": [],
      "name": "liquidityAsset",
      "outputs": [
        {
          "internalType": "contract IERC20",
          "name": "",
          "type": "address"
        }
      ],
      "stateMutability": "view",
      "type": "function"
    },
    {
      "inputs": [],
      "name": "liquidityLocker",
      "outputs": [
        {
          "internalType": "contract ILiquidityLocker",
          "name": "",
          "type": "address"
        }
      ],
      "stateMutability": "view",
      "type": "function"
    },
    {
      "inputs": [],
      "name": "name",
      "outputs": [
        {
          "internalType": "string",
          "name": "",
          "type": "string"
        }
      ],
      "stateMutability": "view",
      "type": "function"
    },
    {
      "inputs": [],
      "name": "owner",
      "outputs": [
        {
          "internalType": "address",
          "name": "",
          "type": "address"
        }
      ],
      "stateMutability": "view",
      "type": "function"
    },
    {
      "inputs": [],
      "name": "paused",
      "outputs": [
        {
          "internalType": "bool",
          "name": "",
          "type": "bool"
        }
      ],
      "stateMutability": "view",
      "type": "function"
    },
    {
      "inputs": [
        {
          "internalType": "address",
          "name": "",
          "type": "address"
        }
      ],
      "name": "pendingRewards",
      "outputs": [
        {
          "internalType": "uint256",
          "name": "",
          "type": "uint256"
        }
      ],
      "stateMutability": "view",
      "type": "function"
    },
    {
      "inputs": [
        {
          "internalType": "address",
          "name": "",
          "type": "address"
        }
      ],
      "name": "pendingWithdrawals",
      "outputs": [
        {
          "internalType": "uint256",
          "name": "",
          "type": "uint256"
        }
      ],
      "stateMutability": "view",
      "type": "function"
    },
    {
      "inputs": [],
      "name": "poolInfo",
      "outputs": [
        {
          "internalType": "uint256",
          "name": "lockupPeriod",
          "type": "uint256"
        },
        {
          "internalType": "uint256",
          "name": "apy",
          "type": "uint256"
        },
        {
          "internalType": "uint256",
          "name": "duration",
          "type": "uint256"
        },
        {
          "internalType": "uint256",
          "name": "investmentPoolSize",
          "type": "uint256"
        },
        {
          "internalType": "uint256",
          "name": "minInvestmentAmount",
          "type": "uint256"
        }
      ],
      "stateMutability": "view",
      "type": "function"
    },
    {
      "inputs": [
        {
          "internalType": "address",
          "name": "",
          "type": "address"
        }
      ],
      "name": "pools",
      "outputs": [
        {
          "internalType": "bool",
          "name": "",
          "type": "bool"
        }
      ],
      "stateMutability": "view",
      "type": "function"
    },
    {
      "inputs": [],
      "name": "principalOut",
      "outputs": [
        {
          "internalType": "uint256",
          "name": "",
          "type": "uint256"
        }
      ],
      "stateMutability": "view",
      "type": "function"
    },
    {
      "inputs": [
        {
          "internalType": "address",
          "name": "_pool",
          "type": "address"
        }
      ],
      "name": "removePool",
      "outputs": [],
      "stateMutability": "nonpayable",
      "type": "function"
    },
    {
      "inputs": [],
      "name": "renounceOwnership",
      "outputs": [],
      "stateMutability": "nonpayable",
      "type": "function"
    },
    {
      "inputs": [
        {
          "internalType": "uint256",
          "name": "_amountMissing",
          "type": "uint256"
        }
      ],
      "name": "requestLiquidityAssets",
      "outputs": [],
      "stateMutability": "nonpayable",
      "type": "function"
    },
    {
      "inputs": [
        {
          "internalType": "address",
          "name": "",
          "type": "address"
        }
      ],
      "name": "rewards",
      "outputs": [
        {
          "internalType": "uint256",
          "name": "",
          "type": "uint256"
        }
      ],
      "stateMutability": "view",
      "type": "function"
    },
    {
      "inputs": [],
      "name": "superFactory",
      "outputs": [
        {
          "internalType": "address",
          "name": "",
          "type": "address"
        }
      ],
      "stateMutability": "view",
      "type": "function"
    },
    {
      "inputs": [],
      "name": "symbol",
      "outputs": [
        {
          "internalType": "string",
          "name": "",
          "type": "string"
        }
      ],
      "stateMutability": "view",
      "type": "function"
    },
    {
      "inputs": [],
      "name": "totalDeposited",
      "outputs": [
        {
          "internalType": "uint256",
          "name": "",
          "type": "uint256"
        }
      ],
      "stateMutability": "view",
      "type": "function"
    },
    {
      "inputs": [],
      "name": "totalLA",
      "outputs": [
        {
          "internalType": "uint256",
          "name": "",
          "type": "uint256"
        }
      ],
      "stateMutability": "view",
      "type": "function"
    },
    {
      "inputs": [
        {
          "internalType": "address",
          "name": "owner",
          "type": "address"
        }
      ],
      "name": "totalMintedFor",
      "outputs": [
        {
          "internalType": "uint256",
          "name": "",
          "type": "uint256"
        }
      ],
      "stateMutability": "view",
      "type": "function"
    },
    {
      "inputs": [],
      "name": "totalSupply",
      "outputs": [
        {
          "internalType": "uint256",
          "name": "",
          "type": "uint256"
        }
      ],
      "stateMutability": "view",
      "type": "function"
    },
    {
      "inputs": [],
      "name": "totalSupplyLA",
      "outputs": [
        {
          "internalType": "uint256",
          "name": "",
          "type": "uint256"
        }
      ],
      "stateMutability": "view",
      "type": "function"
    },
    {
      "inputs": [
        {
          "internalType": "address",
          "name": "to",
          "type": "address"
        },
        {
          "internalType": "uint256",
          "name": "amount",
          "type": "uint256"
        }
      ],
      "name": "transfer",
      "outputs": [
        {
          "internalType": "bool",
          "name": "",
          "type": "bool"
        }
      ],
      "stateMutability": "nonpayable",
      "type": "function"
    },
    {
      "inputs": [
        {
          "internalType": "address",
          "name": "from",
          "type": "address"
        },
        {
          "internalType": "address",
          "name": "to",
          "type": "address"
        },
        {
          "internalType": "uint256",
          "name": "amount",
          "type": "uint256"
        }
      ],
      "name": "transferFrom",
      "outputs": [
        {
          "internalType": "bool",
          "name": "",
          "type": "bool"
        }
      ],
      "stateMutability": "nonpayable",
      "type": "function"
    },
    {
      "inputs": [
        {
          "internalType": "address",
          "name": "newOwner",
          "type": "address"
        }
      ],
      "name": "transferOwnership",
      "outputs": [],
      "stateMutability": "nonpayable",
      "type": "function"
    },
    {
      "inputs": [],
      "name": "updateFundsReceived",
      "outputs": [],
      "stateMutability": "nonpayable",
      "type": "function"
    },
    {
      "inputs": [
        {
          "internalType": "uint256",
          "name": "_amount",
          "type": "uint256"
        }
      ],
      "name": "withdraw",
      "outputs": [
        {
          "internalType": "bool",
          "name": "",
          "type": "bool"
        }
      ],
      "stateMutability": "nonpayable",
      "type": "function"
    },
    {
      "inputs": [],
      "name": "withdrawFunds",
      "outputs": [],
      "stateMutability": "nonpayable",
      "type": "function"
    },
    {
      "inputs": [
        {
          "internalType": "uint256",
          "name": "amount",
          "type": "uint256"
        }
      ],
      "name": "withdrawFundsAmount",
      "outputs": [],
      "stateMutability": "nonpayable",
      "type": "function"
    },
    {
      "inputs": [
        {
          "internalType": "address",
          "name": "owner",
          "type": "address"
        }
      ],
      "name": "withdrawableFundsOf",
      "outputs": [
        {
          "internalType": "uint256",
          "name": "",
          "type": "uint256"
        }
      ],
      "stateMutability": "view",
      "type": "function"
    },
    {
      "inputs": [
        {
          "internalType": "address",
          "name": "_holder",
          "type": "address"
        }
      ],
      "name": "withdrawableOf",
      "outputs": [
        {
          "internalType": "uint256",
          "name": "",
          "type": "uint256"
        }
      ],
      "stateMutability": "view",
      "type": "function"
    },
    {
      "inputs": [
        {
          "internalType": "address",
          "name": "owner",
          "type": "address"
        }
      ],
      "name": "withdrawnFundsOf",
      "outputs": [
        {
          "internalType": "uint256",
          "name": "",
          "type": "uint256"
        }
      ],
      "stateMutability": "view",
      "type": "function"
    }
  ],
  "bytecode": {
    "object": "0x6101006040523480156200001257600080fd5b506040516200316238038062003162833981016040819052620000359162000327565b85856040518060400160405280600f81526020016e12195b1a5bdcc81512d388141bdbdb608a1b815250604051806040016040528060058152602001640484c532d560dc1b815250818181818181816003908162000094919062000429565b506004620000a3828262000429565b505060016005555050600d805460ff1916905550620000c69150339050620002b0565b6001600160a01b03841660a08190526040805163313ce56760e01b8152905163313ce567916004808201926020929091908290030181865afa15801562000111573d6000803e3d6000fd5b505050506040513d601f19601f82011682018060405250810190620001379190620004f5565b60ff1660c052604051630cf5bc1d60e11b81526001600160a01b0385811660048301528416906319eb783a906024016020604051808303816000875af115801562000186573d6000803e3d6000fd5b505050506040513d601f19601f82011682018060405250810190620001ac919062000521565b6001600160a01b039081166080528a16935062000207925050505760405162461bcd60e51b815260206004820152601060248201526f140e96915493d7d3125457d054d4d15560821b60448201526064015b60405180910390fd5b6001600160a01b0385166200025f5760405162461bcd60e51b815260206004820152601960248201527f503a5a45524f5f4c49515f4c4f434b45525f464143544f5259000000000000006044820152606401620001fe565b3360e0526040805160a08101825285815260208101859052908101839052600019606082018190526080909101829052601294909455601392909255601455601591909155601655506200053f9050565b600d80546001600160a01b03838116610100818102610100600160a81b031985161790945560405193909204169182907f8be0079c531659141344cd1fd0a4f28419497f9722a3daafe3b4186f6b6457e090600090a35050565b80516001600160a01b03811681146200032257600080fd5b919050565b60008060008060008060c087890312156200034157600080fd5b6200034c876200030a565b95506200035c602088016200030a565b945060408701519350606087015192506080870151915060a087015190509295509295509295565b634e487b7160e01b600052604160045260246000fd5b600181811c90821680620003af57607f821691505b602082108103620003d057634e487b7160e01b600052602260045260246000fd5b50919050565b601f8211156200042457600081815260208120601f850160051c81016020861015620003ff5750805b601f850160051c820191505b8181101562000420578281556001016200040b565b5050505b505050565b81516001600160401b0381111562000445576200044562000384565b6200045d816200045684546200039a565b84620003d6565b602080601f8311600181146200049557600084156200047c5750858301515b600019600386901b1c1916600185901b17855562000420565b600085815260208120601f198616915b82811015620004c657888601518255948401946001909101908401620004a5565b5085821015620004e55787850151600019600388901b60f8161c191681555b5050505050600190811b01905550565b6000602082840312156200050857600080fd5b815160ff811681146200051a57600080fd5b9392505050565b6000602082840312156200053457600080fd5b6200051a826200030a565b60805160a05160c05160e051612b87620005db6000396000610358015260006104360152600081816103c701528181611117015281816116b50152611c490152600081816105ac0152818161096a01528181610b6e01528181610cf501528181610e820152818161113a015281816111c4015281816115170152818161168901528181611bd101528181611c730152611cbe0152612b876000f3fe608060405234801561001057600080fd5b50600436106102ba5760003560e01c806371073bac11610182578063ac641655116100e9578063dd62ed3e116100a2578063f48ccb041161007c578063f48ccb04146106c1578063fa8c00d4146106d4578063fe84967e146106e7578063ff50abdc1461071057600080fd5b8063dd62ed3e1461067b578063f2fde38b1461068e578063f3f43703146106a157600080fd5b8063ac64165514610620578063b36a4ab114610629578063b6b55f251461063c578063b88a802f1461064f578063d16987f914610657578063d914cd4b1461066857600080fd5b806395d89b411161013b57806395d89b411461059f5780639759164a146105a75780639f3c7325146105ce578063a4063dbc146105d7578063a457c2d7146105fa578063a9059cbb1461060d57600080fd5b806371073bac14610552578063715018a61461055b5780637df1f1b9146105635780637dfabf49146104a65780638da5cb5b146105765780639264fd531461058c57600080fd5b80632e1a7d4d11610226578063443bb293116101df578063443bb293146104ae57806346c162de146104c15780634e97415f146104c95780635a2f3d09146104dc5780635c975abb1461051e57806370a082311461052957600080fd5b80632e1a7d4d1461041c578063313ce5671461042f57806331d7a2621461046057806339509351146104805780633b7d09461461049357806342103e8e146104a657600080fd5b80631aa59542116102785780631aa595421461039a5780631e0a5967146103af578063209b2bca146103c257806323b872dd146103e957806324600fc3146103ad57806324b92e8e146103fc57600080fd5b806241c52c146102bf57806306fdde03146102fb5780630700037d14610310578063095ea7b3146103305780630d49b38c1461035357806318160ddd14610392575b600080fd5b6102e86102cd366004612747565b6001600160a01b031660009081526009602052604090205490565b6040519081526020015b60405180910390f35b610303610718565b6040516102f29190612786565b6102e861031e366004612747565b600e6020526000908152604090205481565b61034361033e3660046127b9565b6107aa565b60405190151581526020016102f2565b61037a7f000000000000000000000000000000000000000000000000000000000000000081565b6040516001600160a01b0390911681526020016102f2565b6002546102e8565b6103ad6103a83660046127e3565b6107c4565b005b6103ad6103bd366004612747565b610928565b61037a7f000000000000000000000000000000000000000000000000000000000000000081565b6103436103f7366004612862565b610a7c565b6102e861040a366004612747565b60116020526000908152604090205481565b61034361042a36600461289e565b610aa2565b60405160ff7f00000000000000000000000000000000000000000000000000000000000000001681526020016102f2565b6102e861046e366004612747565b60106020526000908152604090205481565b61034361048e3660046127b9565b610ca6565b6103ad6104a1366004612747565b610cc8565b6102e8610cf1565b6102e86104bc366004612747565b610d7a565b6103ad610da6565b6102e86104d7366004612747565b610dce565b6012546013546014546015546016546104f6949392919085565b604080519586526020860194909452928401919091526060830152608082015260a0016102f2565b600d5460ff16610343565b6102e8610537366004612747565b6001600160a01b031660009081526020819052604090205490565b6102e8600b5481565b6103ad610e2e565b60185461037a906001600160a01b031681565b600d5461010090046001600160a01b031661037a565b6103ad61059a366004612747565b610e40565b610303610f88565b61037a7f000000000000000000000000000000000000000000000000000000000000000081565b6102e8600c5481565b6103436105e5366004612747565b60196020526000908152604090205460ff1681565b6103436106083660046127b9565b610f97565b61034361061b3660046127b9565b611012565b6102e860175481565b6103ad6106373660046128cd565b611020565b6103ad61064a36600461289e565b611094565b6103436111b0565b6103ad61066536600461289e565b50565b6103ad610676366004612747565b611354565b6102e8610689366004612992565b611380565b6103ad61069c366004612747565b6113ab565b6102e86106af366004612747565b600f6020526000908152604090205481565b6103ad6106cf36600461289e565b611421565b6102e86106e2366004612747565b611609565b6102e86106f5366004612747565b6001600160a01b03166000908152600a602052604090205490565b6007546102e8565b606060038054610727906129c5565b80601f0160208091040260200160405190810160405280929190818152602001828054610753906129c5565b80156107a05780601f10610775576101008083540402835291602001916107a0565b820191906000526020600020905b81548152906001019060200180831161078357829003601f168201915b5050505050905090565b6000336107b8818585611740565b60019150505b92915050565b6107cc611864565b6107d46118c4565b600083116108185760405162461bcd60e51b815260206004820152600c60248201526b503a5a45524f5f434c41494d60a01b60448201526064015b60405180910390fd5b806108565760405162461bcd60e51b815260206004820152600e60248201526d503a5a45524f5f484f4c4445525360901b604482015260640161080f565b60005b81811015610918576000838383818110610875576108756129ff565b905060200201602081019061088a9190612747565b905060006108ad826001600160a01b031660009081526020819052604090205490565b905060006108ba60025490565b6108c48389612a2b565b6108ce9190612a4a565b6001600160a01b0384166000908152600e60205260408120805492935083929091906108fb908490612a6c565b92505081905550505050808061091090612a7f565b915050610859565b506109236001600555565b505050565b610930611864565b6001600160a01b038181166000818152600f60205260409081902054905163a9059cbb60e01b8152600481019290925260248201819052917f0000000000000000000000000000000000000000000000000000000000000000169063a9059cbb906044016020604051808303816000875af11580156109b3573d6000803e3d6000fd5b505050506040513d601f19601f820116820180604052508101906109d79190612a98565b610a235760405162461bcd60e51b815260206004820152601c60248201527f503a434f4e434c5544455f5749544844524157414c5f4641494c454400000000604482015260640161080f565b6001600160a01b0382166000818152600f602052604080822091909155517f2687ab3014fc32ee1bbb5acb4d4879d56644ad540a426c06d7deaa8f127b232390610a709084815260200190565b60405180910390a25050565b600033610a8a85828561191d565b610a95858585611997565b506001949350505050565b565b6000610aac611abe565b33600090815260208190526040902054821115610b045760405162461bcd60e51b8152602060048201526016602482015275503a494e53554646494349454e545f42414c414e434560501b604482015260640161080f565b601254336000908152601160205260409020544291610b2291612a6c565b1115610b615760405162461bcd60e51b815260206004820152600e60248201526d140e9195539114d7d313d0d2d15160921b604482015260640161080f565b610b6b3383611b04565b817f00000000000000000000000000000000000000000000000000000000000000006001600160a01b031663ad7a672f6040518163ffffffff1660e01b8152600401602060405180830381865afa158015610bca573d6000803e3d6000fd5b505050506040513d601f19601f82011682018060405250810190610bee9190612aba565b1015610c5557336000908152600f602052604081208054849290610c13908490612a6c565b909155505060405182815233907f39d9cf4ffb93650d8ce789639cb8cf3c8d7b039e1f9795c038af55b4ae643fca9060200160405180910390a2506000919050565b610c5f3383611ba8565b50610c68611c47565b60405182815233907f7fcf532c15f0a6db0bd6d0e038bea71d30d808c7d98cb3bf7268a95bf5081b659060200160405180910390a25060015b919050565b6000336107b8818585610cb98383611380565b610cc39190612a6c565b611740565b610cd0611864565b6001600160a01b03166000908152601960205260409020805460ff19169055565b60007f00000000000000000000000000000000000000000000000000000000000000006001600160a01b031663ad7a672f6040518163ffffffff1660e01b8152600401602060405180830381865afa158015610d51573d6000803e3d6000fd5b505050506040513d601f19601f82011682018060405250810190610d759190612aba565b905090565b6001600160a01b0381166000908152600960205260408120546107be90610da084610dce565b90611d51565b6000610db0611d5d565b905060008113610dbd5750565b610665610dc982611d7b565b611dbb565b6001600160a01b03811660009081526008602090815260408083205491839052822054600654670de0b6b3a764000092610e2492610e1f92610e1991610e149190611eb7565b611ec3565b90611eff565b611d7b565b6107be9190612a4a565b610e36611864565b610aa06000611f0b565b610e48611864565b6001600160a01b038181166000818152601060205260409081902054905163a9059cbb60e01b8152600481019290925260248201819052917f0000000000000000000000000000000000000000000000000000000000000000169063a9059cbb906044016020604051808303816000875af1158015610ecb573d6000803e3d6000fd5b505050506040513d601f19601f82011682018060405250810190610eef9190612a98565b610f3b5760405162461bcd60e51b815260206004820152601860248201527f503a434f4e434c5544455f5245574152445f4641494c45440000000000000000604482015260640161080f565b6001600160a01b03821660008181526010602052604080822091909155517f3c7e767b6741d1e3a8f90a3c95937bb07453eaf2dfee591a5a308f04f498e8b890610a709084815260200190565b606060048054610727906129c5565b60003381610fa58286611380565b9050838110156110055760405162461bcd60e51b815260206004820152602560248201527f45524332303a2064656372656173656420616c6c6f77616e63652062656c6f77604482015264207a65726f60d81b606482015260840161080f565b610a958286868403611740565b6000336107b8818585611997565b611028611864565b60005b81518110156110905760016019600084848151811061104c5761104c6129ff565b6020908102919091018101516001600160a01b03168252810191909152604001600020805460ff19169115159190911790558061108881612a7f565b91505061102b565b5050565b61109c611abe565b6110a46118c4565b6016548110156110ec5760405162461bcd60e51b8152602060048201526013602482015272281d2222a82fa0a6aa2fa122a627abafa6a4a760691b604482015260640161080f565b3360009081526020819052604090205461110a906011908333611f65565b61115f6001600160a01b037f000000000000000000000000000000000000000000000000000000000000000016337f000000000000000000000000000000000000000000000000000000000000000084612015565b611169338261206f565b611171611c47565b60405181815233907fe1fffcc4923d04b559f4d29a8bfc6cda04eb5b0d3c460751c2402c5c5cc9109c9060200160405180910390a26106656001600555565b336000908152600e602052604081205460007f00000000000000000000000000000000000000000000000000000000000000006001600160a01b031663ad7a672f6040518163ffffffff1660e01b8152600401602060405180830381865afa158015611220573d6000803e3d6000fd5b505050506040513d601f19601f820116820180604052508101906112449190612aba565b336000908152600e60205260408120559050818110156112c057336000908152601060205260408120805484929061127d908490612a6c565b909155505060405182815233907f19adda954c72f22df5078ae925d620d455e095989b72be2f895e10473b5379779060200160405180910390a260009250505090565b6112ca3383611ba8565b6113165760405162461bcd60e51b815260206004820152601b60248201527f503a4552524f525f5452414e5346455252494e475f5245574152440000000000604482015260640161080f565b60405182815233907f106f923f993c2149d49b4255ff723acafa1f2d94393f561d3eda32ae348f72419060200160405180910390a260019250505090565b61135c611864565b6001600160a01b03166000908152601960205260409020805460ff19166001179055565b6001600160a01b03918216600090815260016020908152604080832093909416825291909152205490565b6113b3611864565b6001600160a01b0381166114185760405162461bcd60e51b815260206004820152602660248201527f4f776e61626c653a206e6577206f776e657220697320746865207a65726f206160448201526564647265737360d01b606482015260840161080f565b61066581611f0b565b3360009081526019602052604090205460ff1661146d5760405162461bcd60e51b815260206004820152600a602482015269140e9393d517d413d3d360b21b604482015260640161080f565b600081116114af5760405162461bcd60e51b815260206004820152600f60248201526e140e9253959053125117d253941555608a1b604482015260640161080f565b806114b8610cf1565b10156114fb5760405162461bcd60e51b81526020600482015260126024820152710503a4e4f545f454e4f5547485f4c415f42560741b604482015260640161080f565b60405163a9059cbb60e01b8152336004820152602481018290527f00000000000000000000000000000000000000000000000000000000000000006001600160a01b03169063a9059cbb906044016020604051808303816000875af1158015611568573d6000803e3d6000fd5b505050506040513d601f19601f8201168201806040525081019061158c9190612a98565b6115d15760405162461bcd60e51b8152602060048201526016602482015275140e949154555154d517d19493d357d09417d190525360521b604482015260640161080f565b60405181815233907fbabc2955520063ac5330d7fe65a85c54fce0d2c473be76d99e29fb7146ac96a09060200160405180910390a250565b6012546001600160a01b038216600090815260116020526040812054909142916116339190612a6c565b11156116725760405162461bcd60e51b815260206004820152600e60248201526d140e9195539114d7d313d0d2d15160921b604482015260640161080f565b6040516370a0823160e01b81526001600160a01b037f0000000000000000000000000000000000000000000000000000000000000000811660048301526107be917f0000000000000000000000000000000000000000000000000000000000000000909116906370a0823190602401602060405180830381865afa1580156116fe573d6000803e3d6000fd5b505050506040513d601f19601f820116820180604052508101906117229190612aba565b6001600160a01b0384166000908152602081905260409020546120fc565b6001600160a01b0383166117a25760405162461bcd60e51b8152602060048201526024808201527f45524332303a20617070726f76652066726f6d20746865207a65726f206164646044820152637265737360e01b606482015260840161080f565b6001600160a01b0382166118035760405162461bcd60e51b815260206004820152602260248201527f45524332303a20617070726f766520746f20746865207a65726f206164647265604482015261737360f01b606482015260840161080f565b6001600160a01b0383811660008181526001602090815260408083209487168084529482529182902085905590518481527f8c5be1e5ebec7d5bd14f71427d1e84f3dd0314c0f7b2291e5b200ac8c7c3b925910160405180910390a3505050565b600d546001600160a01b03610100909104163314610aa05760405162461bcd60e51b815260206004820181905260248201527f4f776e61626c653a2063616c6c6572206973206e6f7420746865206f776e6572604482015260640161080f565b6002600554036119165760405162461bcd60e51b815260206004820152601f60248201527f5265656e7472616e637947756172643a207265656e7472616e742063616c6c00604482015260640161080f565b6002600555565b60006119298484611380565b9050600019811461199157818110156119845760405162461bcd60e51b815260206004820152601d60248201527f45524332303a20696e73756666696369656e7420616c6c6f77616e6365000000604482015260640161080f565b6119918484848403611740565b50505050565b6119a2838383612112565b60006119bc610e1483600654611eb790919063ffffffff16565b6001600160a01b038516600090815260086020526040812054919250906119e39083611eff565b6001600160a01b0380871660009081526008602052604080822084905591871681529081205491925090611a1790846122b6565b6001600160a01b0380871660009081526008602052604090819020839055519192508716907ff694bebd33ada288ae2f4485315db76739e2d5501daf315e71c9d8f841aa777390611a6b9085815260200190565b60405180910390a2846001600160a01b03167ff694bebd33ada288ae2f4485315db76739e2d5501daf315e71c9d8f841aa777382604051611aae91815260200190565b60405180910390a2505050505050565b600d5460ff1615610aa05760405162461bcd60e51b815260206004820152601060248201526f14185d5cd8589b194e881c185d5cd95960821b604482015260640161080f565b611b0e82826122c2565b6000611b4a611b2b610e1484600654611eb790919063ffffffff16565b6001600160a01b03851660009081526008602052604090205490611eff565b6001600160a01b0384166000818152600860205260409081902083905551919250907ff694bebd33ada288ae2f4485315db76739e2d5501daf315e71c9d8f841aa777390611b9b9084815260200190565b60405180910390a2505050565b60405163a9059cbb60e01b81526001600160a01b038381166004830152602482018390526000917f00000000000000000000000000000000000000000000000000000000000000009091169063a9059cbb906044016020604051808303816000875af1158015611c1c573d6000803e3d6000fd5b505050506040513d601f19601f82011682018060405250810190611c409190612a98565b9392505050565b7f00000000000000000000000000000000000000000000000000000000000000006001600160a01b03167f00000000000000000000000000000000000000000000000000000000000000006001600160a01b03167f2047d1633ff7768462ae07d28cb16e484203bfd6d85ce832494270ebcd9081a27f00000000000000000000000000000000000000000000000000000000000000006001600160a01b031663ad7a672f6040518163ffffffff1660e01b8152600401602060405180830381865afa158015611d1a573d6000803e3d6000fd5b505050506040513d601f19601f82011682018060405250810190611d3e9190612aba565b60405190815260200160405180910390a3565b6000611c408284612ad3565b600c8054600b5491829055600091611d7590826122b6565b91505090565b600080821215611db75760405162461bcd60e51b8152602060048201526007602482015266534d493a4e454760c81b604482015260640161080f565b5090565b6000611dc660025490565b11611e055760405162461bcd60e51b815260206004820152600f60248201526e4644543a5a45524f5f535550504c5960881b604482015260640161080f565b80600003611e105750565b611e41611e1c60025490565b611e2e83670de0b6b3a7640000611eb7565b611e389190612a4a565b600654906123f4565b60065560405181815233907f26536799ace2c3dbe12e638ec3ade6b4173dcf1289be0a58d51a5003015649bd9060200160405180910390a27f1f8d7705f31c3337a080803a8ad7e71946fb88d84738879be2bf402f97156e96600654604051611eac91815260200190565b60405180910390a150565b6000611c408284612a2b565b806000811215610ca15760405162461bcd60e51b815260206004820152600760248201526629a6aa9d27a7a160c91b604482015260640161080f565b6000611c408284612ae6565b600d80546001600160a01b03838116610100818102610100600160a81b031985161790945560405193909204169182907f8be0079c531659141344cd1fd0a4f28419497f9722a3daafe3b4186f6b6457e090600090a35050565b6001600160a01b0381166000908152602085905260408120549080611f8a8587612a6c565b11611f955781611fc6565b611fc6611fbf611fa58688612a6c565b611fb987611fb34288611d51565b90611eb7565b90612400565b83906123f4565b6001600160a01b03841660008181526020898152604091829020849055905183815292935090917ff9b842c70d79466435b46540bb988aa5c998b3243bf91c36380ddb5887c0f0e49101611aae565b604080516001600160a01b0385811660248301528416604482015260648082018490528251808303909101815260849091019091526020810180516001600160e01b03166323b872dd60e01b17905261199190859061240c565b61207982826124e1565b60075461208690826123f4565b6007556001600160a01b0382166000908152600a60205260409020546120ac90826123f4565b6001600160a01b0383166000908152600a6020526040812091909155600654611b4a906120dd90610e149085611eb7565b6001600160a01b038516600090815260086020526040902054906122b6565b600081831061210b5781611c40565b5090919050565b6001600160a01b0383166121765760405162461bcd60e51b815260206004820152602560248201527f45524332303a207472616e736665722066726f6d20746865207a65726f206164604482015264647265737360d81b606482015260840161080f565b6001600160a01b0382166121d85760405162461bcd60e51b815260206004820152602360248201527f45524332303a207472616e7366657220746f20746865207a65726f206164647260448201526265737360e81b606482015260840161080f565b6001600160a01b038316600090815260208190526040902054818110156122505760405162461bcd60e51b815260206004820152602660248201527f45524332303a207472616e7366657220616d6f756e7420657863656564732062604482015265616c616e636560d01b606482015260840161080f565b6001600160a01b03848116600081815260208181526040808320878703905593871680835291849020805487019055925185815290927fddf252ad1be2c89b69c2b068fc378daa952ba7f163c4a11628f55a4df523b3ef910160405180910390a3611991565b6000611c408284612b0e565b6001600160a01b0382166123225760405162461bcd60e51b815260206004820152602160248201527f45524332303a206275726e2066726f6d20746865207a65726f206164647265736044820152607360f81b606482015260840161080f565b6001600160a01b038216600090815260208190526040902054818110156123965760405162461bcd60e51b815260206004820152602260248201527f45524332303a206275726e20616d6f756e7420657863656564732062616c616e604482015261636560f01b606482015260840161080f565b6001600160a01b0383166000818152602081815260408083208686039055600280548790039055518581529192917fddf252ad1be2c89b69c2b068fc378daa952ba7f163c4a11628f55a4df523b3ef910160405180910390a3505050565b6000611c408284612a6c565b6000611c408284612a4a565b6000612461826040518060400160405280602081526020017f5361666545524332303a206c6f772d6c6576656c2063616c6c206661696c6564815250856001600160a01b03166125a09092919063ffffffff16565b90508051600014806124825750808060200190518101906124829190612a98565b6109235760405162461bcd60e51b815260206004820152602a60248201527f5361666545524332303a204552433230206f7065726174696f6e20646964206e6044820152691bdd081cdd58d8d9595960b21b606482015260840161080f565b6001600160a01b0382166125375760405162461bcd60e51b815260206004820152601f60248201527f45524332303a206d696e7420746f20746865207a65726f206164647265737300604482015260640161080f565b80600260008282546125499190612a6c565b90915550506001600160a01b038216600081815260208181526040808320805486019055518481527fddf252ad1be2c89b69c2b068fc378daa952ba7f163c4a11628f55a4df523b3ef910160405180910390a35050565b60606125af84846000856125b7565b949350505050565b6060824710156126185760405162461bcd60e51b815260206004820152602660248201527f416464726573733a20696e73756666696369656e742062616c616e636520666f6044820152651c8818d85b1b60d21b606482015260840161080f565b600080866001600160a01b031685876040516126349190612b35565b60006040518083038185875af1925050503d8060008114612671576040519150601f19603f3d011682016040523d82523d6000602084013e612676565b606091505b509150915061268787838387612692565b979650505050505050565b606083156127015782516000036126fa576001600160a01b0385163b6126fa5760405162461bcd60e51b815260206004820152601d60248201527f416464726573733a2063616c6c20746f206e6f6e2d636f6e7472616374000000604482015260640161080f565b50816125af565b6125af83838151156127165781518083602001fd5b8060405162461bcd60e51b815260040161080f9190612786565b80356001600160a01b0381168114610ca157600080fd5b60006020828403121561275957600080fd5b611c4082612730565b60005b8381101561277d578181015183820152602001612765565b50506000910152565b60208152600082518060208401526127a5816040850160208701612762565b601f01601f19169190910160400192915050565b600080604083850312156127cc57600080fd5b6127d583612730565b946020939093013593505050565b6000806000604084860312156127f857600080fd5b83359250602084013567ffffffffffffffff8082111561281757600080fd5b818601915086601f83011261282b57600080fd5b81358181111561283a57600080fd5b8760208260051b850101111561284f57600080fd5b6020830194508093505050509250925092565b60008060006060848603121561287757600080fd5b61288084612730565b925061288e60208501612730565b9150604084013590509250925092565b6000602082840312156128b057600080fd5b5035919050565b634e487b7160e01b600052604160045260246000fd5b600060208083850312156128e057600080fd5b823567ffffffffffffffff808211156128f857600080fd5b818501915085601f83011261290c57600080fd5b81358181111561291e5761291e6128b7565b8060051b604051601f19603f83011681018181108582111715612943576129436128b7565b60405291825284820192508381018501918883111561296157600080fd5b938501935b828510156129865761297785612730565b84529385019392850192612966565b98975050505050505050565b600080604083850312156129a557600080fd5b6129ae83612730565b91506129bc60208401612730565b90509250929050565b600181811c908216806129d957607f821691505b6020821081036129f957634e487b7160e01b600052602260045260246000fd5b50919050565b634e487b7160e01b600052603260045260246000fd5b634e487b7160e01b600052601160045260246000fd5b6000816000190483118215151615612a4557612a45612a15565b500290565b600082612a6757634e487b7160e01b600052601260045260246000fd5b500490565b808201808211156107be576107be612a15565b600060018201612a9157612a91612a15565b5060010190565b600060208284031215612aaa57600080fd5b81518015158114611c4057600080fd5b600060208284031215612acc57600080fd5b5051919050565b818103818111156107be576107be612a15565b8082018281126000831280158216821582161715612b0657612b06612a15565b505092915050565b8181036000831280158383131683831282161715612b2e57612b2e612a15565b5092915050565b60008251612b47818460208701612762565b919091019291505056fea2646970667358221220db0a6825944178d0b531421475525ff6a79b1a4f6ee9d4814ca26f0ba75d540064736f6c63430008100033",
    "linkReferences": {}
  },
  "methodIdentifiers": {
    "accumulativeFundsOf(address)": "4e97415f",
    "addPool(address)": "d914cd4b",
    "addPools(address[])": "b36a4ab1",
    "allowance(address,address)": "dd62ed3e",
    "approve(address,uint256)": "095ea7b3",
    "balanceOf(address)": "70a08231",
    "borrower()": "7df1f1b9",
    "claimReward()": "b88a802f",
    "concludePendingReward(address)": "9264fd53",
    "concludePendingWithdrawal(address)": "1e0a5967",
    "decimals()": "313ce567",
    "decreaseAllowance(address,uint256)": "a457c2d7",
    "deposit(uint256)": "b6b55f25",
    "depositDate(address)": "24b92e8e",
    "distributeRewards(uint256,address[])": "1aa59542",
    "increaseAllowance(address,uint256)": "39509351",
    "interestBalance()": "9f3c7325",
    "interestSum()": "71073bac",
    "liquidityAsset()": "209b2bca",
    "liquidityLocker()": "9759164a",
    "name()": "06fdde03",
    "owner()": "8da5cb5b",
    "paused()": "5c975abb",
    "pendingRewards(address)": "31d7a262",
    "pendingWithdrawals(address)": "f3f43703",
    "poolInfo()": "5a2f3d09",
    "pools(address)": "a4063dbc",
    "principalOut()": "ac641655",
    "removePool(address)": "3b7d0946",
    "renounceOwnership()": "715018a6",
    "requestLiquidityAssets(uint256)": "f48ccb04",
    "rewards(address)": "0700037d",
    "superFactory()": "0d49b38c",
    "symbol()": "95d89b41",
    "totalDeposited()": "ff50abdc",
    "totalLA()": "42103e8e",
    "totalMintedFor(address)": "fe84967e",
    "totalSupply()": "18160ddd",
    "totalSupplyLA()": "7dfabf49",
    "transfer(address,uint256)": "a9059cbb",
    "transferFrom(address,address,uint256)": "23b872dd",
    "transferOwnership(address)": "f2fde38b",
    "updateFundsReceived()": "46c162de",
    "withdraw(uint256)": "2e1a7d4d",
    "withdrawFunds()": "24600fc3",
    "withdrawFundsAmount(uint256)": "d16987f9",
    "withdrawableFundsOf(address)": "443bb293",
    "withdrawableOf(address)": "fa8c00d4",
    "withdrawnFundsOf(address)": "0041c52c"
  },
  "id": 10
}