{
  "abi": [
    {
      "inputs": [
        {
          "internalType": "address",
          "name": "_liquidityAsset",
          "type": "address"
        },
        {
          "internalType": "address",
          "name": "_llFactory",
          "type": "address"
        },
        {
          "internalType": "uint256",
          "name": "_lockupPeriod",
          "type": "uint256"
        },
        {
          "internalType": "uint256",
          "name": "_apy",
          "type": "uint256"
        },
        {
          "internalType": "uint256",
          "name": "_duration",
          "type": "uint256"
        },
        {
          "internalType": "uint256",
          "name": "_minInvestmentAmount",
          "type": "uint256"
        },
        {
          "internalType": "uint256",
          "name": "_withdrawThreshold",
          "type": "uint256"
        },
        {
          "internalType": "uint256",
          "name": "_withdrawPeriod",
          "type": "uint256"
        }
      ],
      "stateMutability": "nonpayable",
      "type": "constructor"
    },
    {
      "inputs": [
        {
          "internalType": "address",
          "name": "target",
          "type": "address"
        }
      ],
      "name": "AddressEmptyCode",
      "type": "error"
    },
    {
      "inputs": [
        {
          "internalType": "address",
          "name": "account",
          "type": "address"
        }
      ],
      "name": "AddressInsufficientBalance",
      "type": "error"
    },
    {
      "inputs": [
        {
          "internalType": "address",
          "name": "spender",
          "type": "address"
        },
        {
          "internalType": "uint256",
          "name": "allowance",
          "type": "uint256"
        },
        {
          "internalType": "uint256",
          "name": "needed",
          "type": "uint256"
        }
      ],
      "name": "ERC20InsufficientAllowance",
      "type": "error"
    },
    {
      "inputs": [
        {
          "internalType": "address",
          "name": "sender",
          "type": "address"
        },
        {
          "internalType": "uint256",
          "name": "balance",
          "type": "uint256"
        },
        {
          "internalType": "uint256",
          "name": "needed",
          "type": "uint256"
        }
      ],
      "name": "ERC20InsufficientBalance",
      "type": "error"
    },
    {
      "inputs": [
        {
          "internalType": "address",
          "name": "approver",
          "type": "address"
        }
      ],
      "name": "ERC20InvalidApprover",
      "type": "error"
    },
    {
      "inputs": [
        {
          "internalType": "address",
          "name": "receiver",
          "type": "address"
        }
      ],
      "name": "ERC20InvalidReceiver",
      "type": "error"
    },
    {
      "inputs": [
        {
          "internalType": "address",
          "name": "sender",
          "type": "address"
        }
      ],
      "name": "ERC20InvalidSender",
      "type": "error"
    },
    {
      "inputs": [
        {
          "internalType": "address",
          "name": "spender",
          "type": "address"
        }
      ],
      "name": "ERC20InvalidSpender",
      "type": "error"
    },
    {
      "inputs": [],
      "name": "EnforcedPause",
      "type": "error"
    },
    {
      "inputs": [],
      "name": "ExpectedPause",
      "type": "error"
    },
    {
      "inputs": [],
      "name": "FailedInnerCall",
      "type": "error"
    },
    {
      "inputs": [],
      "name": "ReentrancyGuardReentrantCall",
      "type": "error"
    },
    {
      "inputs": [
        {
          "internalType": "address",
          "name": "token",
          "type": "address"
        }
      ],
      "name": "SafeERC20FailedOperation",
      "type": "error"
    },
    {
      "anonymous": false,
      "inputs": [
        {
          "indexed": true,
          "internalType": "address",
          "name": "owner",
          "type": "address"
        },
        {
          "indexed": true,
          "internalType": "address",
          "name": "spender",
          "type": "address"
        },
        {
          "indexed": false,
          "internalType": "uint256",
          "name": "value",
          "type": "uint256"
        }
      ],
      "name": "Approval",
      "type": "event"
    },
    {
      "anonymous": false,
      "inputs": [
        {
          "indexed": true,
          "internalType": "address",
          "name": "liquidityProvider",
          "type": "address"
        },
        {
          "indexed": true,
          "internalType": "address",
          "name": "token",
          "type": "address"
        },
        {
          "indexed": false,
          "internalType": "uint256",
          "name": "balance",
          "type": "uint256"
        }
      ],
      "name": "BalanceUpdated",
      "type": "event"
    },
    {
      "anonymous": false,
      "inputs": [
        {
          "indexed": true,
          "internalType": "address",
          "name": "investor",
          "type": "address"
        },
        {
          "indexed": true,
          "internalType": "uint256",
          "name": "amount",
          "type": "uint256"
        }
      ],
      "name": "Deposit",
      "type": "event"
    },
    {
      "anonymous": false,
      "inputs": [
        {
          "indexed": false,
          "internalType": "address",
          "name": "account",
          "type": "address"
        }
      ],
      "name": "Paused",
      "type": "event"
    },
    {
      "anonymous": false,
      "inputs": [
        {
          "indexed": true,
          "internalType": "address",
          "name": "recipient",
          "type": "address"
        },
        {
          "indexed": true,
          "internalType": "uint256",
          "name": "amount",
          "type": "uint256"
        }
      ],
      "name": "PendingReward",
      "type": "event"
    },
    {
      "anonymous": false,
      "inputs": [
        {
          "indexed": true,
          "internalType": "address",
          "name": "recipient",
          "type": "address"
        },
        {
          "indexed": true,
          "internalType": "uint256",
          "name": "amount",
          "type": "uint256"
        }
      ],
      "name": "PendingRewardConcluded",
      "type": "event"
    },
    {
      "anonymous": false,
      "inputs": [
        {
          "indexed": true,
          "internalType": "address",
          "name": "investor",
          "type": "address"
        },
        {
          "indexed": true,
          "internalType": "uint256",
          "name": "amount",
          "type": "uint256"
        }
      ],
      "name": "PendingWithdrawal",
      "type": "event"
    },
    {
      "anonymous": false,
      "inputs": [
        {
          "indexed": true,
          "internalType": "address",
          "name": "investor",
          "type": "address"
        },
        {
          "indexed": true,
          "internalType": "uint256",
          "name": "amount",
          "type": "uint256"
        }
      ],
      "name": "PendingWithdrawalConcluded",
      "type": "event"
    },
    {
      "anonymous": false,
      "inputs": [
        {
          "indexed": true,
          "internalType": "address",
          "name": "regPool",
          "type": "address"
        },
        {
          "indexed": false,
          "internalType": "uint256",
          "name": "amount",
          "type": "uint256"
        }
      ],
      "name": "RegPoolDeposit",
      "type": "event"
    },
    {
      "anonymous": false,
      "inputs": [
        {
          "indexed": true,
          "internalType": "address",
          "name": "investor",
          "type": "address"
        },
        {
          "indexed": true,
          "internalType": "uint256",
          "name": "amount",
          "type": "uint256"
        }
      ],
      "name": "Reinvest",
      "type": "event"
    },
    {
      "anonymous": false,
      "inputs": [
        {
          "indexed": true,
          "internalType": "address",
          "name": "recipient",
          "type": "address"
        },
        {
          "indexed": true,
          "internalType": "uint256",
          "name": "amount",
          "type": "uint256"
        }
      ],
      "name": "RewardClaimed",
      "type": "event"
    },
    {
      "anonymous": false,
      "inputs": [
        {
          "indexed": true,
          "internalType": "address",
          "name": "from",
          "type": "address"
        },
        {
          "indexed": true,
          "internalType": "address",
          "name": "to",
          "type": "address"
        },
        {
          "indexed": false,
          "internalType": "uint256",
          "name": "value",
          "type": "uint256"
        }
      ],
      "name": "Transfer",
      "type": "event"
    },
    {
      "anonymous": false,
      "inputs": [
        {
          "indexed": false,
          "internalType": "address",
          "name": "account",
          "type": "address"
        }
      ],
      "name": "Unpaused",
      "type": "event"
    },
    {
      "anonymous": false,
      "inputs": [
        {
          "indexed": true,
          "internalType": "address",
          "name": "investor",
          "type": "address"
        },
        {
          "indexed": true,
          "internalType": "uint256",
          "name": "amount",
          "type": "uint256"
        }
      ],
      "name": "Withdrawal",
      "type": "event"
    },
    {
      "anonymous": false,
      "inputs": [
        {
          "indexed": true,
          "internalType": "address",
          "name": "caller",
          "type": "address"
        },
        {
          "indexed": true,
          "internalType": "uint256",
          "name": "amount",
          "type": "uint256"
        }
      ],
      "name": "WithdrawalOverThreshold",
      "type": "event"
    },
    {
      "inputs": [],
      "name": "NAME",
      "outputs": [
        {
          "internalType": "string",
          "name": "",
          "type": "string"
        }
      ],
      "stateMutability": "view",
      "type": "function"
    },
    {
      "inputs": [],
      "name": "SYMBOL",
      "outputs": [
        {
          "internalType": "string",
          "name": "",
          "type": "string"
        }
      ],
      "stateMutability": "view",
      "type": "function"
    },
    {
      "inputs": [
        {
          "internalType": "address",
          "name": "_pool",
          "type": "address"
        }
      ],
      "name": "addPool",
      "outputs": [],
      "stateMutability": "nonpayable",
      "type": "function"
    },
    {
      "inputs": [
        {
          "internalType": "address[]",
          "name": "_pools",
          "type": "address[]"
        }
      ],
      "name": "addPools",
      "outputs": [],
      "stateMutability": "nonpayable",
      "type": "function"
    },
    {
      "inputs": [
        {
          "internalType": "uint256",
          "name": "_amount",
          "type": "uint256"
        }
      ],
      "name": "adminDeposit",
      "outputs": [],
      "stateMutability": "nonpayable",
      "type": "function"
    },
    {
      "inputs": [
        {
          "internalType": "address",
          "name": "owner",
          "type": "address"
        },
        {
          "internalType": "address",
          "name": "spender",
          "type": "address"
        }
      ],
      "name": "allowance",
      "outputs": [
        {
          "internalType": "uint256",
          "name": "",
          "type": "uint256"
        }
      ],
      "stateMutability": "view",
      "type": "function"
    },
    {
      "inputs": [
        {
          "internalType": "address",
          "name": "spender",
          "type": "address"
        },
        {
          "internalType": "uint256",
          "name": "value",
          "type": "uint256"
        }
      ],
      "name": "approve",
      "outputs": [
        {
          "internalType": "bool",
          "name": "",
          "type": "bool"
        }
      ],
      "stateMutability": "nonpayable",
      "type": "function"
    },
    {
      "inputs": [
        {
          "internalType": "address",
          "name": "_user",
          "type": "address"
        },
        {
          "internalType": "uint256",
          "name": "_index",
          "type": "uint256"
        }
      ],
      "name": "availableToWithdraw",
      "outputs": [
        {
          "internalType": "uint256",
          "name": "",
          "type": "uint256"
        }
      ],
      "stateMutability": "view",
      "type": "function"
    },
    {
      "inputs": [
        {
          "internalType": "address",
          "name": "account",
          "type": "address"
        }
      ],
      "name": "balanceOf",
      "outputs": [
        {
          "internalType": "uint256",
          "name": "",
          "type": "uint256"
        }
      ],
      "stateMutability": "view",
      "type": "function"
    },
    {
      "inputs": [],
      "name": "borrower",
      "outputs": [
        {
          "internalType": "address",
          "name": "",
          "type": "address"
        }
      ],
      "stateMutability": "view",
      "type": "function"
    },
    {
      "inputs": [],
      "name": "claimReward",
      "outputs": [
        {
          "internalType": "bool",
          "name": "",
          "type": "bool"
        }
      ],
      "stateMutability": "nonpayable",
      "type": "function"
    },
    {
      "inputs": [
        {
          "internalType": "address",
          "name": "_recipient",
          "type": "address"
        }
      ],
      "name": "concludePendingReward",
      "outputs": [],
      "stateMutability": "nonpayable",
      "type": "function"
    },
    {
      "inputs": [
        {
          "internalType": "address",
          "name": "_recipient",
          "type": "address"
        }
      ],
      "name": "concludePendingWithdrawal",
      "outputs": [],
      "stateMutability": "nonpayable",
      "type": "function"
    },
    {
      "inputs": [],
      "name": "decimals",
      "outputs": [
        {
          "internalType": "uint8",
          "name": "",
          "type": "uint8"
        }
      ],
      "stateMutability": "view",
      "type": "function"
    },
    {
      "inputs": [
        {
          "internalType": "address",
          "name": "_liquidityAsset",
          "type": "address"
        }
      ],
      "name": "deleteSecondaryLiquidityAsset",
      "outputs": [],
      "stateMutability": "nonpayable",
      "type": "function"
    },
    {
      "inputs": [
        {
          "internalType": "uint256",
          "name": "_amount",
          "type": "uint256"
        }
      ],
      "name": "deposit",
      "outputs": [],
      "stateMutability": "nonpayable",
      "type": "function"
    },
    {
      "inputs": [
        {
          "internalType": "address",
          "name": "",
          "type": "address"
        }
      ],
      "name": "depositDate",
      "outputs": [
        {
          "internalType": "uint256",
          "name": "",
          "type": "uint256"
        }
      ],
      "stateMutability": "view",
      "type": "function"
    },
    {
      "inputs": [
        {
          "internalType": "uint256",
          "name": "_amount",
          "type": "uint256"
        },
        {
          "internalType": "address",
          "name": "_assetAddr",
          "type": "address"
        }
      ],
      "name": "depositSecondaryAsset",
      "outputs": [],
      "stateMutability": "nonpayable",
      "type": "function"
    },
    {
      "inputs": [
        {
          "internalType": "uint256",
          "name": "_amount",
          "type": "uint256"
        },
        {
          "internalType": "address[]",
          "name": "_holders",
          "type": "address[]"
        }
      ],
      "name": "distributeRewards",
      "outputs": [],
      "stateMutability": "nonpayable",
      "type": "function"
    },
    {
      "inputs": [
        {
          "internalType": "address",
          "name": "_to",
          "type": "address"
        },
        {
          "internalType": "uint256",
          "name": "_amount",
          "type": "uint256"
        }
      ],
      "name": "drawdown",
      "outputs": [],
      "stateMutability": "nonpayable",
      "type": "function"
    },
    {
      "inputs": [],
      "name": "getLL",
      "outputs": [
        {
          "internalType": "address",
          "name": "",
          "type": "address"
        }
      ],
      "stateMutability": "view",
      "type": "function"
    },
    {
      "inputs": [],
      "name": "liquidityAsset",
      "outputs": [
        {
          "internalType": "contract IERC20",
          "name": "",
          "type": "address"
        }
      ],
      "stateMutability": "view",
      "type": "function"
    },
    {
      "inputs": [],
      "name": "liquidityLocker",
      "outputs": [
        {
          "internalType": "contract ILiquidityLocker",
          "name": "",
          "type": "address"
        }
      ],
      "stateMutability": "view",
      "type": "function"
    },
    {
      "inputs": [],
      "name": "name",
      "outputs": [
        {
          "internalType": "string",
          "name": "",
          "type": "string"
        }
      ],
      "stateMutability": "view",
      "type": "function"
    },
    {
      "inputs": [],
      "name": "paused",
      "outputs": [
        {
          "internalType": "bool",
          "name": "",
          "type": "bool"
        }
      ],
      "stateMutability": "view",
      "type": "function"
    },
    {
      "inputs": [
        {
          "internalType": "address",
          "name": "",
          "type": "address"
        }
      ],
      "name": "pendingRewards",
      "outputs": [
        {
          "internalType": "uint256",
          "name": "",
          "type": "uint256"
        }
      ],
      "stateMutability": "view",
      "type": "function"
    },
    {
      "inputs": [
        {
          "internalType": "address",
          "name": "",
          "type": "address"
        }
      ],
      "name": "pendingWithdrawals",
      "outputs": [
        {
          "internalType": "uint256",
          "name": "",
          "type": "uint256"
        }
      ],
      "stateMutability": "view",
      "type": "function"
    },
    {
      "inputs": [],
      "name": "poolInfo",
      "outputs": [
        {
          "internalType": "uint256",
          "name": "lockupPeriod",
          "type": "uint256"
        },
        {
          "internalType": "uint256",
          "name": "apy",
          "type": "uint256"
        },
        {
          "internalType": "uint256",
          "name": "duration",
          "type": "uint256"
        },
        {
          "internalType": "uint256",
          "name": "investmentPoolSize",
          "type": "uint256"
        },
        {
          "internalType": "uint256",
          "name": "minInvestmentAmount",
          "type": "uint256"
        },
        {
          "internalType": "uint256",
          "name": "withdrawThreshold",
          "type": "uint256"
        }
      ],
      "stateMutability": "view",
      "type": "function"
    },
    {
      "inputs": [
        {
          "internalType": "address",
          "name": "",
          "type": "address"
        }
      ],
      "name": "pools",
      "outputs": [
        {
          "internalType": "bool",
          "name": "",
          "type": "bool"
        }
      ],
      "stateMutability": "view",
      "type": "function"
    },
    {
      "inputs": [],
      "name": "principalOut",
      "outputs": [
        {
          "internalType": "uint256",
          "name": "",
          "type": "uint256"
        }
      ],
      "stateMutability": "view",
      "type": "function"
    },
    {
      "inputs": [
        {
          "internalType": "uint256",
          "name": "_amount",
          "type": "uint256"
        }
      ],
      "name": "reinvest",
      "outputs": [],
      "stateMutability": "nonpayable",
      "type": "function"
    },
    {
      "inputs": [
        {
          "internalType": "address",
          "name": "_pool",
          "type": "address"
        }
      ],
      "name": "removePool",
      "outputs": [],
      "stateMutability": "nonpayable",
      "type": "function"
    },
    {
      "inputs": [
        {
          "internalType": "uint256",
          "name": "_amountMissing",
          "type": "uint256"
        }
      ],
      "name": "requestLiquidityAssets",
      "outputs": [],
      "stateMutability": "nonpayable",
      "type": "function"
    },
    {
      "inputs": [
        {
          "internalType": "address",
          "name": "",
          "type": "address"
        }
      ],
      "name": "rewards",
      "outputs": [
        {
          "internalType": "uint256",
          "name": "",
          "type": "uint256"
        }
      ],
      "stateMutability": "view",
      "type": "function"
    },
    {
      "inputs": [
        {
          "internalType": "address",
          "name": "_liquidityAsset",
          "type": "address"
        }
      ],
      "name": "setSecondaryLiquidityAsset",
      "outputs": [],
      "stateMutability": "nonpayable",
      "type": "function"
    },
    {
      "inputs": [
        {
          "internalType": "address[]",
          "name": "_liquidityAssets",
          "type": "address[]"
        }
      ],
      "name": "setSecondaryLiquidityAssets",
      "outputs": [],
      "stateMutability": "nonpayable",
      "type": "function"
    },
    {
      "inputs": [],
      "name": "superFactory",
      "outputs": [
        {
          "internalType": "address",
          "name": "",
          "type": "address"
        }
      ],
      "stateMutability": "view",
      "type": "function"
    },
    {
      "inputs": [],
      "name": "symbol",
      "outputs": [
        {
          "internalType": "string",
          "name": "",
          "type": "string"
        }
      ],
      "stateMutability": "view",
      "type": "function"
    },
    {
      "inputs": [],
      "name": "totalDeposited",
      "outputs": [
        {
          "internalType": "uint256",
          "name": "",
          "type": "uint256"
        }
      ],
      "stateMutability": "view",
      "type": "function"
    },
    {
      "inputs": [],
      "name": "totalLA",
      "outputs": [
        {
          "internalType": "uint256",
          "name": "",
          "type": "uint256"
        }
      ],
      "stateMutability": "view",
      "type": "function"
    },
    {
      "inputs": [],
      "name": "totalSupply",
      "outputs": [
        {
          "internalType": "uint256",
          "name": "",
          "type": "uint256"
        }
      ],
      "stateMutability": "view",
      "type": "function"
    },
    {
      "inputs": [],
      "name": "totalSupplyLA",
      "outputs": [
        {
          "internalType": "uint256",
          "name": "",
          "type": "uint256"
        }
      ],
      "stateMutability": "view",
      "type": "function"
    },
    {
      "inputs": [
        {
          "internalType": "address",
          "name": "to",
          "type": "address"
        },
        {
          "internalType": "uint256",
          "name": "value",
          "type": "uint256"
        }
      ],
      "name": "transfer",
      "outputs": [
        {
          "internalType": "bool",
          "name": "",
          "type": "bool"
        }
      ],
      "stateMutability": "nonpayable",
      "type": "function"
    },
    {
      "inputs": [
        {
          "internalType": "address",
          "name": "from",
          "type": "address"
        },
        {
          "internalType": "address",
          "name": "to",
          "type": "address"
        },
        {
          "internalType": "uint256",
          "name": "value",
          "type": "uint256"
        }
      ],
      "name": "transferFrom",
      "outputs": [
        {
          "internalType": "bool",
          "name": "",
          "type": "bool"
        }
      ],
      "stateMutability": "nonpayable",
      "type": "function"
    },
    {
      "inputs": [
        {
          "internalType": "address",
          "name": "",
          "type": "address"
        },
        {
          "internalType": "uint256",
          "name": "",
          "type": "uint256"
        }
      ],
      "name": "userDeposits",
      "outputs": [
        {
          "internalType": "contract IERC20",
          "name": "token",
          "type": "address"
        },
        {
          "internalType": "uint256",
          "name": "amount",
          "type": "uint256"
        },
        {
          "internalType": "uint256",
          "name": "unlockTime",
          "type": "uint256"
        }
      ],
      "stateMutability": "view",
      "type": "function"
    },
    {
      "inputs": [
        {
          "internalType": "uint256[]",
          "name": "_amounts",
          "type": "uint256[]"
        },
        {
          "internalType": "uint16[]",
          "name": "_indices",
          "type": "uint16[]"
        }
      ],
      "name": "withdraw",
      "outputs": [],
      "stateMutability": "nonpayable",
      "type": "function"
    },
    {
      "inputs": [],
      "name": "withdrawLimit",
      "outputs": [
        {
          "internalType": "uint256",
          "name": "",
          "type": "uint256"
        }
      ],
      "stateMutability": "view",
      "type": "function"
    },
    {
      "inputs": [],
      "name": "withdrawPeriod",
      "outputs": [
        {
          "internalType": "uint256",
          "name": "",
          "type": "uint256"
        }
      ],
      "stateMutability": "view",
      "type": "function"
    },
    {
      "inputs": [
        {
          "internalType": "address",
          "name": "_holder",
          "type": "address"
        }
      ],
      "name": "withdrawableOf",
      "outputs": [
        {
          "internalType": "uint256",
          "name": "",
          "type": "uint256"
        }
      ],
      "stateMutability": "view",
      "type": "function"
    }
  ],
  "bytecode": {
    "object": "0x6101006040523480156200001257600080fd5b5060405162003bab38038062003bab8339810160408190526200003591620004d2565b87876040518060400160405280600f81526020016e12195b1a5bdcc81512d388141bdbdb608a1b815250604051806040016040528060058152602001640484c532d560dc1b815250858583838160039081620000929190620005ed565b506004620000a18282620005ed565b50506001600555506006805460ff191690556001600160a01b03861660a08190526040805163313ce56760e01b8152905163313ce567916004808201926020929091908290030181865afa158015620000fe573d6000803e3d6000fd5b505050506040513d601f19601f82011682018060405250810190620001249190620006b9565b60ff1660c052604051630cf5bc1d60e11b81526001600160a01b0387811660048301528616906319eb783a906024016020604051808303816000875af115801562000173573d6000803e3d6000fd5b505050506040513d601f19601f82011682018060405250810190620001999190620006e5565b6001600160a01b03908116608052600e92909255600f553360e0528c16935062000202925050505760405162461bcd60e51b815260206004820152601160248201527010940e96915493d7d3125457d054d4d155607a1b60448201526064015b60405180910390fd5b6001600160a01b0387166200025a5760405162461bcd60e51b815260206004820152601a60248201527f42503a5a45524f5f4c49515f4c4f434b45525f464143544f52590000000000006044820152606401620001f9565b60e05162000268906200044c565b60405163434a88c560e11b81526001600160a01b038a811660048301529190911690638695118a90602401602060405180830381865afa158015620002b1573d6000803e3d6000fd5b505050506040513d601f19601f82011682018060405250810190620002d7919062000705565b620003255760405162461bcd60e51b815260206004820152601460248201527f42503a494e56414c49445f4c49515f41535345540000000000000000000000006044820152606401620001f9565b60e05162000333906200044c565b60405162041a9d60e51b81526001600160a01b0389811660048301529190911690628353a090602401602060405180830381865afa1580156200037a573d6000803e3d6000fd5b505050506040513d601f19601f82011682018060405250810190620003a0919062000705565b620003ee5760405162461bcd60e51b815260206004820152601560248201527f42503a494e56414c49445f4c4c5f464143544f525900000000000000000000006044820152606401620001f9565b506040805160c08101825286815260208101869052908101849052600019606082018190526080820184905260a090910182905260109590955560119390935560129190915560139290925560149190915560155550620007299050565b6000816001600160a01b031663c31245256040518163ffffffff1660e01b8152600401602060405180830381865afa1580156200048d573d6000803e3d6000fd5b505050506040513d601f19601f82011682018060405250810190620004b39190620006e5565b92915050565b6001600160a01b0381168114620004cf57600080fd5b50565b600080600080600080600080610100898b031215620004f057600080fd5b8851620004fd81620004b9565b60208a01519098506200051081620004b9565b60408a015160608b015160808c015160a08d015160c08e015160e0909e01519c9f949e50929c919b909a509198509650945092505050565b634e487b7160e01b600052604160045260246000fd5b600181811c908216806200057357607f821691505b6020821081036200059457634e487b7160e01b600052602260045260246000fd5b50919050565b601f821115620005e857600081815260208120601f850160051c81016020861015620005c35750805b601f850160051c820191505b81811015620005e457828155600101620005cf565b5050505b505050565b81516001600160401b0381111562000609576200060962000548565b62000621816200061a84546200055e565b846200059a565b602080601f831160018114620006595760008415620006405750858301515b600019600386901b1c1916600185901b178555620005e4565b600085815260208120601f198616915b828110156200068a5788860151825594840194600190910190840162000669565b5085821015620006a95787850151600019600388901b60f8161c191681555b5050505050600190811b01905550565b600060208284031215620006cc57600080fd5b815160ff81168114620006de57600080fd5b9392505050565b600060208284031215620006f857600080fd5b8151620006de81620004b9565b6000602082840312156200071857600080fd5b81518015158114620006de57600080fd5b60805160a05160c05160e05161337662000835600039600081816103810152818161084301528181610ab301528181610cc60152818161125601528181611509015281816115ec0152818161188d01528181611a9a0152611fe2015260006104660152600081816103f70152818161090d015281816109fd0152818161232e01526127b60152600081816105360152818161061501528181610a2001528181610daa015281816110ea01528181611325015281816113c9015281816116b5015281816116fb0152818161197101528181611c0d01528181611ccb01528181611f1c0152818161230201528181612745015281816127e00152818161282b01526129a301526133766000f3fe608060405234801561001057600080fd5b50600436106102bb5760003560e01c80637050886b11610182578063ac641655116100e9578063dd62ed3e116100a2578063f76f8d781161007c578063f76f8d7814610764578063f848d54114610788578063fa8c00d414610791578063ff50abdc146107a457600080fd5b8063dd62ed3e146106f8578063f3f4370314610731578063f48ccb041461075157600080fd5b8063ac6416551461069b578063b36a4ab1146106a4578063b6b55f25146106b7578063b88a802f146106ca578063c8954760146106d2578063d914cd4b146106e557600080fd5b80639264fd531161013b5780639264fd53146105f557806395d89b41146106085780639759164a14610610578063a3f4df7e14610637578063a4063dbc14610665578063a9059cbb1461068857600080fd5b80637050886b1461058057806370a082311461059357806374ee1ac4146105bc5780637df1f1b9146105cf5780637dfabf49146104c357806383b4918b146105e257600080fd5b806324b92e8e11610226578063486b3ed3116101df578063486b3ed3146104cb5780635a2f3d09146104de5780635c975abb14610529578063667316391461053457806366f294cf1461055a5780636acab9da1461056d57600080fd5b806324b92e8e1461042c578063289154831461044c578063313ce5671461045f57806331d7a262146104905780633b7d0946146104b057806342103e8e146104c357600080fd5b806312eb4f9a1161027857806312eb4f9a146103bb57806318160ddd146103c45780631aa59542146103cc5780631e0a5967146103df578063209b2bca146103f257806323b872dd1461041957600080fd5b806306fdde03146102c05780630700037d146102de578063086877941461030c57806308f4333314610321578063095ea7b3146103595780630d49b38c1461037c575b600080fd5b6102c86107ac565b6040516102d59190612dc6565b60405180910390f35b6102fe6102ec366004612e1e565b60096020526000908152604090205481565b6040519081526020016102d5565b61031f61031a366004612e3b565b61083e565b005b61033461032f366004612e54565b610a48565b604080516001600160a01b0390941684526020840192909252908201526060016102d5565b61036c610367366004612e54565b610a94565b60405190151581526020016102d5565b6103a37f000000000000000000000000000000000000000000000000000000000000000081565b6040516001600160a01b0390911681526020016102d5565b6102fe600f5481565b6002546102fe565b61031f6103da366004612ecc565b610aae565b61031f6103ed366004612e1e565b610cb9565b6103a37f000000000000000000000000000000000000000000000000000000000000000081565b61036c610427366004612f18565b610eb1565b6102fe61043a366004612e1e565b600c6020526000908152604090205481565b61031f61045a366004612f59565b610ed7565b60405160ff7f00000000000000000000000000000000000000000000000000000000000000001681526020016102d5565b6102fe61049e366004612e1e565b600b6020526000908152604090205481565b61031f6104be366004612e1e565b611251565b6102fe611321565b61031f6104d9366004612e1e565b6113aa565b6010546011546012546013546014546015546104fc95949392919086565b604080519687526020870195909552938501929092526060840152608083015260a082015260c0016102d5565b60065460ff1661036c565b7f00000000000000000000000000000000000000000000000000000000000000006103a3565b6102fe610568366004612e54565b611422565b61031f61057b366004612e54565b611504565b61031f61058e366004612e1e565b6115e7565b6102fe6105a1366004612e1e565b6001600160a01b031660009081526020819052604090205490565b61031f6105ca366004612fc5565b6116e4565b6016546103a3906001600160a01b031681565b61031f6105f0366004612e3b565b611768565b61031f610603366004612e1e565b611880565b6102c8611a78565b6103a37f000000000000000000000000000000000000000000000000000000000000000081565b6102c86040518060400160405280600f81526020016e12195b1a5bdcc81512d388141bdbdb608a1b81525081565b61036c610673366004612e1e565b60176020526000908152604090205460ff1681565b61036c610696366004612e54565b611a87565b6102fe60085481565b61031f6106b236600461301d565b611a95565b61031f6106c5366004612e3b565b611bb0565b61036c611ca4565b61031f6106e03660046130e2565b611e40565b61031f6106f3366004612e1e565b611fdd565b6102fe610706366004613112565b6001600160a01b03918216600090815260016020908152604080832093909416825291909152205490565b6102fe61073f366004612e1e565b600a6020526000908152604090205481565b61031f61075f366004612e3b565b6120b0565b6102c8604051806040016040528060058152602001640484c532d560dc1b81525081565b6102fe600e5481565b6102fe61079f366004612e1e565b612281565b6007546102fe565b6060600380546107bb90613140565b80601f01602080910402602001604051908101604052809291908181526020018280546107e790613140565b80156108345780601f1061080957610100808354040283529160200191610834565b820191906000526020600020905b81548152906001019060200180831161081757829003601f168201915b5050505050905090565b6108677f00000000000000000000000000000000000000000000000000000000000000006123b9565b604051630935e01b60e21b81523360048201526001600160a01b0391909116906324d7806c90602401602060405180830381865afa1580156108ad573d6000803e3d6000fd5b505050506040513d601f19601f820116820180604052508101906108d1919061317a565b6108f65760405162461bcd60e51b81526004016108ed9061319c565b60405180910390fd5b6040516370a0823160e01b815233600482015281907f00000000000000000000000000000000000000000000000000000000000000006001600160a01b0316906370a0823190602401602060405180830381865afa15801561095c573d6000803e3d6000fd5b505050506040513d601f19601f8201168201806040525081019061098091906131c2565b10156109c55760405162461bcd60e51b8152602060048201526014602482015273503a4e4f545f454e4f5547485f42414c414e434560601b60448201526064016108ed565b60085481106109d85760006008556109f0565b80600860008282546109ea91906131f1565b90915550505b610a456001600160a01b037f000000000000000000000000000000000000000000000000000000000000000016337f00000000000000000000000000000000000000000000000000000000000000008461241d565b50565b600d6020528160005260406000208181548110610a6457600080fd5b60009182526020909120600390910201805460018201546002909201546001600160a01b03909116935090915083565b600033610aa2818585612477565b60019150505b92915050565b610ad77f00000000000000000000000000000000000000000000000000000000000000006123b9565b604051630935e01b60e21b81523360048201526001600160a01b0391909116906324d7806c90602401602060405180830381865afa158015610b1d573d6000803e3d6000fd5b505050506040513d601f19601f82011682018060405250810190610b41919061317a565b610b5d5760405162461bcd60e51b81526004016108ed9061319c565b610b65612484565b60008311610ba85760405162461bcd60e51b815260206004820152601060248201526f42503a494e56414c49445f56414c554560801b60448201526064016108ed565b80610be75760405162461bcd60e51b815260206004820152600f60248201526e42503a5a45524f5f484f4c4445525360881b60448201526064016108ed565b60005b81811015610ca9576000838383818110610c0657610c06613204565b9050602002016020810190610c1b9190612e1e565b90506000610c3e826001600160a01b031660009081526020819052604090205490565b90506000610c4b60025490565b610c55838961321a565b610c5f9190613231565b6001600160a01b038416600090815260096020526040812080549293508392909190610c8c908490613253565b925050819055505050508080610ca190613266565b915050610bea565b50610cb46001600555565b505050565b610cc1612484565b610cea7f00000000000000000000000000000000000000000000000000000000000000006123b9565b604051630935e01b60e21b81523360048201526001600160a01b0391909116906324d7806c90602401602060405180830381865afa158015610d30573d6000803e3d6000fd5b505050506040513d601f19601f82011682018060405250810190610d54919061317a565b610d705760405162461bcd60e51b81526004016108ed9061319c565b6001600160a01b038181166000818152600a60205260409081902054905163a9059cbb60e01b8152600481019290925260248201819052917f0000000000000000000000000000000000000000000000000000000000000000169063a9059cbb906044016020604051808303816000875af1158015610df3573d6000803e3d6000fd5b505050506040513d601f19601f82011682018060405250810190610e17919061317a565b610e635760405162461bcd60e51b815260206004820152601c60248201527f503a434f4e434c5544455f5749544844524157414c5f4641494c45440000000060448201526064016108ed565b6001600160a01b0382166000818152600a6020526040808220829055518392917f2687ab3014fc32ee1bbb5acb4d4879d56644ad540a426c06d7deaa8f127b232391a350610a456001600555565b600033610ebf8582856124ae565b610eca858585612526565b60019150505b9392505050565b610edf612585565b828114610f265760405162461bcd60e51b8152602060048201526015602482015274140e905494905654d7d25390d3d394d254d5115395605a1b60448201526064016108ed565b60005b8181101561124a576000838383818110610f4557610f45613204565b9050602002016020810190610f5a919061327f565b61ffff1690506000868684818110610f7457610f74613204565b336000908152600d6020908152604090912054910292909201359250508210610fd15760405162461bcd60e51b815260206004820152600f60248201526e0a074929cac82989288be929c888ab608b1b60448201526064016108ed565b336000908152600d60205260408120805484908110610ff257610ff2613204565b600091825260209182902060408051606081018252600390930290910180546001600160a01b0316835260018101549383019390935260029092015491810182905291504210156110775760405162461bcd60e51b815260206004820152600f60248201526e140e9513d2d15394d7d313d0d2d151608a1b60448201526064016108ed565b8181602001511015801561109a5750336000908152602081905260409020548211155b6110dd5760405162461bcd60e51b8152602060048201526014602482015273503a494e53554646494349454e545f46554e445360601b60448201526064016108ed565b6110e733836125ab565b817f00000000000000000000000000000000000000000000000000000000000000006001600160a01b031663ad7a672f6040518163ffffffff1660e01b8152600401602060405180830381865afa158015611146573d6000803e3d6000fd5b505050506040513d601f19601f8201168201806040525081019061116a91906131c2565b10156111c957336000908152600a60205260408120805484929061118f908490613253565b9091555050604051829033907f39d9cf4ffb93650d8ce789639cb8cf3c8d7b039e1f9795c038af55b4ae643fca90600090a3505050611238565b81816020018181516111db91906131f1565b90525060208101516000036111f4576111f433846125e1565b6111fe338361271c565b506112076127b4565b604051829033907f7fcf532c15f0a6db0bd6d0e038bea71d30d808c7d98cb3bf7268a95bf5081b6590600090a35050505b8061124281613266565b915050610f29565b5050505050565b61127a7f00000000000000000000000000000000000000000000000000000000000000006123b9565b604051630935e01b60e21b81523360048201526001600160a01b0391909116906324d7806c90602401602060405180830381865afa1580156112c0573d6000803e3d6000fd5b505050506040513d601f19601f820116820180604052508101906112e4919061317a565b6113005760405162461bcd60e51b81526004016108ed9061319c565b6001600160a01b03166000908152601760205260409020805460ff19169055565b60007f00000000000000000000000000000000000000000000000000000000000000006001600160a01b031663ad7a672f6040518163ffffffff1660e01b8152600401602060405180830381865afa158015611381573d6000803e3d6000fd5b505050506040513d601f19601f820116820180604052508101906113a591906131c2565b905090565b60405163486b3ed360e01b81526001600160a01b0382811660048301527f0000000000000000000000000000000000000000000000000000000000000000169063486b3ed3906024015b600060405180830381600087803b15801561140e57600080fd5b505af115801561124a573d6000803e3d6000fd5b6001600160a01b0382166000908152600d6020526040812054821061147b5760405162461bcd60e51b815260206004820152600f60248201526e0a074929cac82989288be929c888ab608b1b60448201526064016108ed565b6001600160a01b0383166000908152600d602052604081208054849081106114a5576114a5613204565b600091825260209182902060408051606081018252600390930290910180546001600160a01b03168352600181015493830193909352600290920154918101829052915042106114fa57602001519050610aa8565b6000915050610aa8565b61152d7f00000000000000000000000000000000000000000000000000000000000000006123b9565b604051630935e01b60e21b81523360048201526001600160a01b0391909116906324d7806c90602401602060405180830381865afa158015611573573d6000803e3d6000fd5b505050506040513d601f19601f82011682018060405250810190611597919061317a565b6115b35760405162461bcd60e51b81526004016108ed9061319c565b80600860008282546115c59190613253565b90915550600090506115d56128be565b90506115e1838261271c565b50505050565b6116107f00000000000000000000000000000000000000000000000000000000000000006123b9565b604051630935e01b60e21b81523360048201526001600160a01b0391909116906324d7806c90602401602060405180830381865afa158015611656573d6000803e3d6000fd5b505050506040513d601f19601f8201168201806040525081019061167a919061317a565b6116965760405162461bcd60e51b81526004016108ed9061319c565b604051637050886b60e01b81526001600160a01b0382811660048301527f00000000000000000000000000000000000000000000000000000000000000001690637050886b906024016113f4565b604051631d3b86b160e21b81526001600160a01b037f000000000000000000000000000000000000000000000000000000000000000016906374ee1ac49061173290859085906004016132a3565b600060405180830381600087803b15801561174c57600080fd5b505af1158015611760573d6000803e3d6000fd5b505050505050565b600081116117aa5760405162461bcd60e51b815260206004820152600f60248201526e503a494e56414c49445f56414c554560881b60448201526064016108ed565b336000908152600960205260409020548111156118025760405162461bcd60e51b8152602060048201526016602482015275503a494e53554646494349454e545f42414c414e434560501b60448201526064016108ed565b61180c33826128d6565b806007600082825461181e9190613253565b909155505033600090815260096020526040812080548392906118429084906131f1565b9091555061185090506127b4565b604051819033907fbd654390d0d973e8c8376ed6053be8658870df892687852cc5c914d700291b8790600090a350565b611888612484565b6118b17f00000000000000000000000000000000000000000000000000000000000000006123b9565b604051630935e01b60e21b81523360048201526001600160a01b0391909116906324d7806c90602401602060405180830381865afa1580156118f7573d6000803e3d6000fd5b505050506040513d601f19601f8201168201806040525081019061191b919061317a565b6119375760405162461bcd60e51b81526004016108ed9061319c565b6001600160a01b038181166000818152600b60205260409081902054905163a9059cbb60e01b8152600481019290925260248201819052917f0000000000000000000000000000000000000000000000000000000000000000169063a9059cbb906044016020604051808303816000875af11580156119ba573d6000803e3d6000fd5b505050506040513d601f19601f820116820180604052508101906119de919061317a565b611a2a5760405162461bcd60e51b815260206004820152601860248201527f503a434f4e434c5544455f5245574152445f4641494c4544000000000000000060448201526064016108ed565b6001600160a01b0382166000818152600b6020526040808220829055518392917f3c7e767b6741d1e3a8f90a3c95937bb07453eaf2dfee591a5a308f04f498e8b891a350610a456001600555565b6060600480546107bb90613140565b600033610aa2818585612526565b611abe7f00000000000000000000000000000000000000000000000000000000000000006123b9565b604051630935e01b60e21b81523360048201526001600160a01b0391909116906324d7806c90602401602060405180830381865afa158015611b04573d6000803e3d6000fd5b505050506040513d601f19601f82011682018060405250810190611b28919061317a565b611b445760405162461bcd60e51b81526004016108ed9061319c565b60005b8151811015611bac57600160176000848481518110611b6857611b68613204565b6020908102919091018101516001600160a01b03168252810191909152604001600020805460ff191691151591909117905580611ba481613266565b915050611b47565b5050565b611bb8612585565b611bc0612484565b601454811015611c095760405162461bcd60e51b815260206004820152601460248201527321281d2222a82fa0a6aa2fa122a627abafa6a4a760611b60448201526064016108ed565b60007f00000000000000000000000000000000000000000000000000000000000000006001600160a01b031663209b2bca6040518163ffffffff1660e01b8152600401602060405180830381865afa158015611c69573d6000803e3d6000fd5b505050506040513d601f19601f82011682018060405250810190611c8d91906132f1565b9050611c99828261290c565b50610a456001600555565b33600090815260096020908152604080832054815163ad7a672f60e01b81529151909284927f00000000000000000000000000000000000000000000000000000000000000006001600160a01b03169263ad7a672f926004808401939192918290030181865afa158015611d1c573d6000803e3d6000fd5b505050506040513d601f19601f82011682018060405250810190611d4091906131c2565b33600090815260096020526040812055905081811015611db457336000908152600b602052604081208054849290611d79908490613253565b9091555050604051829033907f19adda954c72f22df5078ae925d620d455e095989b72be2f895e10473b53797790600090a360009250505090565b611dbe338361271c565b611e0a5760405162461bcd60e51b815260206004820152601c60248201527f42503a4552524f525f5452414e5346455252494e475f5245574152440000000060448201526064016108ed565b604051829033907f106f923f993c2149d49b4255ff723acafa1f2d94393f561d3eda32ae348f724190600090a360019250505090565b611e48612585565b611e50612484565b601454821015611e985760405162461bcd60e51b8152602060048201526013602482015272281d2222a82fa0a6aa2fa122a627abafa6a4a760691b60448201526064016108ed565b60135482611ea560025490565b611eaf9190613253565b1115611efd5760405162461bcd60e51b815260206004820152601760248201527f503a4d41585f504f4f4c5f53495a455f5245414348454400000000000000000060448201526064016108ed565b60405163029333f560e01b81526001600160a01b0382811660048301527f0000000000000000000000000000000000000000000000000000000000000000169063029333f5906024016020604051808303816000875af1158015611f65573d6000803e3d6000fd5b505050506040513d601f19601f82011682018060405250810190611f89919061317a565b611fc75760405162461bcd60e51b815260206004820152600f60248201526e140e955392d393d5d397d054d4d155608a1b60448201526064016108ed565b80611fd2838261290c565b50611bac6001600555565b6120067f00000000000000000000000000000000000000000000000000000000000000006123b9565b604051630935e01b60e21b81523360048201526001600160a01b0391909116906324d7806c90602401602060405180830381865afa15801561204c573d6000803e3d6000fd5b505050506040513d601f19601f82011682018060405250810190612070919061317a565b61208c5760405162461bcd60e51b81526004016108ed9061319c565b6001600160a01b03166000908152601760205260409020805460ff19166001179055565b3360009081526017602052604090205460ff166120fc5760405162461bcd60e51b815260206004820152600a602482015269140e9393d517d413d3d360b21b60448201526064016108ed565b6000811161213f5760405162461bcd60e51b815260206004820152601060248201526f10940e9253959053125117d25394155560821b60448201526064016108ed565b80612148611321565b101561218c5760405162461bcd60e51b8152602060048201526013602482015272042503a4e4f545f454e4f5547485f4c415f425606c1b60448201526064016108ed565b6000336001600160a01b031663667316396040518163ffffffff1660e01b8152600401602060405180830381865afa1580156121cc573d6000803e3d6000fd5b505050506040513d601f19601f820116820180604052508101906121f091906132f1565b90506121fc818361271c565b6122485760405162461bcd60e51b815260206004820152601760248201527f42503a524551554553545f46524f4d5f42505f4641494c00000000000000000060448201526064016108ed565b60405182815233907fbabc2955520063ac5330d7fe65a85c54fce0d2c473be76d99e29fb7146ac96a09060200160405180910390a25050565b6010546001600160a01b0382166000908152600c6020526040812054909142916122ab9190613253565b11156122eb5760405162461bcd60e51b815260206004820152600f60248201526e10940e9195539114d7d313d0d2d151608a1b60448201526064016108ed565b6040516370a0823160e01b81526001600160a01b037f000000000000000000000000000000000000000000000000000000000000000081166004830152610aa8917f0000000000000000000000000000000000000000000000000000000000000000909116906370a0823190602401602060405180830381865afa158015612377573d6000803e3d6000fd5b505050506040513d601f19601f8201168201806040525081019061239b91906131c2565b6001600160a01b038416600090815260208190526040902054612a23565b6000816001600160a01b031663c31245256040518163ffffffff1660e01b8152600401602060405180830381865afa1580156123f9573d6000803e3d6000fd5b505050506040513d601f19601f82011682018060405250810190610aa891906132f1565b604080516001600160a01b0385811660248301528416604482015260648082018490528251808303909101815260849091019091526020810180516001600160e01b03166323b872dd60e01b1790526115e1908590612a39565b610cb48383836001612a9c565b6002600554036124a757604051633ee5aeb560e01b815260040160405180910390fd5b6002600555565b6001600160a01b0383811660009081526001602090815260408083209386168352929052205460001981146115e1578181101561251757604051637dc7a0d960e11b81526001600160a01b038416600482015260248101829052604481018390526064016108ed565b6115e184848484036000612a9c565b6001600160a01b03831661255057604051634b637e8f60e11b8152600060048201526024016108ed565b6001600160a01b03821661257a5760405163ec442f0560e01b8152600060048201526024016108ed565b610cb4838383612b71565b60065460ff16156125a95760405163d93c066560e01b815260040160405180910390fd5b565b6001600160a01b0382166125d557604051634b637e8f60e11b8152600060048201526024016108ed565b611bac82600083612b71565b6001600160a01b0382166000908152600d6020526040812054612606906001906131f1565b90508082146126c0576001600160a01b0383166000908152600d6020526040902080548290811061263957612639613204565b9060005260206000209060030201600d6000856001600160a01b03166001600160a01b03168152602001908152602001600020838154811061267d5761267d613204565b60009182526020909120825460039092020180546001600160a01b0319166001600160a01b03909216919091178155600180830154908201556002918201549101555b6001600160a01b0383166000908152600d602052604090208054806126e7576126e761330e565b60008281526020812060036000199093019283020180546001600160a01b031916815560018101829055600201559055505050565b60405163a9059cbb60e01b81526001600160a01b038381166004830152602482018390526000917f00000000000000000000000000000000000000000000000000000000000000009091169063a9059cbb906044016020604051808303816000875af1158015612790573d6000803e3d6000fd5b505050506040513d601f19601f82011682018060405250810190610ed0919061317a565b7f00000000000000000000000000000000000000000000000000000000000000006001600160a01b03167f00000000000000000000000000000000000000000000000000000000000000006001600160a01b03167f2047d1633ff7768462ae07d28cb16e484203bfd6d85ce832494270ebcd9081a27f00000000000000000000000000000000000000000000000000000000000000006001600160a01b031663ad7a672f6040518163ffffffff1660e01b8152600401602060405180830381865afa158015612887573d6000803e3d6000fd5b505050506040513d601f19601f820116820180604052508101906128ab91906131c2565b60405190815260200160405180910390a3565b60006008546128cc60025490565b6113a591906131f1565b6001600160a01b0382166129005760405163ec442f0560e01b8152600060048201526024016108ed565b611bac60008383612b71565b336000908152600d602090815260409182902082516060810184526001600160a01b0385168152918201859052600f54909282019061294b9042613253565b90528154600180820184556000938452602093849020835160039093020180546001600160a01b0319166001600160a01b0393841617815593830151908401556040909101516002909201919091556129c8908216337f00000000000000000000000000000000000000000000000000000000000000008561241d565b6129d233836128d6565b81600760008282546129e49190613253565b909155506129f290506127b4565b604051829033907fe1fffcc4923d04b559f4d29a8bfc6cda04eb5b0d3c460751c2402c5c5cc9109c90600090a35050565b6000818310612a325781610ed0565b5090919050565b6000612a4e6001600160a01b03841683612c9b565b90508051600014158015612a73575080806020019051810190612a71919061317a565b155b15610cb457604051635274afe760e01b81526001600160a01b03841660048201526024016108ed565b6001600160a01b038416612ac65760405163e602df0560e01b8152600060048201526024016108ed565b6001600160a01b038316612af057604051634a1406b160e11b8152600060048201526024016108ed565b6001600160a01b03808516600090815260016020908152604080832093871683529290522082905580156115e157826001600160a01b0316846001600160a01b03167f8c5be1e5ebec7d5bd14f71427d1e84f3dd0314c0f7b2291e5b200ac8c7c3b92584604051612b6391815260200190565b60405180910390a350505050565b6001600160a01b038316612b9c578060026000828254612b919190613253565b90915550612c0e9050565b6001600160a01b03831660009081526020819052604090205481811015612bef5760405163391434e360e21b81526001600160a01b038516600482015260248101829052604481018390526064016108ed565b6001600160a01b03841660009081526020819052604090209082900390555b6001600160a01b038216612c2a57600280548290039055612c49565b6001600160a01b03821660009081526020819052604090208054820190555b816001600160a01b0316836001600160a01b03167fddf252ad1be2c89b69c2b068fc378daa952ba7f163c4a11628f55a4df523b3ef83604051612c8e91815260200190565b60405180910390a3505050565b6060610ed08383600084600080856001600160a01b03168486604051612cc19190613324565b60006040518083038185875af1925050503d8060008114612cfe576040519150601f19603f3d011682016040523d82523d6000602084013e612d03565b606091505b5091509150612d13868383612d1d565b9695505050505050565b606082612d3257612d2d82612d79565b610ed0565b8151158015612d4957506001600160a01b0384163b155b15612d7257604051639996b31560e01b81526001600160a01b03851660048201526024016108ed565b5080610ed0565b805115612d895780518082602001fd5b604051630a12f52160e11b815260040160405180910390fd5b60005b83811015612dbd578181015183820152602001612da5565b50506000910152565b6020815260008251806020840152612de5816040850160208701612da2565b601f01601f19169190910160400192915050565b6001600160a01b0381168114610a4557600080fd5b8035612e1981612df9565b919050565b600060208284031215612e3057600080fd5b8135610ed081612df9565b600060208284031215612e4d57600080fd5b5035919050565b60008060408385031215612e6757600080fd5b8235612e7281612df9565b946020939093013593505050565b60008083601f840112612e9257600080fd5b50813567ffffffffffffffff811115612eaa57600080fd5b6020830191508360208260051b8501011115612ec557600080fd5b9250929050565b600080600060408486031215612ee157600080fd5b83359250602084013567ffffffffffffffff811115612eff57600080fd5b612f0b86828701612e80565b9497909650939450505050565b600080600060608486031215612f2d57600080fd5b8335612f3881612df9565b92506020840135612f4881612df9565b929592945050506040919091013590565b60008060008060408587031215612f6f57600080fd5b843567ffffffffffffffff80821115612f8757600080fd5b612f9388838901612e80565b90965094506020870135915080821115612fac57600080fd5b50612fb987828801612e80565b95989497509550505050565b60008060208385031215612fd857600080fd5b823567ffffffffffffffff811115612fef57600080fd5b612ffb85828601612e80565b90969095509350505050565b634e487b7160e01b600052604160045260246000fd5b6000602080838503121561303057600080fd5b823567ffffffffffffffff8082111561304857600080fd5b818501915085601f83011261305c57600080fd5b81358181111561306e5761306e613007565b8060051b604051601f19603f8301168101818110858211171561309357613093613007565b6040529182528482019250838101850191888311156130b157600080fd5b938501935b828510156130d6576130c785612e0e565b845293850193928501926130b6565b98975050505050505050565b600080604083850312156130f557600080fd5b82359150602083013561310781612df9565b809150509250929050565b6000806040838503121561312557600080fd5b823561313081612df9565b9150602083013561310781612df9565b600181811c9082168061315457607f821691505b60208210810361317457634e487b7160e01b600052602260045260246000fd5b50919050565b60006020828403121561318c57600080fd5b81518015158114610ed057600080fd5b6020808252600c908201526b28231d2727aa2fa0a226a4a760a11b604082015260600190565b6000602082840312156131d457600080fd5b5051919050565b634e487b7160e01b600052601160045260246000fd5b81810381811115610aa857610aa86131db565b634e487b7160e01b600052603260045260246000fd5b8082028115828204841417610aa857610aa86131db565b60008261324e57634e487b7160e01b600052601260045260246000fd5b500490565b80820180821115610aa857610aa86131db565b600060018201613278576132786131db565b5060010190565b60006020828403121561329157600080fd5b813561ffff81168114610ed057600080fd5b60208082528181018390526000908460408401835b868110156132e65782356132cb81612df9565b6001600160a01b0316825291830191908301906001016132b8565b509695505050505050565b60006020828403121561330357600080fd5b8151610ed081612df9565b634e487b7160e01b600052603160045260246000fd5b60008251613336818460208701612da2565b919091019291505056fea2646970667358221220c78afd4713be3c88240b26ed79ec16bf3008dadaa9fb178a388b076772af520064736f6c63430008140033",
    "linkReferences": {}
  },
  "methodIdentifiers": {
    "NAME()": "a3f4df7e",
    "SYMBOL()": "f76f8d78",
    "addPool(address)": "d914cd4b",
    "addPools(address[])": "b36a4ab1",
    "adminDeposit(uint256)": "08687794",
    "allowance(address,address)": "dd62ed3e",
    "approve(address,uint256)": "095ea7b3",
    "availableToWithdraw(address,uint256)": "66f294cf",
    "balanceOf(address)": "70a08231",
    "borrower()": "7df1f1b9",
    "claimReward()": "b88a802f",
    "concludePendingReward(address)": "9264fd53",
    "concludePendingWithdrawal(address)": "1e0a5967",
    "decimals()": "313ce567",
    "deleteSecondaryLiquidityAsset(address)": "486b3ed3",
    "deposit(uint256)": "b6b55f25",
    "depositDate(address)": "24b92e8e",
    "depositSecondaryAsset(uint256,address)": "c8954760",
    "distributeRewards(uint256,address[])": "1aa59542",
    "drawdown(address,uint256)": "6acab9da",
    "getLL()": "66731639",
    "liquidityAsset()": "209b2bca",
    "liquidityLocker()": "9759164a",
    "name()": "06fdde03",
    "paused()": "5c975abb",
    "pendingRewards(address)": "31d7a262",
    "pendingWithdrawals(address)": "f3f43703",
    "poolInfo()": "5a2f3d09",
    "pools(address)": "a4063dbc",
    "principalOut()": "ac641655",
    "reinvest(uint256)": "83b4918b",
    "removePool(address)": "3b7d0946",
    "requestLiquidityAssets(uint256)": "f48ccb04",
    "rewards(address)": "0700037d",
    "setSecondaryLiquidityAsset(address)": "7050886b",
    "setSecondaryLiquidityAssets(address[])": "74ee1ac4",
    "superFactory()": "0d49b38c",
    "symbol()": "95d89b41",
    "totalDeposited()": "ff50abdc",
    "totalLA()": "42103e8e",
    "totalSupply()": "18160ddd",
    "totalSupplyLA()": "7dfabf49",
    "transfer(address,uint256)": "a9059cbb",
    "transferFrom(address,address,uint256)": "23b872dd",
    "userDeposits(address,uint256)": "08f43333",
    "withdraw(uint256[],uint16[])": "28915483",
    "withdrawLimit()": "f848d541",
    "withdrawPeriod()": "12eb4f9a",
    "withdrawableOf(address)": "fa8c00d4"
  },
  "id": 7
}