{
  "_format": "hh-sol-artifact-1",
  "contractName": "HeliosGlobals",
  "sourceName": "contracts/Global/HeliosGlobals.sol",
  "abi": [
    {
      "inputs": [
        {
          "internalType": "address",
          "name": "_governor",
          "type": "address"
        },
        {
          "internalType": "address",
          "name": "_globalAdmin",
          "type": "address"
        }
      ],
      "stateMutability": "nonpayable",
      "type": "constructor"
    },
    {
      "anonymous": false,
      "inputs": [
        {
          "indexed": true,
          "internalType": "address",
          "name": "newGlobalAdmin",
          "type": "address"
        }
      ],
      "name": "GlobalAdminSet",
      "type": "event"
    },
    {
      "anonymous": false,
      "inputs": [],
      "name": "Initialized",
      "type": "event"
    },
    {
      "anonymous": false,
      "inputs": [
        {
          "indexed": true,
          "internalType": "address",
          "name": "delegate",
          "type": "address"
        },
        {
          "indexed": false,
          "internalType": "bool",
          "name": "valid",
          "type": "bool"
        }
      ],
      "name": "PoolDelegateSet",
      "type": "event"
    },
    {
      "anonymous": false,
      "inputs": [
        {
          "indexed": false,
          "internalType": "bool",
          "name": "pause",
          "type": "bool"
        }
      ],
      "name": "ProtocolPaused",
      "type": "event"
    },
    {
      "inputs": [],
      "name": "globalAdmin",
      "outputs": [
        {
          "internalType": "address",
          "name": "",
          "type": "address"
        }
      ],
      "stateMutability": "view",
      "type": "function"
    },
    {
      "inputs": [],
      "name": "governor",
      "outputs": [
        {
          "internalType": "address",
          "name": "",
          "type": "address"
        }
      ],
      "stateMutability": "view",
      "type": "function"
    },
    {
      "inputs": [
        {
          "internalType": "address",
          "name": "",
          "type": "address"
        }
      ],
      "name": "isValidPoolDelegate",
      "outputs": [
        {
          "internalType": "bool",
          "name": "",
          "type": "bool"
        }
      ],
      "stateMutability": "view",
      "type": "function"
    },
    {
      "inputs": [
        {
          "internalType": "address",
          "name": "",
          "type": "address"
        }
      ],
      "name": "isValidPoolFactory",
      "outputs": [
        {
          "internalType": "bool",
          "name": "",
          "type": "bool"
        }
      ],
      "stateMutability": "view",
      "type": "function"
    },
    {
      "inputs": [],
      "name": "protocolPaused",
      "outputs": [
        {
          "internalType": "bool",
          "name": "",
          "type": "bool"
        }
      ],
      "stateMutability": "view",
      "type": "function"
    },
    {
      "inputs": [
        {
          "internalType": "address",
          "name": "newGlobalAdmin",
          "type": "address"
        }
      ],
      "name": "setGlobalAdmin",
      "outputs": [],
      "stateMutability": "nonpayable",
      "type": "function"
    },
    {
      "inputs": [
        {
          "internalType": "address",
          "name": "delegate",
          "type": "address"
        },
        {
          "internalType": "bool",
          "name": "valid",
          "type": "bool"
        }
      ],
      "name": "setPoolDelegateAllowList",
      "outputs": [],
      "stateMutability": "nonpayable",
      "type": "function"
    },
    {
      "inputs": [
        {
          "internalType": "bool",
          "name": "pause",
          "type": "bool"
        }
      ],
      "name": "setProtocolPause",
      "outputs": [],
      "stateMutability": "nonpayable",
      "type": "function"
    },
    {
      "inputs": [
        {
          "internalType": "address",
          "name": "poolFactory",
          "type": "address"
        },
        {
          "internalType": "bool",
          "name": "valid",
          "type": "bool"
        }
      ],
      "name": "setValidPoolFactory",
      "outputs": [],
      "stateMutability": "nonpayable",
      "type": "function"
    }
  ],
  "bytecode": "0x608060405234801561001057600080fd5b50604051610c1c380380610c1c83398181016040528101906100329190610149565b81600160006101000a81548173ffffffffffffffffffffffffffffffffffffffff021916908373ffffffffffffffffffffffffffffffffffffffff160217905550806000806101000a81548173ffffffffffffffffffffffffffffffffffffffff021916908373ffffffffffffffffffffffffffffffffffffffff1602179055507f5daa87a0e9463431830481fd4b6e3403442dfb9a12b9c07597e9f61d50b633c860405160405180910390a15050610189565b600080fd5b600073ffffffffffffffffffffffffffffffffffffffff82169050919050565b6000610116826100eb565b9050919050565b6101268161010b565b811461013157600080fd5b50565b6000815190506101438161011d565b92915050565b600080604083850312156101605761015f6100e6565b5b600061016e85828601610134565b925050602061017f85828601610134565b9150509250929050565b610a84806101986000396000f3fe608060405234801561001057600080fd5b50600436106100935760003560e01c80634e989118116100665780634e9891181461013457806358e37c9f146101505780636597b8991461016c578063c52bc31d14610188578063ec9a9368146101a457610093565b80630c340a2414610098578063107c0240146100b6578063372e3546146100e6578063425fad5814610116575b600080fd5b6100a06101c2565b6040516100ad9190610745565b60405180910390f35b6100d060048036038101906100cb9190610791565b6101e8565b6040516100dd91906107d9565b60405180910390f35b61010060048036038101906100fb9190610791565b610208565b60405161010d91906107d9565b60405180910390f35b61011e610228565b60405161012b91906107d9565b60405180910390f35b61014e60048036038101906101499190610820565b61023b565b005b61016a6004803603810190610165919061084d565b61031d565b005b6101866004803603810190610181919061084d565b610456565b005b6101a2600480360381019061019d9190610791565b610541565b005b6101ac6106e0565b6040516101b99190610745565b60405180910390f35b600160009054906101000a900473ffffffffffffffffffffffffffffffffffffffff1681565b60036020528060005260406000206000915054906101000a900460ff1681565b60026020528060005260406000206000915054906101000a900460ff1681565b600160149054906101000a900460ff1681565b60008054906101000a900473ffffffffffffffffffffffffffffffffffffffff1673ffffffffffffffffffffffffffffffffffffffff163373ffffffffffffffffffffffffffffffffffffffff16146102c9576040517f08c379a00000000000000000000000000000000000000000000000000000000081526004016102c0906108ea565b60405180910390fd5b80600160146101000a81548160ff0219169083151502179055507f6e0cb5fa7a57c38eb7939c1104f95fccb5b7a6a8c1a7cab76934305439b639f58160405161031291906107d9565b60405180910390a150565b600160009054906101000a900473ffffffffffffffffffffffffffffffffffffffff1673ffffffffffffffffffffffffffffffffffffffff163373ffffffffffffffffffffffffffffffffffffffff16146103ad576040517f08c379a00000000000000000000000000000000000000000000000000000000081526004016103a490610956565b60405180910390fd5b80600260008473ffffffffffffffffffffffffffffffffffffffff1673ffffffffffffffffffffffffffffffffffffffff16815260200190815260200160002060006101000a81548160ff0219169083151502179055508173ffffffffffffffffffffffffffffffffffffffff167fd2e6a599a52383178be9bf2d0be60c96615b89f8d9cf6c680f06962aa73679fc8260405161044a91906107d9565b60405180910390a25050565b600160009054906101000a900473ffffffffffffffffffffffffffffffffffffffff1673ffffffffffffffffffffffffffffffffffffffff163373ffffffffffffffffffffffffffffffffffffffff16146104e6576040517f08c379a00000000000000000000000000000000000000000000000000000000081526004016104dd90610956565b60405180910390fd5b80600360008473ffffffffffffffffffffffffffffffffffffffff1673ffffffffffffffffffffffffffffffffffffffff16815260200190815260200160002060006101000a81548160ff0219169083151502179055505050565b600160009054906101000a900473ffffffffffffffffffffffffffffffffffffffff1673ffffffffffffffffffffffffffffffffffffffff163373ffffffffffffffffffffffffffffffffffffffff161480156105cb5750600073ffffffffffffffffffffffffffffffffffffffff168173ffffffffffffffffffffffffffffffffffffffff1614155b61060a576040517f08c379a0000000000000000000000000000000000000000000000000000000008152600401610601906109c2565b60405180910390fd5b600160149054906101000a900460ff161561065a576040517f08c379a000000000000000000000000000000000000000000000000000000000815260040161065190610a2e565b60405180910390fd5b806000806101000a81548173ffffffffffffffffffffffffffffffffffffffff021916908373ffffffffffffffffffffffffffffffffffffffff1602179055508073ffffffffffffffffffffffffffffffffffffffff167fad3f8fa73ce3985d027e4c3bbe1194701a23e635a746bcf73d8632f677ac388260405160405180910390a250565b60008054906101000a900473ffffffffffffffffffffffffffffffffffffffff1681565b600073ffffffffffffffffffffffffffffffffffffffff82169050919050565b600061072f82610704565b9050919050565b61073f81610724565b82525050565b600060208201905061075a6000830184610736565b92915050565b600080fd5b61076e81610724565b811461077957600080fd5b50565b60008135905061078b81610765565b92915050565b6000602082840312156107a7576107a6610760565b5b60006107b58482850161077c565b91505092915050565b60008115159050919050565b6107d3816107be565b82525050565b60006020820190506107ee60008301846107ca565b92915050565b6107fd816107be565b811461080857600080fd5b50565b60008135905061081a816107f4565b92915050565b60006020828403121561083657610835610760565b5b60006108448482850161080b565b91505092915050565b6000806040838503121561086457610863610760565b5b60006108728582860161077c565b92505060206108838582860161080b565b9150509250929050565b600082825260208201905092915050565b7f48473a4e4f545f41444d494e0000000000000000000000000000000000000000600082015250565b60006108d4600c8361088d565b91506108df8261089e565b602082019050919050565b60006020820190508181036000830152610903816108c7565b9050919050565b7f4d473a4e4f545f474f5600000000000000000000000000000000000000000000600082015250565b6000610940600a8361088d565b915061094b8261090a565b602082019050919050565b6000602082019050818103600083015261096f81610933565b9050919050565b7f48473a4e4f545f474f565f4f525f41444d494e00000000000000000000000000600082015250565b60006109ac60138361088d565b91506109b782610976565b602082019050919050565b600060208201905081810360008301526109db8161099f565b9050919050565b7f48473a50524f544f5f5041555345440000000000000000000000000000000000600082015250565b6000610a18600f8361088d565b9150610a23826109e2565b602082019050919050565b60006020820190508181036000830152610a4781610a0b565b905091905056fea26469706673582212203f4157c89c41e346569b4974239526d90ecf7ab65cfc063a4e45d98c441643b264736f6c63430008080033",
  "linkReferences": {},
  "deployedLinkReferences": {}
}