{
  "abi": [
    {
      "inputs": [
        {
          "internalType": "address",
          "name": "_governor",
          "type": "address"
        },
        {
          "internalType": "address",
          "name": "_globalAdmin",
          "type": "address"
        }
      ],
      "stateMutability": "nonpayable",
      "type": "constructor"
    },
    {
      "anonymous": false,
      "inputs": [
        {
          "indexed": true,
          "internalType": "address",
          "name": "newGlobalAdmin",
          "type": "address"
        }
      ],
      "name": "GlobalAdminSet",
      "type": "event"
    },
    {
      "anonymous": false,
      "inputs": [],
      "name": "Initialized",
      "type": "event"
    },
    {
      "anonymous": false,
      "inputs": [
        {
          "indexed": false,
          "internalType": "address",
          "name": "asset",
          "type": "address"
        },
        {
          "indexed": false,
          "internalType": "uint256",
          "name": "decimals",
          "type": "uint256"
        },
        {
          "indexed": false,
          "internalType": "string",
          "name": "symbol",
          "type": "string"
        },
        {
          "indexed": false,
          "internalType": "bool",
          "name": "valid",
          "type": "bool"
        }
      ],
      "name": "LiquidityAssetSet",
      "type": "event"
    },
    {
      "anonymous": false,
      "inputs": [
        {
          "indexed": true,
          "internalType": "address",
          "name": "delegate",
          "type": "address"
        },
        {
          "indexed": false,
          "internalType": "bool",
          "name": "valid",
          "type": "bool"
        }
      ],
      "name": "PoolDelegateSet",
      "type": "event"
    },
    {
      "anonymous": false,
      "inputs": [
        {
          "indexed": false,
          "internalType": "bool",
          "name": "pause",
          "type": "bool"
        }
      ],
      "name": "ProtocolPaused",
      "type": "event"
    },
    {
      "inputs": [],
      "name": "globalAdmin",
      "outputs": [
        {
          "internalType": "address",
          "name": "",
          "type": "address"
        }
      ],
      "stateMutability": "view",
      "type": "function"
    },
    {
      "inputs": [],
      "name": "governor",
      "outputs": [
        {
          "internalType": "address",
          "name": "",
          "type": "address"
        }
      ],
      "stateMutability": "view",
      "type": "function"
    },
    {
      "inputs": [
        {
          "internalType": "address",
          "name": "",
          "type": "address"
        }
      ],
      "name": "isValidLiquidityAsset",
      "outputs": [
        {
          "internalType": "bool",
          "name": "",
          "type": "bool"
        }
      ],
      "stateMutability": "view",
      "type": "function"
    },
    {
      "inputs": [
        {
          "internalType": "address",
          "name": "",
          "type": "address"
        }
      ],
      "name": "isValidPoolDelegate",
      "outputs": [
        {
          "internalType": "bool",
          "name": "",
          "type": "bool"
        }
      ],
      "stateMutability": "view",
      "type": "function"
    },
    {
      "inputs": [
        {
          "internalType": "address",
          "name": "",
          "type": "address"
        }
      ],
      "name": "isValidPoolFactory",
      "outputs": [
        {
          "internalType": "bool",
          "name": "",
          "type": "bool"
        }
      ],
      "stateMutability": "view",
      "type": "function"
    },
    {
      "inputs": [
        {
          "internalType": "address",
          "name": "superFactory",
          "type": "address"
        },
        {
          "internalType": "address",
          "name": "subFactory",
          "type": "address"
        },
        {
          "internalType": "uint8",
          "name": "factoryType",
          "type": "uint8"
        }
      ],
      "name": "isValidSubFactory",
      "outputs": [
        {
          "internalType": "bool",
          "name": "",
          "type": "bool"
        }
      ],
      "stateMutability": "view",
      "type": "function"
    },
    {
      "inputs": [],
      "name": "protocolPaused",
      "outputs": [
        {
          "internalType": "bool",
          "name": "",
          "type": "bool"
        }
      ],
      "stateMutability": "view",
      "type": "function"
    },
    {
      "inputs": [
        {
          "internalType": "address",
          "name": "newGlobalAdmin",
          "type": "address"
        }
      ],
      "name": "setGlobalAdmin",
      "outputs": [],
      "stateMutability": "nonpayable",
      "type": "function"
    },
    {
      "inputs": [
        {
          "internalType": "address",
          "name": "asset",
          "type": "address"
        },
        {
          "internalType": "bool",
          "name": "valid",
          "type": "bool"
        }
      ],
      "name": "setLiquidityAsset",
      "outputs": [],
      "stateMutability": "nonpayable",
      "type": "function"
    },
    {
      "inputs": [
        {
          "internalType": "address",
          "name": "delegate",
          "type": "address"
        },
        {
          "internalType": "bool",
          "name": "valid",
          "type": "bool"
        }
      ],
      "name": "setPoolDelegateAllowList",
      "outputs": [],
      "stateMutability": "nonpayable",
      "type": "function"
    },
    {
      "inputs": [
        {
          "internalType": "bool",
          "name": "pause",
          "type": "bool"
        }
      ],
      "name": "setProtocolPause",
      "outputs": [],
      "stateMutability": "nonpayable",
      "type": "function"
    },
    {
      "inputs": [
        {
          "internalType": "address",
          "name": "poolFactory",
          "type": "address"
        },
        {
          "internalType": "bool",
          "name": "valid",
          "type": "bool"
        }
      ],
      "name": "setValidPoolFactory",
      "outputs": [],
      "stateMutability": "nonpayable",
      "type": "function"
    },
    {
      "inputs": [
        {
          "internalType": "address",
          "name": "superFactory",
          "type": "address"
        },
        {
          "internalType": "address",
          "name": "subFactory",
          "type": "address"
        },
        {
          "internalType": "bool",
          "name": "valid",
          "type": "bool"
        }
      ],
      "name": "setValidSubFactory",
      "outputs": [],
      "stateMutability": "nonpayable",
      "type": "function"
    },
    {
      "inputs": [
        {
          "internalType": "address",
          "name": "",
          "type": "address"
        },
        {
          "internalType": "address",
          "name": "",
          "type": "address"
        }
      ],
      "name": "validSubFactories",
      "outputs": [
        {
          "internalType": "bool",
          "name": "",
          "type": "bool"
        }
      ],
      "stateMutability": "view",
      "type": "function"
    }
  ],
  "bytecode": {
    "object": "0x60a060405234801561001057600080fd5b50604051610cfd380380610cfd83398101604081905261002f9161012b565b6001600160a01b0382166100785760405162461bcd60e51b815260206004820152600b60248201526a24239d2d22a927afa3a7ab60a91b60448201526064015b60405180910390fd5b6001600160a01b0381166100bc5760405162461bcd60e51b815260206004820152600b60248201526a48473a5a45524f5f41444d60a81b604482015260640161006f565b6001600160a01b03828116608052600080546001600160a01b0319169183169190911781556040517f5daa87a0e9463431830481fd4b6e3403442dfb9a12b9c07597e9f61d50b633c89190a1505061015e565b80516001600160a01b038116811461012657600080fd5b919050565b6000806040838503121561013e57600080fd5b6101478361010f565b91506101556020840161010f565b90509250929050565b608051610b6261019b6000396000818160f40152818161033801528181610550015281816105f70152818161066a015261077e0152610b626000f3fe608060405234801561001057600080fd5b50600436106100ea5760003560e01c80634e9891181161008c5780638695118a116100665780638695118a1461022c578063c52bc31d1461024f578063ec9a936814610262578063f85ee6f81461027557600080fd5b80634e989118146101f357806358e37c9f146102065780636597b8991461021957600080fd5b80631b1804aa116100c85780631b1804aa146101795780632daa0d89146101a7578063372e3546146101bc578063425fad58146101df57600080fd5b80630c340a24146100ef578063107c02401461013357806313d459fb14610166575b600080fd5b6101167f000000000000000000000000000000000000000000000000000000000000000081565b6040516001600160a01b0390911681526020015b60405180910390f35b61015661014136600461086a565b60026020526000908152604090205460ff1681565b604051901515815260200161012a565b61015661017436600461089e565b610288565b6101566101873660046108e5565b600460209081526000928352604080842090915290825290205460ff1681565b6101ba6101b5366004610928565b61032d565b005b6101566101ca36600461086a565b60016020526000908152604090205460ff1681565b60005461015690600160a01b900460ff1681565b6101ba610201366004610952565b6104a6565b6101ba610214366004610928565b610545565b6101ba610227366004610928565b6105ec565b61015661023a36600461086a565b60036020526000908152604090205460ff1681565b6101ba61025d36600461086a565b61065f565b600054610116906001600160a01b031681565b6101ba61028336600461096d565b610773565b6001600160a01b03808416600090815260046020908152604080832093861683529290529081205460ff16801561032557508160ff16836001600160a01b03166364e1fd556040518163ffffffff1660e01b8152600401602060405180830381865afa1580156102fc573d6000803e3d6000fd5b505050506040513d601f19601f8201168201806040525081019061032091906109b0565b60ff16145b949350505050565b336001600160a01b037f0000000000000000000000000000000000000000000000000000000000000000161461037e5760405162461bcd60e51b8152600401610375906109cd565b60405180910390fd5b6001600160a01b038216600081815260036020908152604091829020805460ff1916851515179055815163313ce56760e01b815291517f18d231995d1f7e4354b1786418aa8f34f99996ded9cc6b1d43c3815eb6f5ab79938693909263313ce567926004808401938290030181865afa1580156103ff573d6000803e3d6000fd5b505050506040513d601f19601f8201168201806040525081019061042391906109b0565b846001600160a01b03166395d89b416040518163ffffffff1660e01b8152600401600060405180830381865afa158015610461573d6000803e3d6000fd5b505050506040513d6000823e601f3d908101601f191682016040526104899190810190610a2b565b8460405161049a9493929190610ad8565b60405180910390a15050565b6000546001600160a01b031633146104ed5760405162461bcd60e51b815260206004820152600a60248201526948473a4e4f545f41444d60b01b6044820152606401610375565b60008054821515600160a01b0260ff60a01b199091161790556040517f6e0cb5fa7a57c38eb7939c1104f95fccb5b7a6a8c1a7cab76934305439b639f59061053a90831515815260200190565b60405180910390a150565b336001600160a01b037f0000000000000000000000000000000000000000000000000000000000000000161461058d5760405162461bcd60e51b8152600401610375906109cd565b6001600160a01b038216600081815260016020908152604091829020805460ff191685151590811790915591519182527fd2e6a599a52383178be9bf2d0be60c96615b89f8d9cf6c680f06962aa73679fc910160405180910390a25050565b336001600160a01b037f000000000000000000000000000000000000000000000000000000000000000016146106345760405162461bcd60e51b8152600401610375906109cd565b6001600160a01b03919091166000908152600260205260409020805460ff1916911515919091179055565b336001600160a01b037f00000000000000000000000000000000000000000000000000000000000000001614801561069f57506001600160a01b03811615155b6106df5760405162461bcd60e51b815260206004820152601160248201527048473a4e4f545f474f565f4f525f41444d60781b6044820152606401610375565b600054600160a01b900460ff161561072b5760405162461bcd60e51b815260206004820152600f60248201526e1211ce941493d513d7d4105554d151608a1b6044820152606401610375565b600080546001600160a01b0319166001600160a01b038316908117825560405190917fad3f8fa73ce3985d027e4c3bbe1194701a23e635a746bcf73d8632f677ac388291a250565b336001600160a01b037f000000000000000000000000000000000000000000000000000000000000000016146107bb5760405162461bcd60e51b8152600401610375906109cd565b6001600160a01b03831660009081526002602052604090205460ff166108145760405162461bcd60e51b815260206004820152600e60248201526d24239d24a72b2fa9aaa822a92fa360911b6044820152606401610375565b6001600160a01b03928316600090815260046020908152604080832094909516825292909252919020805460ff1916911515919091179055565b80356001600160a01b038116811461086557600080fd5b919050565b60006020828403121561087c57600080fd5b6108858261084e565b9392505050565b60ff8116811461089b57600080fd5b50565b6000806000606084860312156108b357600080fd5b6108bc8461084e565b92506108ca6020850161084e565b915060408401356108da8161088c565b809150509250925092565b600080604083850312156108f857600080fd5b6109018361084e565b915061090f6020840161084e565b90509250929050565b8035801515811461086557600080fd5b6000806040838503121561093b57600080fd5b6109448361084e565b915061090f60208401610918565b60006020828403121561096457600080fd5b61088582610918565b60008060006060848603121561098257600080fd5b61098b8461084e565b92506109996020850161084e565b91506109a760408501610918565b90509250925092565b6000602082840312156109c257600080fd5b81516108858161088c565b6020808252600a908201526926a39d2727aa2fa3a7ab60b11b604082015260600190565b634e487b7160e01b600052604160045260246000fd5b60005b83811015610a22578181015183820152602001610a0a565b50506000910152565b600060208284031215610a3d57600080fd5b815167ffffffffffffffff80821115610a5557600080fd5b818401915084601f830112610a6957600080fd5b815181811115610a7b57610a7b6109f1565b604051601f8201601f19908116603f01168101908382118183101715610aa357610aa36109f1565b81604052828152876020848701011115610abc57600080fd5b610acd836020830160208801610a07565b979650505050505050565b60018060a01b038516815260ff841660208201526080604082015260008351806080840152610b0e8160a0850160208801610a07565b921515606083015250601f91909101601f19160160a001939250505056fea2646970667358221220d515328cf1cd3a61870f4adc69db09fef4b967d9090d174f49fdef7733c2f34c64736f6c63430008100033",
    "linkReferences": {}
  },
  "methodIdentifiers": {
    "globalAdmin()": "ec9a9368",
    "governor()": "0c340a24",
    "isValidLiquidityAsset(address)": "8695118a",
    "isValidPoolDelegate(address)": "372e3546",
    "isValidPoolFactory(address)": "107c0240",
    "isValidSubFactory(address,address,uint8)": "13d459fb",
    "protocolPaused()": "425fad58",
    "setGlobalAdmin(address)": "c52bc31d",
    "setLiquidityAsset(address,bool)": "2daa0d89",
    "setPoolDelegateAllowList(address,bool)": "58e37c9f",
    "setProtocolPause(bool)": "4e989118",
    "setValidPoolFactory(address,bool)": "6597b899",
    "setValidSubFactory(address,address,bool)": "f85ee6f8",
    "validSubFactories(address,address)": "1b1804aa"
  },
  "id": 0
}