{
  "abi": [
    {
      "inputs": [
        {
          "internalType": "address",
          "name": "_liquidityAsset",
          "type": "address"
        },
        {
          "internalType": "address",
          "name": "_pool",
          "type": "address"
        }
      ],
      "stateMutability": "nonpayable",
      "type": "constructor"
    },
    {
      "inputs": [
        {
          "internalType": "address",
          "name": "target",
          "type": "address"
        }
      ],
      "name": "AddressEmptyCode",
      "type": "error"
    },
    {
      "inputs": [
        {
          "internalType": "address",
          "name": "account",
          "type": "address"
        }
      ],
      "name": "AddressInsufficientBalance",
      "type": "error"
    },
    {
      "inputs": [],
      "name": "FailedInnerCall",
      "type": "error"
    },
    {
      "inputs": [
        {
          "internalType": "address",
          "name": "token",
          "type": "address"
        }
      ],
      "name": "SafeERC20FailedOperation",
      "type": "error"
    },
    {
      "inputs": [
        {
          "internalType": "address",
          "name": "_liquidityAsset",
          "type": "address"
        }
      ],
      "name": "deleteSecondaryLiquidityAsset",
      "outputs": [],
      "stateMutability": "nonpayable",
      "type": "function"
    },
    {
      "inputs": [],
      "name": "liquidityAsset",
      "outputs": [
        {
          "internalType": "contract IERC20",
          "name": "",
          "type": "address"
        }
      ],
      "stateMutability": "view",
      "type": "function"
    },
    {
      "inputs": [],
      "name": "pool",
      "outputs": [
        {
          "internalType": "address",
          "name": "",
          "type": "address"
        }
      ],
      "stateMutability": "view",
      "type": "function"
    },
    {
      "inputs": [
        {
          "internalType": "address",
          "name": "_assetAddr",
          "type": "address"
        }
      ],
      "name": "secondaryAssetExists",
      "outputs": [
        {
          "internalType": "bool",
          "name": "",
          "type": "bool"
        }
      ],
      "stateMutability": "view",
      "type": "function"
    },
    {
      "inputs": [
        {
          "internalType": "address",
          "name": "",
          "type": "address"
        }
      ],
      "name": "secondaryLiquidityAssets",
      "outputs": [
        {
          "internalType": "bool",
          "name": "",
          "type": "bool"
        }
      ],
      "stateMutability": "view",
      "type": "function"
    },
    {
      "inputs": [
        {
          "internalType": "address",
          "name": "_liquidityAsset",
          "type": "address"
        }
      ],
      "name": "setSecondaryLiquidityAsset",
      "outputs": [],
      "stateMutability": "nonpayable",
      "type": "function"
    },
    {
      "inputs": [
        {
          "internalType": "address[]",
          "name": "_liquidityAssets",
          "type": "address[]"
        }
      ],
      "name": "setSecondaryLiquidityAssets",
      "outputs": [],
      "stateMutability": "nonpayable",
      "type": "function"
    },
    {
      "inputs": [],
      "name": "totalBalance",
      "outputs": [
        {
          "internalType": "uint256",
          "name": "",
          "type": "uint256"
        }
      ],
      "stateMutability": "view",
      "type": "function"
    },
    {
      "inputs": [
        {
          "internalType": "address",
          "name": "_assetAddr",
          "type": "address"
        }
      ],
      "name": "totalBalanceSecondary",
      "outputs": [
        {
          "internalType": "uint256",
          "name": "",
          "type": "uint256"
        }
      ],
      "stateMutability": "view",
      "type": "function"
    },
    {
      "inputs": [
        {
          "internalType": "address",
          "name": "dst",
          "type": "address"
        },
        {
          "internalType": "uint256",
          "name": "amount",
          "type": "uint256"
        }
      ],
      "name": "transfer",
      "outputs": [
        {
          "internalType": "bool",
          "name": "",
          "type": "bool"
        }
      ],
      "stateMutability": "nonpayable",
      "type": "function"
    }
  ],
  "bytecode": {
    "object": "0x60c060405234801561001057600080fd5b5060405161097538038061097583398101604081905261002f916100f3565b6001600160a01b03821661007e5760405162461bcd60e51b815260206004820152601160248201527013130e96915493d7d3125457d054d4d155607a1b60448201526064015b60405180910390fd5b6001600160a01b0381166100c05760405162461bcd60e51b815260206004820152600960248201526804c4c3a5a45524f5f560bc1b6044820152606401610075565b6001600160a01b0391821660a05216608052610126565b80516001600160a01b03811681146100ee57600080fd5b919050565b6000806040838503121561010657600080fd5b61010f836100d7565b915061011d602084016100d7565b90509250929050565b60805160a05161081661015f60003960008181610128015281816103c0015261040801526000818160e9015261031201526108166000f3fe608060405234801561001057600080fd5b506004361061009e5760003560e01c8063641d08e011610066578063641d08e01461019c5780637050886b146101bf57806374ee1ac4146101f1578063a9059cbb14610204578063ad7a672f1461021757600080fd5b8063029333f5146100a357806316f0115b146100e4578063209b2bca14610123578063486b3ed31461014a5780634f03c07f1461017b575b600080fd5b6100cf6100b136600461067f565b6001600160a01b031660009081526020819052604090205460ff1690565b60405190151581526020015b60405180910390f35b61010b7f000000000000000000000000000000000000000000000000000000000000000081565b6040516001600160a01b0390911681526020016100db565b61010b7f000000000000000000000000000000000000000000000000000000000000000081565b61017961015836600461067f565b6001600160a01b03166000908152602081905260409020805460ff19169055565b005b61018e61018936600461067f565b61021f565b6040519081526020016100db565b6100cf6101aa36600461067f565b60006020819052908152604090205460ff1681565b6101796101cd36600461067f565b6001600160a01b03166000908152602081905260409020805460ff19166001179055565b6101796101ff36600461069a565b610290565b6100cf61021236600461070f565b610305565b61018e6103f0565b6040516370a0823160e01b81523060048201526000906001600160a01b038316906370a0823190602401602060405180830381865afa158015610266573d6000803e3d6000fd5b505050506040513d601f19601f8201168201806040525081019061028a9190610739565b92915050565b60005b8181116103005760016000808585858181106102b1576102b1610752565b90506020020160208101906102c6919061067f565b6001600160a01b031681526020810191909152604001600020805460ff1916911515919091179055806102f881610768565b915050610293565b505050565b6000336001600160a01b037f0000000000000000000000000000000000000000000000000000000000000000161461036f5760405162461bcd60e51b815260206004820152600860248201526704c4c3a4e4f545f560c41b60448201526064015b60405180910390fd5b6001600160a01b0383166103b35760405162461bcd60e51b815260206004820152600b60248201526a13130e9395531317d114d560aa1b6044820152606401610366565b6103e76001600160a01b037f0000000000000000000000000000000000000000000000000000000000000000168484610480565b50600192915050565b6040516370a0823160e01b81523060048201526000907f00000000000000000000000000000000000000000000000000000000000000006001600160a01b0316906370a0823190602401602060405180830381865afa158015610457573d6000803e3d6000fd5b505050506040513d601f19601f8201168201806040525081019061047b9190610739565b905090565b604080516001600160a01b03848116602483015260448083018590528351808403909101815260649092019092526020810180516001600160e01b031663a9059cbb60e01b179052610300918591906000906104de9084168361052c565b90508051600014158015610503575080806020019051810190610501919061078f565b155b1561030057604051635274afe760e01b81526001600160a01b0384166004820152602401610366565b606061053a83836000610541565b9392505050565b6060814710156105665760405163cd78605960e01b8152306004820152602401610366565b600080856001600160a01b0316848660405161058291906107b1565b60006040518083038185875af1925050503d80600081146105bf576040519150601f19603f3d011682016040523d82523d6000602084013e6105c4565b606091505b50915091506105d48683836105de565b9695505050505050565b6060826105f3576105ee8261063a565b61053a565b815115801561060a57506001600160a01b0384163b155b1561063357604051639996b31560e01b81526001600160a01b0385166004820152602401610366565b508061053a565b80511561064a5780518082602001fd5b604051630a12f52160e11b815260040160405180910390fd5b80356001600160a01b038116811461067a57600080fd5b919050565b60006020828403121561069157600080fd5b61053a82610663565b600080602083850312156106ad57600080fd5b823567ffffffffffffffff808211156106c557600080fd5b818501915085601f8301126106d957600080fd5b8135818111156106e857600080fd5b8660208260051b85010111156106fd57600080fd5b60209290920196919550909350505050565b6000806040838503121561072257600080fd5b61072b83610663565b946020939093013593505050565b60006020828403121561074b57600080fd5b5051919050565b634e487b7160e01b600052603260045260246000fd5b60006001820161078857634e487b7160e01b600052601160045260246000fd5b5060010190565b6000602082840312156107a157600080fd5b8151801515811461053a57600080fd5b6000825160005b818110156107d257602081860181015185830152016107b8565b50600092019182525091905056fea2646970667358221220b3c0506371b72fb810ccf1c9bf383c0ff65f18337033a45025441f68cdbd2bee64736f6c63430008140033",
    "linkReferences": {}
  },
  "methodIdentifiers": {
    "deleteSecondaryLiquidityAsset(address)": "486b3ed3",
    "liquidityAsset()": "209b2bca",
    "pool()": "16f0115b",
    "secondaryAssetExists(address)": "029333f5",
    "secondaryLiquidityAssets(address)": "641d08e0",
    "setSecondaryLiquidityAsset(address)": "7050886b",
    "setSecondaryLiquidityAssets(address[])": "74ee1ac4",
    "totalBalance()": "ad7a672f",
    "totalBalanceSecondary(address)": "4f03c07f",
    "transfer(address,uint256)": "a9059cbb"
  },
  "id": 8
}