{
  "abi": [
    {
      "inputs": [
        {
          "internalType": "address",
          "name": "_liquidityAsset",
          "type": "address"
        },
        {
          "internalType": "address",
          "name": "_llFactory",
          "type": "address"
        },
        {
          "internalType": "uint256",
          "name": "_lockupPeriod",
          "type": "uint256"
        },
        {
          "internalType": "uint256",
          "name": "_apy",
          "type": "uint256"
        },
        {
          "internalType": "uint256",
          "name": "_duration",
          "type": "uint256"
        },
        {
          "internalType": "uint256",
          "name": "_investmentPoolSize",
          "type": "uint256"
        },
        {
          "internalType": "uint256",
          "name": "_minInvestmentAmount",
          "type": "uint256"
        },
        {
          "internalType": "uint256",
          "name": "_withdrawThreshold",
          "type": "uint256"
        },
        {
          "internalType": "uint256",
          "name": "_withdrawPeriod",
          "type": "uint256"
        }
      ],
      "stateMutability": "nonpayable",
      "type": "constructor"
    },
    {
      "inputs": [
        {
          "internalType": "address",
          "name": "target",
          "type": "address"
        }
      ],
      "name": "AddressEmptyCode",
      "type": "error"
    },
    {
      "inputs": [
        {
          "internalType": "address",
          "name": "account",
          "type": "address"
        }
      ],
      "name": "AddressInsufficientBalance",
      "type": "error"
    },
    {
      "inputs": [
        {
          "internalType": "address",
          "name": "spender",
          "type": "address"
        },
        {
          "internalType": "uint256",
          "name": "allowance",
          "type": "uint256"
        },
        {
          "internalType": "uint256",
          "name": "needed",
          "type": "uint256"
        }
      ],
      "name": "ERC20InsufficientAllowance",
      "type": "error"
    },
    {
      "inputs": [
        {
          "internalType": "address",
          "name": "sender",
          "type": "address"
        },
        {
          "internalType": "uint256",
          "name": "balance",
          "type": "uint256"
        },
        {
          "internalType": "uint256",
          "name": "needed",
          "type": "uint256"
        }
      ],
      "name": "ERC20InsufficientBalance",
      "type": "error"
    },
    {
      "inputs": [
        {
          "internalType": "address",
          "name": "approver",
          "type": "address"
        }
      ],
      "name": "ERC20InvalidApprover",
      "type": "error"
    },
    {
      "inputs": [
        {
          "internalType": "address",
          "name": "receiver",
          "type": "address"
        }
      ],
      "name": "ERC20InvalidReceiver",
      "type": "error"
    },
    {
      "inputs": [
        {
          "internalType": "address",
          "name": "sender",
          "type": "address"
        }
      ],
      "name": "ERC20InvalidSender",
      "type": "error"
    },
    {
      "inputs": [
        {
          "internalType": "address",
          "name": "spender",
          "type": "address"
        }
      ],
      "name": "ERC20InvalidSpender",
      "type": "error"
    },
    {
      "inputs": [],
      "name": "EnforcedPause",
      "type": "error"
    },
    {
      "inputs": [],
      "name": "ExpectedPause",
      "type": "error"
    },
    {
      "inputs": [],
      "name": "FailedInnerCall",
      "type": "error"
    },
    {
      "inputs": [],
      "name": "ReentrancyGuardReentrantCall",
      "type": "error"
    },
    {
      "inputs": [
        {
          "internalType": "address",
          "name": "token",
          "type": "address"
        }
      ],
      "name": "SafeERC20FailedOperation",
      "type": "error"
    },
    {
      "anonymous": false,
      "inputs": [
        {
          "indexed": true,
          "internalType": "address",
          "name": "owner",
          "type": "address"
        },
        {
          "indexed": true,
          "internalType": "address",
          "name": "spender",
          "type": "address"
        },
        {
          "indexed": false,
          "internalType": "uint256",
          "name": "value",
          "type": "uint256"
        }
      ],
      "name": "Approval",
      "type": "event"
    },
    {
      "anonymous": false,
      "inputs": [
        {
          "indexed": true,
          "internalType": "address",
          "name": "liquidityProvider",
          "type": "address"
        },
        {
          "indexed": true,
          "internalType": "address",
          "name": "token",
          "type": "address"
        },
        {
          "indexed": false,
          "internalType": "uint256",
          "name": "balance",
          "type": "uint256"
        }
      ],
      "name": "BalanceUpdated",
      "type": "event"
    },
    {
      "anonymous": false,
      "inputs": [
        {
          "indexed": true,
          "internalType": "address",
          "name": "investor",
          "type": "address"
        },
        {
          "indexed": true,
          "internalType": "uint256",
          "name": "amount",
          "type": "uint256"
        }
      ],
      "name": "Deposit",
      "type": "event"
    },
    {
      "anonymous": false,
      "inputs": [
        {
          "indexed": false,
          "internalType": "address",
          "name": "account",
          "type": "address"
        }
      ],
      "name": "Paused",
      "type": "event"
    },
    {
      "anonymous": false,
      "inputs": [
        {
          "indexed": true,
          "internalType": "address",
          "name": "recipient",
          "type": "address"
        },
        {
          "indexed": true,
          "internalType": "uint256",
          "name": "amount",
          "type": "uint256"
        }
      ],
      "name": "PendingReward",
      "type": "event"
    },
    {
      "anonymous": false,
      "inputs": [
        {
          "indexed": true,
          "internalType": "address",
          "name": "recipient",
          "type": "address"
        },
        {
          "indexed": true,
          "internalType": "uint256",
          "name": "amount",
          "type": "uint256"
        }
      ],
      "name": "PendingRewardConcluded",
      "type": "event"
    },
    {
      "anonymous": false,
      "inputs": [
        {
          "indexed": true,
          "internalType": "address",
          "name": "investor",
          "type": "address"
        },
        {
          "indexed": true,
          "internalType": "uint256",
          "name": "amount",
          "type": "uint256"
        }
      ],
      "name": "PendingWithdrawal",
      "type": "event"
    },
    {
      "anonymous": false,
      "inputs": [
        {
          "indexed": true,
          "internalType": "address",
          "name": "investor",
          "type": "address"
        },
        {
          "indexed": true,
          "internalType": "uint256",
          "name": "amount",
          "type": "uint256"
        }
      ],
      "name": "PendingWithdrawalConcluded",
      "type": "event"
    },
    {
      "anonymous": false,
      "inputs": [
        {
          "indexed": true,
          "internalType": "address",
          "name": "poolAdmin",
          "type": "address"
        },
        {
          "indexed": false,
          "internalType": "bool",
          "name": "allowed",
          "type": "bool"
        }
      ],
      "name": "PoolAdminSet",
      "type": "event"
    },
    {
      "anonymous": false,
      "inputs": [
        {
          "indexed": true,
          "internalType": "address",
          "name": "investor",
          "type": "address"
        },
        {
          "indexed": true,
          "internalType": "uint256",
          "name": "amount",
          "type": "uint256"
        }
      ],
      "name": "Reinvest",
      "type": "event"
    },
    {
      "anonymous": false,
      "inputs": [
        {
          "indexed": true,
          "internalType": "address",
          "name": "recipient",
          "type": "address"
        },
        {
          "indexed": true,
          "internalType": "uint256",
          "name": "amount",
          "type": "uint256"
        }
      ],
      "name": "RewardClaimed",
      "type": "event"
    },
    {
      "anonymous": false,
      "inputs": [
        {
          "indexed": true,
          "internalType": "address",
          "name": "from",
          "type": "address"
        },
        {
          "indexed": true,
          "internalType": "address",
          "name": "to",
          "type": "address"
        },
        {
          "indexed": false,
          "internalType": "uint256",
          "name": "value",
          "type": "uint256"
        }
      ],
      "name": "Transfer",
      "type": "event"
    },
    {
      "anonymous": false,
      "inputs": [
        {
          "indexed": false,
          "internalType": "address",
          "name": "account",
          "type": "address"
        }
      ],
      "name": "Unpaused",
      "type": "event"
    },
    {
      "anonymous": false,
      "inputs": [
        {
          "indexed": true,
          "internalType": "address",
          "name": "investor",
          "type": "address"
        },
        {
          "indexed": true,
          "internalType": "uint256",
          "name": "amount",
          "type": "uint256"
        }
      ],
      "name": "Withdrawal",
      "type": "event"
    },
    {
      "anonymous": false,
      "inputs": [
        {
          "indexed": true,
          "internalType": "address",
          "name": "caller",
          "type": "address"
        },
        {
          "indexed": true,
          "internalType": "uint256",
          "name": "amount",
          "type": "uint256"
        }
      ],
      "name": "WithdrawalOverThreshold",
      "type": "event"
    },
    {
      "inputs": [],
      "name": "NAME",
      "outputs": [
        {
          "internalType": "string",
          "name": "",
          "type": "string"
        }
      ],
      "stateMutability": "view",
      "type": "function"
    },
    {
      "inputs": [],
      "name": "SYMBOL",
      "outputs": [
        {
          "internalType": "string",
          "name": "",
          "type": "string"
        }
      ],
      "stateMutability": "view",
      "type": "function"
    },
    {
      "inputs": [
        {
          "internalType": "uint256",
          "name": "_amount",
          "type": "uint256"
        }
      ],
      "name": "adminDeposit",
      "outputs": [],
      "stateMutability": "nonpayable",
      "type": "function"
    },
    {
      "inputs": [
        {
          "internalType": "address",
          "name": "owner",
          "type": "address"
        },
        {
          "internalType": "address",
          "name": "spender",
          "type": "address"
        }
      ],
      "name": "allowance",
      "outputs": [
        {
          "internalType": "uint256",
          "name": "",
          "type": "uint256"
        }
      ],
      "stateMutability": "view",
      "type": "function"
    },
    {
      "inputs": [
        {
          "internalType": "address",
          "name": "spender",
          "type": "address"
        },
        {
          "internalType": "uint256",
          "name": "value",
          "type": "uint256"
        }
      ],
      "name": "approve",
      "outputs": [
        {
          "internalType": "bool",
          "name": "",
          "type": "bool"
        }
      ],
      "stateMutability": "nonpayable",
      "type": "function"
    },
    {
      "inputs": [
        {
          "internalType": "address",
          "name": "_user",
          "type": "address"
        },
        {
          "internalType": "uint256",
          "name": "_index",
          "type": "uint256"
        }
      ],
      "name": "availableToWithdraw",
      "outputs": [
        {
          "internalType": "uint256",
          "name": "",
          "type": "uint256"
        }
      ],
      "stateMutability": "view",
      "type": "function"
    },
    {
      "inputs": [
        {
          "internalType": "address",
          "name": "account",
          "type": "address"
        }
      ],
      "name": "balanceOf",
      "outputs": [
        {
          "internalType": "uint256",
          "name": "",
          "type": "uint256"
        }
      ],
      "stateMutability": "view",
      "type": "function"
    },
    {
      "inputs": [],
      "name": "blendedPool",
      "outputs": [
        {
          "internalType": "contract BlendedPool",
          "name": "",
          "type": "address"
        }
      ],
      "stateMutability": "view",
      "type": "function"
    },
    {
      "inputs": [
        {
          "internalType": "uint256",
          "name": "amount",
          "type": "uint256"
        }
      ],
      "name": "canWithdraw",
      "outputs": [
        {
          "internalType": "bool",
          "name": "",
          "type": "bool"
        }
      ],
      "stateMutability": "view",
      "type": "function"
    },
    {
      "inputs": [],
      "name": "claimReward",
      "outputs": [
        {
          "internalType": "bool",
          "name": "",
          "type": "bool"
        }
      ],
      "stateMutability": "nonpayable",
      "type": "function"
    },
    {
      "inputs": [
        {
          "internalType": "address",
          "name": "_recipient",
          "type": "address"
        }
      ],
      "name": "concludePendingReward",
      "outputs": [],
      "stateMutability": "nonpayable",
      "type": "function"
    },
    {
      "inputs": [
        {
          "internalType": "address",
          "name": "_recipient",
          "type": "address"
        }
      ],
      "name": "concludePendingWithdrawal",
      "outputs": [],
      "stateMutability": "nonpayable",
      "type": "function"
    },
    {
      "inputs": [],
      "name": "decimals",
      "outputs": [
        {
          "internalType": "uint8",
          "name": "",
          "type": "uint8"
        }
      ],
      "stateMutability": "view",
      "type": "function"
    },
    {
      "inputs": [
        {
          "internalType": "address",
          "name": "_liquidityAsset",
          "type": "address"
        }
      ],
      "name": "deleteSecondaryLiquidityAsset",
      "outputs": [],
      "stateMutability": "nonpayable",
      "type": "function"
    },
    {
      "inputs": [
        {
          "internalType": "uint256",
          "name": "_amount",
          "type": "uint256"
        }
      ],
      "name": "deposit",
      "outputs": [],
      "stateMutability": "nonpayable",
      "type": "function"
    },
    {
      "inputs": [
        {
          "internalType": "address",
          "name": "",
          "type": "address"
        }
      ],
      "name": "depositDate",
      "outputs": [
        {
          "internalType": "uint256",
          "name": "",
          "type": "uint256"
        }
      ],
      "stateMutability": "view",
      "type": "function"
    },
    {
      "inputs": [
        {
          "internalType": "uint256",
          "name": "_amount",
          "type": "uint256"
        },
        {
          "internalType": "address",
          "name": "_assetAddr",
          "type": "address"
        }
      ],
      "name": "depositSecondaryAsset",
      "outputs": [],
      "stateMutability": "nonpayable",
      "type": "function"
    },
    {
      "inputs": [
        {
          "internalType": "uint256",
          "name": "_amount",
          "type": "uint256"
        },
        {
          "internalType": "address[]",
          "name": "_holders",
          "type": "address[]"
        }
      ],
      "name": "distributeRewards",
      "outputs": [],
      "stateMutability": "nonpayable",
      "type": "function"
    },
    {
      "inputs": [
        {
          "internalType": "address",
          "name": "_to",
          "type": "address"
        },
        {
          "internalType": "uint256",
          "name": "_amount",
          "type": "uint256"
        }
      ],
      "name": "drawdown",
      "outputs": [],
      "stateMutability": "nonpayable",
      "type": "function"
    },
    {
      "inputs": [],
      "name": "getLL",
      "outputs": [
        {
          "internalType": "address",
          "name": "",
          "type": "address"
        }
      ],
      "stateMutability": "view",
      "type": "function"
    },
    {
      "inputs": [],
      "name": "liquidityAsset",
      "outputs": [
        {
          "internalType": "contract IERC20",
          "name": "",
          "type": "address"
        }
      ],
      "stateMutability": "view",
      "type": "function"
    },
    {
      "inputs": [],
      "name": "liquidityLocker",
      "outputs": [
        {
          "internalType": "contract ILiquidityLocker",
          "name": "",
          "type": "address"
        }
      ],
      "stateMutability": "view",
      "type": "function"
    },
    {
      "inputs": [],
      "name": "name",
      "outputs": [
        {
          "internalType": "string",
          "name": "",
          "type": "string"
        }
      ],
      "stateMutability": "view",
      "type": "function"
    },
    {
      "inputs": [],
      "name": "paused",
      "outputs": [
        {
          "internalType": "bool",
          "name": "",
          "type": "bool"
        }
      ],
      "stateMutability": "view",
      "type": "function"
    },
    {
      "inputs": [
        {
          "internalType": "address",
          "name": "",
          "type": "address"
        }
      ],
      "name": "pendingRewards",
      "outputs": [
        {
          "internalType": "uint256",
          "name": "",
          "type": "uint256"
        }
      ],
      "stateMutability": "view",
      "type": "function"
    },
    {
      "inputs": [
        {
          "internalType": "address",
          "name": "",
          "type": "address"
        }
      ],
      "name": "pendingWithdrawals",
      "outputs": [
        {
          "internalType": "uint256",
          "name": "",
          "type": "uint256"
        }
      ],
      "stateMutability": "view",
      "type": "function"
    },
    {
      "inputs": [],
      "name": "poolInfo",
      "outputs": [
        {
          "internalType": "uint256",
          "name": "lockupPeriod",
          "type": "uint256"
        },
        {
          "internalType": "uint256",
          "name": "apy",
          "type": "uint256"
        },
        {
          "internalType": "uint256",
          "name": "duration",
          "type": "uint256"
        },
        {
          "internalType": "uint256",
          "name": "investmentPoolSize",
          "type": "uint256"
        },
        {
          "internalType": "uint256",
          "name": "minInvestmentAmount",
          "type": "uint256"
        },
        {
          "internalType": "uint256",
          "name": "withdrawThreshold",
          "type": "uint256"
        }
      ],
      "stateMutability": "view",
      "type": "function"
    },
    {
      "inputs": [],
      "name": "principalOut",
      "outputs": [
        {
          "internalType": "uint256",
          "name": "",
          "type": "uint256"
        }
      ],
      "stateMutability": "view",
      "type": "function"
    },
    {
      "inputs": [
        {
          "internalType": "uint256",
          "name": "_amount",
          "type": "uint256"
        }
      ],
      "name": "reinvest",
      "outputs": [],
      "stateMutability": "nonpayable",
      "type": "function"
    },
    {
      "inputs": [
        {
          "internalType": "address",
          "name": "",
          "type": "address"
        }
      ],
      "name": "rewards",
      "outputs": [
        {
          "internalType": "uint256",
          "name": "",
          "type": "uint256"
        }
      ],
      "stateMutability": "view",
      "type": "function"
    },
    {
      "inputs": [
        {
          "internalType": "address",
          "name": "_blendedPool",
          "type": "address"
        }
      ],
      "name": "setBlendedPool",
      "outputs": [],
      "stateMutability": "nonpayable",
      "type": "function"
    },
    {
      "inputs": [
        {
          "internalType": "address",
          "name": "_liquidityAsset",
          "type": "address"
        }
      ],
      "name": "setSecondaryLiquidityAsset",
      "outputs": [],
      "stateMutability": "nonpayable",
      "type": "function"
    },
    {
      "inputs": [
        {
          "internalType": "address[]",
          "name": "_liquidityAssets",
          "type": "address[]"
        }
      ],
      "name": "setSecondaryLiquidityAssets",
      "outputs": [],
      "stateMutability": "nonpayable",
      "type": "function"
    },
    {
      "inputs": [],
      "name": "superFactory",
      "outputs": [
        {
          "internalType": "address",
          "name": "",
          "type": "address"
        }
      ],
      "stateMutability": "view",
      "type": "function"
    },
    {
      "inputs": [],
      "name": "symbol",
      "outputs": [
        {
          "internalType": "string",
          "name": "",
          "type": "string"
        }
      ],
      "stateMutability": "view",
      "type": "function"
    },
    {
      "inputs": [],
      "name": "totalDeposited",
      "outputs": [
        {
          "internalType": "uint256",
          "name": "",
          "type": "uint256"
        }
      ],
      "stateMutability": "view",
      "type": "function"
    },
    {
      "inputs": [],
      "name": "totalSupply",
      "outputs": [
        {
          "internalType": "uint256",
          "name": "",
          "type": "uint256"
        }
      ],
      "stateMutability": "view",
      "type": "function"
    },
    {
      "inputs": [
        {
          "internalType": "address",
          "name": "to",
          "type": "address"
        },
        {
          "internalType": "uint256",
          "name": "value",
          "type": "uint256"
        }
      ],
      "name": "transfer",
      "outputs": [
        {
          "internalType": "bool",
          "name": "",
          "type": "bool"
        }
      ],
      "stateMutability": "nonpayable",
      "type": "function"
    },
    {
      "inputs": [
        {
          "internalType": "address",
          "name": "from",
          "type": "address"
        },
        {
          "internalType": "address",
          "name": "to",
          "type": "address"
        },
        {
          "internalType": "uint256",
          "name": "value",
          "type": "uint256"
        }
      ],
      "name": "transferFrom",
      "outputs": [
        {
          "internalType": "bool",
          "name": "",
          "type": "bool"
        }
      ],
      "stateMutability": "nonpayable",
      "type": "function"
    },
    {
      "inputs": [
        {
          "internalType": "address",
          "name": "",
          "type": "address"
        },
        {
          "internalType": "uint256",
          "name": "",
          "type": "uint256"
        }
      ],
      "name": "userDeposits",
      "outputs": [
        {
          "internalType": "contract IERC20",
          "name": "token",
          "type": "address"
        },
        {
          "internalType": "uint256",
          "name": "amount",
          "type": "uint256"
        },
        {
          "internalType": "uint256",
          "name": "unlockTime",
          "type": "uint256"
        }
      ],
      "stateMutability": "view",
      "type": "function"
    },
    {
      "inputs": [
        {
          "internalType": "uint256[]",
          "name": "_amounts",
          "type": "uint256[]"
        },
        {
          "internalType": "uint16[]",
          "name": "_indices",
          "type": "uint16[]"
        }
      ],
      "name": "withdraw",
      "outputs": [],
      "stateMutability": "nonpayable",
      "type": "function"
    },
    {
      "inputs": [],
      "name": "withdrawLimit",
      "outputs": [
        {
          "internalType": "uint256",
          "name": "",
          "type": "uint256"
        }
      ],
      "stateMutability": "view",
      "type": "function"
    },
    {
      "inputs": [],
      "name": "withdrawPeriod",
      "outputs": [
        {
          "internalType": "uint256",
          "name": "",
          "type": "uint256"
        }
      ],
      "stateMutability": "view",
      "type": "function"
    },
    {
      "inputs": [
        {
          "internalType": "address",
          "name": "_holder",
          "type": "address"
        }
      ],
      "name": "withdrawableOf",
      "outputs": [
        {
          "internalType": "uint256",
          "name": "",
          "type": "uint256"
        }
      ],
      "stateMutability": "view",
      "type": "function"
    }
  ],
  "bytecode": {
    "object": "0x6101006040523480156200001257600080fd5b50604051620039ed380380620039ed8339810160408190526200003591620004ce565b88886040518060400160405280600f81526020016e12195b1a5bdcc81512d388141bdbdb608a1b815250604051806040016040528060058152602001640484c532d560dc1b815250858583838160039081620000929190620005f6565b506004620000a18282620005f6565b50506001600555506006805460ff191690556001600160a01b03861660a08190526040805163313ce56760e01b8152905163313ce567916004808201926020929091908290030181865afa158015620000fe573d6000803e3d6000fd5b505050506040513d601f19601f82011682018060405250810190620001249190620006c2565b60ff1660c052604051630cf5bc1d60e11b81526001600160a01b0387811660048301528616906319eb783a906024016020604051808303816000875af115801562000173573d6000803e3d6000fd5b505050506040513d601f19601f82011682018060405250810190620001999190620006ee565b6001600160a01b03908116608052600e92909255600f553360e0528d16935062000201925050505760405162461bcd60e51b815260206004820152601060248201526f140e96915493d7d3125457d054d4d15560821b60448201526064015b60405180910390fd5b6001600160a01b038816620002595760405162461bcd60e51b815260206004820152601960248201527f503a5a45524f5f4c49515f4c4f434b45525f464143544f5259000000000000006044820152606401620001f8565b6040805160c08101825288815260208101889052908101869052606081018590526080810184905260a00182905260108790556011869055601285905560138490556014839055601582905560e051620002b39062000448565b60405163434a88c560e11b81526001600160a01b038b811660048301529190911690638695118a90602401602060405180830381865afa158015620002fc573d6000803e3d6000fd5b505050506040513d601f19601f820116820180604052508101906200032291906200070e565b620003705760405162461bcd60e51b815260206004820152601360248201527f503a494e56414c49445f4c49515f4153534554000000000000000000000000006044820152606401620001f8565b60e0516200037e9062000448565b60405162041a9d60e51b81526001600160a01b038a811660048301529190911690628353a090602401602060405180830381865afa158015620003c5573d6000803e3d6000fd5b505050506040513d601f19601f82011682018060405250810190620003eb91906200070e565b620004395760405162461bcd60e51b815260206004820152601460248201527f503a494e56414c49445f4c4c5f464143544f52590000000000000000000000006044820152606401620001f8565b50505050505050505062000732565b6000816001600160a01b031663c31245256040518163ffffffff1660e01b8152600401602060405180830381865afa15801562000489573d6000803e3d6000fd5b505050506040513d601f19601f82011682018060405250810190620004af9190620006ee565b92915050565b6001600160a01b0381168114620004cb57600080fd5b50565b60008060008060008060008060006101208a8c031215620004ee57600080fd5b8951620004fb81620004b5565b60208b01519099506200050e81620004b5565b8098505060408a0151965060608a0151955060808a0151945060a08a0151935060c08a0151925060e08a015191506101008a015190509295985092959850929598565b634e487b7160e01b600052604160045260246000fd5b600181811c908216806200057c57607f821691505b6020821081036200059d57634e487b7160e01b600052602260045260246000fd5b50919050565b601f821115620005f157600081815260208120601f850160051c81016020861015620005cc5750805b601f850160051c820191505b81811015620005ed57828155600101620005d8565b5050505b505050565b81516001600160401b0381111562000612576200061262000551565b6200062a8162000623845462000567565b84620005a3565b602080601f831160018114620006625760008415620006495750858301515b600019600386901b1c1916600185901b178555620005ed565b600085815260208120601f198616915b82811015620006935788860151825594840194600190910190840162000672565b5085821015620006b25787850151600019600388901b60f8161c191681555b5050505050600190811b01905550565b600060208284031215620006d557600080fd5b815160ff81168114620006e757600080fd5b9392505050565b6000602082840312156200070157600080fd5b8151620006e781620004b5565b6000602082840312156200072157600080fd5b81518015158114620006e757600080fd5b60805160a05160c05160e0516131b6620008376000396000818161033a015281816107ab01528181610a1b01528181610c520152818161133c0152818161141f015281816116c001526118bf015260006104320152600081816103b001528181610875015281816109650152818161206d015281816125090152612b590152600081816104e7015281816105b30152818161098801528181610d3601528181611076015281816111fc015281816114e80152818161152e015281816117a401528181611a5401528181611aff01528181611efc0152818161204101528181612498015281816125330152818161257e015281816126fb0152612b2e01526131b66000f3fe608060405234801561001057600080fd5b50600436106102745760003560e01c80636acab9da11610151578063ac641655116100c3578063f3f4370311610087578063f3f4370314610699578063f76f8d78146106b9578063f848d541146106dd578063fa8c00d4146106e6578063fbe85f06146106f9578063ff50abdc1461070c57600080fd5b8063ac64165514610629578063b6b55f2514610632578063b88a802f14610645578063c89547601461064d578063dd62ed3e1461066057600080fd5b80639264fd53116101155780639264fd531461059357806395d89b41146105a65780639759164a146105ae578063a3f4df7e146105d5578063a81b354514610603578063a9059cbb1461061657600080fd5b80636acab9da1461051e5780637050886b1461053157806370a082311461054457806374ee1ac41461056d57806383b4918b1461058057600080fd5b806323b872dd116101ea57806331d7a262116101ae57806331d7a2621461045c578063486b3ed31461047c5780635a2f3d091461048f5780635c975abb146104da57806366731639146104e557806366f294cf1461050b57600080fd5b806323b872dd146103d257806324b92e8e146103e557806328915483146104055780632dfbf50314610418578063313ce5671461042b57600080fd5b80630d49b38c1161023c5780630d49b38c1461033557806312eb4f9a1461037457806318160ddd1461037d5780631aa59542146103855780631e0a596714610398578063209b2bca146103ab57600080fd5b806306fdde03146102795780630700037d1461029757806308687794146102c557806308f43333146102da578063095ea7b314610312575b600080fd5b610281610714565b60405161028e9190612cf1565b60405180910390f35b6102b76102a5366004612d39565b60096020526000908152604090205481565b60405190815260200161028e565b6102d86102d3366004612d56565b6107a6565b005b6102ed6102e8366004612d6f565b6109b0565b604080516001600160a01b03909416845260208401929092529082015260600161028e565b610325610320366004612d6f565b6109fc565b604051901515815260200161028e565b61035c7f000000000000000000000000000000000000000000000000000000000000000081565b6040516001600160a01b03909116815260200161028e565b6102b7600f5481565b6002546102b7565b6102d8610393366004612de7565b610a16565b6102d86103a6366004612d39565b610c45565b61035c7f000000000000000000000000000000000000000000000000000000000000000081565b6103256103e0366004612e33565b610e3d565b6102b76103f3366004612d39565b600c6020526000908152604090205481565b6102d8610413366004612e74565b610e63565b60165461035c906001600160a01b031681565b60405160ff7f000000000000000000000000000000000000000000000000000000000000000016815260200161028e565b6102b761046a366004612d39565b600b6020526000908152604090205481565b6102d861048a366004612d39565b6111dd565b6010546011546012546013546014546015546104ad95949392919086565b604080519687526020870195909552938501929092526060840152608083015260a082015260c00161028e565b60065460ff16610325565b7f000000000000000000000000000000000000000000000000000000000000000061035c565b6102b7610519366004612d6f565b611255565b6102d861052c366004612d6f565b611337565b6102d861053f366004612d39565b61141a565b6102b7610552366004612d39565b6001600160a01b031660009081526020819052604090205490565b6102d861057b366004612ee0565b611517565b6102d861058e366004612d56565b61159b565b6102d86105a1366004612d39565b6116b3565b6102816118ab565b61035c7f000000000000000000000000000000000000000000000000000000000000000081565b6102816040518060400160405280600f81526020016e12195b1a5bdcc81512d388141bdbdb608a1b81525081565b6102d8610611366004612d39565b6118ba565b610325610624366004612d6f565b61198b565b6102b760085481565b6102d8610640366004612d56565b611999565b610325611aeb565b6102d861065b366004612f22565b611e26565b6102b761066e366004612f52565b6001600160a01b03918216600090815260016020908152604080832093909416825291909152205490565b6102b76106a7366004612d39565b600a6020526000908152604090205481565b610281604051806040016040528060058152602001640484c532d560dc1b81525081565b6102b7600e5481565b6102b76106f4366004612d39565b611fc1565b610325610707366004612d56565b6120f8565b6007546102b7565b60606003805461072390612f80565b80601f016020809104026020016040519081016040528092919081815260200182805461074f90612f80565b801561079c5780601f106107715761010080835404028352916020019161079c565b820191906000526020600020905b81548152906001019060200180831161077f57829003601f168201915b5050505050905090565b6107cf7f000000000000000000000000000000000000000000000000000000000000000061210c565b604051630935e01b60e21b81523360048201526001600160a01b0391909116906324d7806c90602401602060405180830381865afa158015610815573d6000803e3d6000fd5b505050506040513d601f19601f820116820180604052508101906108399190612fba565b61085e5760405162461bcd60e51b815260040161085590612fdc565b60405180910390fd5b6040516370a0823160e01b815233600482015281907f00000000000000000000000000000000000000000000000000000000000000006001600160a01b0316906370a0823190602401602060405180830381865afa1580156108c4573d6000803e3d6000fd5b505050506040513d601f19601f820116820180604052508101906108e89190613002565b101561092d5760405162461bcd60e51b8152602060048201526014602482015273503a4e4f545f454e4f5547485f42414c414e434560601b6044820152606401610855565b6008548110610940576000600855610958565b80600860008282546109529190613031565b90915550505b6109ad6001600160a01b037f000000000000000000000000000000000000000000000000000000000000000016337f000000000000000000000000000000000000000000000000000000000000000084612170565b50565b600d60205281600052604060002081815481106109cc57600080fd5b60009182526020909120600390910201805460018201546002909201546001600160a01b03909116935090915083565b600033610a0a8185856121ca565b60019150505b92915050565b610a3f7f000000000000000000000000000000000000000000000000000000000000000061210c565b604051630935e01b60e21b81523360048201526001600160a01b0391909116906324d7806c90602401602060405180830381865afa158015610a85573d6000803e3d6000fd5b505050506040513d601f19601f82011682018060405250810190610aa99190612fba565b610ac55760405162461bcd60e51b815260040161085590612fdc565b610acd6121d7565b60008311610b0f5760405162461bcd60e51b815260206004820152600f60248201526e503a494e56414c49445f56414c554560881b6044820152606401610855565b80610b4d5760405162461bcd60e51b815260206004820152600e60248201526d503a5a45524f5f484f4c4445525360901b6044820152606401610855565b60005b81811015610c35576000838383818110610b6c57610b6c613044565b9050602002016020810190610b819190612d39565b90506000610ba4826001600160a01b031660009081526020819052604090205490565b601354909150600090610bbf83670de0b6b3a764000061305a565b610bc99190613071565b90506000670de0b6b3a7640000610be0898461305a565b610bea9190613071565b6001600160a01b038516600090815260096020526040812080549293508392909190610c17908490613093565b92505081905550505050508080610c2d906130a6565b915050610b50565b50610c406001600555565b505050565b610c4d6121d7565b610c767f000000000000000000000000000000000000000000000000000000000000000061210c565b604051630935e01b60e21b81523360048201526001600160a01b0391909116906324d7806c90602401602060405180830381865afa158015610cbc573d6000803e3d6000fd5b505050506040513d601f19601f82011682018060405250810190610ce09190612fba565b610cfc5760405162461bcd60e51b815260040161085590612fdc565b6001600160a01b038181166000818152600a60205260409081902054905163a9059cbb60e01b8152600481019290925260248201819052917f0000000000000000000000000000000000000000000000000000000000000000169063a9059cbb906044016020604051808303816000875af1158015610d7f573d6000803e3d6000fd5b505050506040513d601f19601f82011682018060405250810190610da39190612fba565b610def5760405162461bcd60e51b815260206004820152601c60248201527f503a434f4e434c5544455f5749544844524157414c5f4641494c4544000000006044820152606401610855565b6001600160a01b0382166000818152600a6020526040808220829055518392917f2687ab3014fc32ee1bbb5acb4d4879d56644ad540a426c06d7deaa8f127b232391a3506109ad6001600555565b600033610e4b858285612201565b610e56858585612279565b60019150505b9392505050565b610e6b6122d8565b828114610eb25760405162461bcd60e51b8152602060048201526015602482015274140e905494905654d7d25390d3d394d254d5115395605a1b6044820152606401610855565b60005b818110156111d6576000838383818110610ed157610ed1613044565b9050602002016020810190610ee691906130bf565b61ffff1690506000868684818110610f0057610f00613044565b336000908152600d6020908152604090912054910292909201359250508210610f5d5760405162461bcd60e51b815260206004820152600f60248201526e0a074929cac82989288be929c888ab608b1b6044820152606401610855565b336000908152600d60205260408120805484908110610f7e57610f7e613044565b600091825260209182902060408051606081018252600390930290910180546001600160a01b0316835260018101549383019390935260029092015491810182905291504210156110035760405162461bcd60e51b815260206004820152600f60248201526e140e9513d2d15394d7d313d0d2d151608a1b6044820152606401610855565b818160200151101580156110265750336000908152602081905260409020548211155b6110695760405162461bcd60e51b8152602060048201526014602482015273503a494e53554646494349454e545f46554e445360601b6044820152606401610855565b61107333836122fe565b817f00000000000000000000000000000000000000000000000000000000000000006001600160a01b031663ad7a672f6040518163ffffffff1660e01b8152600401602060405180830381865afa1580156110d2573d6000803e3d6000fd5b505050506040513d601f19601f820116820180604052508101906110f69190613002565b101561115557336000908152600a60205260408120805484929061111b908490613093565b9091555050604051829033907f39d9cf4ffb93650d8ce789639cb8cf3c8d7b039e1f9795c038af55b4ae643fca90600090a35050506111c4565b81816020018181516111679190613031565b9052506020810151600003611180576111803384612334565b61118a338361246f565b50611193612507565b604051829033907f7fcf532c15f0a6db0bd6d0e038bea71d30d808c7d98cb3bf7268a95bf5081b6590600090a35050505b806111ce816130a6565b915050610eb5565b5050505050565b60405163486b3ed360e01b81526001600160a01b0382811660048301527f0000000000000000000000000000000000000000000000000000000000000000169063486b3ed3906024015b600060405180830381600087803b15801561124157600080fd5b505af11580156111d6573d6000803e3d6000fd5b6001600160a01b0382166000908152600d602052604081205482106112ae5760405162461bcd60e51b815260206004820152600f60248201526e0a074929cac82989288be929c888ab608b1b6044820152606401610855565b6001600160a01b0383166000908152600d602052604081208054849081106112d8576112d8613044565b600091825260209182902060408051606081018252600390930290910180546001600160a01b031683526001810154938301939093526002909201549181018290529150421061132d57602001519050610a10565b6000915050610a10565b6113607f000000000000000000000000000000000000000000000000000000000000000061210c565b604051630935e01b60e21b81523360048201526001600160a01b0391909116906324d7806c90602401602060405180830381865afa1580156113a6573d6000803e3d6000fd5b505050506040513d601f19601f820116820180604052508101906113ca9190612fba565b6113e65760405162461bcd60e51b815260040161085590612fdc565b80600860008282546113f89190613093565b9091555060009050611408612611565b9050611414838261246f565b50505050565b6114437f000000000000000000000000000000000000000000000000000000000000000061210c565b604051630935e01b60e21b81523360048201526001600160a01b0391909116906324d7806c90602401602060405180830381865afa158015611489573d6000803e3d6000fd5b505050506040513d601f19601f820116820180604052508101906114ad9190612fba565b6114c95760405162461bcd60e51b815260040161085590612fdc565b604051637050886b60e01b81526001600160a01b0382811660048301527f00000000000000000000000000000000000000000000000000000000000000001690637050886b90602401611227565b604051631d3b86b160e21b81526001600160a01b037f000000000000000000000000000000000000000000000000000000000000000016906374ee1ac49061156590859085906004016130e3565b600060405180830381600087803b15801561157f57600080fd5b505af1158015611593573d6000803e3d6000fd5b505050505050565b600081116115dd5760405162461bcd60e51b815260206004820152600f60248201526e503a494e56414c49445f56414c554560881b6044820152606401610855565b336000908152600960205260409020548111156116355760405162461bcd60e51b8152602060048201526016602482015275503a494e53554646494349454e545f42414c414e434560501b6044820152606401610855565b61163f338261262e565b80600760008282546116519190613093565b90915550503360009081526009602052604081208054839290611675908490613031565b909155506116839050612507565b604051819033907fbd654390d0d973e8c8376ed6053be8658870df892687852cc5c914d700291b8790600090a350565b6116bb6121d7565b6116e47f000000000000000000000000000000000000000000000000000000000000000061210c565b604051630935e01b60e21b81523360048201526001600160a01b0391909116906324d7806c90602401602060405180830381865afa15801561172a573d6000803e3d6000fd5b505050506040513d601f19601f8201168201806040525081019061174e9190612fba565b61176a5760405162461bcd60e51b815260040161085590612fdc565b6001600160a01b038181166000818152600b60205260409081902054905163a9059cbb60e01b8152600481019290925260248201819052917f0000000000000000000000000000000000000000000000000000000000000000169063a9059cbb906044016020604051808303816000875af11580156117ed573d6000803e3d6000fd5b505050506040513d601f19601f820116820180604052508101906118119190612fba565b61185d5760405162461bcd60e51b815260206004820152601860248201527f503a434f4e434c5544455f5245574152445f4641494c454400000000000000006044820152606401610855565b6001600160a01b0382166000818152600b6020526040808220829055518392917f3c7e767b6741d1e3a8f90a3c95937bb07453eaf2dfee591a5a308f04f498e8b891a3506109ad6001600555565b60606004805461072390612f80565b6118e37f000000000000000000000000000000000000000000000000000000000000000061210c565b604051630935e01b60e21b81523360048201526001600160a01b0391909116906324d7806c90602401602060405180830381865afa158015611929573d6000803e3d6000fd5b505050506040513d601f19601f8201168201806040525081019061194d9190612fba565b6119695760405162461bcd60e51b815260040161085590612fdc565b601680546001600160a01b0319166001600160a01b0392909216919091179055565b600033610a0a818585612279565b6119a16122d8565b6119a96121d7565b6014548110156119f15760405162461bcd60e51b8152602060048201526013602482015272281d2222a82fa0a6aa2fa122a627abafa6a4a760691b6044820152606401610855565b601354816119fe60025490565b611a089190613093565b1115611a505760405162461bcd60e51b8152602060048201526017602482015276140e93505617d413d3d317d4d2569157d4915050d21151604a1b6044820152606401610855565b60007f00000000000000000000000000000000000000000000000000000000000000006001600160a01b031663209b2bca6040518163ffffffff1660e01b8152600401602060405180830381865afa158015611ab0573d6000803e3d6000fd5b505050506040513d601f19601f82011682018060405250810190611ad49190613131565b9050611ae08282612664565b506109ad6001600555565b3360009081526009602052604081205460007f00000000000000000000000000000000000000000000000000000000000000006001600160a01b031663ad7a672f6040518163ffffffff1660e01b8152600401602060405180830381865afa158015611b5b573d6000803e3d6000fd5b505050506040513d601f19601f82011682018060405250810190611b7f9190613002565b33600090815260096020526040812055905081811015611d9a576000611ba58284613031565b905080601660009054906101000a90046001600160a01b03166001600160a01b03166342103e8e6040518163ffffffff1660e01b8152600401602060405180830381865afa158015611bfb573d6000803e3d6000fd5b505050506040513d601f19601f82011682018060405250810190611c1f9190613002565b1015611c8057336000908152600b602052604081208054859290611c44908490613093565b9091555050604051839033907f19adda954c72f22df5078ae925d620d455e095989b72be2f895e10473b53797790600090a36000935050505090565b601654604051633d2332c160e21b8152600481018390526001600160a01b039091169063f48ccb0490602401600060405180830381600087803b158015611cc657600080fd5b505af1158015611cda573d6000803e3d6000fd5b5050601654611cf592506001600160a01b031690508261262e565b8060076000828254611d079190613093565b90915550611d179050338461246f565b611d635760405162461bcd60e51b815260206004820152601b60248201527f503a4552524f525f5452414e5346455252494e475f52455741524400000000006044820152606401610855565b604051839033907f106f923f993c2149d49b4255ff723acafa1f2d94393f561d3eda32ae348f724190600090a36001935050505090565b611da4338361246f565b611df05760405162461bcd60e51b815260206004820152601b60248201527f503a4552524f525f5452414e5346455252494e475f52455741524400000000006044820152606401610855565b604051829033907f106f923f993c2149d49b4255ff723acafa1f2d94393f561d3eda32ae348f724190600090a360019250505090565b611e2e6122d8565b611e366121d7565b601454821015611e7e5760405162461bcd60e51b8152602060048201526013602482015272281d2222a82fa0a6aa2fa122a627abafa6a4a760691b6044820152606401610855565b60135482611e8b60025490565b611e959190613093565b1115611edd5760405162461bcd60e51b8152602060048201526017602482015276140e93505617d413d3d317d4d2569157d4915050d21151604a1b6044820152606401610855565b60405163029333f560e01b81526001600160a01b0382811660048301527f0000000000000000000000000000000000000000000000000000000000000000169063029333f5906024016020604051808303816000875af1158015611f45573d6000803e3d6000fd5b505050506040513d601f19601f82011682018060405250810190611f699190612fba565b611fa75760405162461bcd60e51b815260206004820152600f60248201526e140e955392d393d5d397d054d4d155608a1b6044820152606401610855565b80611fb28382612664565b50611fbd6001600555565b5050565b6010546001600160a01b0382166000908152600c602052604081205490914291611feb9190613093565b111561202a5760405162461bcd60e51b815260206004820152600e60248201526d140e9195539114d7d313d0d2d15160921b6044820152606401610855565b6040516370a0823160e01b81526001600160a01b037f000000000000000000000000000000000000000000000000000000000000000081166004830152610a10917f0000000000000000000000000000000000000000000000000000000000000000909116906370a0823190602401602060405180830381865afa1580156120b6573d6000803e3d6000fd5b505050506040513d601f19601f820116820180604052508101906120da9190613002565b6001600160a01b03841660009081526020819052604090205461277b565b60006121043383612791565b506001919050565b6000816001600160a01b031663c31245256040518163ffffffff1660e01b8152600401602060405180830381865afa15801561214c573d6000803e3d6000fd5b505050506040513d601f19601f82011682018060405250810190610a109190613131565b604080516001600160a01b0385811660248301528416604482015260648082018490528251808303909101815260849091019091526020810180516001600160e01b03166323b872dd60e01b1790526114149085906128b5565b610c408383836001612918565b6002600554036121fa57604051633ee5aeb560e01b815260040160405180910390fd5b6002600555565b6001600160a01b038381166000908152600160209081526040808320938616835292905220546000198114611414578181101561226a57604051637dc7a0d960e11b81526001600160a01b03841660048201526024810182905260448101839052606401610855565b61141484848484036000612918565b6001600160a01b0383166122a357604051634b637e8f60e11b815260006004820152602401610855565b6001600160a01b0382166122cd5760405163ec442f0560e01b815260006004820152602401610855565b610c408383836129ed565b60065460ff16156122fc5760405163d93c066560e01b815260040160405180910390fd5b565b6001600160a01b03821661232857604051634b637e8f60e11b815260006004820152602401610855565b611fbd826000836129ed565b6001600160a01b0382166000908152600d602052604081205461235990600190613031565b9050808214612413576001600160a01b0383166000908152600d6020526040902080548290811061238c5761238c613044565b9060005260206000209060030201600d6000856001600160a01b03166001600160a01b0316815260200190815260200160002083815481106123d0576123d0613044565b60009182526020909120825460039092020180546001600160a01b0319166001600160a01b03909216919091178155600180830154908201556002918201549101555b6001600160a01b0383166000908152600d6020526040902080548061243a5761243a61314e565b60008281526020812060036000199093019283020180546001600160a01b031916815560018101829055600201559055505050565b60405163a9059cbb60e01b81526001600160a01b038381166004830152602482018390526000917f00000000000000000000000000000000000000000000000000000000000000009091169063a9059cbb906044016020604051808303816000875af11580156124e3573d6000803e3d6000fd5b505050506040513d601f19601f82011682018060405250810190610e5c9190612fba565b7f00000000000000000000000000000000000000000000000000000000000000006001600160a01b03167f00000000000000000000000000000000000000000000000000000000000000006001600160a01b03167f2047d1633ff7768462ae07d28cb16e484203bfd6d85ce832494270ebcd9081a27f00000000000000000000000000000000000000000000000000000000000000006001600160a01b031663ad7a672f6040518163ffffffff1660e01b8152600401602060405180830381865afa1580156125da573d6000803e3d6000fd5b505050506040513d601f19601f820116820180604052508101906125fe9190613002565b60405190815260200160405180910390a3565b600060085461261f60025490565b6126299190613031565b905090565b6001600160a01b0382166126585760405163ec442f0560e01b815260006004820152602401610855565b611fbd600083836129ed565b336000908152600d602090815260409182902082516060810184526001600160a01b0385168152918201859052600f5490928201906126a39042613093565b90528154600180820184556000938452602093849020835160039093020180546001600160a01b0319166001600160a01b039384161781559383015190840155604090910151600290920191909155612720908216337f000000000000000000000000000000000000000000000000000000000000000085612170565b61272a338361262e565b816007600082825461273c9190613093565b9091555061274a9050612507565b604051829033907fe1fffcc4923d04b559f4d29a8bfc6cda04eb5b0d3c460751c2402c5c5cc9109c90600090a35050565b600081831061278a5781610e5c565b5090919050565b6010546001600160a01b0383166000908152600c602052604090205442916127b891613093565b11156127f75760405162461bcd60e51b815260206004820152600e60248201526d140e9195539114d7d313d0d2d15160921b6044820152606401610855565b80612817836001600160a01b031660009081526020819052604090205490565b101561285e5760405162461bcd60e51b8152602060048201526016602482015275503a494e53554646494349454e545f42414c414e434560501b6044820152606401610855565b612866612b17565b811115611fbd5760405162461bcd60e51b815260206004820152601860248201527f503a494e53554646494349454e545f4c495155494449545900000000000000006044820152606401610855565b60006128ca6001600160a01b03841683612bc6565b905080516000141580156128ef5750808060200190518101906128ed9190612fba565b155b15610c4057604051635274afe760e01b81526001600160a01b0384166004820152602401610855565b6001600160a01b0384166129425760405163e602df0560e01b815260006004820152602401610855565b6001600160a01b03831661296c57604051634a1406b160e11b815260006004820152602401610855565b6001600160a01b038085166000908152600160209081526040808320938716835292905220829055801561141457826001600160a01b0316846001600160a01b03167f8c5be1e5ebec7d5bd14f71427d1e84f3dd0314c0f7b2291e5b200ac8c7c3b925846040516129df91815260200190565b60405180910390a350505050565b6001600160a01b038316612a18578060026000828254612a0d9190613093565b90915550612a8a9050565b6001600160a01b03831660009081526020819052604090205481811015612a6b5760405163391434e360e21b81526001600160a01b03851660048201526024810182905260448101839052606401610855565b6001600160a01b03841660009081526020819052604090209082900390555b6001600160a01b038216612aa657600280548290039055612ac5565b6001600160a01b03821660009081526020819052604090208054820190555b816001600160a01b0316836001600160a01b03167fddf252ad1be2c89b69c2b068fc378daa952ba7f163c4a11628f55a4df523b3ef83604051612b0a91815260200190565b60405180910390a3505050565b6040516370a0823160e01b81526001600160a01b037f0000000000000000000000000000000000000000000000000000000000000000811660048301526000917f0000000000000000000000000000000000000000000000000000000000000000909116906370a0823190602401602060405180830381865afa158015612ba2573d6000803e3d6000fd5b505050506040513d601f19601f820116820180604052508101906126299190613002565b6060610e5c8383600084600080856001600160a01b03168486604051612bec9190613164565b60006040518083038185875af1925050503d8060008114612c29576040519150601f19603f3d011682016040523d82523d6000602084013e612c2e565b606091505b5091509150612c3e868383612c48565b9695505050505050565b606082612c5d57612c5882612ca4565b610e5c565b8151158015612c7457506001600160a01b0384163b155b15612c9d57604051639996b31560e01b81526001600160a01b0385166004820152602401610855565b5080610e5c565b805115612cb45780518082602001fd5b604051630a12f52160e11b815260040160405180910390fd5b60005b83811015612ce8578181015183820152602001612cd0565b50506000910152565b6020815260008251806020840152612d10816040850160208701612ccd565b601f01601f19169190910160400192915050565b6001600160a01b03811681146109ad57600080fd5b600060208284031215612d4b57600080fd5b8135610e5c81612d24565b600060208284031215612d6857600080fd5b5035919050565b60008060408385031215612d8257600080fd5b8235612d8d81612d24565b946020939093013593505050565b60008083601f840112612dad57600080fd5b50813567ffffffffffffffff811115612dc557600080fd5b6020830191508360208260051b8501011115612de057600080fd5b9250929050565b600080600060408486031215612dfc57600080fd5b83359250602084013567ffffffffffffffff811115612e1a57600080fd5b612e2686828701612d9b565b9497909650939450505050565b600080600060608486031215612e4857600080fd5b8335612e5381612d24565b92506020840135612e6381612d24565b929592945050506040919091013590565b60008060008060408587031215612e8a57600080fd5b843567ffffffffffffffff80821115612ea257600080fd5b612eae88838901612d9b565b90965094506020870135915080821115612ec757600080fd5b50612ed487828801612d9b565b95989497509550505050565b60008060208385031215612ef357600080fd5b823567ffffffffffffffff811115612f0a57600080fd5b612f1685828601612d9b565b90969095509350505050565b60008060408385031215612f3557600080fd5b823591506020830135612f4781612d24565b809150509250929050565b60008060408385031215612f6557600080fd5b8235612f7081612d24565b91506020830135612f4781612d24565b600181811c90821680612f9457607f821691505b602082108103612fb457634e487b7160e01b600052602260045260246000fd5b50919050565b600060208284031215612fcc57600080fd5b81518015158114610e5c57600080fd5b6020808252600c908201526b28231d2727aa2fa0a226a4a760a11b604082015260600190565b60006020828403121561301457600080fd5b5051919050565b634e487b7160e01b600052601160045260246000fd5b81810381811115610a1057610a1061301b565b634e487b7160e01b600052603260045260246000fd5b8082028115828204841417610a1057610a1061301b565b60008261308e57634e487b7160e01b600052601260045260246000fd5b500490565b80820180821115610a1057610a1061301b565b6000600182016130b8576130b861301b565b5060010190565b6000602082840312156130d157600080fd5b813561ffff81168114610e5c57600080fd5b60208082528181018390526000908460408401835b8681101561312657823561310b81612d24565b6001600160a01b0316825291830191908301906001016130f8565b509695505050505050565b60006020828403121561314357600080fd5b8151610e5c81612d24565b634e487b7160e01b600052603160045260246000fd5b60008251613176818460208701612ccd565b919091019291505056fea26469706673582212207b5cb95d8234d0159ad947145b21b06cc80994d51967e8c2aa795bfd6183337964736f6c63430008140033",
    "linkReferences": {}
  },
  "methodIdentifiers": {
    "NAME()": "a3f4df7e",
    "SYMBOL()": "f76f8d78",
    "adminDeposit(uint256)": "08687794",
    "allowance(address,address)": "dd62ed3e",
    "approve(address,uint256)": "095ea7b3",
    "availableToWithdraw(address,uint256)": "66f294cf",
    "balanceOf(address)": "70a08231",
    "blendedPool()": "2dfbf503",
    "canWithdraw(uint256)": "fbe85f06",
    "claimReward()": "b88a802f",
    "concludePendingReward(address)": "9264fd53",
    "concludePendingWithdrawal(address)": "1e0a5967",
    "decimals()": "313ce567",
    "deleteSecondaryLiquidityAsset(address)": "486b3ed3",
    "deposit(uint256)": "b6b55f25",
    "depositDate(address)": "24b92e8e",
    "depositSecondaryAsset(uint256,address)": "c8954760",
    "distributeRewards(uint256,address[])": "1aa59542",
    "drawdown(address,uint256)": "6acab9da",
    "getLL()": "66731639",
    "liquidityAsset()": "209b2bca",
    "liquidityLocker()": "9759164a",
    "name()": "06fdde03",
    "paused()": "5c975abb",
    "pendingRewards(address)": "31d7a262",
    "pendingWithdrawals(address)": "f3f43703",
    "poolInfo()": "5a2f3d09",
    "principalOut()": "ac641655",
    "reinvest(uint256)": "83b4918b",
    "rewards(address)": "0700037d",
    "setBlendedPool(address)": "a81b3545",
    "setSecondaryLiquidityAsset(address)": "7050886b",
    "setSecondaryLiquidityAssets(address[])": "74ee1ac4",
    "superFactory()": "0d49b38c",
    "symbol()": "95d89b41",
    "totalDeposited()": "ff50abdc",
    "totalSupply()": "18160ddd",
    "transfer(address,uint256)": "a9059cbb",
    "transferFrom(address,address,uint256)": "23b872dd",
    "userDeposits(address,uint256)": "08f43333",
    "withdraw(uint256[],uint16[])": "28915483",
    "withdrawLimit()": "f848d541",
    "withdrawPeriod()": "12eb4f9a",
    "withdrawableOf(address)": "fa8c00d4"
  },
  "id": 10
}