{
  "abi": [
    {
      "inputs": [
        {
          "internalType": "address",
          "name": "_globals",
          "type": "address"
        }
      ],
      "stateMutability": "nonpayable",
      "type": "constructor"
    },
    {
      "inputs": [],
      "name": "EnforcedPause",
      "type": "error"
    },
    {
      "inputs": [],
      "name": "ExpectedPause",
      "type": "error"
    },
    {
      "inputs": [],
      "name": "ReentrancyGuardReentrantCall",
      "type": "error"
    },
    {
      "anonymous": false,
      "inputs": [
        {
          "indexed": false,
          "internalType": "address",
          "name": "liquidityAsset",
          "type": "address"
        },
        {
          "indexed": true,
          "internalType": "address",
          "name": "pool",
          "type": "address"
        },
        {
          "indexed": true,
          "internalType": "address",
          "name": "delegate",
          "type": "address"
        }
      ],
      "name": "BlendedPoolCreated",
      "type": "event"
    },
    {
      "anonymous": false,
      "inputs": [
        {
          "indexed": false,
          "internalType": "address",
          "name": "account",
          "type": "address"
        }
      ],
      "name": "Paused",
      "type": "event"
    },
    {
      "anonymous": false,
      "inputs": [
        {
          "indexed": false,
          "internalType": "string",
          "name": "poolId",
          "type": "string"
        },
        {
          "indexed": false,
          "internalType": "address",
          "name": "liquidityAsset",
          "type": "address"
        },
        {
          "indexed": true,
          "internalType": "address",
          "name": "pool",
          "type": "address"
        },
        {
          "indexed": true,
          "internalType": "address",
          "name": "delegate",
          "type": "address"
        }
      ],
      "name": "PoolCreated",
      "type": "event"
    },
    {
      "anonymous": false,
      "inputs": [
        {
          "indexed": false,
          "internalType": "address",
          "name": "account",
          "type": "address"
        }
      ],
      "name": "Unpaused",
      "type": "event"
    },
    {
      "inputs": [],
      "name": "blendedPool",
      "outputs": [
        {
          "internalType": "address",
          "name": "",
          "type": "address"
        }
      ],
      "stateMutability": "view",
      "type": "function"
    },
    {
      "inputs": [
        {
          "internalType": "address",
          "name": "liquidityAsset",
          "type": "address"
        },
        {
          "internalType": "address",
          "name": "llFactory",
          "type": "address"
        },
        {
          "internalType": "uint256",
          "name": "lockupPeriod",
          "type": "uint256"
        },
        {
          "internalType": "uint256",
          "name": "apy",
          "type": "uint256"
        },
        {
          "internalType": "uint256",
          "name": "duration",
          "type": "uint256"
        },
        {
          "internalType": "uint256",
          "name": "minInvestmentAmount",
          "type": "uint256"
        },
        {
          "internalType": "uint256",
          "name": "withdrawThreshold",
          "type": "uint256"
        },
        {
          "internalType": "uint256",
          "name": "withdrawPeriod",
          "type": "uint256"
        }
      ],
      "name": "createBlendedPool",
      "outputs": [
        {
          "internalType": "address",
          "name": "blendedPoolAddress",
          "type": "address"
        }
      ],
      "stateMutability": "nonpayable",
      "type": "function"
    },
    {
      "inputs": [
        {
          "internalType": "string",
          "name": "poolId",
          "type": "string"
        },
        {
          "internalType": "address",
          "name": "liquidityAsset",
          "type": "address"
        },
        {
          "internalType": "address",
          "name": "llFactory",
          "type": "address"
        },
        {
          "internalType": "uint256",
          "name": "lockupPeriod",
          "type": "uint256"
        },
        {
          "internalType": "uint256",
          "name": "apy",
          "type": "uint256"
        },
        {
          "internalType": "uint256",
          "name": "duration",
          "type": "uint256"
        },
        {
          "internalType": "uint256",
          "name": "investmentPoolSize",
          "type": "uint256"
        },
        {
          "internalType": "uint256",
          "name": "minInvestmentAmount",
          "type": "uint256"
        },
        {
          "internalType": "uint256",
          "name": "withdrawThreshold",
          "type": "uint256"
        },
        {
          "internalType": "uint256",
          "name": "withdrawPeriod",
          "type": "uint256"
        }
      ],
      "name": "createPool",
      "outputs": [
        {
          "internalType": "address",
          "name": "poolAddress",
          "type": "address"
        }
      ],
      "stateMutability": "nonpayable",
      "type": "function"
    },
    {
      "inputs": [],
      "name": "globals",
      "outputs": [
        {
          "internalType": "contract IHeliosGlobals",
          "name": "",
          "type": "address"
        }
      ],
      "stateMutability": "view",
      "type": "function"
    },
    {
      "inputs": [
        {
          "internalType": "address",
          "name": "",
          "type": "address"
        }
      ],
      "name": "isPool",
      "outputs": [
        {
          "internalType": "bool",
          "name": "",
          "type": "bool"
        }
      ],
      "stateMutability": "view",
      "type": "function"
    },
    {
      "inputs": [],
      "name": "pause",
      "outputs": [],
      "stateMutability": "nonpayable",
      "type": "function"
    },
    {
      "inputs": [],
      "name": "paused",
      "outputs": [
        {
          "internalType": "bool",
          "name": "",
          "type": "bool"
        }
      ],
      "stateMutability": "view",
      "type": "function"
    },
    {
      "inputs": [
        {
          "internalType": "string",
          "name": "",
          "type": "string"
        }
      ],
      "name": "pools",
      "outputs": [
        {
          "internalType": "address",
          "name": "",
          "type": "address"
        }
      ],
      "stateMutability": "view",
      "type": "function"
    },
    {
      "inputs": [
        {
          "internalType": "address",
          "name": "newGlobals",
          "type": "address"
        }
      ],
      "name": "setGlobals",
      "outputs": [],
      "stateMutability": "nonpayable",
      "type": "function"
    },
    {
      "inputs": [],
      "name": "unpause",
      "outputs": [],
      "stateMutability": "nonpayable",
      "type": "function"
    }
  ],
  "bytecode": {
    "object": "0x608060405234801561001057600080fd5b506040516182f13803806182f183398101604081905261002f91610062565b6000805460ff1916905560018055600280546001600160a01b0319166001600160a01b0392909216919091179055610092565b60006020828403121561007457600080fd5b81516001600160a01b038116811461008b57600080fd5b9392505050565b618250806100a16000396000f3fe60806040523480156200001157600080fd5b5060043610620000ab5760003560e01c80638456cb59116200006e5780638456cb5914620001475780639d6f17a81462000151578063b0d118371462000188578063c3124525146200019f578063cc2e0a2614620001b357600080fd5b80632a4232e214620000b05780632dfbf50314620000e45780633f4ba83a14620000f85780635b16ebb714620001045780635c975abb146200013b575b600080fd5b620000c7620000c136600462000a35565b620001ca565b6040516001600160a01b0390911681526020015b60405180910390f35b600354620000c7906001600160a01b031681565b62000102620003ef565b005b6200012a6200011536600462000adc565b60056020526000908152604090205460ff1681565b6040519015158152602001620000db565b60005460ff166200012a565b6200010262000489565b620000c76200016236600462000b01565b80516020818301810180516004825292820191909301209152546001600160a01b031681565b620000c76200019936600462000b42565b62000521565b600254620000c7906001600160a01b031681565b62000102620001c436600462000adc565b620006c3565b600254604051630935e01b60e21b81523360048201526000916001600160a01b0316906324d7806c90602401602060405180830381865afa15801562000214573d6000803e3d6000fd5b505050506040513d601f19601f820116820180604052508101906200023a919062000bae565b620002625760405162461bcd60e51b8152600401620002599062000bd2565b60405180910390fd5b6200026c620007c1565b62000276620007e6565b620002818b62000811565b60008a8a8a8a8a8a8a8a8a6040516200029a9062000951565b6001600160a01b03998a16815298909716602089015260408801959095526060870193909352608086019190915260a085015260c084015260e083015261010082015261012001604051809103906000f080158015620002fe573d6000803e3d6000fd5b5090508091508160048d60405162000317919062000c1e565b908152602001604051809103902060006101000a8154816001600160a01b0302191690836001600160a01b03160217905550600160056000846001600160a01b03166001600160a01b0316815260200190815260200160002060006101000a81548160ff021916908315150217905550336001600160a01b0316826001600160a01b03167fcf2a5a138ba5b498559fc2ecefc1acc601b97f9c65726e53ce8543d03a3a2d698e8e604051620003ce92919062000c3c565b60405180910390a350620003e160018055565b9a9950505050505050505050565b600254604051630935e01b60e21b81523360048201526001600160a01b03909116906324d7806c90602401602060405180830381865afa15801562000438573d6000803e3d6000fd5b505050506040513d601f19601f820116820180604052508101906200045e919062000bae565b6200047d5760405162461bcd60e51b8152600401620002599062000bd2565b6200048762000899565b565b600254604051630935e01b60e21b81523360048201526001600160a01b03909116906324d7806c90602401602060405180830381865afa158015620004d2573d6000803e3d6000fd5b505050506040513d601f19601f82011682018060405250810190620004f8919062000bae565b620005175760405162461bcd60e51b8152600401620002599062000bd2565b62000487620008ed565b600254604051630935e01b60e21b81523360048201526000916001600160a01b0316906324d7806c90602401602060405180830381865afa1580156200056b573d6000803e3d6000fd5b505050506040513d601f19601f8201168201806040525081019062000591919062000bae565b620005b05760405162461bcd60e51b8152600401620002599062000bd2565b620005ba620007c1565b620005c4620007e6565b6003546001600160a01b031615620005db57600080fd5b60008989898989898989604051620005f3906200095f565b6001600160a01b03988916815297909616602088015260408701949094526060860192909252608085015260a084015260c083015260e082015261010001604051809103906000f0801580156200064e573d6000803e3d6000fd5b50600380546001600160a01b0319166001600160a01b03838116918217909255604051918d1682529193508392503391907f3fef4517391efaf052720acd8025d671a7b00776e8065586a7ac32ac6a42c9359060200160405180910390a350620006b760018055565b98975050505050505050565b600254604051630935e01b60e21b81523360048201526001600160a01b03909116906324d7806c90602401602060405180830381865afa1580156200070c573d6000803e3d6000fd5b505050506040513d601f19601f8201168201806040525081019062000732919062000bae565b620007515760405162461bcd60e51b8152600401620002599062000bd2565b6001600160a01b0381166200079f5760405162461bcd60e51b815260206004820152601360248201527250463a5a45524f5f4e45575f474c4f42414c5360681b604482015260640162000259565b600280546001600160a01b0319166001600160a01b0392909216919091179055565b60005460ff1615620004875760405163d93c066560e01b815260040160405180910390fd5b6002600154036200080a57604051633ee5aeb560e01b815260040160405180910390fd5b6002600155565b60006001600160a01b03166004826040516200082e919062000c1e565b908152604051908190036020019020546001600160a01b031614620008965760405162461bcd60e51b815260206004820152601960248201527f50463a504f4f4c5f49445f414c52454144595f45584953545300000000000000604482015260640162000259565b50565b620008a36200092d565b6000805460ff191690557f5db9ee0a495bf2e6ff9c91a7834c1ba4fdd244a5e8aa4e537bd38aeae4b073aa335b6040516001600160a01b03909116815260200160405180910390a1565b620008f7620007c1565b6000805460ff191660011790557f62e78cea01bee320cd4e420270b5ea74000d11b0c9f74754ebdbfc544b05a258620008d03390565b60005460ff166200048757604051638dfc202b60e01b815260040160405180910390fd5b6139ed8062000c8383390190565b613bab806200467083390190565b634e487b7160e01b600052604160045260246000fd5b600082601f8301126200099557600080fd5b813567ffffffffffffffff80821115620009b357620009b36200096d565b604051601f8301601f19908116603f01168101908282118183101715620009de57620009de6200096d565b81604052838152866020858801011115620009f857600080fd5b836020870160208301376000602085830101528094505050505092915050565b80356001600160a01b038116811462000a3057600080fd5b919050565b6000806000806000806000806000806101408b8d03121562000a5657600080fd5b8a3567ffffffffffffffff81111562000a6e57600080fd5b62000a7c8d828e0162000983565b9a505062000a8d60208c0162000a18565b985062000a9d60408c0162000a18565b999c989b5098996060810135995060808101359860a0820135985060c0820135975060e082013596506101008201359550610120909101359350915050565b60006020828403121562000aef57600080fd5b62000afa8262000a18565b9392505050565b60006020828403121562000b1457600080fd5b813567ffffffffffffffff81111562000b2c57600080fd5b62000b3a8482850162000983565b949350505050565b600080600080600080600080610100898b03121562000b6057600080fd5b62000b6b8962000a18565b975062000b7b60208a0162000a18565b979a9799505050506040860135956060810135956080820135955060a0820135945060c0820135935060e0909101359150565b60006020828403121562000bc157600080fd5b8151801515811462000afa57600080fd5b6020808252600c908201526b28231d2727aa2fa0a226a4a760a11b604082015260600190565b60005b8381101562000c1557818101518382015260200162000bfb565b50506000910152565b6000825162000c3281846020870162000bf8565b9190910192915050565b604081526000835180604084015262000c5d81606085016020880162000bf8565b6001600160a01b0393909316602083015250601f91909101601f19160160600191905056fe6101006040523480156200001257600080fd5b50604051620039ed380380620039ed8339810160408190526200003591620004ce565b88886040518060400160405280600f81526020016e12195b1a5bdcc81512d388141bdbdb608a1b815250604051806040016040528060058152602001640484c532d560dc1b815250858583838160039081620000929190620005f6565b506004620000a18282620005f6565b50506001600555506006805460ff191690556001600160a01b03861660a08190526040805163313ce56760e01b8152905163313ce567916004808201926020929091908290030181865afa158015620000fe573d6000803e3d6000fd5b505050506040513d601f19601f82011682018060405250810190620001249190620006c2565b60ff1660c052604051630cf5bc1d60e11b81526001600160a01b0387811660048301528616906319eb783a906024016020604051808303816000875af115801562000173573d6000803e3d6000fd5b505050506040513d601f19601f82011682018060405250810190620001999190620006ee565b6001600160a01b03908116608052600e92909255600f553360e0528d16935062000201925050505760405162461bcd60e51b815260206004820152601060248201526f140e96915493d7d3125457d054d4d15560821b60448201526064015b60405180910390fd5b6001600160a01b038816620002595760405162461bcd60e51b815260206004820152601960248201527f503a5a45524f5f4c49515f4c4f434b45525f464143544f5259000000000000006044820152606401620001f8565b6040805160c08101825288815260208101889052908101869052606081018590526080810184905260a00182905260108790556011869055601285905560138490556014839055601582905560e051620002b39062000448565b60405163434a88c560e11b81526001600160a01b038b811660048301529190911690638695118a90602401602060405180830381865afa158015620002fc573d6000803e3d6000fd5b505050506040513d601f19601f820116820180604052508101906200032291906200070e565b620003705760405162461bcd60e51b815260206004820152601360248201527f503a494e56414c49445f4c49515f4153534554000000000000000000000000006044820152606401620001f8565b60e0516200037e9062000448565b60405162041a9d60e51b81526001600160a01b038a811660048301529190911690628353a090602401602060405180830381865afa158015620003c5573d6000803e3d6000fd5b505050506040513d601f19601f82011682018060405250810190620003eb91906200070e565b620004395760405162461bcd60e51b815260206004820152601460248201527f503a494e56414c49445f4c4c5f464143544f52590000000000000000000000006044820152606401620001f8565b50505050505050505062000732565b6000816001600160a01b031663c31245256040518163ffffffff1660e01b8152600401602060405180830381865afa15801562000489573d6000803e3d6000fd5b505050506040513d601f19601f82011682018060405250810190620004af9190620006ee565b92915050565b6001600160a01b0381168114620004cb57600080fd5b50565b60008060008060008060008060006101208a8c031215620004ee57600080fd5b8951620004fb81620004b5565b60208b01519099506200050e81620004b5565b8098505060408a0151965060608a0151955060808a0151945060a08a0151935060c08a0151925060e08a015191506101008a015190509295985092959850929598565b634e487b7160e01b600052604160045260246000fd5b600181811c908216806200057c57607f821691505b6020821081036200059d57634e487b7160e01b600052602260045260246000fd5b50919050565b601f821115620005f157600081815260208120601f850160051c81016020861015620005cc5750805b601f850160051c820191505b81811015620005ed57828155600101620005d8565b5050505b505050565b81516001600160401b0381111562000612576200061262000551565b6200062a8162000623845462000567565b84620005a3565b602080601f831160018114620006625760008415620006495750858301515b600019600386901b1c1916600185901b178555620005ed565b600085815260208120601f198616915b82811015620006935788860151825594840194600190910190840162000672565b5085821015620006b25787850151600019600388901b60f8161c191681555b5050505050600190811b01905550565b600060208284031215620006d557600080fd5b815160ff81168114620006e757600080fd5b9392505050565b6000602082840312156200070157600080fd5b8151620006e781620004b5565b6000602082840312156200072157600080fd5b81518015158114620006e757600080fd5b60805160a05160c05160e0516131b6620008376000396000818161033a015281816107ab01528181610a1b01528181610c520152818161133c0152818161141f015281816116c001526118bf015260006104320152600081816103b001528181610875015281816109650152818161206d015281816125090152612b590152600081816104e7015281816105b30152818161098801528181610d3601528181611076015281816111fc015281816114e80152818161152e015281816117a401528181611a5401528181611aff01528181611efc0152818161204101528181612498015281816125330152818161257e015281816126fb0152612b2e01526131b66000f3fe608060405234801561001057600080fd5b50600436106102745760003560e01c80636acab9da11610151578063ac641655116100c3578063f3f4370311610087578063f3f4370314610699578063f76f8d78146106b9578063f848d541146106dd578063fa8c00d4146106e6578063fbe85f06146106f9578063ff50abdc1461070c57600080fd5b8063ac64165514610629578063b6b55f2514610632578063b88a802f14610645578063c89547601461064d578063dd62ed3e1461066057600080fd5b80639264fd53116101155780639264fd531461059357806395d89b41146105a65780639759164a146105ae578063a3f4df7e146105d5578063a81b354514610603578063a9059cbb1461061657600080fd5b80636acab9da1461051e5780637050886b1461053157806370a082311461054457806374ee1ac41461056d57806383b4918b1461058057600080fd5b806323b872dd116101ea57806331d7a262116101ae57806331d7a2621461045c578063486b3ed31461047c5780635a2f3d091461048f5780635c975abb146104da57806366731639146104e557806366f294cf1461050b57600080fd5b806323b872dd146103d257806324b92e8e146103e557806328915483146104055780632dfbf50314610418578063313ce5671461042b57600080fd5b80630d49b38c1161023c5780630d49b38c1461033557806312eb4f9a1461037457806318160ddd1461037d5780631aa59542146103855780631e0a596714610398578063209b2bca146103ab57600080fd5b806306fdde03146102795780630700037d1461029757806308687794146102c557806308f43333146102da578063095ea7b314610312575b600080fd5b610281610714565b60405161028e9190612cf1565b60405180910390f35b6102b76102a5366004612d39565b60096020526000908152604090205481565b60405190815260200161028e565b6102d86102d3366004612d56565b6107a6565b005b6102ed6102e8366004612d6f565b6109b0565b604080516001600160a01b03909416845260208401929092529082015260600161028e565b610325610320366004612d6f565b6109fc565b604051901515815260200161028e565b61035c7f000000000000000000000000000000000000000000000000000000000000000081565b6040516001600160a01b03909116815260200161028e565b6102b7600f5481565b6002546102b7565b6102d8610393366004612de7565b610a16565b6102d86103a6366004612d39565b610c45565b61035c7f000000000000000000000000000000000000000000000000000000000000000081565b6103256103e0366004612e33565b610e3d565b6102b76103f3366004612d39565b600c6020526000908152604090205481565b6102d8610413366004612e74565b610e63565b60165461035c906001600160a01b031681565b60405160ff7f000000000000000000000000000000000000000000000000000000000000000016815260200161028e565b6102b761046a366004612d39565b600b6020526000908152604090205481565b6102d861048a366004612d39565b6111dd565b6010546011546012546013546014546015546104ad95949392919086565b604080519687526020870195909552938501929092526060840152608083015260a082015260c00161028e565b60065460ff16610325565b7f000000000000000000000000000000000000000000000000000000000000000061035c565b6102b7610519366004612d6f565b611255565b6102d861052c366004612d6f565b611337565b6102d861053f366004612d39565b61141a565b6102b7610552366004612d39565b6001600160a01b031660009081526020819052604090205490565b6102d861057b366004612ee0565b611517565b6102d861058e366004612d56565b61159b565b6102d86105a1366004612d39565b6116b3565b6102816118ab565b61035c7f000000000000000000000000000000000000000000000000000000000000000081565b6102816040518060400160405280600f81526020016e12195b1a5bdcc81512d388141bdbdb608a1b81525081565b6102d8610611366004612d39565b6118ba565b610325610624366004612d6f565b61198b565b6102b760085481565b6102d8610640366004612d56565b611999565b610325611aeb565b6102d861065b366004612f22565b611e26565b6102b761066e366004612f52565b6001600160a01b03918216600090815260016020908152604080832093909416825291909152205490565b6102b76106a7366004612d39565b600a6020526000908152604090205481565b610281604051806040016040528060058152602001640484c532d560dc1b81525081565b6102b7600e5481565b6102b76106f4366004612d39565b611fc1565b610325610707366004612d56565b6120f8565b6007546102b7565b60606003805461072390612f80565b80601f016020809104026020016040519081016040528092919081815260200182805461074f90612f80565b801561079c5780601f106107715761010080835404028352916020019161079c565b820191906000526020600020905b81548152906001019060200180831161077f57829003601f168201915b5050505050905090565b6107cf7f000000000000000000000000000000000000000000000000000000000000000061210c565b604051630935e01b60e21b81523360048201526001600160a01b0391909116906324d7806c90602401602060405180830381865afa158015610815573d6000803e3d6000fd5b505050506040513d601f19601f820116820180604052508101906108399190612fba565b61085e5760405162461bcd60e51b815260040161085590612fdc565b60405180910390fd5b6040516370a0823160e01b815233600482015281907f00000000000000000000000000000000000000000000000000000000000000006001600160a01b0316906370a0823190602401602060405180830381865afa1580156108c4573d6000803e3d6000fd5b505050506040513d601f19601f820116820180604052508101906108e89190613002565b101561092d5760405162461bcd60e51b8152602060048201526014602482015273503a4e4f545f454e4f5547485f42414c414e434560601b6044820152606401610855565b6008548110610940576000600855610958565b80600860008282546109529190613031565b90915550505b6109ad6001600160a01b037f000000000000000000000000000000000000000000000000000000000000000016337f000000000000000000000000000000000000000000000000000000000000000084612170565b50565b600d60205281600052604060002081815481106109cc57600080fd5b60009182526020909120600390910201805460018201546002909201546001600160a01b03909116935090915083565b600033610a0a8185856121ca565b60019150505b92915050565b610a3f7f000000000000000000000000000000000000000000000000000000000000000061210c565b604051630935e01b60e21b81523360048201526001600160a01b0391909116906324d7806c90602401602060405180830381865afa158015610a85573d6000803e3d6000fd5b505050506040513d601f19601f82011682018060405250810190610aa99190612fba565b610ac55760405162461bcd60e51b815260040161085590612fdc565b610acd6121d7565b60008311610b0f5760405162461bcd60e51b815260206004820152600f60248201526e503a494e56414c49445f56414c554560881b6044820152606401610855565b80610b4d5760405162461bcd60e51b815260206004820152600e60248201526d503a5a45524f5f484f4c4445525360901b6044820152606401610855565b60005b81811015610c35576000838383818110610b6c57610b6c613044565b9050602002016020810190610b819190612d39565b90506000610ba4826001600160a01b031660009081526020819052604090205490565b601354909150600090610bbf83670de0b6b3a764000061305a565b610bc99190613071565b90506000670de0b6b3a7640000610be0898461305a565b610bea9190613071565b6001600160a01b038516600090815260096020526040812080549293508392909190610c17908490613093565b92505081905550505050508080610c2d906130a6565b915050610b50565b50610c406001600555565b505050565b610c4d6121d7565b610c767f000000000000000000000000000000000000000000000000000000000000000061210c565b604051630935e01b60e21b81523360048201526001600160a01b0391909116906324d7806c90602401602060405180830381865afa158015610cbc573d6000803e3d6000fd5b505050506040513d601f19601f82011682018060405250810190610ce09190612fba565b610cfc5760405162461bcd60e51b815260040161085590612fdc565b6001600160a01b038181166000818152600a60205260409081902054905163a9059cbb60e01b8152600481019290925260248201819052917f0000000000000000000000000000000000000000000000000000000000000000169063a9059cbb906044016020604051808303816000875af1158015610d7f573d6000803e3d6000fd5b505050506040513d601f19601f82011682018060405250810190610da39190612fba565b610def5760405162461bcd60e51b815260206004820152601c60248201527f503a434f4e434c5544455f5749544844524157414c5f4641494c4544000000006044820152606401610855565b6001600160a01b0382166000818152600a6020526040808220829055518392917f2687ab3014fc32ee1bbb5acb4d4879d56644ad540a426c06d7deaa8f127b232391a3506109ad6001600555565b600033610e4b858285612201565b610e56858585612279565b60019150505b9392505050565b610e6b6122d8565b828114610eb25760405162461bcd60e51b8152602060048201526015602482015274140e905494905654d7d25390d3d394d254d5115395605a1b6044820152606401610855565b60005b818110156111d6576000838383818110610ed157610ed1613044565b9050602002016020810190610ee691906130bf565b61ffff1690506000868684818110610f0057610f00613044565b336000908152600d6020908152604090912054910292909201359250508210610f5d5760405162461bcd60e51b815260206004820152600f60248201526e0a074929cac82989288be929c888ab608b1b6044820152606401610855565b336000908152600d60205260408120805484908110610f7e57610f7e613044565b600091825260209182902060408051606081018252600390930290910180546001600160a01b0316835260018101549383019390935260029092015491810182905291504210156110035760405162461bcd60e51b815260206004820152600f60248201526e140e9513d2d15394d7d313d0d2d151608a1b6044820152606401610855565b818160200151101580156110265750336000908152602081905260409020548211155b6110695760405162461bcd60e51b8152602060048201526014602482015273503a494e53554646494349454e545f46554e445360601b6044820152606401610855565b61107333836122fe565b817f00000000000000000000000000000000000000000000000000000000000000006001600160a01b031663ad7a672f6040518163ffffffff1660e01b8152600401602060405180830381865afa1580156110d2573d6000803e3d6000fd5b505050506040513d601f19601f820116820180604052508101906110f69190613002565b101561115557336000908152600a60205260408120805484929061111b908490613093565b9091555050604051829033907f39d9cf4ffb93650d8ce789639cb8cf3c8d7b039e1f9795c038af55b4ae643fca90600090a35050506111c4565b81816020018181516111679190613031565b9052506020810151600003611180576111803384612334565b61118a338361246f565b50611193612507565b604051829033907f7fcf532c15f0a6db0bd6d0e038bea71d30d808c7d98cb3bf7268a95bf5081b6590600090a35050505b806111ce816130a6565b915050610eb5565b5050505050565b60405163486b3ed360e01b81526001600160a01b0382811660048301527f0000000000000000000000000000000000000000000000000000000000000000169063486b3ed3906024015b600060405180830381600087803b15801561124157600080fd5b505af11580156111d6573d6000803e3d6000fd5b6001600160a01b0382166000908152600d602052604081205482106112ae5760405162461bcd60e51b815260206004820152600f60248201526e0a074929cac82989288be929c888ab608b1b6044820152606401610855565b6001600160a01b0383166000908152600d602052604081208054849081106112d8576112d8613044565b600091825260209182902060408051606081018252600390930290910180546001600160a01b031683526001810154938301939093526002909201549181018290529150421061132d57602001519050610a10565b6000915050610a10565b6113607f000000000000000000000000000000000000000000000000000000000000000061210c565b604051630935e01b60e21b81523360048201526001600160a01b0391909116906324d7806c90602401602060405180830381865afa1580156113a6573d6000803e3d6000fd5b505050506040513d601f19601f820116820180604052508101906113ca9190612fba565b6113e65760405162461bcd60e51b815260040161085590612fdc565b80600860008282546113f89190613093565b9091555060009050611408612611565b9050611414838261246f565b50505050565b6114437f000000000000000000000000000000000000000000000000000000000000000061210c565b604051630935e01b60e21b81523360048201526001600160a01b0391909116906324d7806c90602401602060405180830381865afa158015611489573d6000803e3d6000fd5b505050506040513d601f19601f820116820180604052508101906114ad9190612fba565b6114c95760405162461bcd60e51b815260040161085590612fdc565b604051637050886b60e01b81526001600160a01b0382811660048301527f00000000000000000000000000000000000000000000000000000000000000001690637050886b90602401611227565b604051631d3b86b160e21b81526001600160a01b037f000000000000000000000000000000000000000000000000000000000000000016906374ee1ac49061156590859085906004016130e3565b600060405180830381600087803b15801561157f57600080fd5b505af1158015611593573d6000803e3d6000fd5b505050505050565b600081116115dd5760405162461bcd60e51b815260206004820152600f60248201526e503a494e56414c49445f56414c554560881b6044820152606401610855565b336000908152600960205260409020548111156116355760405162461bcd60e51b8152602060048201526016602482015275503a494e53554646494349454e545f42414c414e434560501b6044820152606401610855565b61163f338261262e565b80600760008282546116519190613093565b90915550503360009081526009602052604081208054839290611675908490613031565b909155506116839050612507565b604051819033907fbd654390d0d973e8c8376ed6053be8658870df892687852cc5c914d700291b8790600090a350565b6116bb6121d7565b6116e47f000000000000000000000000000000000000000000000000000000000000000061210c565b604051630935e01b60e21b81523360048201526001600160a01b0391909116906324d7806c90602401602060405180830381865afa15801561172a573d6000803e3d6000fd5b505050506040513d601f19601f8201168201806040525081019061174e9190612fba565b61176a5760405162461bcd60e51b815260040161085590612fdc565b6001600160a01b038181166000818152600b60205260409081902054905163a9059cbb60e01b8152600481019290925260248201819052917f0000000000000000000000000000000000000000000000000000000000000000169063a9059cbb906044016020604051808303816000875af11580156117ed573d6000803e3d6000fd5b505050506040513d601f19601f820116820180604052508101906118119190612fba565b61185d5760405162461bcd60e51b815260206004820152601860248201527f503a434f4e434c5544455f5245574152445f4641494c454400000000000000006044820152606401610855565b6001600160a01b0382166000818152600b6020526040808220829055518392917f3c7e767b6741d1e3a8f90a3c95937bb07453eaf2dfee591a5a308f04f498e8b891a3506109ad6001600555565b60606004805461072390612f80565b6118e37f000000000000000000000000000000000000000000000000000000000000000061210c565b604051630935e01b60e21b81523360048201526001600160a01b0391909116906324d7806c90602401602060405180830381865afa158015611929573d6000803e3d6000fd5b505050506040513d601f19601f8201168201806040525081019061194d9190612fba565b6119695760405162461bcd60e51b815260040161085590612fdc565b601680546001600160a01b0319166001600160a01b0392909216919091179055565b600033610a0a818585612279565b6119a16122d8565b6119a96121d7565b6014548110156119f15760405162461bcd60e51b8152602060048201526013602482015272281d2222a82fa0a6aa2fa122a627abafa6a4a760691b6044820152606401610855565b601354816119fe60025490565b611a089190613093565b1115611a505760405162461bcd60e51b8152602060048201526017602482015276140e93505617d413d3d317d4d2569157d4915050d21151604a1b6044820152606401610855565b60007f00000000000000000000000000000000000000000000000000000000000000006001600160a01b031663209b2bca6040518163ffffffff1660e01b8152600401602060405180830381865afa158015611ab0573d6000803e3d6000fd5b505050506040513d601f19601f82011682018060405250810190611ad49190613131565b9050611ae08282612664565b506109ad6001600555565b3360009081526009602052604081205460007f00000000000000000000000000000000000000000000000000000000000000006001600160a01b031663ad7a672f6040518163ffffffff1660e01b8152600401602060405180830381865afa158015611b5b573d6000803e3d6000fd5b505050506040513d601f19601f82011682018060405250810190611b7f9190613002565b33600090815260096020526040812055905081811015611d9a576000611ba58284613031565b905080601660009054906101000a90046001600160a01b03166001600160a01b03166342103e8e6040518163ffffffff1660e01b8152600401602060405180830381865afa158015611bfb573d6000803e3d6000fd5b505050506040513d601f19601f82011682018060405250810190611c1f9190613002565b1015611c8057336000908152600b602052604081208054859290611c44908490613093565b9091555050604051839033907f19adda954c72f22df5078ae925d620d455e095989b72be2f895e10473b53797790600090a36000935050505090565b601654604051633d2332c160e21b8152600481018390526001600160a01b039091169063f48ccb0490602401600060405180830381600087803b158015611cc657600080fd5b505af1158015611cda573d6000803e3d6000fd5b5050601654611cf592506001600160a01b031690508261262e565b8060076000828254611d079190613093565b90915550611d179050338461246f565b611d635760405162461bcd60e51b815260206004820152601b60248201527f503a4552524f525f5452414e5346455252494e475f52455741524400000000006044820152606401610855565b604051839033907f106f923f993c2149d49b4255ff723acafa1f2d94393f561d3eda32ae348f724190600090a36001935050505090565b611da4338361246f565b611df05760405162461bcd60e51b815260206004820152601b60248201527f503a4552524f525f5452414e5346455252494e475f52455741524400000000006044820152606401610855565b604051829033907f106f923f993c2149d49b4255ff723acafa1f2d94393f561d3eda32ae348f724190600090a360019250505090565b611e2e6122d8565b611e366121d7565b601454821015611e7e5760405162461bcd60e51b8152602060048201526013602482015272281d2222a82fa0a6aa2fa122a627abafa6a4a760691b6044820152606401610855565b60135482611e8b60025490565b611e959190613093565b1115611edd5760405162461bcd60e51b8152602060048201526017602482015276140e93505617d413d3d317d4d2569157d4915050d21151604a1b6044820152606401610855565b60405163029333f560e01b81526001600160a01b0382811660048301527f0000000000000000000000000000000000000000000000000000000000000000169063029333f5906024016020604051808303816000875af1158015611f45573d6000803e3d6000fd5b505050506040513d601f19601f82011682018060405250810190611f699190612fba565b611fa75760405162461bcd60e51b815260206004820152600f60248201526e140e955392d393d5d397d054d4d155608a1b6044820152606401610855565b80611fb28382612664565b50611fbd6001600555565b5050565b6010546001600160a01b0382166000908152600c602052604081205490914291611feb9190613093565b111561202a5760405162461bcd60e51b815260206004820152600e60248201526d140e9195539114d7d313d0d2d15160921b6044820152606401610855565b6040516370a0823160e01b81526001600160a01b037f000000000000000000000000000000000000000000000000000000000000000081166004830152610a10917f0000000000000000000000000000000000000000000000000000000000000000909116906370a0823190602401602060405180830381865afa1580156120b6573d6000803e3d6000fd5b505050506040513d601f19601f820116820180604052508101906120da9190613002565b6001600160a01b03841660009081526020819052604090205461277b565b60006121043383612791565b506001919050565b6000816001600160a01b031663c31245256040518163ffffffff1660e01b8152600401602060405180830381865afa15801561214c573d6000803e3d6000fd5b505050506040513d601f19601f82011682018060405250810190610a109190613131565b604080516001600160a01b0385811660248301528416604482015260648082018490528251808303909101815260849091019091526020810180516001600160e01b03166323b872dd60e01b1790526114149085906128b5565b610c408383836001612918565b6002600554036121fa57604051633ee5aeb560e01b815260040160405180910390fd5b6002600555565b6001600160a01b038381166000908152600160209081526040808320938616835292905220546000198114611414578181101561226a57604051637dc7a0d960e11b81526001600160a01b03841660048201526024810182905260448101839052606401610855565b61141484848484036000612918565b6001600160a01b0383166122a357604051634b637e8f60e11b815260006004820152602401610855565b6001600160a01b0382166122cd5760405163ec442f0560e01b815260006004820152602401610855565b610c408383836129ed565b60065460ff16156122fc5760405163d93c066560e01b815260040160405180910390fd5b565b6001600160a01b03821661232857604051634b637e8f60e11b815260006004820152602401610855565b611fbd826000836129ed565b6001600160a01b0382166000908152600d602052604081205461235990600190613031565b9050808214612413576001600160a01b0383166000908152600d6020526040902080548290811061238c5761238c613044565b9060005260206000209060030201600d6000856001600160a01b03166001600160a01b0316815260200190815260200160002083815481106123d0576123d0613044565b60009182526020909120825460039092020180546001600160a01b0319166001600160a01b03909216919091178155600180830154908201556002918201549101555b6001600160a01b0383166000908152600d6020526040902080548061243a5761243a61314e565b60008281526020812060036000199093019283020180546001600160a01b031916815560018101829055600201559055505050565b60405163a9059cbb60e01b81526001600160a01b038381166004830152602482018390526000917f00000000000000000000000000000000000000000000000000000000000000009091169063a9059cbb906044016020604051808303816000875af11580156124e3573d6000803e3d6000fd5b505050506040513d601f19601f82011682018060405250810190610e5c9190612fba565b7f00000000000000000000000000000000000000000000000000000000000000006001600160a01b03167f00000000000000000000000000000000000000000000000000000000000000006001600160a01b03167f2047d1633ff7768462ae07d28cb16e484203bfd6d85ce832494270ebcd9081a27f00000000000000000000000000000000000000000000000000000000000000006001600160a01b031663ad7a672f6040518163ffffffff1660e01b8152600401602060405180830381865afa1580156125da573d6000803e3d6000fd5b505050506040513d601f19601f820116820180604052508101906125fe9190613002565b60405190815260200160405180910390a3565b600060085461261f60025490565b6126299190613031565b905090565b6001600160a01b0382166126585760405163ec442f0560e01b815260006004820152602401610855565b611fbd600083836129ed565b336000908152600d602090815260409182902082516060810184526001600160a01b0385168152918201859052600f5490928201906126a39042613093565b90528154600180820184556000938452602093849020835160039093020180546001600160a01b0319166001600160a01b039384161781559383015190840155604090910151600290920191909155612720908216337f000000000000000000000000000000000000000000000000000000000000000085612170565b61272a338361262e565b816007600082825461273c9190613093565b9091555061274a9050612507565b604051829033907fe1fffcc4923d04b559f4d29a8bfc6cda04eb5b0d3c460751c2402c5c5cc9109c90600090a35050565b600081831061278a5781610e5c565b5090919050565b6010546001600160a01b0383166000908152600c602052604090205442916127b891613093565b11156127f75760405162461bcd60e51b815260206004820152600e60248201526d140e9195539114d7d313d0d2d15160921b6044820152606401610855565b80612817836001600160a01b031660009081526020819052604090205490565b101561285e5760405162461bcd60e51b8152602060048201526016602482015275503a494e53554646494349454e545f42414c414e434560501b6044820152606401610855565b612866612b17565b811115611fbd5760405162461bcd60e51b815260206004820152601860248201527f503a494e53554646494349454e545f4c495155494449545900000000000000006044820152606401610855565b60006128ca6001600160a01b03841683612bc6565b905080516000141580156128ef5750808060200190518101906128ed9190612fba565b155b15610c4057604051635274afe760e01b81526001600160a01b0384166004820152602401610855565b6001600160a01b0384166129425760405163e602df0560e01b815260006004820152602401610855565b6001600160a01b03831661296c57604051634a1406b160e11b815260006004820152602401610855565b6001600160a01b038085166000908152600160209081526040808320938716835292905220829055801561141457826001600160a01b0316846001600160a01b03167f8c5be1e5ebec7d5bd14f71427d1e84f3dd0314c0f7b2291e5b200ac8c7c3b925846040516129df91815260200190565b60405180910390a350505050565b6001600160a01b038316612a18578060026000828254612a0d9190613093565b90915550612a8a9050565b6001600160a01b03831660009081526020819052604090205481811015612a6b5760405163391434e360e21b81526001600160a01b03851660048201526024810182905260448101839052606401610855565b6001600160a01b03841660009081526020819052604090209082900390555b6001600160a01b038216612aa657600280548290039055612ac5565b6001600160a01b03821660009081526020819052604090208054820190555b816001600160a01b0316836001600160a01b03167fddf252ad1be2c89b69c2b068fc378daa952ba7f163c4a11628f55a4df523b3ef83604051612b0a91815260200190565b60405180910390a3505050565b6040516370a0823160e01b81526001600160a01b037f0000000000000000000000000000000000000000000000000000000000000000811660048301526000917f0000000000000000000000000000000000000000000000000000000000000000909116906370a0823190602401602060405180830381865afa158015612ba2573d6000803e3d6000fd5b505050506040513d601f19601f820116820180604052508101906126299190613002565b6060610e5c8383600084600080856001600160a01b03168486604051612bec9190613164565b60006040518083038185875af1925050503d8060008114612c29576040519150601f19603f3d011682016040523d82523d6000602084013e612c2e565b606091505b5091509150612c3e868383612c48565b9695505050505050565b606082612c5d57612c5882612ca4565b610e5c565b8151158015612c7457506001600160a01b0384163b155b15612c9d57604051639996b31560e01b81526001600160a01b0385166004820152602401610855565b5080610e5c565b805115612cb45780518082602001fd5b604051630a12f52160e11b815260040160405180910390fd5b60005b83811015612ce8578181015183820152602001612cd0565b50506000910152565b6020815260008251806020840152612d10816040850160208701612ccd565b601f01601f19169190910160400192915050565b6001600160a01b03811681146109ad57600080fd5b600060208284031215612d4b57600080fd5b8135610e5c81612d24565b600060208284031215612d6857600080fd5b5035919050565b60008060408385031215612d8257600080fd5b8235612d8d81612d24565b946020939093013593505050565b60008083601f840112612dad57600080fd5b50813567ffffffffffffffff811115612dc557600080fd5b6020830191508360208260051b8501011115612de057600080fd5b9250929050565b600080600060408486031215612dfc57600080fd5b83359250602084013567ffffffffffffffff811115612e1a57600080fd5b612e2686828701612d9b565b9497909650939450505050565b600080600060608486031215612e4857600080fd5b8335612e5381612d24565b92506020840135612e6381612d24565b929592945050506040919091013590565b60008060008060408587031215612e8a57600080fd5b843567ffffffffffffffff80821115612ea257600080fd5b612eae88838901612d9b565b90965094506020870135915080821115612ec757600080fd5b50612ed487828801612d9b565b95989497509550505050565b60008060208385031215612ef357600080fd5b823567ffffffffffffffff811115612f0a57600080fd5b612f1685828601612d9b565b90969095509350505050565b60008060408385031215612f3557600080fd5b823591506020830135612f4781612d24565b809150509250929050565b60008060408385031215612f6557600080fd5b8235612f7081612d24565b91506020830135612f4781612d24565b600181811c90821680612f9457607f821691505b602082108103612fb457634e487b7160e01b600052602260045260246000fd5b50919050565b600060208284031215612fcc57600080fd5b81518015158114610e5c57600080fd5b6020808252600c908201526b28231d2727aa2fa0a226a4a760a11b604082015260600190565b60006020828403121561301457600080fd5b5051919050565b634e487b7160e01b600052601160045260246000fd5b81810381811115610a1057610a1061301b565b634e487b7160e01b600052603260045260246000fd5b8082028115828204841417610a1057610a1061301b565b60008261308e57634e487b7160e01b600052601260045260246000fd5b500490565b80820180821115610a1057610a1061301b565b6000600182016130b8576130b861301b565b5060010190565b6000602082840312156130d157600080fd5b813561ffff81168114610e5c57600080fd5b60208082528181018390526000908460408401835b8681101561312657823561310b81612d24565b6001600160a01b0316825291830191908301906001016130f8565b509695505050505050565b60006020828403121561314357600080fd5b8151610e5c81612d24565b634e487b7160e01b600052603160045260246000fd5b60008251613176818460208701612ccd565b919091019291505056fea26469706673582212207b5cb95d8234d0159ad947145b21b06cc80994d51967e8c2aa795bfd6183337964736f6c634300081400336101006040523480156200001257600080fd5b5060405162003bab38038062003bab8339810160408190526200003591620004d2565b87876040518060400160405280600f81526020016e12195b1a5bdcc81512d388141bdbdb608a1b815250604051806040016040528060058152602001640484c532d560dc1b815250858583838160039081620000929190620005ed565b506004620000a18282620005ed565b50506001600555506006805460ff191690556001600160a01b03861660a08190526040805163313ce56760e01b8152905163313ce567916004808201926020929091908290030181865afa158015620000fe573d6000803e3d6000fd5b505050506040513d601f19601f82011682018060405250810190620001249190620006b9565b60ff1660c052604051630cf5bc1d60e11b81526001600160a01b0387811660048301528616906319eb783a906024016020604051808303816000875af115801562000173573d6000803e3d6000fd5b505050506040513d601f19601f82011682018060405250810190620001999190620006e5565b6001600160a01b03908116608052600e92909255600f553360e0528c16935062000202925050505760405162461bcd60e51b815260206004820152601160248201527010940e96915493d7d3125457d054d4d155607a1b60448201526064015b60405180910390fd5b6001600160a01b0387166200025a5760405162461bcd60e51b815260206004820152601a60248201527f42503a5a45524f5f4c49515f4c4f434b45525f464143544f52590000000000006044820152606401620001f9565b60e05162000268906200044c565b60405163434a88c560e11b81526001600160a01b038a811660048301529190911690638695118a90602401602060405180830381865afa158015620002b1573d6000803e3d6000fd5b505050506040513d601f19601f82011682018060405250810190620002d7919062000705565b620003255760405162461bcd60e51b815260206004820152601460248201527f42503a494e56414c49445f4c49515f41535345540000000000000000000000006044820152606401620001f9565b60e05162000333906200044c565b60405162041a9d60e51b81526001600160a01b0389811660048301529190911690628353a090602401602060405180830381865afa1580156200037a573d6000803e3d6000fd5b505050506040513d601f19601f82011682018060405250810190620003a0919062000705565b620003ee5760405162461bcd60e51b815260206004820152601560248201527f42503a494e56414c49445f4c4c5f464143544f525900000000000000000000006044820152606401620001f9565b506040805160c08101825286815260208101869052908101849052600019606082018190526080820184905260a090910182905260109590955560119390935560129190915560139290925560149190915560155550620007299050565b6000816001600160a01b031663c31245256040518163ffffffff1660e01b8152600401602060405180830381865afa1580156200048d573d6000803e3d6000fd5b505050506040513d601f19601f82011682018060405250810190620004b39190620006e5565b92915050565b6001600160a01b0381168114620004cf57600080fd5b50565b600080600080600080600080610100898b031215620004f057600080fd5b8851620004fd81620004b9565b60208a01519098506200051081620004b9565b60408a015160608b015160808c015160a08d015160c08e015160e0909e01519c9f949e50929c919b909a509198509650945092505050565b634e487b7160e01b600052604160045260246000fd5b600181811c908216806200057357607f821691505b6020821081036200059457634e487b7160e01b600052602260045260246000fd5b50919050565b601f821115620005e857600081815260208120601f850160051c81016020861015620005c35750805b601f850160051c820191505b81811015620005e457828155600101620005cf565b5050505b505050565b81516001600160401b0381111562000609576200060962000548565b62000621816200061a84546200055e565b846200059a565b602080601f831160018114620006595760008415620006405750858301515b600019600386901b1c1916600185901b178555620005e4565b600085815260208120601f198616915b828110156200068a5788860151825594840194600190910190840162000669565b5085821015620006a95787850151600019600388901b60f8161c191681555b5050505050600190811b01905550565b600060208284031215620006cc57600080fd5b815160ff81168114620006de57600080fd5b9392505050565b600060208284031215620006f857600080fd5b8151620006de81620004b9565b6000602082840312156200071857600080fd5b81518015158114620006de57600080fd5b60805160a05160c05160e05161337662000835600039600081816103810152818161084301528181610ab301528181610cc60152818161125601528181611509015281816115ec0152818161188d01528181611a9a0152611fe2015260006104660152600081816103f70152818161090d015281816109fd0152818161232e01526127b60152600081816105360152818161061501528181610a2001528181610daa015281816110ea01528181611325015281816113c9015281816116b5015281816116fb0152818161197101528181611c0d01528181611ccb01528181611f1c0152818161230201528181612745015281816127e00152818161282b01526129a301526133766000f3fe608060405234801561001057600080fd5b50600436106102bb5760003560e01c80637050886b11610182578063ac641655116100e9578063dd62ed3e116100a2578063f76f8d781161007c578063f76f8d7814610764578063f848d54114610788578063fa8c00d414610791578063ff50abdc146107a457600080fd5b8063dd62ed3e146106f8578063f3f4370314610731578063f48ccb041461075157600080fd5b8063ac6416551461069b578063b36a4ab1146106a4578063b6b55f25146106b7578063b88a802f146106ca578063c8954760146106d2578063d914cd4b146106e557600080fd5b80639264fd531161013b5780639264fd53146105f557806395d89b41146106085780639759164a14610610578063a3f4df7e14610637578063a4063dbc14610665578063a9059cbb1461068857600080fd5b80637050886b1461058057806370a082311461059357806374ee1ac4146105bc5780637df1f1b9146105cf5780637dfabf49146104c357806383b4918b146105e257600080fd5b806324b92e8e11610226578063486b3ed3116101df578063486b3ed3146104cb5780635a2f3d09146104de5780635c975abb14610529578063667316391461053457806366f294cf1461055a5780636acab9da1461056d57600080fd5b806324b92e8e1461042c578063289154831461044c578063313ce5671461045f57806331d7a262146104905780633b7d0946146104b057806342103e8e146104c357600080fd5b806312eb4f9a1161027857806312eb4f9a146103bb57806318160ddd146103c45780631aa59542146103cc5780631e0a5967146103df578063209b2bca146103f257806323b872dd1461041957600080fd5b806306fdde03146102c05780630700037d146102de578063086877941461030c57806308f4333314610321578063095ea7b3146103595780630d49b38c1461037c575b600080fd5b6102c86107ac565b6040516102d59190612dc6565b60405180910390f35b6102fe6102ec366004612e1e565b60096020526000908152604090205481565b6040519081526020016102d5565b61031f61031a366004612e3b565b61083e565b005b61033461032f366004612e54565b610a48565b604080516001600160a01b0390941684526020840192909252908201526060016102d5565b61036c610367366004612e54565b610a94565b60405190151581526020016102d5565b6103a37f000000000000000000000000000000000000000000000000000000000000000081565b6040516001600160a01b0390911681526020016102d5565b6102fe600f5481565b6002546102fe565b61031f6103da366004612ecc565b610aae565b61031f6103ed366004612e1e565b610cb9565b6103a37f000000000000000000000000000000000000000000000000000000000000000081565b61036c610427366004612f18565b610eb1565b6102fe61043a366004612e1e565b600c6020526000908152604090205481565b61031f61045a366004612f59565b610ed7565b60405160ff7f00000000000000000000000000000000000000000000000000000000000000001681526020016102d5565b6102fe61049e366004612e1e565b600b6020526000908152604090205481565b61031f6104be366004612e1e565b611251565b6102fe611321565b61031f6104d9366004612e1e565b6113aa565b6010546011546012546013546014546015546104fc95949392919086565b604080519687526020870195909552938501929092526060840152608083015260a082015260c0016102d5565b60065460ff1661036c565b7f00000000000000000000000000000000000000000000000000000000000000006103a3565b6102fe610568366004612e54565b611422565b61031f61057b366004612e54565b611504565b61031f61058e366004612e1e565b6115e7565b6102fe6105a1366004612e1e565b6001600160a01b031660009081526020819052604090205490565b61031f6105ca366004612fc5565b6116e4565b6016546103a3906001600160a01b031681565b61031f6105f0366004612e3b565b611768565b61031f610603366004612e1e565b611880565b6102c8611a78565b6103a37f000000000000000000000000000000000000000000000000000000000000000081565b6102c86040518060400160405280600f81526020016e12195b1a5bdcc81512d388141bdbdb608a1b81525081565b61036c610673366004612e1e565b60176020526000908152604090205460ff1681565b61036c610696366004612e54565b611a87565b6102fe60085481565b61031f6106b236600461301d565b611a95565b61031f6106c5366004612e3b565b611bb0565b61036c611ca4565b61031f6106e03660046130e2565b611e40565b61031f6106f3366004612e1e565b611fdd565b6102fe610706366004613112565b6001600160a01b03918216600090815260016020908152604080832093909416825291909152205490565b6102fe61073f366004612e1e565b600a6020526000908152604090205481565b61031f61075f366004612e3b565b6120b0565b6102c8604051806040016040528060058152602001640484c532d560dc1b81525081565b6102fe600e5481565b6102fe61079f366004612e1e565b612281565b6007546102fe565b6060600380546107bb90613140565b80601f01602080910402602001604051908101604052809291908181526020018280546107e790613140565b80156108345780601f1061080957610100808354040283529160200191610834565b820191906000526020600020905b81548152906001019060200180831161081757829003601f168201915b5050505050905090565b6108677f00000000000000000000000000000000000000000000000000000000000000006123b9565b604051630935e01b60e21b81523360048201526001600160a01b0391909116906324d7806c90602401602060405180830381865afa1580156108ad573d6000803e3d6000fd5b505050506040513d601f19601f820116820180604052508101906108d1919061317a565b6108f65760405162461bcd60e51b81526004016108ed9061319c565b60405180910390fd5b6040516370a0823160e01b815233600482015281907f00000000000000000000000000000000000000000000000000000000000000006001600160a01b0316906370a0823190602401602060405180830381865afa15801561095c573d6000803e3d6000fd5b505050506040513d601f19601f8201168201806040525081019061098091906131c2565b10156109c55760405162461bcd60e51b8152602060048201526014602482015273503a4e4f545f454e4f5547485f42414c414e434560601b60448201526064016108ed565b60085481106109d85760006008556109f0565b80600860008282546109ea91906131f1565b90915550505b610a456001600160a01b037f000000000000000000000000000000000000000000000000000000000000000016337f00000000000000000000000000000000000000000000000000000000000000008461241d565b50565b600d6020528160005260406000208181548110610a6457600080fd5b60009182526020909120600390910201805460018201546002909201546001600160a01b03909116935090915083565b600033610aa2818585612477565b60019150505b92915050565b610ad77f00000000000000000000000000000000000000000000000000000000000000006123b9565b604051630935e01b60e21b81523360048201526001600160a01b0391909116906324d7806c90602401602060405180830381865afa158015610b1d573d6000803e3d6000fd5b505050506040513d601f19601f82011682018060405250810190610b41919061317a565b610b5d5760405162461bcd60e51b81526004016108ed9061319c565b610b65612484565b60008311610ba85760405162461bcd60e51b815260206004820152601060248201526f42503a494e56414c49445f56414c554560801b60448201526064016108ed565b80610be75760405162461bcd60e51b815260206004820152600f60248201526e42503a5a45524f5f484f4c4445525360881b60448201526064016108ed565b60005b81811015610ca9576000838383818110610c0657610c06613204565b9050602002016020810190610c1b9190612e1e565b90506000610c3e826001600160a01b031660009081526020819052604090205490565b90506000610c4b60025490565b610c55838961321a565b610c5f9190613231565b6001600160a01b038416600090815260096020526040812080549293508392909190610c8c908490613253565b925050819055505050508080610ca190613266565b915050610bea565b50610cb46001600555565b505050565b610cc1612484565b610cea7f00000000000000000000000000000000000000000000000000000000000000006123b9565b604051630935e01b60e21b81523360048201526001600160a01b0391909116906324d7806c90602401602060405180830381865afa158015610d30573d6000803e3d6000fd5b505050506040513d601f19601f82011682018060405250810190610d54919061317a565b610d705760405162461bcd60e51b81526004016108ed9061319c565b6001600160a01b038181166000818152600a60205260409081902054905163a9059cbb60e01b8152600481019290925260248201819052917f0000000000000000000000000000000000000000000000000000000000000000169063a9059cbb906044016020604051808303816000875af1158015610df3573d6000803e3d6000fd5b505050506040513d601f19601f82011682018060405250810190610e17919061317a565b610e635760405162461bcd60e51b815260206004820152601c60248201527f503a434f4e434c5544455f5749544844524157414c5f4641494c45440000000060448201526064016108ed565b6001600160a01b0382166000818152600a6020526040808220829055518392917f2687ab3014fc32ee1bbb5acb4d4879d56644ad540a426c06d7deaa8f127b232391a350610a456001600555565b600033610ebf8582856124ae565b610eca858585612526565b60019150505b9392505050565b610edf612585565b828114610f265760405162461bcd60e51b8152602060048201526015602482015274140e905494905654d7d25390d3d394d254d5115395605a1b60448201526064016108ed565b60005b8181101561124a576000838383818110610f4557610f45613204565b9050602002016020810190610f5a919061327f565b61ffff1690506000868684818110610f7457610f74613204565b336000908152600d6020908152604090912054910292909201359250508210610fd15760405162461bcd60e51b815260206004820152600f60248201526e0a074929cac82989288be929c888ab608b1b60448201526064016108ed565b336000908152600d60205260408120805484908110610ff257610ff2613204565b600091825260209182902060408051606081018252600390930290910180546001600160a01b0316835260018101549383019390935260029092015491810182905291504210156110775760405162461bcd60e51b815260206004820152600f60248201526e140e9513d2d15394d7d313d0d2d151608a1b60448201526064016108ed565b8181602001511015801561109a5750336000908152602081905260409020548211155b6110dd5760405162461bcd60e51b8152602060048201526014602482015273503a494e53554646494349454e545f46554e445360601b60448201526064016108ed565b6110e733836125ab565b817f00000000000000000000000000000000000000000000000000000000000000006001600160a01b031663ad7a672f6040518163ffffffff1660e01b8152600401602060405180830381865afa158015611146573d6000803e3d6000fd5b505050506040513d601f19601f8201168201806040525081019061116a91906131c2565b10156111c957336000908152600a60205260408120805484929061118f908490613253565b9091555050604051829033907f39d9cf4ffb93650d8ce789639cb8cf3c8d7b039e1f9795c038af55b4ae643fca90600090a3505050611238565b81816020018181516111db91906131f1565b90525060208101516000036111f4576111f433846125e1565b6111fe338361271c565b506112076127b4565b604051829033907f7fcf532c15f0a6db0bd6d0e038bea71d30d808c7d98cb3bf7268a95bf5081b6590600090a35050505b8061124281613266565b915050610f29565b5050505050565b61127a7f00000000000000000000000000000000000000000000000000000000000000006123b9565b604051630935e01b60e21b81523360048201526001600160a01b0391909116906324d7806c90602401602060405180830381865afa1580156112c0573d6000803e3d6000fd5b505050506040513d601f19601f820116820180604052508101906112e4919061317a565b6113005760405162461bcd60e51b81526004016108ed9061319c565b6001600160a01b03166000908152601760205260409020805460ff19169055565b60007f00000000000000000000000000000000000000000000000000000000000000006001600160a01b031663ad7a672f6040518163ffffffff1660e01b8152600401602060405180830381865afa158015611381573d6000803e3d6000fd5b505050506040513d601f19601f820116820180604052508101906113a591906131c2565b905090565b60405163486b3ed360e01b81526001600160a01b0382811660048301527f0000000000000000000000000000000000000000000000000000000000000000169063486b3ed3906024015b600060405180830381600087803b15801561140e57600080fd5b505af115801561124a573d6000803e3d6000fd5b6001600160a01b0382166000908152600d6020526040812054821061147b5760405162461bcd60e51b815260206004820152600f60248201526e0a074929cac82989288be929c888ab608b1b60448201526064016108ed565b6001600160a01b0383166000908152600d602052604081208054849081106114a5576114a5613204565b600091825260209182902060408051606081018252600390930290910180546001600160a01b03168352600181015493830193909352600290920154918101829052915042106114fa57602001519050610aa8565b6000915050610aa8565b61152d7f00000000000000000000000000000000000000000000000000000000000000006123b9565b604051630935e01b60e21b81523360048201526001600160a01b0391909116906324d7806c90602401602060405180830381865afa158015611573573d6000803e3d6000fd5b505050506040513d601f19601f82011682018060405250810190611597919061317a565b6115b35760405162461bcd60e51b81526004016108ed9061319c565b80600860008282546115c59190613253565b90915550600090506115d56128be565b90506115e1838261271c565b50505050565b6116107f00000000000000000000000000000000000000000000000000000000000000006123b9565b604051630935e01b60e21b81523360048201526001600160a01b0391909116906324d7806c90602401602060405180830381865afa158015611656573d6000803e3d6000fd5b505050506040513d601f19601f8201168201806040525081019061167a919061317a565b6116965760405162461bcd60e51b81526004016108ed9061319c565b604051637050886b60e01b81526001600160a01b0382811660048301527f00000000000000000000000000000000000000000000000000000000000000001690637050886b906024016113f4565b604051631d3b86b160e21b81526001600160a01b037f000000000000000000000000000000000000000000000000000000000000000016906374ee1ac49061173290859085906004016132a3565b600060405180830381600087803b15801561174c57600080fd5b505af1158015611760573d6000803e3d6000fd5b505050505050565b600081116117aa5760405162461bcd60e51b815260206004820152600f60248201526e503a494e56414c49445f56414c554560881b60448201526064016108ed565b336000908152600960205260409020548111156118025760405162461bcd60e51b8152602060048201526016602482015275503a494e53554646494349454e545f42414c414e434560501b60448201526064016108ed565b61180c33826128d6565b806007600082825461181e9190613253565b909155505033600090815260096020526040812080548392906118429084906131f1565b9091555061185090506127b4565b604051819033907fbd654390d0d973e8c8376ed6053be8658870df892687852cc5c914d700291b8790600090a350565b611888612484565b6118b17f00000000000000000000000000000000000000000000000000000000000000006123b9565b604051630935e01b60e21b81523360048201526001600160a01b0391909116906324d7806c90602401602060405180830381865afa1580156118f7573d6000803e3d6000fd5b505050506040513d601f19601f8201168201806040525081019061191b919061317a565b6119375760405162461bcd60e51b81526004016108ed9061319c565b6001600160a01b038181166000818152600b60205260409081902054905163a9059cbb60e01b8152600481019290925260248201819052917f0000000000000000000000000000000000000000000000000000000000000000169063a9059cbb906044016020604051808303816000875af11580156119ba573d6000803e3d6000fd5b505050506040513d601f19601f820116820180604052508101906119de919061317a565b611a2a5760405162461bcd60e51b815260206004820152601860248201527f503a434f4e434c5544455f5245574152445f4641494c4544000000000000000060448201526064016108ed565b6001600160a01b0382166000818152600b6020526040808220829055518392917f3c7e767b6741d1e3a8f90a3c95937bb07453eaf2dfee591a5a308f04f498e8b891a350610a456001600555565b6060600480546107bb90613140565b600033610aa2818585612526565b611abe7f00000000000000000000000000000000000000000000000000000000000000006123b9565b604051630935e01b60e21b81523360048201526001600160a01b0391909116906324d7806c90602401602060405180830381865afa158015611b04573d6000803e3d6000fd5b505050506040513d601f19601f82011682018060405250810190611b28919061317a565b611b445760405162461bcd60e51b81526004016108ed9061319c565b60005b8151811015611bac57600160176000848481518110611b6857611b68613204565b6020908102919091018101516001600160a01b03168252810191909152604001600020805460ff191691151591909117905580611ba481613266565b915050611b47565b5050565b611bb8612585565b611bc0612484565b601454811015611c095760405162461bcd60e51b815260206004820152601460248201527321281d2222a82fa0a6aa2fa122a627abafa6a4a760611b60448201526064016108ed565b60007f00000000000000000000000000000000000000000000000000000000000000006001600160a01b031663209b2bca6040518163ffffffff1660e01b8152600401602060405180830381865afa158015611c69573d6000803e3d6000fd5b505050506040513d601f19601f82011682018060405250810190611c8d91906132f1565b9050611c99828261290c565b50610a456001600555565b33600090815260096020908152604080832054815163ad7a672f60e01b81529151909284927f00000000000000000000000000000000000000000000000000000000000000006001600160a01b03169263ad7a672f926004808401939192918290030181865afa158015611d1c573d6000803e3d6000fd5b505050506040513d601f19601f82011682018060405250810190611d4091906131c2565b33600090815260096020526040812055905081811015611db457336000908152600b602052604081208054849290611d79908490613253565b9091555050604051829033907f19adda954c72f22df5078ae925d620d455e095989b72be2f895e10473b53797790600090a360009250505090565b611dbe338361271c565b611e0a5760405162461bcd60e51b815260206004820152601c60248201527f42503a4552524f525f5452414e5346455252494e475f5245574152440000000060448201526064016108ed565b604051829033907f106f923f993c2149d49b4255ff723acafa1f2d94393f561d3eda32ae348f724190600090a360019250505090565b611e48612585565b611e50612484565b601454821015611e985760405162461bcd60e51b8152602060048201526013602482015272281d2222a82fa0a6aa2fa122a627abafa6a4a760691b60448201526064016108ed565b60135482611ea560025490565b611eaf9190613253565b1115611efd5760405162461bcd60e51b815260206004820152601760248201527f503a4d41585f504f4f4c5f53495a455f5245414348454400000000000000000060448201526064016108ed565b60405163029333f560e01b81526001600160a01b0382811660048301527f0000000000000000000000000000000000000000000000000000000000000000169063029333f5906024016020604051808303816000875af1158015611f65573d6000803e3d6000fd5b505050506040513d601f19601f82011682018060405250810190611f89919061317a565b611fc75760405162461bcd60e51b815260206004820152600f60248201526e140e955392d393d5d397d054d4d155608a1b60448201526064016108ed565b80611fd2838261290c565b50611bac6001600555565b6120067f00000000000000000000000000000000000000000000000000000000000000006123b9565b604051630935e01b60e21b81523360048201526001600160a01b0391909116906324d7806c90602401602060405180830381865afa15801561204c573d6000803e3d6000fd5b505050506040513d601f19601f82011682018060405250810190612070919061317a565b61208c5760405162461bcd60e51b81526004016108ed9061319c565b6001600160a01b03166000908152601760205260409020805460ff19166001179055565b3360009081526017602052604090205460ff166120fc5760405162461bcd60e51b815260206004820152600a602482015269140e9393d517d413d3d360b21b60448201526064016108ed565b6000811161213f5760405162461bcd60e51b815260206004820152601060248201526f10940e9253959053125117d25394155560821b60448201526064016108ed565b80612148611321565b101561218c5760405162461bcd60e51b8152602060048201526013602482015272042503a4e4f545f454e4f5547485f4c415f425606c1b60448201526064016108ed565b6000336001600160a01b031663667316396040518163ffffffff1660e01b8152600401602060405180830381865afa1580156121cc573d6000803e3d6000fd5b505050506040513d601f19601f820116820180604052508101906121f091906132f1565b90506121fc818361271c565b6122485760405162461bcd60e51b815260206004820152601760248201527f42503a524551554553545f46524f4d5f42505f4641494c00000000000000000060448201526064016108ed565b60405182815233907fbabc2955520063ac5330d7fe65a85c54fce0d2c473be76d99e29fb7146ac96a09060200160405180910390a25050565b6010546001600160a01b0382166000908152600c6020526040812054909142916122ab9190613253565b11156122eb5760405162461bcd60e51b815260206004820152600f60248201526e10940e9195539114d7d313d0d2d151608a1b60448201526064016108ed565b6040516370a0823160e01b81526001600160a01b037f000000000000000000000000000000000000000000000000000000000000000081166004830152610aa8917f0000000000000000000000000000000000000000000000000000000000000000909116906370a0823190602401602060405180830381865afa158015612377573d6000803e3d6000fd5b505050506040513d601f19601f8201168201806040525081019061239b91906131c2565b6001600160a01b038416600090815260208190526040902054612a23565b6000816001600160a01b031663c31245256040518163ffffffff1660e01b8152600401602060405180830381865afa1580156123f9573d6000803e3d6000fd5b505050506040513d601f19601f82011682018060405250810190610aa891906132f1565b604080516001600160a01b0385811660248301528416604482015260648082018490528251808303909101815260849091019091526020810180516001600160e01b03166323b872dd60e01b1790526115e1908590612a39565b610cb48383836001612a9c565b6002600554036124a757604051633ee5aeb560e01b815260040160405180910390fd5b6002600555565b6001600160a01b0383811660009081526001602090815260408083209386168352929052205460001981146115e1578181101561251757604051637dc7a0d960e11b81526001600160a01b038416600482015260248101829052604481018390526064016108ed565b6115e184848484036000612a9c565b6001600160a01b03831661255057604051634b637e8f60e11b8152600060048201526024016108ed565b6001600160a01b03821661257a5760405163ec442f0560e01b8152600060048201526024016108ed565b610cb4838383612b71565b60065460ff16156125a95760405163d93c066560e01b815260040160405180910390fd5b565b6001600160a01b0382166125d557604051634b637e8f60e11b8152600060048201526024016108ed565b611bac82600083612b71565b6001600160a01b0382166000908152600d6020526040812054612606906001906131f1565b90508082146126c0576001600160a01b0383166000908152600d6020526040902080548290811061263957612639613204565b9060005260206000209060030201600d6000856001600160a01b03166001600160a01b03168152602001908152602001600020838154811061267d5761267d613204565b60009182526020909120825460039092020180546001600160a01b0319166001600160a01b03909216919091178155600180830154908201556002918201549101555b6001600160a01b0383166000908152600d602052604090208054806126e7576126e761330e565b60008281526020812060036000199093019283020180546001600160a01b031916815560018101829055600201559055505050565b60405163a9059cbb60e01b81526001600160a01b038381166004830152602482018390526000917f00000000000000000000000000000000000000000000000000000000000000009091169063a9059cbb906044016020604051808303816000875af1158015612790573d6000803e3d6000fd5b505050506040513d601f19601f82011682018060405250810190610ed0919061317a565b7f00000000000000000000000000000000000000000000000000000000000000006001600160a01b03167f00000000000000000000000000000000000000000000000000000000000000006001600160a01b03167f2047d1633ff7768462ae07d28cb16e484203bfd6d85ce832494270ebcd9081a27f00000000000000000000000000000000000000000000000000000000000000006001600160a01b031663ad7a672f6040518163ffffffff1660e01b8152600401602060405180830381865afa158015612887573d6000803e3d6000fd5b505050506040513d601f19601f820116820180604052508101906128ab91906131c2565b60405190815260200160405180910390a3565b60006008546128cc60025490565b6113a591906131f1565b6001600160a01b0382166129005760405163ec442f0560e01b8152600060048201526024016108ed565b611bac60008383612b71565b336000908152600d602090815260409182902082516060810184526001600160a01b0385168152918201859052600f54909282019061294b9042613253565b90528154600180820184556000938452602093849020835160039093020180546001600160a01b0319166001600160a01b0393841617815593830151908401556040909101516002909201919091556129c8908216337f00000000000000000000000000000000000000000000000000000000000000008561241d565b6129d233836128d6565b81600760008282546129e49190613253565b909155506129f290506127b4565b604051829033907fe1fffcc4923d04b559f4d29a8bfc6cda04eb5b0d3c460751c2402c5c5cc9109c90600090a35050565b6000818310612a325781610ed0565b5090919050565b6000612a4e6001600160a01b03841683612c9b565b90508051600014158015612a73575080806020019051810190612a71919061317a565b155b15610cb457604051635274afe760e01b81526001600160a01b03841660048201526024016108ed565b6001600160a01b038416612ac65760405163e602df0560e01b8152600060048201526024016108ed565b6001600160a01b038316612af057604051634a1406b160e11b8152600060048201526024016108ed565b6001600160a01b03808516600090815260016020908152604080832093871683529290522082905580156115e157826001600160a01b0316846001600160a01b03167f8c5be1e5ebec7d5bd14f71427d1e84f3dd0314c0f7b2291e5b200ac8c7c3b92584604051612b6391815260200190565b60405180910390a350505050565b6001600160a01b038316612b9c578060026000828254612b919190613253565b90915550612c0e9050565b6001600160a01b03831660009081526020819052604090205481811015612bef5760405163391434e360e21b81526001600160a01b038516600482015260248101829052604481018390526064016108ed565b6001600160a01b03841660009081526020819052604090209082900390555b6001600160a01b038216612c2a57600280548290039055612c49565b6001600160a01b03821660009081526020819052604090208054820190555b816001600160a01b0316836001600160a01b03167fddf252ad1be2c89b69c2b068fc378daa952ba7f163c4a11628f55a4df523b3ef83604051612c8e91815260200190565b60405180910390a3505050565b6060610ed08383600084600080856001600160a01b03168486604051612cc19190613324565b60006040518083038185875af1925050503d8060008114612cfe576040519150601f19603f3d011682016040523d82523d6000602084013e612d03565b606091505b5091509150612d13868383612d1d565b9695505050505050565b606082612d3257612d2d82612d79565b610ed0565b8151158015612d4957506001600160a01b0384163b155b15612d7257604051639996b31560e01b81526001600160a01b03851660048201526024016108ed565b5080610ed0565b805115612d895780518082602001fd5b604051630a12f52160e11b815260040160405180910390fd5b60005b83811015612dbd578181015183820152602001612da5565b50506000910152565b6020815260008251806020840152612de5816040850160208701612da2565b601f01601f19169190910160400192915050565b6001600160a01b0381168114610a4557600080fd5b8035612e1981612df9565b919050565b600060208284031215612e3057600080fd5b8135610ed081612df9565b600060208284031215612e4d57600080fd5b5035919050565b60008060408385031215612e6757600080fd5b8235612e7281612df9565b946020939093013593505050565b60008083601f840112612e9257600080fd5b50813567ffffffffffffffff811115612eaa57600080fd5b6020830191508360208260051b8501011115612ec557600080fd5b9250929050565b600080600060408486031215612ee157600080fd5b83359250602084013567ffffffffffffffff811115612eff57600080fd5b612f0b86828701612e80565b9497909650939450505050565b600080600060608486031215612f2d57600080fd5b8335612f3881612df9565b92506020840135612f4881612df9565b929592945050506040919091013590565b60008060008060408587031215612f6f57600080fd5b843567ffffffffffffffff80821115612f8757600080fd5b612f9388838901612e80565b90965094506020870135915080821115612fac57600080fd5b50612fb987828801612e80565b95989497509550505050565b60008060208385031215612fd857600080fd5b823567ffffffffffffffff811115612fef57600080fd5b612ffb85828601612e80565b90969095509350505050565b634e487b7160e01b600052604160045260246000fd5b6000602080838503121561303057600080fd5b823567ffffffffffffffff8082111561304857600080fd5b818501915085601f83011261305c57600080fd5b81358181111561306e5761306e613007565b8060051b604051601f19603f8301168101818110858211171561309357613093613007565b6040529182528482019250838101850191888311156130b157600080fd5b938501935b828510156130d6576130c785612e0e565b845293850193928501926130b6565b98975050505050505050565b600080604083850312156130f557600080fd5b82359150602083013561310781612df9565b809150509250929050565b6000806040838503121561312557600080fd5b823561313081612df9565b9150602083013561310781612df9565b600181811c9082168061315457607f821691505b60208210810361317457634e487b7160e01b600052602260045260246000fd5b50919050565b60006020828403121561318c57600080fd5b81518015158114610ed057600080fd5b6020808252600c908201526b28231d2727aa2fa0a226a4a760a11b604082015260600190565b6000602082840312156131d457600080fd5b5051919050565b634e487b7160e01b600052601160045260246000fd5b81810381811115610aa857610aa86131db565b634e487b7160e01b600052603260045260246000fd5b8082028115828204841417610aa857610aa86131db565b60008261324e57634e487b7160e01b600052601260045260246000fd5b500490565b80820180821115610aa857610aa86131db565b600060018201613278576132786131db565b5060010190565b60006020828403121561329157600080fd5b813561ffff81168114610ed057600080fd5b60208082528181018390526000908460408401835b868110156132e65782356132cb81612df9565b6001600160a01b0316825291830191908301906001016132b8565b509695505050505050565b60006020828403121561330357600080fd5b8151610ed081612df9565b634e487b7160e01b600052603160045260246000fd5b60008251613336818460208701612da2565b919091019291505056fea2646970667358221220c78afd4713be3c88240b26ed79ec16bf3008dadaa9fb178a388b076772af520064736f6c63430008140033a2646970667358221220b385665dd62755806375dabb3172b48c198c6a4ff7bf8c05034d9fa81a52024264736f6c63430008140033",
    "linkReferences": {}
  },
  "methodIdentifiers": {
    "blendedPool()": "2dfbf503",
    "createBlendedPool(address,address,uint256,uint256,uint256,uint256,uint256,uint256)": "b0d11837",
    "createPool(string,address,address,uint256,uint256,uint256,uint256,uint256,uint256,uint256)": "2a4232e2",
    "globals()": "c3124525",
    "isPool(address)": "5b16ebb7",
    "pause()": "8456cb59",
    "paused()": "5c975abb",
    "pools(string)": "9d6f17a8",
    "setGlobals(address)": "cc2e0a26",
    "unpause()": "3f4ba83a"
  },
  "id": 11
}