{
  "_format": "hh-sol-artifact-1",
  "contractName": "Pool",
  "sourceName": "contracts/Pool/Pool.sol",
  "abi": [
    {
      "inputs": [
        {
          "internalType": "address",
          "name": "_poolDelegate",
          "type": "address"
        },
        {
          "internalType": "uint256",
          "name": "_lockupPeriod",
          "type": "uint256"
        },
        {
          "internalType": "uint256",
          "name": "_apy",
          "type": "uint256"
        },
        {
          "internalType": "uint256",
          "name": "_maxInvestmentSize",
          "type": "uint256"
        },
        {
          "internalType": "uint256",
          "name": "_minInvestmentSize",
          "type": "uint256"
        },
        {
          "internalType": "string",
          "name": "name",
          "type": "string"
        },
        {
          "internalType": "string",
          "name": "symbol",
          "type": "string"
        }
      ],
      "stateMutability": "nonpayable",
      "type": "constructor"
    },
    {
      "anonymous": false,
      "inputs": [
        {
          "indexed": true,
          "internalType": "address",
          "name": "owner",
          "type": "address"
        },
        {
          "indexed": true,
          "internalType": "address",
          "name": "spender",
          "type": "address"
        },
        {
          "indexed": false,
          "internalType": "uint256",
          "name": "value",
          "type": "uint256"
        }
      ],
      "name": "Approval",
      "type": "event"
    },
    {
      "anonymous": false,
      "inputs": [
        {
          "indexed": true,
          "internalType": "address",
          "name": "poolAdmin",
          "type": "address"
        },
        {
          "indexed": false,
          "internalType": "bool",
          "name": "allowed",
          "type": "bool"
        }
      ],
      "name": "PoolAdminSet",
      "type": "event"
    },
    {
      "anonymous": false,
      "inputs": [
        {
          "indexed": false,
          "internalType": "enum Pool.State",
          "name": "state",
          "type": "uint8"
        }
      ],
      "name": "PoolStateChanged",
      "type": "event"
    },
    {
      "anonymous": false,
      "inputs": [
        {
          "indexed": true,
          "internalType": "address",
          "name": "from",
          "type": "address"
        },
        {
          "indexed": true,
          "internalType": "address",
          "name": "to",
          "type": "address"
        },
        {
          "indexed": false,
          "internalType": "uint256",
          "name": "value",
          "type": "uint256"
        }
      ],
      "name": "Transfer",
      "type": "event"
    },
    {
      "inputs": [
        {
          "internalType": "address",
          "name": "owner",
          "type": "address"
        },
        {
          "internalType": "address",
          "name": "spender",
          "type": "address"
        }
      ],
      "name": "allowance",
      "outputs": [
        {
          "internalType": "uint256",
          "name": "",
          "type": "uint256"
        }
      ],
      "stateMutability": "view",
      "type": "function"
    },
    {
      "inputs": [
        {
          "internalType": "address",
          "name": "spender",
          "type": "address"
        },
        {
          "internalType": "uint256",
          "name": "amount",
          "type": "uint256"
        }
      ],
      "name": "approve",
      "outputs": [
        {
          "internalType": "bool",
          "name": "",
          "type": "bool"
        }
      ],
      "stateMutability": "nonpayable",
      "type": "function"
    },
    {
      "inputs": [],
      "name": "apy",
      "outputs": [
        {
          "internalType": "uint256",
          "name": "",
          "type": "uint256"
        }
      ],
      "stateMutability": "view",
      "type": "function"
    },
    {
      "inputs": [
        {
          "internalType": "address",
          "name": "account",
          "type": "address"
        }
      ],
      "name": "balanceOf",
      "outputs": [
        {
          "internalType": "uint256",
          "name": "",
          "type": "uint256"
        }
      ],
      "stateMutability": "view",
      "type": "function"
    },
    {
      "inputs": [],
      "name": "deactivate",
      "outputs": [],
      "stateMutability": "nonpayable",
      "type": "function"
    },
    {
      "inputs": [],
      "name": "decimals",
      "outputs": [
        {
          "internalType": "uint8",
          "name": "",
          "type": "uint8"
        }
      ],
      "stateMutability": "view",
      "type": "function"
    },
    {
      "inputs": [
        {
          "internalType": "address",
          "name": "spender",
          "type": "address"
        },
        {
          "internalType": "uint256",
          "name": "subtractedValue",
          "type": "uint256"
        }
      ],
      "name": "decreaseAllowance",
      "outputs": [
        {
          "internalType": "bool",
          "name": "",
          "type": "bool"
        }
      ],
      "stateMutability": "nonpayable",
      "type": "function"
    },
    {
      "inputs": [],
      "name": "finalize",
      "outputs": [],
      "stateMutability": "nonpayable",
      "type": "function"
    },
    {
      "inputs": [
        {
          "internalType": "address",
          "name": "spender",
          "type": "address"
        },
        {
          "internalType": "uint256",
          "name": "addedValue",
          "type": "uint256"
        }
      ],
      "name": "increaseAllowance",
      "outputs": [
        {
          "internalType": "bool",
          "name": "",
          "type": "bool"
        }
      ],
      "stateMutability": "nonpayable",
      "type": "function"
    },
    {
      "inputs": [],
      "name": "lockupPeriod",
      "outputs": [
        {
          "internalType": "uint256",
          "name": "",
          "type": "uint256"
        }
      ],
      "stateMutability": "view",
      "type": "function"
    },
    {
      "inputs": [],
      "name": "maxInvestmentSize",
      "outputs": [
        {
          "internalType": "uint256",
          "name": "",
          "type": "uint256"
        }
      ],
      "stateMutability": "view",
      "type": "function"
    },
    {
      "inputs": [],
      "name": "minInvestmentSize",
      "outputs": [
        {
          "internalType": "uint256",
          "name": "",
          "type": "uint256"
        }
      ],
      "stateMutability": "view",
      "type": "function"
    },
    {
      "inputs": [],
      "name": "name",
      "outputs": [
        {
          "internalType": "string",
          "name": "",
          "type": "string"
        }
      ],
      "stateMutability": "view",
      "type": "function"
    },
    {
      "inputs": [
        {
          "internalType": "address",
          "name": "",
          "type": "address"
        }
      ],
      "name": "poolAdmins",
      "outputs": [
        {
          "internalType": "bool",
          "name": "",
          "type": "bool"
        }
      ],
      "stateMutability": "view",
      "type": "function"
    },
    {
      "inputs": [],
      "name": "poolDelegate",
      "outputs": [
        {
          "internalType": "address",
          "name": "",
          "type": "address"
        }
      ],
      "stateMutability": "view",
      "type": "function"
    },
    {
      "inputs": [],
      "name": "poolState",
      "outputs": [
        {
          "internalType": "enum Pool.State",
          "name": "",
          "type": "uint8"
        }
      ],
      "stateMutability": "view",
      "type": "function"
    },
    {
      "inputs": [
        {
          "internalType": "address",
          "name": "poolAdmin",
          "type": "address"
        },
        {
          "internalType": "bool",
          "name": "allowed",
          "type": "bool"
        }
      ],
      "name": "setPoolAdmin",
      "outputs": [],
      "stateMutability": "nonpayable",
      "type": "function"
    },
    {
      "inputs": [],
      "name": "superFactory",
      "outputs": [
        {
          "internalType": "address",
          "name": "",
          "type": "address"
        }
      ],
      "stateMutability": "view",
      "type": "function"
    },
    {
      "inputs": [],
      "name": "symbol",
      "outputs": [
        {
          "internalType": "string",
          "name": "",
          "type": "string"
        }
      ],
      "stateMutability": "view",
      "type": "function"
    },
    {
      "inputs": [],
      "name": "totalSupply",
      "outputs": [
        {
          "internalType": "uint256",
          "name": "",
          "type": "uint256"
        }
      ],
      "stateMutability": "view",
      "type": "function"
    },
    {
      "inputs": [
        {
          "internalType": "address",
          "name": "to",
          "type": "address"
        },
        {
          "internalType": "uint256",
          "name": "amount",
          "type": "uint256"
        }
      ],
      "name": "transfer",
      "outputs": [
        {
          "internalType": "bool",
          "name": "",
          "type": "bool"
        }
      ],
      "stateMutability": "nonpayable",
      "type": "function"
    },
    {
      "inputs": [
        {
          "internalType": "address",
          "name": "from",
          "type": "address"
        },
        {
          "internalType": "address",
          "name": "to",
          "type": "address"
        },
        {
          "internalType": "uint256",
          "name": "amount",
          "type": "uint256"
        }
      ],
      "name": "transferFrom",
      "outputs": [
        {
          "internalType": "bool",
          "name": "",
          "type": "bool"
        }
      ],
      "stateMutability": "nonpayable",
      "type": "function"
    }
  ],
  "bytecode": "0x60a06040523480156200001157600080fd5b50604051620022c8380380620022c8833981810160405281019062000037919062000471565b818181600390805190602001906200005192919062000184565b5080600490805190602001906200006a92919062000184565b5050503373ffffffffffffffffffffffffffffffffffffffff1660808173ffffffffffffffffffffffffffffffffffffffff1660601b8152505086600560006101000a81548173ffffffffffffffffffffffffffffffffffffffff021916908373ffffffffffffffffffffffffffffffffffffffff160217905550856006819055508460078190555083600881905550826009819055506000600a60006101000a81548160ff021916908360028111156200012a576200012962000562565b5b02179055507f24b0afb747a8213aea796b9518bfa667de187b83390eda7cc93b8e57f80fcd1a600a60009054906101000a900460ff166040516200016f9190620005e2565b60405180910390a15050505050505062000664565b82805462000192906200062e565b90600052602060002090601f016020900481019282620001b6576000855562000202565b82601f10620001d157805160ff191683800117855562000202565b8280016001018555821562000202579182015b8281111562000201578251825591602001919060010190620001e4565b5b50905062000211919062000215565b5090565b5b808211156200023057600081600090555060010162000216565b5090565b6000604051905090565b600080fd5b600080fd5b600073ffffffffffffffffffffffffffffffffffffffff82169050919050565b6000620002758262000248565b9050919050565b620002878162000268565b81146200029357600080fd5b50565b600081519050620002a7816200027c565b92915050565b6000819050919050565b620002c281620002ad565b8114620002ce57600080fd5b50565b600081519050620002e281620002b7565b92915050565b600080fd5b600080fd5b6000601f19601f8301169050919050565b7f4e487b7100000000000000000000000000000000000000000000000000000000600052604160045260246000fd5b6200033d82620002f2565b810181811067ffffffffffffffff821117156200035f576200035e62000303565b5b80604052505050565b60006200037462000234565b905062000382828262000332565b919050565b600067ffffffffffffffff821115620003a557620003a462000303565b5b620003b082620002f2565b9050602081019050919050565b60005b83811015620003dd578082015181840152602081019050620003c0565b83811115620003ed576000848401525b50505050565b60006200040a620004048462000387565b62000368565b905082815260208101848484011115620004295762000428620002ed565b5b62000436848285620003bd565b509392505050565b600082601f830112620004565762000455620002e8565b5b815162000468848260208601620003f3565b91505092915050565b600080600080600080600060e0888a0312156200049357620004926200023e565b5b6000620004a38a828b0162000296565b9750506020620004b68a828b01620002d1565b9650506040620004c98a828b01620002d1565b9550506060620004dc8a828b01620002d1565b9450506080620004ef8a828b01620002d1565b93505060a088015167ffffffffffffffff81111562000513576200051262000243565b5b620005218a828b016200043e565b92505060c088015167ffffffffffffffff81111562000545576200054462000243565b5b620005538a828b016200043e565b91505092959891949750929550565b7f4e487b7100000000000000000000000000000000000000000000000000000000600052602160045260246000fd5b60038110620005a557620005a462000562565b5b50565b6000819050620005b88262000591565b919050565b6000620005ca82620005a8565b9050919050565b620005dc81620005bd565b82525050565b6000602082019050620005f96000830184620005d1565b92915050565b7f4e487b7100000000000000000000000000000000000000000000000000000000600052602260045260246000fd5b600060028204905060018216806200064757607f821691505b602082108114156200065e576200065d620005ff565b5b50919050565b60805160601c611c3e6200068a600039600081816105180152610fdc0152611c3e6000f3fe608060405234801561001057600080fd5b50600436106101625760003560e01c8063613384f2116100c857806395d89b411161008c578063ba5cdf2011610066578063ba5cdf20146103f5578063dd62ed3e14610413578063ee947a7c1461044357610162565b806395d89b4114610377578063a457c2d714610395578063a9059cbb146103c557610162565b8063613384f2146102bf578063641ad8a9146102ef57806370a082311461030d57806378faa7b51461033d5780639185192a1461035b57610162565b8063313ce5671161012a5780634046af2b116101045780634046af2b1461028d5780634bb278f3146102ab57806351b42b00146102b557610162565b8063313ce56714610221578063395093511461023f5780633bcfc4b81461026f57610162565b806306fdde0314610167578063095ea7b3146101855780630d49b38c146101b557806318160ddd146101d357806323b872dd146101f1575b600080fd5b61016f610461565b60405161017c91906111df565b60405180910390f35b61019f600480360381019061019a919061129a565b6104f3565b6040516101ac91906112f5565b60405180910390f35b6101bd610516565b6040516101ca919061131f565b60405180910390f35b6101db61053a565b6040516101e89190611349565b60405180910390f35b61020b60048036038101906102069190611364565b610544565b60405161021891906112f5565b60405180910390f35b610229610573565b60405161023691906113d3565b60405180910390f35b6102596004803603810190610254919061129a565b61057c565b60405161026691906112f5565b60405180910390f35b6102776105b3565b6040516102849190611349565b60405180910390f35b6102956105b9565b6040516102a2919061131f565b60405180910390f35b6102b36105df565b005b6102bd610664565b005b6102d960048036038101906102d491906113ee565b6106e9565b6040516102e691906112f5565b60405180910390f35b6102f7610709565b6040516103049190611492565b60405180910390f35b610327600480360381019061032291906113ee565b61071c565b6040516103349190611349565b60405180910390f35b610345610764565b6040516103529190611349565b60405180910390f35b610375600480360381019061037091906114d9565b61076a565b005b61037f61081b565b60405161038c91906111df565b60405180910390f35b6103af60048036038101906103aa919061129a565b6108ad565b6040516103bc91906112f5565b60405180910390f35b6103df60048036038101906103da919061129a565b610924565b6040516103ec91906112f5565b60405180910390f35b6103fd610947565b60405161040a9190611349565b60405180910390f35b61042d60048036038101906104289190611519565b61094d565b60405161043a9190611349565b60405180910390f35b61044b6109d4565b6040516104589190611349565b60405180910390f35b60606003805461047090611588565b80601f016020809104026020016040519081016040528092919081815260200182805461049c90611588565b80156104e95780601f106104be576101008083540402835291602001916104e9565b820191906000526020600020905b8154815290600101906020018083116104cc57829003601f168201915b5050505050905090565b6000806104fe6109da565b905061050b8185856109e2565b600191505092915050565b7f000000000000000000000000000000000000000000000000000000000000000081565b6000600254905090565b60008061054f6109da565b905061055c858285610bad565b610567858585610c39565b60019150509392505050565b60006012905090565b6000806105876109da565b90506105a8818585610599858961094d565b6105a391906115e9565b6109e2565b600191505092915050565b60075481565b600560009054906101000a900473ffffffffffffffffffffffffffffffffffffffff1681565b6105e7610eb1565b6105f16000610ec3565b6001600a60006101000a81548160ff021916908360028111156106175761061661141b565b5b02179055507f24b0afb747a8213aea796b9518bfa667de187b83390eda7cc93b8e57f80fcd1a600a60009054906101000a900460ff1660405161065a9190611492565b60405180910390a1565b61066c610eb1565b6106766001610ec3565b6002600a60006101000a81548160ff0219169083600281111561069c5761069b61141b565b5b02179055507f24b0afb747a8213aea796b9518bfa667de187b83390eda7cc93b8e57f80fcd1a600a60009054906101000a900460ff166040516106df9190611492565b60405180910390a1565b600b6020528060005260406000206000915054906101000a900460ff1681565b600a60009054906101000a900460ff1681565b60008060008373ffffffffffffffffffffffffffffffffffffffff1673ffffffffffffffffffffffffffffffffffffffff168152602001908152602001600020549050919050565b60085481565b610772610eb1565b80600b60008473ffffffffffffffffffffffffffffffffffffffff1673ffffffffffffffffffffffffffffffffffffffff16815260200190815260200160002060006101000a81548160ff0219169083151502179055508173ffffffffffffffffffffffffffffffffffffffff167f353578bbc0ab907b7018b0f7b50b5f822d31dc9fcf4c16fffa780e109ca7c9308260405161080f91906112f5565b60405180910390a25050565b60606004805461082a90611588565b80601f016020809104026020016040519081016040528092919081815260200182805461085690611588565b80156108a35780601f10610878576101008083540402835291602001916108a3565b820191906000526020600020905b81548152906001019060200180831161088657829003601f168201915b5050505050905090565b6000806108b86109da565b905060006108c6828661094d565b90508381101561090b576040517f08c379a0000000000000000000000000000000000000000000000000000000008152600401610902906116b1565b60405180910390fd5b61091882868684036109e2565b60019250505092915050565b60008061092f6109da565b905061093c818585610c39565b600191505092915050565b60095481565b6000600160008473ffffffffffffffffffffffffffffffffffffffff1673ffffffffffffffffffffffffffffffffffffffff16815260200190815260200160002060008373ffffffffffffffffffffffffffffffffffffffff1673ffffffffffffffffffffffffffffffffffffffff16815260200190815260200160002054905092915050565b60065481565b600033905090565b600073ffffffffffffffffffffffffffffffffffffffff168373ffffffffffffffffffffffffffffffffffffffff161415610a52576040517f08c379a0000000000000000000000000000000000000000000000000000000008152600401610a4990611743565b60405180910390fd5b600073ffffffffffffffffffffffffffffffffffffffff168273ffffffffffffffffffffffffffffffffffffffff161415610ac2576040517f08c379a0000000000000000000000000000000000000000000000000000000008152600401610ab9906117d5565b60405180910390fd5b80600160008573ffffffffffffffffffffffffffffffffffffffff1673ffffffffffffffffffffffffffffffffffffffff16815260200190815260200160002060008473ffffffffffffffffffffffffffffffffffffffff1673ffffffffffffffffffffffffffffffffffffffff168152602001908152602001600020819055508173ffffffffffffffffffffffffffffffffffffffff168373ffffffffffffffffffffffffffffffffffffffff167f8c5be1e5ebec7d5bd14f71427d1e84f3dd0314c0f7b2291e5b200ac8c7c3b92583604051610ba09190611349565b60405180910390a3505050565b6000610bb9848461094d565b90507fffffffffffffffffffffffffffffffffffffffffffffffffffffffffffffffff8114610c335781811015610c25576040517f08c379a0000000000000000000000000000000000000000000000000000000008152600401610c1c90611841565b60405180910390fd5b610c3284848484036109e2565b5b50505050565b600073ffffffffffffffffffffffffffffffffffffffff168373ffffffffffffffffffffffffffffffffffffffff161415610ca9576040517f08c379a0000000000000000000000000000000000000000000000000000000008152600401610ca0906118d3565b60405180910390fd5b600073ffffffffffffffffffffffffffffffffffffffff168273ffffffffffffffffffffffffffffffffffffffff161415610d19576040517f08c379a0000000000000000000000000000000000000000000000000000000008152600401610d1090611965565b60405180910390fd5b610d24838383610f3b565b60008060008573ffffffffffffffffffffffffffffffffffffffff1673ffffffffffffffffffffffffffffffffffffffff16815260200190815260200160002054905081811015610daa576040517f08c379a0000000000000000000000000000000000000000000000000000000008152600401610da1906119f7565b60405180910390fd5b8181036000808673ffffffffffffffffffffffffffffffffffffffff1673ffffffffffffffffffffffffffffffffffffffff16815260200190815260200160002081905550816000808573ffffffffffffffffffffffffffffffffffffffff1673ffffffffffffffffffffffffffffffffffffffff168152602001908152602001600020600082825401925050819055508273ffffffffffffffffffffffffffffffffffffffff168473ffffffffffffffffffffffffffffffffffffffff167fddf252ad1be2c89b69c2b068fc378daa952ba7f163c4a11628f55a4df523b3ef84604051610e989190611349565b60405180910390a3610eab848484610f40565b50505050565b610eb9610f45565b610ec1610fd7565b565b806002811115610ed657610ed561141b565b5b600a60009054906101000a900460ff166002811115610ef857610ef761141b565b5b14610f38576040517f08c379a0000000000000000000000000000000000000000000000000000000008152600401610f2f90611a63565b60405180910390fd5b50565b505050565b505050565b600560009054906101000a900473ffffffffffffffffffffffffffffffffffffffff1673ffffffffffffffffffffffffffffffffffffffff163373ffffffffffffffffffffffffffffffffffffffff1614610fd5576040517f08c379a0000000000000000000000000000000000000000000000000000000008152600401610fcc90611acf565b60405180910390fd5b565b6110007f00000000000000000000000000000000000000000000000000000000000000006110bf565b73ffffffffffffffffffffffffffffffffffffffff1663425fad586040518163ffffffff1660e01b815260040160206040518083038186803b15801561104557600080fd5b505afa158015611059573d6000803e3d6000fd5b505050506040513d601f19601f8201168201806040525081019061107d9190611b04565b156110bd576040517f08c379a00000000000000000000000000000000000000000000000000000000081526004016110b490611b7d565b60405180910390fd5b565b60008173ffffffffffffffffffffffffffffffffffffffff1663c31245256040518163ffffffff1660e01b815260040160206040518083038186803b15801561110757600080fd5b505afa15801561111b573d6000803e3d6000fd5b505050506040513d601f19601f8201168201806040525081019061113f9190611bdb565b9050919050565b600081519050919050565b600082825260208201905092915050565b60005b83811015611180578082015181840152602081019050611165565b8381111561118f576000848401525b50505050565b6000601f19601f8301169050919050565b60006111b182611146565b6111bb8185611151565b93506111cb818560208601611162565b6111d481611195565b840191505092915050565b600060208201905081810360008301526111f981846111a6565b905092915050565b600080fd5b600073ffffffffffffffffffffffffffffffffffffffff82169050919050565b600061123182611206565b9050919050565b61124181611226565b811461124c57600080fd5b50565b60008135905061125e81611238565b92915050565b6000819050919050565b61127781611264565b811461128257600080fd5b50565b6000813590506112948161126e565b92915050565b600080604083850312156112b1576112b0611201565b5b60006112bf8582860161124f565b92505060206112d085828601611285565b9150509250929050565b60008115159050919050565b6112ef816112da565b82525050565b600060208201905061130a60008301846112e6565b92915050565b61131981611226565b82525050565b60006020820190506113346000830184611310565b92915050565b61134381611264565b82525050565b600060208201905061135e600083018461133a565b92915050565b60008060006060848603121561137d5761137c611201565b5b600061138b8682870161124f565b935050602061139c8682870161124f565b92505060406113ad86828701611285565b9150509250925092565b600060ff82169050919050565b6113cd816113b7565b82525050565b60006020820190506113e860008301846113c4565b92915050565b60006020828403121561140457611403611201565b5b60006114128482850161124f565b91505092915050565b7f4e487b7100000000000000000000000000000000000000000000000000000000600052602160045260246000fd5b6003811061145b5761145a61141b565b5b50565b600081905061146c8261144a565b919050565b600061147c8261145e565b9050919050565b61148c81611471565b82525050565b60006020820190506114a76000830184611483565b92915050565b6114b6816112da565b81146114c157600080fd5b50565b6000813590506114d3816114ad565b92915050565b600080604083850312156114f0576114ef611201565b5b60006114fe8582860161124f565b925050602061150f858286016114c4565b9150509250929050565b600080604083850312156115305761152f611201565b5b600061153e8582860161124f565b925050602061154f8582860161124f565b9150509250929050565b7f4e487b7100000000000000000000000000000000000000000000000000000000600052602260045260246000fd5b600060028204905060018216806115a057607f821691505b602082108114156115b4576115b3611559565b5b50919050565b7f4e487b7100000000000000000000000000000000000000000000000000000000600052601160045260246000fd5b60006115f482611264565b91506115ff83611264565b9250827fffffffffffffffffffffffffffffffffffffffffffffffffffffffffffffffff03821115611634576116336115ba565b5b828201905092915050565b7f45524332303a2064656372656173656420616c6c6f77616e63652062656c6f7760008201527f207a65726f000000000000000000000000000000000000000000000000000000602082015250565b600061169b602583611151565b91506116a68261163f565b604082019050919050565b600060208201905081810360008301526116ca8161168e565b9050919050565b7f45524332303a20617070726f76652066726f6d20746865207a65726f2061646460008201527f7265737300000000000000000000000000000000000000000000000000000000602082015250565b600061172d602483611151565b9150611738826116d1565b604082019050919050565b6000602082019050818103600083015261175c81611720565b9050919050565b7f45524332303a20617070726f766520746f20746865207a65726f20616464726560008201527f7373000000000000000000000000000000000000000000000000000000000000602082015250565b60006117bf602283611151565b91506117ca82611763565b604082019050919050565b600060208201905081810360008301526117ee816117b2565b9050919050565b7f45524332303a20696e73756666696369656e7420616c6c6f77616e6365000000600082015250565b600061182b601d83611151565b9150611836826117f5565b602082019050919050565b6000602082019050818103600083015261185a8161181e565b9050919050565b7f45524332303a207472616e736665722066726f6d20746865207a65726f20616460008201527f6472657373000000000000000000000000000000000000000000000000000000602082015250565b60006118bd602583611151565b91506118c882611861565b604082019050919050565b600060208201905081810360008301526118ec816118b0565b9050919050565b7f45524332303a207472616e7366657220746f20746865207a65726f206164647260008201527f6573730000000000000000000000000000000000000000000000000000000000602082015250565b600061194f602383611151565b915061195a826118f3565b604082019050919050565b6000602082019050818103600083015261197e81611942565b9050919050565b7f45524332303a207472616e7366657220616d6f756e742065786365656473206260008201527f616c616e63650000000000000000000000000000000000000000000000000000602082015250565b60006119e1602683611151565b91506119ec82611985565b604082019050919050565b60006020820190508181036000830152611a10816119d4565b9050919050565b7f503a4241445f5354415445000000000000000000000000000000000000000000600082015250565b6000611a4d600b83611151565b9150611a5882611a17565b602082019050919050565b60006020820190508181036000830152611a7c81611a40565b9050919050565b7f503a4e4f545f44454c0000000000000000000000000000000000000000000000600082015250565b6000611ab9600983611151565b9150611ac482611a83565b602082019050919050565b60006020820190508181036000830152611ae881611aac565b9050919050565b600081519050611afe816114ad565b92915050565b600060208284031215611b1a57611b19611201565b5b6000611b2884828501611aef565b91505092915050565b7f503a50524f544f5f504155534544000000000000000000000000000000000000600082015250565b6000611b67600e83611151565b9150611b7282611b31565b602082019050919050565b60006020820190508181036000830152611b9681611b5a565b9050919050565b6000611ba882611226565b9050919050565b611bb881611b9d565b8114611bc357600080fd5b50565b600081519050611bd581611baf565b92915050565b600060208284031215611bf157611bf0611201565b5b6000611bff84828501611bc6565b9150509291505056fea2646970667358221220abbc7fa001940cf5cba59eac7a30e9b9600bde5d1e83ef84e21335a3bd7ce1b764736f6c63430008080033",
  "linkReferences": {},
  "deployedLinkReferences": {}
}