{
  "abi": [
    {
      "inputs": [
        {
          "internalType": "address",
          "name": "_liquidityAsset",
          "type": "address"
        },
        {
          "internalType": "address",
          "name": "_pool",
          "type": "address"
        }
      ],
      "stateMutability": "nonpayable",
      "type": "constructor"
    },
    {
      "inputs": [],
      "name": "liquidityAsset",
      "outputs": [
        {
          "internalType": "contract IERC20",
          "name": "",
          "type": "address"
        }
      ],
      "stateMutability": "view",
      "type": "function"
    },
    {
      "inputs": [],
      "name": "pool",
      "outputs": [
        {
          "internalType": "address",
          "name": "",
          "type": "address"
        }
      ],
      "stateMutability": "view",
      "type": "function"
    },
    {
      "inputs": [],
      "name": "totalBalance",
      "outputs": [
        {
          "internalType": "uint256",
          "name": "",
          "type": "uint256"
        }
      ],
      "stateMutability": "view",
      "type": "function"
    },
    {
      "inputs": [
        {
          "internalType": "address",
          "name": "dst",
          "type": "address"
        },
        {
          "internalType": "uint256",
          "name": "amount",
          "type": "uint256"
        }
      ],
      "name": "transfer",
      "outputs": [
        {
          "internalType": "bool",
          "name": "",
          "type": "bool"
        }
      ],
      "stateMutability": "nonpayable",
      "type": "function"
    }
  ],
  "bytecode": {
    "object": "0x60c060405234801561001057600080fd5b506040516107a63803806107a683398101604081905261002f916100f3565b6001600160a01b03821661007e5760405162461bcd60e51b815260206004820152601160248201527013130e96915493d7d3125457d054d4d155607a1b60448201526064015b60405180910390fd5b6001600160a01b0381166100c05760405162461bcd60e51b815260206004820152600960248201526804c4c3a5a45524f5f560bc1b6044820152606401610075565b6001600160a01b0391821660a05216608052610126565b80516001600160a01b03811681146100ee57600080fd5b919050565b6000806040838503121561010657600080fd5b61010f836100d7565b915061011d602084016100d7565b90509250929050565b60805160a05161064861015e60003960008181609a015281816101b001526101e40152600081816056015261010201526106486000f3fe608060405234801561001057600080fd5b506004361061004c5760003560e01c806316f0115b14610051578063209b2bca14610095578063a9059cbb146100bc578063ad7a672f146100df575b600080fd5b6100787f000000000000000000000000000000000000000000000000000000000000000081565b6040516001600160a01b0390911681526020015b60405180910390f35b6100787f000000000000000000000000000000000000000000000000000000000000000081565b6100cf6100ca366004610525565b6100f5565b604051901515815260200161008c565b6100e76101e0565b60405190815260200161008c565b6000336001600160a01b037f0000000000000000000000000000000000000000000000000000000000000000161461015f5760405162461bcd60e51b815260206004820152600860248201526704c4c3a4e4f545f560c41b60448201526064015b60405180910390fd5b6001600160a01b0383166101a35760405162461bcd60e51b815260206004820152600b60248201526a13130e9395531317d114d560aa1b6044820152606401610156565b6101d76001600160a01b037f0000000000000000000000000000000000000000000000000000000000000000168484610269565b50600192915050565b60007f00000000000000000000000000000000000000000000000000000000000000006001600160a01b03166318160ddd6040518163ffffffff1660e01b8152600401602060405180830381865afa158015610240573d6000803e3d6000fd5b505050506040513d601f19601f82011682018060405250810190610264919061055d565b905090565b604080516001600160a01b038416602482015260448082018490528251808303909101815260649091019091526020810180516001600160e01b031663a9059cbb60e01b1790526102bb9084906102c0565b505050565b6000610315826040518060400160405280602081526020017f5361666545524332303a206c6f772d6c6576656c2063616c6c206661696c6564815250856001600160a01b03166103959092919063ffffffff16565b90508051600014806103365750808060200190518101906103369190610576565b6102bb5760405162461bcd60e51b815260206004820152602a60248201527f5361666545524332303a204552433230206f7065726174696f6e20646964206e6044820152691bdd081cdd58d8d9595960b21b6064820152608401610156565b60606103a484846000856103ac565b949350505050565b60608247101561040d5760405162461bcd60e51b815260206004820152602660248201527f416464726573733a20696e73756666696369656e742062616c616e636520666f6044820152651c8818d85b1b60d21b6064820152608401610156565b600080866001600160a01b0316858760405161042991906105c3565b60006040518083038185875af1925050503d8060008114610466576040519150601f19603f3d011682016040523d82523d6000602084013e61046b565b606091505b509150915061047c87838387610487565b979650505050505050565b606083156104f65782516000036104ef576001600160a01b0385163b6104ef5760405162461bcd60e51b815260206004820152601d60248201527f416464726573733a2063616c6c20746f206e6f6e2d636f6e74726163740000006044820152606401610156565b50816103a4565b6103a4838381511561050b5781518083602001fd5b8060405162461bcd60e51b815260040161015691906105df565b6000806040838503121561053857600080fd5b82356001600160a01b038116811461054f57600080fd5b946020939093013593505050565b60006020828403121561056f57600080fd5b5051919050565b60006020828403121561058857600080fd5b8151801515811461059857600080fd5b9392505050565b60005b838110156105ba5781810151838201526020016105a2565b50506000910152565b600082516105d581846020870161059f565b9190910192915050565b60208152600082518060208401526105fe81604085016020870161059f565b601f01601f1916919091016040019291505056fea26469706673582212201c1a4405c54e7f6cdc6616deea8dc0d5a886caed313f6c41f9929bc68ef2f0f364736f6c63430008100033",
    "linkReferences": {}
  },
  "methodIdentifiers": {
    "liquidityAsset()": "209b2bca",
    "pool()": "16f0115b",
    "totalBalance()": "ad7a672f",
    "transfer(address,uint256)": "a9059cbb"
  },
  "id": 11
}