{
  "_format": "hh-sol-artifact-1",
  "contractName": "PoolFactory",
  "sourceName": "contracts/Pool/PoolFactory.sol",
  "abi": [
    {
      "inputs": [
        {
          "internalType": "address",
          "name": "_globals",
          "type": "address"
        }
      ],
      "stateMutability": "nonpayable",
      "type": "constructor"
    },
    {
      "anonymous": false,
      "inputs": [
        {
          "indexed": false,
          "internalType": "address",
          "name": "account",
          "type": "address"
        }
      ],
      "name": "Paused",
      "type": "event"
    },
    {
      "anonymous": false,
      "inputs": [
        {
          "indexed": true,
          "internalType": "address",
          "name": "pool",
          "type": "address"
        },
        {
          "indexed": true,
          "internalType": "address",
          "name": "delegate",
          "type": "address"
        },
        {
          "indexed": false,
          "internalType": "string",
          "name": "name",
          "type": "string"
        },
        {
          "indexed": false,
          "internalType": "string",
          "name": "symbol",
          "type": "string"
        }
      ],
      "name": "PoolCreated",
      "type": "event"
    },
    {
      "anonymous": false,
      "inputs": [
        {
          "indexed": true,
          "internalType": "address",
          "name": "poolFactoryAdmin",
          "type": "address"
        },
        {
          "indexed": false,
          "internalType": "bool",
          "name": "allowed",
          "type": "bool"
        }
      ],
      "name": "PoolFactoryAdminSet",
      "type": "event"
    },
    {
      "anonymous": false,
      "inputs": [
        {
          "indexed": false,
          "internalType": "address",
          "name": "account",
          "type": "address"
        }
      ],
      "name": "Unpaused",
      "type": "event"
    },
    {
      "inputs": [
        {
          "internalType": "uint256",
          "name": "lockupPeriod",
          "type": "uint256"
        },
        {
          "internalType": "uint256",
          "name": "apy",
          "type": "uint256"
        },
        {
          "internalType": "uint256",
          "name": "maxInvestmentSize",
          "type": "uint256"
        },
        {
          "internalType": "uint256",
          "name": "minInvestmentSize",
          "type": "uint256"
        }
      ],
      "name": "createPool",
      "outputs": [
        {
          "internalType": "address",
          "name": "poolAddress",
          "type": "address"
        }
      ],
      "stateMutability": "nonpayable",
      "type": "function"
    },
    {
      "inputs": [],
      "name": "globals",
      "outputs": [
        {
          "internalType": "contract HeliosGlobals",
          "name": "",
          "type": "address"
        }
      ],
      "stateMutability": "view",
      "type": "function"
    },
    {
      "inputs": [
        {
          "internalType": "address",
          "name": "",
          "type": "address"
        }
      ],
      "name": "isPool",
      "outputs": [
        {
          "internalType": "bool",
          "name": "",
          "type": "bool"
        }
      ],
      "stateMutability": "view",
      "type": "function"
    },
    {
      "inputs": [],
      "name": "pause",
      "outputs": [],
      "stateMutability": "nonpayable",
      "type": "function"
    },
    {
      "inputs": [],
      "name": "paused",
      "outputs": [
        {
          "internalType": "bool",
          "name": "",
          "type": "bool"
        }
      ],
      "stateMutability": "view",
      "type": "function"
    },
    {
      "inputs": [
        {
          "internalType": "address",
          "name": "",
          "type": "address"
        }
      ],
      "name": "poolFactoryAdmins",
      "outputs": [
        {
          "internalType": "bool",
          "name": "",
          "type": "bool"
        }
      ],
      "stateMutability": "view",
      "type": "function"
    },
    {
      "inputs": [
        {
          "internalType": "uint256",
          "name": "",
          "type": "uint256"
        }
      ],
      "name": "pools",
      "outputs": [
        {
          "internalType": "address",
          "name": "",
          "type": "address"
        }
      ],
      "stateMutability": "view",
      "type": "function"
    },
    {
      "inputs": [],
      "name": "poolsCreated",
      "outputs": [
        {
          "internalType": "uint256",
          "name": "",
          "type": "uint256"
        }
      ],
      "stateMutability": "view",
      "type": "function"
    },
    {
      "inputs": [
        {
          "internalType": "address",
          "name": "newGlobals",
          "type": "address"
        }
      ],
      "name": "setGlobals",
      "outputs": [],
      "stateMutability": "nonpayable",
      "type": "function"
    },
    {
      "inputs": [
        {
          "internalType": "address",
          "name": "poolFactoryAdmin",
          "type": "address"
        },
        {
          "internalType": "bool",
          "name": "allowed",
          "type": "bool"
        }
      ],
      "name": "setPoolFactoryAdmin",
      "outputs": [],
      "stateMutability": "nonpayable",
      "type": "function"
    },
    {
      "inputs": [],
      "name": "unpause",
      "outputs": [],
      "stateMutability": "nonpayable",
      "type": "function"
    }
  ],
  "bytecode": "0x60806040523480156200001157600080fd5b50604051620038b6380380620038b6833981810160405281019062000037919062000103565b60008060006101000a81548160ff02191690831515021790555080600260006101000a81548173ffffffffffffffffffffffffffffffffffffffff021916908373ffffffffffffffffffffffffffffffffffffffff1602179055505062000135565b600080fd5b600073ffffffffffffffffffffffffffffffffffffffff82169050919050565b6000620000cb826200009e565b9050919050565b620000dd81620000be565b8114620000e957600080fd5b50565b600081519050620000fd81620000d2565b92915050565b6000602082840312156200011c576200011b62000099565b5b60006200012c84828501620000ec565b91505092915050565b61377180620001456000396000f3fe60806040523480156200001157600080fd5b5060043610620000ca5760003560e01c80638456cb59116200008d578063c31245251162000063578063c31245251462000203578063cc2e0a261462000225578063f3f616c0146200024557620000ca565b80638456cb59146200019f578063945164e714620001ab578063ac4afa3814620001cd57620000ca565b80631377984f14620000cf5780633f4ba83a14620001055780635b16ebb714620001115780635c975abb14620001475780636050abb21462000169575b600080fd5b620000ed6004803603810190620000e7919062000c7d565b62000265565b604051620000fc919062000d34565b60405180910390f35b6200010f6200056c565b005b6200012f600480360381019062000129919062000d82565b62000582565b6040516200013e919062000dd1565b60405180910390f35b62000151620005a2565b60405162000160919062000dd1565b60405180910390f35b62000187600480360381019062000181919062000d82565b620005b8565b60405162000196919062000dd1565b60405180910390f35b620001a9620005d8565b005b620001b5620005ee565b604051620001c4919062000dff565b60405180910390f35b620001eb6004803603810190620001e5919062000e1c565b620005f4565b604051620001fa919062000d34565b60405180910390f35b6200020d62000627565b6040516200021c919062000eb9565b60405180910390f35b6200024360048036038101906200023d919062000d82565b6200064d565b005b6200026360048036038101906200025d919062000f07565b6200069b565b005b60006200027162000750565b6200027b6200079f565b6000600260009054906101000a900473ffffffffffffffffffffffffffffffffffffffff1690508073ffffffffffffffffffffffffffffffffffffffff1663372e3546336040518263ffffffff1660e01b8152600401620002dd919062000d34565b60206040518083038186803b158015620002f657600080fd5b505afa1580156200030b573d6000803e3d6000fd5b505050506040513d601f19601f8201168201806040525081019062000331919062000f65565b62000373576040517f08c379a00000000000000000000000000000000000000000000000000000000081526004016200036a9062000ff8565b60405180910390fd5b5060006040518060400160405280601181526020017f48656c696f7320506f6f6c20546f6b656e000000000000000000000000000000815250905060006040518060400160405280600681526020017f484c532d4c5000000000000000000000000000000000000000000000000000008152509050600033888888888787604051620003ff9062000c2f565b620004119796959493929190620010ad565b604051809103906000f0801580156200042e573d6000803e3d6000fd5b5090508093508360036000600154815260200190815260200160002060006101000a81548173ffffffffffffffffffffffffffffffffffffffff021916908373ffffffffffffffffffffffffffffffffffffffff1602179055506001600460008673ffffffffffffffffffffffffffffffffffffffff1673ffffffffffffffffffffffffffffffffffffffff16815260200190815260200160002060006101000a81548160ff021916908315150217905550600160008154620004f19062001167565b919050819055503373ffffffffffffffffffffffffffffffffffffffff168473ffffffffffffffffffffffffffffffffffffffff167f02e6c36b9d8c15cf5bdbf15aab788b11e1ffa8a4617731758ea3b1ef6d7754db858560405162000559929190620011b5565b60405180910390a3505050949350505050565b6200057662000888565b62000580620009f3565b565b60046020528060005260406000206000915054906101000a900460ff1681565b60008060009054906101000a900460ff16905090565b60056020528060005260406000206000915054906101000a900460ff1681565b620005e262000888565b620005ec62000a5b565b565b60015481565b60036020528060005260406000206000915054906101000a900473ffffffffffffffffffffffffffffffffffffffff1681565b600260009054906101000a900473ffffffffffffffffffffffffffffffffffffffff1681565b6200065762000ac3565b80600260006101000a81548173ffffffffffffffffffffffffffffffffffffffff021916908373ffffffffffffffffffffffffffffffffffffffff16021790555050565b620006a562000ac3565b80600560008473ffffffffffffffffffffffffffffffffffffffff1673ffffffffffffffffffffffffffffffffffffffff16815260200190815260200160002060006101000a81548160ff0219169083151502179055508173ffffffffffffffffffffffffffffffffffffffff167fc0d8ae32722eafe08b35b2bb46dec31dcbbd5bb18069f66995df3c9f47f4d64f8260405162000744919062000dd1565b60405180910390a25050565b6200075a620005a2565b156200079d576040517f08c379a0000000000000000000000000000000000000000000000000000000008152600401620007949062001240565b60405180910390fd5b565b600260009054906101000a900473ffffffffffffffffffffffffffffffffffffffff1673ffffffffffffffffffffffffffffffffffffffff1663425fad586040518163ffffffff1660e01b815260040160206040518083038186803b1580156200080857600080fd5b505afa1580156200081d573d6000803e3d6000fd5b505050506040513d601f19601f8201168201806040525081019062000843919062000f65565b1562000886576040517f08c379a00000000000000000000000000000000000000000000000000000000081526004016200087d90620012b2565b60405180910390fd5b565b600260009054906101000a900473ffffffffffffffffffffffffffffffffffffffff1673ffffffffffffffffffffffffffffffffffffffff16630c340a246040518163ffffffff1660e01b815260040160206040518083038186803b158015620008f157600080fd5b505afa15801562000906573d6000803e3d6000fd5b505050506040513d601f19601f820116820180604052508101906200092c9190620012eb565b73ffffffffffffffffffffffffffffffffffffffff163373ffffffffffffffffffffffffffffffffffffffff161480620009af5750600560003373ffffffffffffffffffffffffffffffffffffffff1673ffffffffffffffffffffffffffffffffffffffff16815260200190815260200160002060009054906101000a900460ff165b620009f1576040517f08c379a0000000000000000000000000000000000000000000000000000000008152600401620009e8906200136d565b60405180910390fd5b565b620009fd62000bd9565b60008060006101000a81548160ff0219169083151502179055507f5db9ee0a495bf2e6ff9c91a7834c1ba4fdd244a5e8aa4e537bd38aeae4b073aa62000a4262000c27565b60405162000a51919062000d34565b60405180910390a1565b62000a6562000750565b60016000806101000a81548160ff0219169083151502179055507f62e78cea01bee320cd4e420270b5ea74000d11b0c9f74754ebdbfc544b05a25862000aaa62000c27565b60405162000ab9919062000d34565b60405180910390a1565b600260009054906101000a900473ffffffffffffffffffffffffffffffffffffffff1673ffffffffffffffffffffffffffffffffffffffff16630c340a246040518163ffffffff1660e01b815260040160206040518083038186803b15801562000b2c57600080fd5b505afa15801562000b41573d6000803e3d6000fd5b505050506040513d601f19601f8201168201806040525081019062000b679190620012eb565b73ffffffffffffffffffffffffffffffffffffffff163373ffffffffffffffffffffffffffffffffffffffff161462000bd7576040517f08c379a000000000000000000000000000000000000000000000000000000000815260040162000bce90620013df565b60405180910390fd5b565b62000be3620005a2565b62000c25576040517f08c379a000000000000000000000000000000000000000000000000000000000815260040162000c1c9062001451565b60405180910390fd5b565b600033905090565b6122c8806200147483390190565b600080fd5b6000819050919050565b62000c578162000c42565b811462000c6357600080fd5b50565b60008135905062000c778162000c4c565b92915050565b6000806000806080858703121562000c9a5762000c9962000c3d565b5b600062000caa8782880162000c66565b945050602062000cbd8782880162000c66565b935050604062000cd08782880162000c66565b925050606062000ce38782880162000c66565b91505092959194509250565b600073ffffffffffffffffffffffffffffffffffffffff82169050919050565b600062000d1c8262000cef565b9050919050565b62000d2e8162000d0f565b82525050565b600060208201905062000d4b600083018462000d23565b92915050565b62000d5c8162000d0f565b811462000d6857600080fd5b50565b60008135905062000d7c8162000d51565b92915050565b60006020828403121562000d9b5762000d9a62000c3d565b5b600062000dab8482850162000d6b565b91505092915050565b60008115159050919050565b62000dcb8162000db4565b82525050565b600060208201905062000de8600083018462000dc0565b92915050565b62000df98162000c42565b82525050565b600060208201905062000e16600083018462000dee565b92915050565b60006020828403121562000e355762000e3462000c3d565b5b600062000e458482850162000c66565b91505092915050565b6000819050919050565b600062000e7962000e7362000e6d8462000cef565b62000e4e565b62000cef565b9050919050565b600062000e8d8262000e58565b9050919050565b600062000ea18262000e80565b9050919050565b62000eb38162000e94565b82525050565b600060208201905062000ed0600083018462000ea8565b92915050565b62000ee18162000db4565b811462000eed57600080fd5b50565b60008135905062000f018162000ed6565b92915050565b6000806040838503121562000f215762000f2062000c3d565b5b600062000f318582860162000d6b565b925050602062000f448582860162000ef0565b9150509250929050565b60008151905062000f5f8162000ed6565b92915050565b60006020828403121562000f7e5762000f7d62000c3d565b5b600062000f8e8482850162000f4e565b91505092915050565b600082825260208201905092915050565b7f50463a4e4f545f44454c45474154450000000000000000000000000000000000600082015250565b600062000fe0600f8362000f97565b915062000fed8262000fa8565b602082019050919050565b60006020820190508181036000830152620010138162000fd1565b9050919050565b600081519050919050565b60005b838110156200104557808201518184015260208101905062001028565b8381111562001055576000848401525b50505050565b6000601f19601f8301169050919050565b600062001079826200101a565b62001085818562000f97565b93506200109781856020860162001025565b620010a2816200105b565b840191505092915050565b600060e082019050620010c4600083018a62000d23565b620010d3602083018962000dee565b620010e2604083018862000dee565b620010f1606083018762000dee565b62001100608083018662000dee565b81810360a08301526200111481856200106c565b905081810360c08301526200112a81846200106c565b905098975050505050505050565b7f4e487b7100000000000000000000000000000000000000000000000000000000600052601160045260246000fd5b6000620011748262000c42565b91507fffffffffffffffffffffffffffffffffffffffffffffffffffffffffffffffff821415620011aa57620011a962001138565b5b600182019050919050565b60006040820190508181036000830152620011d181856200106c565b90508181036020830152620011e781846200106c565b90509392505050565b7f5061757361626c653a2070617573656400000000000000000000000000000000600082015250565b60006200122860108362000f97565b91506200123582620011f0565b602082019050919050565b600060208201905081810360008301526200125b8162001219565b9050919050565b7f50463a50524f544f5f5041555345440000000000000000000000000000000000600082015250565b60006200129a600f8362000f97565b9150620012a78262001262565b602082019050919050565b60006020820190508181036000830152620012cd816200128b565b9050919050565b600081519050620012e58162000d51565b92915050565b60006020828403121562001304576200130362000c3d565b5b60006200131484828501620012d4565b91505092915050565b7f50463a4e4f545f474f565f4f525f41444d494e00000000000000000000000000600082015250565b60006200135560138362000f97565b915062001362826200131d565b602082019050919050565b60006020820190508181036000830152620013888162001346565b9050919050565b7f50463a4e4f545f474f5600000000000000000000000000000000000000000000600082015250565b6000620013c7600a8362000f97565b9150620013d4826200138f565b602082019050919050565b60006020820190508181036000830152620013fa81620013b8565b9050919050565b7f5061757361626c653a206e6f7420706175736564000000000000000000000000600082015250565b60006200143960148362000f97565b9150620014468262001401565b602082019050919050565b600060208201905081810360008301526200146c816200142a565b905091905056fe60a06040523480156200001157600080fd5b50604051620022c8380380620022c8833981810160405281019062000037919062000471565b818181600390805190602001906200005192919062000184565b5080600490805190602001906200006a92919062000184565b5050503373ffffffffffffffffffffffffffffffffffffffff1660808173ffffffffffffffffffffffffffffffffffffffff1660601b8152505086600560006101000a81548173ffffffffffffffffffffffffffffffffffffffff021916908373ffffffffffffffffffffffffffffffffffffffff160217905550856006819055508460078190555083600881905550826009819055506000600a60006101000a81548160ff021916908360028111156200012a576200012962000562565b5b02179055507f24b0afb747a8213aea796b9518bfa667de187b83390eda7cc93b8e57f80fcd1a600a60009054906101000a900460ff166040516200016f9190620005e2565b60405180910390a15050505050505062000664565b82805462000192906200062e565b90600052602060002090601f016020900481019282620001b6576000855562000202565b82601f10620001d157805160ff191683800117855562000202565b8280016001018555821562000202579182015b8281111562000201578251825591602001919060010190620001e4565b5b50905062000211919062000215565b5090565b5b808211156200023057600081600090555060010162000216565b5090565b6000604051905090565b600080fd5b600080fd5b600073ffffffffffffffffffffffffffffffffffffffff82169050919050565b6000620002758262000248565b9050919050565b620002878162000268565b81146200029357600080fd5b50565b600081519050620002a7816200027c565b92915050565b6000819050919050565b620002c281620002ad565b8114620002ce57600080fd5b50565b600081519050620002e281620002b7565b92915050565b600080fd5b600080fd5b6000601f19601f8301169050919050565b7f4e487b7100000000000000000000000000000000000000000000000000000000600052604160045260246000fd5b6200033d82620002f2565b810181811067ffffffffffffffff821117156200035f576200035e62000303565b5b80604052505050565b60006200037462000234565b905062000382828262000332565b919050565b600067ffffffffffffffff821115620003a557620003a462000303565b5b620003b082620002f2565b9050602081019050919050565b60005b83811015620003dd578082015181840152602081019050620003c0565b83811115620003ed576000848401525b50505050565b60006200040a620004048462000387565b62000368565b905082815260208101848484011115620004295762000428620002ed565b5b62000436848285620003bd565b509392505050565b600082601f830112620004565762000455620002e8565b5b815162000468848260208601620003f3565b91505092915050565b600080600080600080600060e0888a0312156200049357620004926200023e565b5b6000620004a38a828b0162000296565b9750506020620004b68a828b01620002d1565b9650506040620004c98a828b01620002d1565b9550506060620004dc8a828b01620002d1565b9450506080620004ef8a828b01620002d1565b93505060a088015167ffffffffffffffff81111562000513576200051262000243565b5b620005218a828b016200043e565b92505060c088015167ffffffffffffffff81111562000545576200054462000243565b5b620005538a828b016200043e565b91505092959891949750929550565b7f4e487b7100000000000000000000000000000000000000000000000000000000600052602160045260246000fd5b60038110620005a557620005a462000562565b5b50565b6000819050620005b88262000591565b919050565b6000620005ca82620005a8565b9050919050565b620005dc81620005bd565b82525050565b6000602082019050620005f96000830184620005d1565b92915050565b7f4e487b7100000000000000000000000000000000000000000000000000000000600052602260045260246000fd5b600060028204905060018216806200064757607f821691505b602082108114156200065e576200065d620005ff565b5b50919050565b60805160601c611c3e6200068a600039600081816105180152610fdc0152611c3e6000f3fe608060405234801561001057600080fd5b50600436106101625760003560e01c8063613384f2116100c857806395d89b411161008c578063ba5cdf2011610066578063ba5cdf20146103f5578063dd62ed3e14610413578063ee947a7c1461044357610162565b806395d89b4114610377578063a457c2d714610395578063a9059cbb146103c557610162565b8063613384f2146102bf578063641ad8a9146102ef57806370a082311461030d57806378faa7b51461033d5780639185192a1461035b57610162565b8063313ce5671161012a5780634046af2b116101045780634046af2b1461028d5780634bb278f3146102ab57806351b42b00146102b557610162565b8063313ce56714610221578063395093511461023f5780633bcfc4b81461026f57610162565b806306fdde0314610167578063095ea7b3146101855780630d49b38c146101b557806318160ddd146101d357806323b872dd146101f1575b600080fd5b61016f610461565b60405161017c91906111df565b60405180910390f35b61019f600480360381019061019a919061129a565b6104f3565b6040516101ac91906112f5565b60405180910390f35b6101bd610516565b6040516101ca919061131f565b60405180910390f35b6101db61053a565b6040516101e89190611349565b60405180910390f35b61020b60048036038101906102069190611364565b610544565b60405161021891906112f5565b60405180910390f35b610229610573565b60405161023691906113d3565b60405180910390f35b6102596004803603810190610254919061129a565b61057c565b60405161026691906112f5565b60405180910390f35b6102776105b3565b6040516102849190611349565b60405180910390f35b6102956105b9565b6040516102a2919061131f565b60405180910390f35b6102b36105df565b005b6102bd610664565b005b6102d960048036038101906102d491906113ee565b6106e9565b6040516102e691906112f5565b60405180910390f35b6102f7610709565b6040516103049190611492565b60405180910390f35b610327600480360381019061032291906113ee565b61071c565b6040516103349190611349565b60405180910390f35b610345610764565b6040516103529190611349565b60405180910390f35b610375600480360381019061037091906114d9565b61076a565b005b61037f61081b565b60405161038c91906111df565b60405180910390f35b6103af60048036038101906103aa919061129a565b6108ad565b6040516103bc91906112f5565b60405180910390f35b6103df60048036038101906103da919061129a565b610924565b6040516103ec91906112f5565b60405180910390f35b6103fd610947565b60405161040a9190611349565b60405180910390f35b61042d60048036038101906104289190611519565b61094d565b60405161043a9190611349565b60405180910390f35b61044b6109d4565b6040516104589190611349565b60405180910390f35b60606003805461047090611588565b80601f016020809104026020016040519081016040528092919081815260200182805461049c90611588565b80156104e95780601f106104be576101008083540402835291602001916104e9565b820191906000526020600020905b8154815290600101906020018083116104cc57829003601f168201915b5050505050905090565b6000806104fe6109da565b905061050b8185856109e2565b600191505092915050565b7f000000000000000000000000000000000000000000000000000000000000000081565b6000600254905090565b60008061054f6109da565b905061055c858285610bad565b610567858585610c39565b60019150509392505050565b60006012905090565b6000806105876109da565b90506105a8818585610599858961094d565b6105a391906115e9565b6109e2565b600191505092915050565b60075481565b600560009054906101000a900473ffffffffffffffffffffffffffffffffffffffff1681565b6105e7610eb1565b6105f16000610ec3565b6001600a60006101000a81548160ff021916908360028111156106175761061661141b565b5b02179055507f24b0afb747a8213aea796b9518bfa667de187b83390eda7cc93b8e57f80fcd1a600a60009054906101000a900460ff1660405161065a9190611492565b60405180910390a1565b61066c610eb1565b6106766001610ec3565b6002600a60006101000a81548160ff0219169083600281111561069c5761069b61141b565b5b02179055507f24b0afb747a8213aea796b9518bfa667de187b83390eda7cc93b8e57f80fcd1a600a60009054906101000a900460ff166040516106df9190611492565b60405180910390a1565b600b6020528060005260406000206000915054906101000a900460ff1681565b600a60009054906101000a900460ff1681565b60008060008373ffffffffffffffffffffffffffffffffffffffff1673ffffffffffffffffffffffffffffffffffffffff168152602001908152602001600020549050919050565b60085481565b610772610eb1565b80600b60008473ffffffffffffffffffffffffffffffffffffffff1673ffffffffffffffffffffffffffffffffffffffff16815260200190815260200160002060006101000a81548160ff0219169083151502179055508173ffffffffffffffffffffffffffffffffffffffff167f353578bbc0ab907b7018b0f7b50b5f822d31dc9fcf4c16fffa780e109ca7c9308260405161080f91906112f5565b60405180910390a25050565b60606004805461082a90611588565b80601f016020809104026020016040519081016040528092919081815260200182805461085690611588565b80156108a35780601f10610878576101008083540402835291602001916108a3565b820191906000526020600020905b81548152906001019060200180831161088657829003601f168201915b5050505050905090565b6000806108b86109da565b905060006108c6828661094d565b90508381101561090b576040517f08c379a0000000000000000000000000000000000000000000000000000000008152600401610902906116b1565b60405180910390fd5b61091882868684036109e2565b60019250505092915050565b60008061092f6109da565b905061093c818585610c39565b600191505092915050565b60095481565b6000600160008473ffffffffffffffffffffffffffffffffffffffff1673ffffffffffffffffffffffffffffffffffffffff16815260200190815260200160002060008373ffffffffffffffffffffffffffffffffffffffff1673ffffffffffffffffffffffffffffffffffffffff16815260200190815260200160002054905092915050565b60065481565b600033905090565b600073ffffffffffffffffffffffffffffffffffffffff168373ffffffffffffffffffffffffffffffffffffffff161415610a52576040517f08c379a0000000000000000000000000000000000000000000000000000000008152600401610a4990611743565b60405180910390fd5b600073ffffffffffffffffffffffffffffffffffffffff168273ffffffffffffffffffffffffffffffffffffffff161415610ac2576040517f08c379a0000000000000000000000000000000000000000000000000000000008152600401610ab9906117d5565b60405180910390fd5b80600160008573ffffffffffffffffffffffffffffffffffffffff1673ffffffffffffffffffffffffffffffffffffffff16815260200190815260200160002060008473ffffffffffffffffffffffffffffffffffffffff1673ffffffffffffffffffffffffffffffffffffffff168152602001908152602001600020819055508173ffffffffffffffffffffffffffffffffffffffff168373ffffffffffffffffffffffffffffffffffffffff167f8c5be1e5ebec7d5bd14f71427d1e84f3dd0314c0f7b2291e5b200ac8c7c3b92583604051610ba09190611349565b60405180910390a3505050565b6000610bb9848461094d565b90507fffffffffffffffffffffffffffffffffffffffffffffffffffffffffffffffff8114610c335781811015610c25576040517f08c379a0000000000000000000000000000000000000000000000000000000008152600401610c1c90611841565b60405180910390fd5b610c3284848484036109e2565b5b50505050565b600073ffffffffffffffffffffffffffffffffffffffff168373ffffffffffffffffffffffffffffffffffffffff161415610ca9576040517f08c379a0000000000000000000000000000000000000000000000000000000008152600401610ca0906118d3565b60405180910390fd5b600073ffffffffffffffffffffffffffffffffffffffff168273ffffffffffffffffffffffffffffffffffffffff161415610d19576040517f08c379a0000000000000000000000000000000000000000000000000000000008152600401610d1090611965565b60405180910390fd5b610d24838383610f3b565b60008060008573ffffffffffffffffffffffffffffffffffffffff1673ffffffffffffffffffffffffffffffffffffffff16815260200190815260200160002054905081811015610daa576040517f08c379a0000000000000000000000000000000000000000000000000000000008152600401610da1906119f7565b60405180910390fd5b8181036000808673ffffffffffffffffffffffffffffffffffffffff1673ffffffffffffffffffffffffffffffffffffffff16815260200190815260200160002081905550816000808573ffffffffffffffffffffffffffffffffffffffff1673ffffffffffffffffffffffffffffffffffffffff168152602001908152602001600020600082825401925050819055508273ffffffffffffffffffffffffffffffffffffffff168473ffffffffffffffffffffffffffffffffffffffff167fddf252ad1be2c89b69c2b068fc378daa952ba7f163c4a11628f55a4df523b3ef84604051610e989190611349565b60405180910390a3610eab848484610f40565b50505050565b610eb9610f45565b610ec1610fd7565b565b806002811115610ed657610ed561141b565b5b600a60009054906101000a900460ff166002811115610ef857610ef761141b565b5b14610f38576040517f08c379a0000000000000000000000000000000000000000000000000000000008152600401610f2f90611a63565b60405180910390fd5b50565b505050565b505050565b600560009054906101000a900473ffffffffffffffffffffffffffffffffffffffff1673ffffffffffffffffffffffffffffffffffffffff163373ffffffffffffffffffffffffffffffffffffffff1614610fd5576040517f08c379a0000000000000000000000000000000000000000000000000000000008152600401610fcc90611acf565b60405180910390fd5b565b6110007f00000000000000000000000000000000000000000000000000000000000000006110bf565b73ffffffffffffffffffffffffffffffffffffffff1663425fad586040518163ffffffff1660e01b815260040160206040518083038186803b15801561104557600080fd5b505afa158015611059573d6000803e3d6000fd5b505050506040513d601f19601f8201168201806040525081019061107d9190611b04565b156110bd576040517f08c379a00000000000000000000000000000000000000000000000000000000081526004016110b490611b7d565b60405180910390fd5b565b60008173ffffffffffffffffffffffffffffffffffffffff1663c31245256040518163ffffffff1660e01b815260040160206040518083038186803b15801561110757600080fd5b505afa15801561111b573d6000803e3d6000fd5b505050506040513d601f19601f8201168201806040525081019061113f9190611bdb565b9050919050565b600081519050919050565b600082825260208201905092915050565b60005b83811015611180578082015181840152602081019050611165565b8381111561118f576000848401525b50505050565b6000601f19601f8301169050919050565b60006111b182611146565b6111bb8185611151565b93506111cb818560208601611162565b6111d481611195565b840191505092915050565b600060208201905081810360008301526111f981846111a6565b905092915050565b600080fd5b600073ffffffffffffffffffffffffffffffffffffffff82169050919050565b600061123182611206565b9050919050565b61124181611226565b811461124c57600080fd5b50565b60008135905061125e81611238565b92915050565b6000819050919050565b61127781611264565b811461128257600080fd5b50565b6000813590506112948161126e565b92915050565b600080604083850312156112b1576112b0611201565b5b60006112bf8582860161124f565b92505060206112d085828601611285565b9150509250929050565b60008115159050919050565b6112ef816112da565b82525050565b600060208201905061130a60008301846112e6565b92915050565b61131981611226565b82525050565b60006020820190506113346000830184611310565b92915050565b61134381611264565b82525050565b600060208201905061135e600083018461133a565b92915050565b60008060006060848603121561137d5761137c611201565b5b600061138b8682870161124f565b935050602061139c8682870161124f565b92505060406113ad86828701611285565b9150509250925092565b600060ff82169050919050565b6113cd816113b7565b82525050565b60006020820190506113e860008301846113c4565b92915050565b60006020828403121561140457611403611201565b5b60006114128482850161124f565b91505092915050565b7f4e487b7100000000000000000000000000000000000000000000000000000000600052602160045260246000fd5b6003811061145b5761145a61141b565b5b50565b600081905061146c8261144a565b919050565b600061147c8261145e565b9050919050565b61148c81611471565b82525050565b60006020820190506114a76000830184611483565b92915050565b6114b6816112da565b81146114c157600080fd5b50565b6000813590506114d3816114ad565b92915050565b600080604083850312156114f0576114ef611201565b5b60006114fe8582860161124f565b925050602061150f858286016114c4565b9150509250929050565b600080604083850312156115305761152f611201565b5b600061153e8582860161124f565b925050602061154f8582860161124f565b9150509250929050565b7f4e487b7100000000000000000000000000000000000000000000000000000000600052602260045260246000fd5b600060028204905060018216806115a057607f821691505b602082108114156115b4576115b3611559565b5b50919050565b7f4e487b7100000000000000000000000000000000000000000000000000000000600052601160045260246000fd5b60006115f482611264565b91506115ff83611264565b9250827fffffffffffffffffffffffffffffffffffffffffffffffffffffffffffffffff03821115611634576116336115ba565b5b828201905092915050565b7f45524332303a2064656372656173656420616c6c6f77616e63652062656c6f7760008201527f207a65726f000000000000000000000000000000000000000000000000000000602082015250565b600061169b602583611151565b91506116a68261163f565b604082019050919050565b600060208201905081810360008301526116ca8161168e565b9050919050565b7f45524332303a20617070726f76652066726f6d20746865207a65726f2061646460008201527f7265737300000000000000000000000000000000000000000000000000000000602082015250565b600061172d602483611151565b9150611738826116d1565b604082019050919050565b6000602082019050818103600083015261175c81611720565b9050919050565b7f45524332303a20617070726f766520746f20746865207a65726f20616464726560008201527f7373000000000000000000000000000000000000000000000000000000000000602082015250565b60006117bf602283611151565b91506117ca82611763565b604082019050919050565b600060208201905081810360008301526117ee816117b2565b9050919050565b7f45524332303a20696e73756666696369656e7420616c6c6f77616e6365000000600082015250565b600061182b601d83611151565b9150611836826117f5565b602082019050919050565b6000602082019050818103600083015261185a8161181e565b9050919050565b7f45524332303a207472616e736665722066726f6d20746865207a65726f20616460008201527f6472657373000000000000000000000000000000000000000000000000000000602082015250565b60006118bd602583611151565b91506118c882611861565b604082019050919050565b600060208201905081810360008301526118ec816118b0565b9050919050565b7f45524332303a207472616e7366657220746f20746865207a65726f206164647260008201527f6573730000000000000000000000000000000000000000000000000000000000602082015250565b600061194f602383611151565b915061195a826118f3565b604082019050919050565b6000602082019050818103600083015261197e81611942565b9050919050565b7f45524332303a207472616e7366657220616d6f756e742065786365656473206260008201527f616c616e63650000000000000000000000000000000000000000000000000000602082015250565b60006119e1602683611151565b91506119ec82611985565b604082019050919050565b60006020820190508181036000830152611a10816119d4565b9050919050565b7f503a4241445f5354415445000000000000000000000000000000000000000000600082015250565b6000611a4d600b83611151565b9150611a5882611a17565b602082019050919050565b60006020820190508181036000830152611a7c81611a40565b9050919050565b7f503a4e4f545f44454c0000000000000000000000000000000000000000000000600082015250565b6000611ab9600983611151565b9150611ac482611a83565b602082019050919050565b60006020820190508181036000830152611ae881611aac565b9050919050565b600081519050611afe816114ad565b92915050565b600060208284031215611b1a57611b19611201565b5b6000611b2884828501611aef565b91505092915050565b7f503a50524f544f5f504155534544000000000000000000000000000000000000600082015250565b6000611b67600e83611151565b9150611b7282611b31565b602082019050919050565b60006020820190508181036000830152611b9681611b5a565b9050919050565b6000611ba882611226565b9050919050565b611bb881611b9d565b8114611bc357600080fd5b50565b600081519050611bd581611baf565b92915050565b600060208284031215611bf157611bf0611201565b5b6000611bff84828501611bc6565b9150509291505056fea2646970667358221220abbc7fa001940cf5cba59eac7a30e9b9600bde5d1e83ef84e21335a3bd7ce1b764736f6c63430008080033a2646970667358221220d75a2a6380d2c897ddcf4510c23a0b369f4ace1c7cea38adcbfdf45dc483e72864736f6c63430008080033",
  "linkReferences": {},
  "deployedLinkReferences": {}
}