{
  "abi": [
    {
      "anonymous": false,
      "inputs": [
        {
          "indexed": true,
          "internalType": "address",
          "name": "liquidityProvider",
          "type": "address"
        },
        {
          "indexed": false,
          "internalType": "uint256",
          "name": "depositDate",
          "type": "uint256"
        }
      ],
      "name": "DepositDateUpdated",
      "type": "event"
    },
    {
      "inputs": [],
      "name": "NAME",
      "outputs": [
        {
          "internalType": "string",
          "name": "",
          "type": "string"
        }
      ],
      "stateMutability": "view",
      "type": "function"
    },
    {
      "inputs": [],
      "name": "SYMBOL",
      "outputs": [
        {
          "internalType": "string",
          "name": "",
          "type": "string"
        }
      ],
      "stateMutability": "view",
      "type": "function"
    }
  ],
  "bytecode": {
    "object": "0x61012861003a600b82828239805160001a60731461002d57634e487b7160e01b600052600060045260246000fd5b30600052607381538281f3fe7300000000000000000000000000000000000000003014608060405260043610603d5760003560e01c8063a3f4df7e146042578063f76f8d78146083575b600080fd5b606f6040518060400160405280600f81526020016e12195b1a5bdcc81512d388141bdbdb608a1b81525081565b604051607a919060a6565b60405180910390f35b606f604051806040016040528060058152602001640484c532d560dc1b81525081565b600060208083528351808285015260005b8181101560d15785810183015185820160400152820160b7565b506000604082860101526040601f19601f830116850101925050509291505056fea264697066735822122060fbec6bfe86fd653905f8bb72071b3f811c0838e5e64aef24fd1b8ba51237e864736f6c63430008100033",
    "linkReferences": {}
  },
  "methodIdentifiers": {
    "NAME()": "a3f4df7e",
    "SYMBOL()": "f76f8d78"
  },
  "id": 6
}