{
  "abi": [
    {
      "inputs": [
        {
          "internalType": "address",
          "name": "admin",
          "type": "address"
        }
      ],
      "stateMutability": "nonpayable",
      "type": "constructor"
    },
    {
      "inputs": [],
      "name": "AccessControlBadConfirmation",
      "type": "error"
    },
    {
      "inputs": [
        {
          "internalType": "address",
          "name": "account",
          "type": "address"
        },
        {
          "internalType": "bytes32",
          "name": "neededRole",
          "type": "bytes32"
        }
      ],
      "name": "AccessControlUnauthorizedAccount",
      "type": "error"
    },
    {
      "anonymous": false,
      "inputs": [],
      "name": "Initialized",
      "type": "event"
    },
    {
      "anonymous": false,
      "inputs": [
        {
          "indexed": false,
          "internalType": "address",
          "name": "asset",
          "type": "address"
        },
        {
          "indexed": false,
          "internalType": "uint256",
          "name": "decimals",
          "type": "uint256"
        },
        {
          "indexed": false,
          "internalType": "string",
          "name": "symbol",
          "type": "string"
        },
        {
          "indexed": false,
          "internalType": "bool",
          "name": "valid",
          "type": "bool"
        }
      ],
      "name": "LiquidityAssetSet",
      "type": "event"
    },
    {
      "anonymous": false,
      "inputs": [
        {
          "indexed": false,
          "internalType": "bool",
          "name": "pause",
          "type": "bool"
        }
      ],
      "name": "ProtocolPaused",
      "type": "event"
    },
    {
      "anonymous": false,
      "inputs": [
        {
          "indexed": true,
          "internalType": "bytes32",
          "name": "role",
          "type": "bytes32"
        },
        {
          "indexed": true,
          "internalType": "bytes32",
          "name": "previousAdminRole",
          "type": "bytes32"
        },
        {
          "indexed": true,
          "internalType": "bytes32",
          "name": "newAdminRole",
          "type": "bytes32"
        }
      ],
      "name": "RoleAdminChanged",
      "type": "event"
    },
    {
      "anonymous": false,
      "inputs": [
        {
          "indexed": true,
          "internalType": "bytes32",
          "name": "role",
          "type": "bytes32"
        },
        {
          "indexed": true,
          "internalType": "address",
          "name": "account",
          "type": "address"
        },
        {
          "indexed": true,
          "internalType": "address",
          "name": "sender",
          "type": "address"
        }
      ],
      "name": "RoleGranted",
      "type": "event"
    },
    {
      "anonymous": false,
      "inputs": [
        {
          "indexed": true,
          "internalType": "bytes32",
          "name": "role",
          "type": "bytes32"
        },
        {
          "indexed": true,
          "internalType": "address",
          "name": "account",
          "type": "address"
        },
        {
          "indexed": true,
          "internalType": "address",
          "name": "sender",
          "type": "address"
        }
      ],
      "name": "RoleRevoked",
      "type": "event"
    },
    {
      "anonymous": false,
      "inputs": [
        {
          "indexed": true,
          "internalType": "address",
          "name": "liquidityLockerFactory",
          "type": "address"
        },
        {
          "indexed": false,
          "internalType": "bool",
          "name": "valid",
          "type": "bool"
        }
      ],
      "name": "ValidLiquidityLockerFactorySet",
      "type": "event"
    },
    {
      "anonymous": false,
      "inputs": [
        {
          "indexed": true,
          "internalType": "address",
          "name": "poolFactory",
          "type": "address"
        },
        {
          "indexed": false,
          "internalType": "bool",
          "name": "valid",
          "type": "bool"
        }
      ],
      "name": "ValidPoolFactorySet",
      "type": "event"
    },
    {
      "inputs": [],
      "name": "DEFAULT_ADMIN_ROLE",
      "outputs": [
        {
          "internalType": "bytes32",
          "name": "",
          "type": "bytes32"
        }
      ],
      "stateMutability": "view",
      "type": "function"
    },
    {
      "inputs": [],
      "name": "USER_ROLE",
      "outputs": [
        {
          "internalType": "bytes32",
          "name": "",
          "type": "bytes32"
        }
      ],
      "stateMutability": "view",
      "type": "function"
    },
    {
      "inputs": [
        {
          "internalType": "bytes32",
          "name": "role",
          "type": "bytes32"
        }
      ],
      "name": "getRoleAdmin",
      "outputs": [
        {
          "internalType": "bytes32",
          "name": "",
          "type": "bytes32"
        }
      ],
      "stateMutability": "view",
      "type": "function"
    },
    {
      "inputs": [
        {
          "internalType": "bytes32",
          "name": "role",
          "type": "bytes32"
        },
        {
          "internalType": "address",
          "name": "account",
          "type": "address"
        }
      ],
      "name": "grantRole",
      "outputs": [],
      "stateMutability": "nonpayable",
      "type": "function"
    },
    {
      "inputs": [
        {
          "internalType": "bytes32",
          "name": "role",
          "type": "bytes32"
        },
        {
          "internalType": "address",
          "name": "account",
          "type": "address"
        }
      ],
      "name": "hasRole",
      "outputs": [
        {
          "internalType": "bool",
          "name": "",
          "type": "bool"
        }
      ],
      "stateMutability": "view",
      "type": "function"
    },
    {
      "inputs": [
        {
          "internalType": "address",
          "name": "account",
          "type": "address"
        }
      ],
      "name": "isAdmin",
      "outputs": [
        {
          "internalType": "bool",
          "name": "",
          "type": "bool"
        }
      ],
      "stateMutability": "view",
      "type": "function"
    },
    {
      "inputs": [
        {
          "internalType": "address",
          "name": "",
          "type": "address"
        }
      ],
      "name": "isValidLiquidityAsset",
      "outputs": [
        {
          "internalType": "bool",
          "name": "",
          "type": "bool"
        }
      ],
      "stateMutability": "view",
      "type": "function"
    },
    {
      "inputs": [
        {
          "internalType": "address",
          "name": "",
          "type": "address"
        }
      ],
      "name": "isValidLiquidityLockerFactory",
      "outputs": [
        {
          "internalType": "bool",
          "name": "",
          "type": "bool"
        }
      ],
      "stateMutability": "view",
      "type": "function"
    },
    {
      "inputs": [
        {
          "internalType": "address",
          "name": "",
          "type": "address"
        }
      ],
      "name": "isValidPoolFactory",
      "outputs": [
        {
          "internalType": "bool",
          "name": "",
          "type": "bool"
        }
      ],
      "stateMutability": "view",
      "type": "function"
    },
    {
      "inputs": [],
      "name": "protocolPaused",
      "outputs": [
        {
          "internalType": "bool",
          "name": "",
          "type": "bool"
        }
      ],
      "stateMutability": "view",
      "type": "function"
    },
    {
      "inputs": [
        {
          "internalType": "bytes32",
          "name": "role",
          "type": "bytes32"
        },
        {
          "internalType": "address",
          "name": "callerConfirmation",
          "type": "address"
        }
      ],
      "name": "renounceRole",
      "outputs": [],
      "stateMutability": "nonpayable",
      "type": "function"
    },
    {
      "inputs": [
        {
          "internalType": "bytes32",
          "name": "role",
          "type": "bytes32"
        },
        {
          "internalType": "address",
          "name": "account",
          "type": "address"
        }
      ],
      "name": "revokeRole",
      "outputs": [],
      "stateMutability": "nonpayable",
      "type": "function"
    },
    {
      "inputs": [
        {
          "internalType": "address",
          "name": "asset",
          "type": "address"
        },
        {
          "internalType": "bool",
          "name": "valid",
          "type": "bool"
        }
      ],
      "name": "setLiquidityAsset",
      "outputs": [],
      "stateMutability": "nonpayable",
      "type": "function"
    },
    {
      "inputs": [
        {
          "internalType": "bool",
          "name": "pause",
          "type": "bool"
        }
      ],
      "name": "setProtocolPause",
      "outputs": [],
      "stateMutability": "nonpayable",
      "type": "function"
    },
    {
      "inputs": [
        {
          "internalType": "address",
          "name": "liquidityLockerFactory",
          "type": "address"
        },
        {
          "internalType": "bool",
          "name": "valid",
          "type": "bool"
        }
      ],
      "name": "setValidLiquidityLockerFactory",
      "outputs": [],
      "stateMutability": "nonpayable",
      "type": "function"
    },
    {
      "inputs": [
        {
          "internalType": "address",
          "name": "poolFactory",
          "type": "address"
        },
        {
          "internalType": "bool",
          "name": "valid",
          "type": "bool"
        }
      ],
      "name": "setValidPoolFactory",
      "outputs": [],
      "stateMutability": "nonpayable",
      "type": "function"
    },
    {
      "inputs": [
        {
          "internalType": "bytes4",
          "name": "interfaceId",
          "type": "bytes4"
        }
      ],
      "name": "supportsInterface",
      "outputs": [
        {
          "internalType": "bool",
          "name": "",
          "type": "bool"
        }
      ],
      "stateMutability": "view",
      "type": "function"
    }
  ],
  "bytecode": {
    "object": "0x608060405234801561001057600080fd5b50604051610c40380380610c4083398101604081905261002f9161018c565b61003a600082610095565b506100667f2db9fd3d099848027c2383d0a083396f6c41510d7acfd92adc99b6cffcf31e966000610141565b6040517f5daa87a0e9463431830481fd4b6e3403442dfb9a12b9c07597e9f61d50b633c890600090a1506101bc565b6000828152602081815260408083206001600160a01b038516845290915281205460ff16610137576000838152602081815260408083206001600160a01b03861684529091529020805460ff191660011790556100ef3390565b6001600160a01b0316826001600160a01b0316847f2f8788117e7eff1d82e926ec794901d17c78024a50270940304540a733656f0d60405160405180910390a450600161013b565b5060005b92915050565b600082815260208190526040808220600101805490849055905190918391839186917fbd79b86ffe0ab8e8776151514217cd7cacd52c909f66475c3af44e129f0b00ff9190a4505050565b60006020828403121561019e57600080fd5b81516001600160a01b03811681146101b557600080fd5b9392505050565b610a75806101cb6000396000f3fe608060405234801561001057600080fd5b506004361061010a5760003560e01c806336568abe116100a25780638695118a116100715780638695118a146102565780638a1bb2601461027957806391d148541461028c578063a217fddf1461029f578063d547741f146102a757600080fd5b806336568abe14610210578063425fad58146102235780634e989118146102305780636597b8991461024357600080fd5b8063248a9ca3116100de578063248a9ca3146101b257806324d7806c146101d55780632daa0d89146101e85780632f2ff15d146101fd57600080fd5b80628353a01461010f57806301ffc9a714610147578063107c02401461015a578063131191611461017d575b600080fd5b61013261011d3660046107d5565b60046020526000908152604090205460ff1681565b60405190151581526020015b60405180910390f35b6101326101553660046107f7565b6102ba565b6101326101683660046107d5565b60026020526000908152604090205460ff1681565b6101a47f2db9fd3d099848027c2383d0a083396f6c41510d7acfd92adc99b6cffcf31e9681565b60405190815260200161013e565b6101a46101c0366004610821565b60009081526020819052604090206001015490565b6101326101e33660046107d5565b6102f1565b6101fb6101f636600461084a565b6102fd565b005b6101fb61020b36600461087d565b610453565b6101fb61021e36600461087d565b61047e565b6001546101329060ff1681565b6101fb61023e3660046108a0565b6104b6565b6101fb61025136600461084a565b610522565b6101326102643660046107d5565b60036020526000908152604090205460ff1681565b6101fb61028736600461084a565b6105a7565b61013261029a36600461087d565b610624565b6101a4600081565b6101fb6102b536600461087d565b61064d565b60006001600160e01b03198216637965db0b60e01b14806102eb57506301ffc9a760e01b6001600160e01b03198316145b92915050565b60006102eb8183610624565b610306336102f1565b61032b5760405162461bcd60e51b8152600401610322906108bb565b60405180910390fd5b6001600160a01b038216600081815260036020908152604091829020805460ff1916851515179055815163313ce56760e01b815291517f18d231995d1f7e4354b1786418aa8f34f99996ded9cc6b1d43c3815eb6f5ab79938693909263313ce567926004808401938290030181865afa1580156103ac573d6000803e3d6000fd5b505050506040513d601f19601f820116820180604052508101906103d091906108e1565b846001600160a01b03166395d89b416040518163ffffffff1660e01b8152600401600060405180830381865afa15801561040e573d6000803e3d6000fd5b505050506040513d6000823e601f3d908101601f19168201604052610436919081019061093e565b8460405161044794939291906109eb565b60405180910390a15050565b60008281526020819052604090206001015461046e81610672565b610478838361067f565b50505050565b6001600160a01b03811633146104a75760405163334bd91960e11b815260040160405180910390fd5b6104b18282610711565b505050565b6104bf336102f1565b6104db5760405162461bcd60e51b8152600401610322906108bb565b6001805460ff19168215159081179091556040519081527f6e0cb5fa7a57c38eb7939c1104f95fccb5b7a6a8c1a7cab76934305439b639f59060200160405180910390a150565b61052b336102f1565b6105475760405162461bcd60e51b8152600401610322906108bb565b6001600160a01b038216600081815260026020908152604091829020805460ff191685151590811790915591519182527fe689993ffd266b1d1b81c02a9798ccc41549c1c7a01d4522b48448d317a38fa091015b60405180910390a25050565b6105b0336102f1565b6105cc5760405162461bcd60e51b8152600401610322906108bb565b6001600160a01b038216600081815260046020908152604091829020805460ff191685151590811790915591519182527f81efb05844452b0e347d3ed1ad70dd619122e7a5c2c47daa0df502b064a91ad2910161059b565b6000918252602082815260408084206001600160a01b0393909316845291905290205460ff1690565b60008281526020819052604090206001015461066881610672565b6104788383610711565b61067c813361077c565b50565b600061068b8383610624565b610709576000838152602081815260408083206001600160a01b03861684529091529020805460ff191660011790556106c13390565b6001600160a01b0316826001600160a01b0316847f2f8788117e7eff1d82e926ec794901d17c78024a50270940304540a733656f0d60405160405180910390a45060016102eb565b5060006102eb565b600061071d8383610624565b15610709576000838152602081815260408083206001600160a01b0386168085529252808320805460ff1916905551339286917ff6391f5c32d9c69d2a47ea670b442974b53935d1edc7fd64eb21e047a839171b9190a45060016102eb565b6107868282610624565b6107b55760405163e2517d3f60e01b81526001600160a01b038216600482015260248101839052604401610322565b5050565b80356001600160a01b03811681146107d057600080fd5b919050565b6000602082840312156107e757600080fd5b6107f0826107b9565b9392505050565b60006020828403121561080957600080fd5b81356001600160e01b0319811681146107f057600080fd5b60006020828403121561083357600080fd5b5035919050565b803580151581146107d057600080fd5b6000806040838503121561085d57600080fd5b610866836107b9565b91506108746020840161083a565b90509250929050565b6000806040838503121561089057600080fd5b82359150610874602084016107b9565b6000602082840312156108b257600080fd5b6107f08261083a565b6020808252600c908201526b24239d2727aa2fa0a226a4a760a11b604082015260600190565b6000602082840312156108f357600080fd5b815160ff811681146107f057600080fd5b634e487b7160e01b600052604160045260246000fd5b60005b8381101561093557818101518382015260200161091d565b50506000910152565b60006020828403121561095057600080fd5b815167ffffffffffffffff8082111561096857600080fd5b818401915084601f83011261097c57600080fd5b81518181111561098e5761098e610904565b604051601f8201601f19908116603f011681019083821181831017156109b6576109b6610904565b816040528281528760208487010111156109cf57600080fd5b6109e083602083016020880161091a565b979650505050505050565b60018060a01b038516815260ff841660208201526080604082015260008351806080840152610a218160a085016020880161091a565b921515606083015250601f91909101601f19160160a001939250505056fea2646970667358221220d16617d362ea77d1e5860b84a2186c14986dcfeeac93c6d6b146e5440c85b00964736f6c63430008140033",
    "linkReferences": {}
  },
  "methodIdentifiers": {
    "DEFAULT_ADMIN_ROLE()": "a217fddf",
    "USER_ROLE()": "13119161",
    "getRoleAdmin(bytes32)": "248a9ca3",
    "grantRole(bytes32,address)": "2f2ff15d",
    "hasRole(bytes32,address)": "91d14854",
    "isAdmin(address)": "24d7806c",
    "isValidLiquidityAsset(address)": "8695118a",
    "isValidLiquidityLockerFactory(address)": "008353a0",
    "isValidPoolFactory(address)": "107c0240",
    "protocolPaused()": "425fad58",
    "renounceRole(bytes32,address)": "36568abe",
    "revokeRole(bytes32,address)": "d547741f",
    "setLiquidityAsset(address,bool)": "2daa0d89",
    "setProtocolPause(bool)": "4e989118",
    "setValidLiquidityLockerFactory(address,bool)": "8a1bb260",
    "setValidPoolFactory(address,bool)": "6597b899",
    "supportsInterface(bytes4)": "01ffc9a7"
  },
  "id": 0
}