{
  "address": "0x5Cad1ffe2bd441E42A7293bC98b3bCaEf367FaC9",
  "abi": [
    {
      "inputs": [
        {
          "internalType": "address",
          "name": "_governor",
          "type": "address"
        },
        {
          "internalType": "address",
          "name": "_globalAdmin",
          "type": "address"
        }
      ],
      "stateMutability": "nonpayable",
      "type": "constructor"
    },
    {
      "anonymous": false,
      "inputs": [
        {
          "indexed": true,
          "internalType": "address",
          "name": "newGlobalAdmin",
          "type": "address"
        }
      ],
      "name": "GlobalAdminSet",
      "type": "event"
    },
    {
      "anonymous": false,
      "inputs": [],
      "name": "Initialized",
      "type": "event"
    },
    {
      "anonymous": false,
      "inputs": [
        {
          "indexed": false,
          "internalType": "address",
          "name": "asset",
          "type": "address"
        },
        {
          "indexed": false,
          "internalType": "uint256",
          "name": "decimals",
          "type": "uint256"
        },
        {
          "indexed": false,
          "internalType": "string",
          "name": "symbol",
          "type": "string"
        },
        {
          "indexed": false,
          "internalType": "bool",
          "name": "valid",
          "type": "bool"
        }
      ],
      "name": "LiquidityAssetSet",
      "type": "event"
    },
    {
      "anonymous": false,
      "inputs": [
        {
          "indexed": true,
          "internalType": "address",
          "name": "delegate",
          "type": "address"
        },
        {
          "indexed": false,
          "internalType": "bool",
          "name": "valid",
          "type": "bool"
        }
      ],
      "name": "PoolDelegateSet",
      "type": "event"
    },
    {
      "anonymous": false,
      "inputs": [
        {
          "indexed": false,
          "internalType": "bool",
          "name": "pause",
          "type": "bool"
        }
      ],
      "name": "ProtocolPaused",
      "type": "event"
    },
    {
      "inputs": [],
      "name": "globalAdmin",
      "outputs": [
        {
          "internalType": "address",
          "name": "",
          "type": "address"
        }
      ],
      "stateMutability": "view",
      "type": "function"
    },
    {
      "inputs": [],
      "name": "governor",
      "outputs": [
        {
          "internalType": "address",
          "name": "",
          "type": "address"
        }
      ],
      "stateMutability": "view",
      "type": "function"
    },
    {
      "inputs": [
        {
          "internalType": "address",
          "name": "",
          "type": "address"
        }
      ],
      "name": "isValidLiquidityAsset",
      "outputs": [
        {
          "internalType": "bool",
          "name": "",
          "type": "bool"
        }
      ],
      "stateMutability": "view",
      "type": "function"
    },
    {
      "inputs": [
        {
          "internalType": "address",
          "name": "",
          "type": "address"
        }
      ],
      "name": "isValidPoolDelegate",
      "outputs": [
        {
          "internalType": "bool",
          "name": "",
          "type": "bool"
        }
      ],
      "stateMutability": "view",
      "type": "function"
    },
    {
      "inputs": [
        {
          "internalType": "address",
          "name": "",
          "type": "address"
        }
      ],
      "name": "isValidPoolFactory",
      "outputs": [
        {
          "internalType": "bool",
          "name": "",
          "type": "bool"
        }
      ],
      "stateMutability": "view",
      "type": "function"
    },
    {
      "inputs": [
        {
          "internalType": "address",
          "name": "superFactory",
          "type": "address"
        },
        {
          "internalType": "address",
          "name": "subFactory",
          "type": "address"
        },
        {
          "internalType": "uint8",
          "name": "factoryType",
          "type": "uint8"
        }
      ],
      "name": "isValidSubFactory",
      "outputs": [
        {
          "internalType": "bool",
          "name": "",
          "type": "bool"
        }
      ],
      "stateMutability": "view",
      "type": "function"
    },
    {
      "inputs": [],
      "name": "protocolPaused",
      "outputs": [
        {
          "internalType": "bool",
          "name": "",
          "type": "bool"
        }
      ],
      "stateMutability": "view",
      "type": "function"
    },
    {
      "inputs": [
        {
          "internalType": "address",
          "name": "newGlobalAdmin",
          "type": "address"
        }
      ],
      "name": "setGlobalAdmin",
      "outputs": [],
      "stateMutability": "nonpayable",
      "type": "function"
    },
    {
      "inputs": [
        {
          "internalType": "address",
          "name": "asset",
          "type": "address"
        },
        {
          "internalType": "bool",
          "name": "valid",
          "type": "bool"
        }
      ],
      "name": "setLiquidityAsset",
      "outputs": [],
      "stateMutability": "nonpayable",
      "type": "function"
    },
    {
      "inputs": [
        {
          "internalType": "address",
          "name": "delegate",
          "type": "address"
        },
        {
          "internalType": "bool",
          "name": "valid",
          "type": "bool"
        }
      ],
      "name": "setPoolDelegateAllowList",
      "outputs": [],
      "stateMutability": "nonpayable",
      "type": "function"
    },
    {
      "inputs": [
        {
          "internalType": "bool",
          "name": "pause",
          "type": "bool"
        }
      ],
      "name": "setProtocolPause",
      "outputs": [],
      "stateMutability": "nonpayable",
      "type": "function"
    },
    {
      "inputs": [
        {
          "internalType": "address",
          "name": "poolFactory",
          "type": "address"
        },
        {
          "internalType": "bool",
          "name": "valid",
          "type": "bool"
        }
      ],
      "name": "setValidPoolFactory",
      "outputs": [],
      "stateMutability": "nonpayable",
      "type": "function"
    },
    {
      "inputs": [
        {
          "internalType": "address",
          "name": "superFactory",
          "type": "address"
        },
        {
          "internalType": "address",
          "name": "subFactory",
          "type": "address"
        },
        {
          "internalType": "bool",
          "name": "valid",
          "type": "bool"
        }
      ],
      "name": "setValidSubFactory",
      "outputs": [],
      "stateMutability": "nonpayable",
      "type": "function"
    },
    {
      "inputs": [
        {
          "internalType": "address",
          "name": "",
          "type": "address"
        },
        {
          "internalType": "address",
          "name": "",
          "type": "address"
        }
      ],
      "name": "validSubFactories",
      "outputs": [
        {
          "internalType": "bool",
          "name": "",
          "type": "bool"
        }
      ],
      "stateMutability": "view",
      "type": "function"
    }
  ],
  "transactionHash": "0xc4533aeed2676dbf30dd4f851069dcd9b702af4f36a6ae84a216c2cb7785574c",
  "args": [
    "0xBd76699b877DDaA78B5056Aa90759219Ee50e967",
    "0xBF4DEb95295dF94339013c5fb5093d3558151744"
  ],
  "numDeployments": 1,
  "solcInputHash": "5a416a0a2636aa74fa380c12754d55b0",
  "bytecode": "0x60a060405234801561001057600080fd5b50604051610d57380380610d5783398101604081905261002f9161012b565b6001600160a01b0382166100785760405162461bcd60e51b815260206004820152600b60248201526a24239d2d22a927afa3a7ab60a91b60448201526064015b60405180910390fd5b6001600160a01b0381166100bc5760405162461bcd60e51b815260206004820152600b60248201526a48473a5a45524f5f41444d60a81b604482015260640161006f565b6001600160a01b03828116608052600080546001600160a01b0319169183169190911781556040517f5daa87a0e9463431830481fd4b6e3403442dfb9a12b9c07597e9f61d50b633c89190a1505061015e565b80516001600160a01b038116811461012657600080fd5b919050565b6000806040838503121561013e57600080fd5b6101478361010f565b91506101556020840161010f565b90509250929050565b608051610bbc61019b6000396000818160f401528181610338015281816105690152818161062d015281816106bd01526107de0152610bbc6000f3fe608060405234801561001057600080fd5b50600436106100ea5760003560e01c80634e9891181161008c5780638695118a116100665780638695118a1461022c578063c52bc31d1461024f578063ec9a936814610262578063f85ee6f81461027557600080fd5b80634e989118146101f357806358e37c9f146102065780636597b8991461021957600080fd5b80631b1804aa116100c85780631b1804aa146101795780632daa0d89146101a7578063372e3546146101bc578063425fad58146101df57600080fd5b80630c340a24146100ef578063107c02401461013357806313d459fb14610166575b600080fd5b6101167f000000000000000000000000000000000000000000000000000000000000000081565b6040516001600160a01b0390911681526020015b60405180910390f35b6101566101413660046108e7565b60026020526000908152604090205460ff1681565b604051901515815260200161012a565b61015661017436600461091b565b610288565b610156610187366004610962565b600460209081526000928352604080842090915290825290205460ff1681565b6101ba6101b53660046109a5565b61032d565b005b6101566101ca3660046108e7565b60016020526000908152604090205460ff1681565b60005461015690600160a01b900460ff1681565b6101ba6102013660046109cf565b6104bf565b6101ba6102143660046109a5565b61055e565b6101ba6102273660046109a5565b610622565b61015661023a3660046108e7565b60036020526000908152604090205460ff1681565b6101ba61025d3660046108e7565b6106b2565b600054610116906001600160a01b031681565b6101ba6102833660046109ea565b6107d3565b6001600160a01b03808416600090815260046020908152604080832093861683529290529081205460ff16801561032557508160ff16836001600160a01b03166364e1fd556040518163ffffffff1660e01b8152600401602060405180830381865afa1580156102fc573d6000803e3d6000fd5b505050506040513d601f19601f820116820180604052508101906103209190610a2d565b60ff16145b949350505050565b336001600160a01b037f000000000000000000000000000000000000000000000000000000000000000016146103975760405162461bcd60e51b815260206004820152600a60248201526926a39d2727aa2fa3a7ab60b11b60448201526064015b60405180910390fd5b6001600160a01b038216600081815260036020908152604091829020805460ff1916851515179055815163313ce56760e01b815291517f18d231995d1f7e4354b1786418aa8f34f99996ded9cc6b1d43c3815eb6f5ab79938693909263313ce567926004808401938290030181865afa158015610418573d6000803e3d6000fd5b505050506040513d601f19601f8201168201806040525081019061043c9190610a2d565b846001600160a01b03166395d89b416040518163ffffffff1660e01b8152600401600060405180830381865afa15801561047a573d6000803e3d6000fd5b505050506040513d6000823e601f3d908101601f191682016040526104a29190810190610a84565b846040516104b39493929190610b31565b60405180910390a15050565b6000546001600160a01b031633146105065760405162461bcd60e51b815260206004820152600a60248201526948473a4e4f545f41444d60b01b604482015260640161038e565b60008054821515600160a01b0260ff60a01b199091161790556040517f6e0cb5fa7a57c38eb7939c1104f95fccb5b7a6a8c1a7cab76934305439b639f59061055390831515815260200190565b60405180910390a150565b336001600160a01b037f000000000000000000000000000000000000000000000000000000000000000016146105c35760405162461bcd60e51b815260206004820152600a60248201526926a39d2727aa2fa3a7ab60b11b604482015260640161038e565b6001600160a01b038216600081815260016020908152604091829020805460ff191685151590811790915591519182527fd2e6a599a52383178be9bf2d0be60c96615b89f8d9cf6c680f06962aa73679fc910160405180910390a25050565b336001600160a01b037f000000000000000000000000000000000000000000000000000000000000000016146106875760405162461bcd60e51b815260206004820152600a60248201526926a39d2727aa2fa3a7ab60b11b604482015260640161038e565b6001600160a01b03919091166000908152600260205260409020805460ff1916911515919091179055565b336001600160a01b037f0000000000000000000000000000000000000000000000000000000000000000161480156106f257506001600160a01b03811615155b6107325760405162461bcd60e51b815260206004820152601160248201527048473a4e4f545f474f565f4f525f41444d60781b604482015260640161038e565b600054600160a01b900460ff161561077e5760405162461bcd60e51b815260206004820152600f60248201526e1211ce941493d513d7d4105554d151608a1b604482015260640161038e565b6000805473ffffffffffffffffffffffffffffffffffffffff19166001600160a01b038316908117825560405190917fad3f8fa73ce3985d027e4c3bbe1194701a23e635a746bcf73d8632f677ac388291a250565b336001600160a01b037f000000000000000000000000000000000000000000000000000000000000000016146108385760405162461bcd60e51b815260206004820152600a60248201526926a39d2727aa2fa3a7ab60b11b604482015260640161038e565b6001600160a01b03831660009081526002602052604090205460ff166108915760405162461bcd60e51b815260206004820152600e60248201526d24239d24a72b2fa9aaa822a92fa360911b604482015260640161038e565b6001600160a01b03928316600090815260046020908152604080832094909516825292909252919020805460ff1916911515919091179055565b80356001600160a01b03811681146108e257600080fd5b919050565b6000602082840312156108f957600080fd5b610902826108cb565b9392505050565b60ff8116811461091857600080fd5b50565b60008060006060848603121561093057600080fd5b610939846108cb565b9250610947602085016108cb565b9150604084013561095781610909565b809150509250925092565b6000806040838503121561097557600080fd5b61097e836108cb565b915061098c602084016108cb565b90509250929050565b803580151581146108e257600080fd5b600080604083850312156109b857600080fd5b6109c1836108cb565b915061098c60208401610995565b6000602082840312156109e157600080fd5b61090282610995565b6000806000606084860312156109ff57600080fd5b610a08846108cb565b9250610a16602085016108cb565b9150610a2460408501610995565b90509250925092565b600060208284031215610a3f57600080fd5b815161090281610909565b634e487b7160e01b600052604160045260246000fd5b60005b83811015610a7b578181015183820152602001610a63565b50506000910152565b600060208284031215610a9657600080fd5b815167ffffffffffffffff80821115610aae57600080fd5b818401915084601f830112610ac257600080fd5b815181811115610ad457610ad4610a4a565b604051601f8201601f19908116603f01168101908382118183101715610afc57610afc610a4a565b81604052828152876020848701011115610b1557600080fd5b610b26836020830160208801610a60565b979650505050505050565b6001600160a01b038516815260ff841660208201526080604082015260008351806080840152610b688160a0850160208801610a60565b921515606083015250601f91909101601f19160160a001939250505056fea26469706673582212203a8b7daeae06014633486d87128e773036e3e6e6208d2649dcaf7614e31d07bb64736f6c63430008100033",
  "devdoc": {
    "kind": "dev",
    "methods": {},
    "version": 1
  },
  "userdoc": {
    "kind": "user",
    "methods": {},
    "version": 1
  },
  "storageLayout": {
    "storage": [
      {
        "astId": 3447,
        "contract": "contracts/global/HeliosGlobals.sol:HeliosGlobals",
        "label": "globalAdmin",
        "offset": 0,
        "slot": "0",
        "type": "t_address"
      },
      {
        "astId": 3450,
        "contract": "contracts/global/HeliosGlobals.sol:HeliosGlobals",
        "label": "protocolPaused",
        "offset": 20,
        "slot": "0",
        "type": "t_bool"
      },
      {
        "astId": 3458,
        "contract": "contracts/global/HeliosGlobals.sol:HeliosGlobals",
        "label": "isValidPoolDelegate",
        "offset": 0,
        "slot": "1",
        "type": "t_mapping(t_address,t_bool)"
      },
      {
        "astId": 3463,
        "contract": "contracts/global/HeliosGlobals.sol:HeliosGlobals",
        "label": "isValidPoolFactory",
        "offset": 0,
        "slot": "2",
        "type": "t_mapping(t_address,t_bool)"
      },
      {
        "astId": 3468,
        "contract": "contracts/global/HeliosGlobals.sol:HeliosGlobals",
        "label": "isValidLiquidityAsset",
        "offset": 0,
        "slot": "3",
        "type": "t_mapping(t_address,t_bool)"
      },
      {
        "astId": 3475,
        "contract": "contracts/global/HeliosGlobals.sol:HeliosGlobals",
        "label": "validSubFactories",
        "offset": 0,
        "slot": "4",
        "type": "t_mapping(t_address,t_mapping(t_address,t_bool))"
      }
    ],
    "types": {
      "t_address": {
        "encoding": "inplace",
        "label": "address",
        "numberOfBytes": "20"
      },
      "t_bool": {
        "encoding": "inplace",
        "label": "bool",
        "numberOfBytes": "1"
      },
      "t_mapping(t_address,t_bool)": {
        "encoding": "mapping",
        "key": "t_address",
        "label": "mapping(address => bool)",
        "numberOfBytes": "32",
        "value": "t_bool"
      },
      "t_mapping(t_address,t_mapping(t_address,t_bool))": {
        "encoding": "mapping",
        "key": "t_address",
        "label": "mapping(address => mapping(address => bool))",
        "numberOfBytes": "32",
        "value": "t_mapping(t_address,t_bool)"
      }
    }
  }
}