{
  "address": "0xEFa3BE22AB5b310D6D6f26BB1960846c7c287a8B",
  "abi": [
    {
      "anonymous": false,
      "inputs": [
        {
          "indexed": true,
          "internalType": "address",
          "name": "owner",
          "type": "address"
        },
        {
          "indexed": false,
          "internalType": "address",
          "name": "liquidityLocker",
          "type": "address"
        },
        {
          "indexed": false,
          "internalType": "address",
          "name": "liquidityAsset",
          "type": "address"
        }
      ],
      "name": "LiquidityLockerCreated",
      "type": "event"
    },
    {
      "inputs": [],
      "name": "factoryType",
      "outputs": [
        {
          "internalType": "uint8",
          "name": "",
          "type": "uint8"
        }
      ],
      "stateMutability": "pure",
      "type": "function"
    },
    {
      "inputs": [
        {
          "internalType": "address",
          "name": "",
          "type": "address"
        }
      ],
      "name": "isLocker",
      "outputs": [
        {
          "internalType": "bool",
          "name": "",
          "type": "bool"
        }
      ],
      "stateMutability": "view",
      "type": "function"
    },
    {
      "inputs": [
        {
          "internalType": "address",
          "name": "liquidityAsset",
          "type": "address"
        }
      ],
      "name": "newLocker",
      "outputs": [
        {
          "internalType": "address",
          "name": "liquidityLocker",
          "type": "address"
        }
      ],
      "stateMutability": "nonpayable",
      "type": "function"
    },
    {
      "inputs": [
        {
          "internalType": "address",
          "name": "",
          "type": "address"
        }
      ],
      "name": "owner",
      "outputs": [
        {
          "internalType": "address",
          "name": "",
          "type": "address"
        }
      ],
      "stateMutability": "view",
      "type": "function"
    }
  ],
  "transactionHash": "0xf29db609e4aae74caecfe4c0c583922ad29a5885d09352ee1a5358afab2e9843",
  "args": [],
  "numDeployments": 1,
  "solcInputHash": "5a416a0a2636aa74fa380c12754d55b0",
  "bytecode": "0x608060405234801561001057600080fd5b50610909806100206000396000f3fe608060405234801561001057600080fd5b506004361061004c5760003560e01c806319eb783a146100515780632ec63d7c1461008157806364e1fd55146100b4578063666e1b39146100c3575b600080fd5b61006461005f3660046101cb565b6100ec565b6040516001600160a01b0390911681526020015b60405180910390f35b6100a461008f3660046101cb565b60016020526000908152604090205460ff1681565b6040519015158152602001610078565b60405160018152602001610078565b6100646100d13660046101cb565b6000602081905290815260409020546001600160a01b031681565b600081336040516100fc906101be565b6001600160a01b03928316815291166020820152604001604051809103906000f08015801561012f573d6000803e3d6000fd5b506001600160a01b03818116600081815260208181526040808320805473ffffffffffffffffffffffffffffffffffffffff191633908117909155600180845293829020805460ff19169094179093558051938452938716908301529293507f69269b3068a3e7096157a812e3202533d347594a672c9729cfd5f0310219e151910160405180910390a2919050565b6106d8806101fc83390190565b6000602082840312156101dd57600080fd5b81356001600160a01b03811681146101f457600080fd5b939250505056fe60c060405234801561001057600080fd5b506040516106d83803806106d883398101604081905261002f916100f3565b6001600160a01b03821661007e5760405162461bcd60e51b815260206004820152601160248201527013130e96915493d7d3125457d054d4d155607a1b60448201526064015b60405180910390fd5b6001600160a01b0381166100c05760405162461bcd60e51b815260206004820152600960248201526804c4c3a5a45524f5f560bc1b6044820152606401610075565b6001600160a01b0391821660a05216608052610126565b80516001600160a01b03811681146100ee57600080fd5b919050565b6000806040838503121561010657600080fd5b61010f836100d7565b915061011d602084016100d7565b90509250929050565b60805160a05161058261015660003960008181608f015261018f015260008181604b015260e101526105826000f3fe608060405234801561001057600080fd5b50600436106100415760003560e01c806316f0115b14610046578063209b2bca1461008a578063a9059cbb146100b1575b600080fd5b61006d7f000000000000000000000000000000000000000000000000000000000000000081565b6040516001600160a01b0390911681526020015b60405180910390f35b61006d7f000000000000000000000000000000000000000000000000000000000000000081565b6100c46100bf366004610478565b6100d4565b6040519015158152602001610081565b6000336001600160a01b037f0000000000000000000000000000000000000000000000000000000000000000161461013e5760405162461bcd60e51b815260206004820152600860248201526704c4c3a4e4f545f560c41b60448201526064015b60405180910390fd5b6001600160a01b0383166101825760405162461bcd60e51b815260206004820152600b60248201526a13130e9395531317d114d560aa1b6044820152606401610135565b6101b66001600160a01b037f00000000000000000000000000000000000000000000000000000000000000001684846101bf565b50600192915050565b604080516001600160a01b038416602482015260448082018490528251808303909101815260649091019091526020810180516001600160e01b031663a9059cbb60e01b179052610211908490610216565b505050565b600061026b826040518060400160405280602081526020017f5361666545524332303a206c6f772d6c6576656c2063616c6c206661696c6564815250856001600160a01b03166102e89092919063ffffffff16565b805190915015610211578080602001905181019061028991906104b0565b6102115760405162461bcd60e51b815260206004820152602a60248201527f5361666545524332303a204552433230206f7065726174696f6e20646964206e6044820152691bdd081cdd58d8d9595960b21b6064820152608401610135565b60606102f784846000856102ff565b949350505050565b6060824710156103605760405162461bcd60e51b815260206004820152602660248201527f416464726573733a20696e73756666696369656e742062616c616e636520666f6044820152651c8818d85b1b60d21b6064820152608401610135565b600080866001600160a01b0316858760405161037c91906104fd565b60006040518083038185875af1925050503d80600081146103b9576040519150601f19603f3d011682016040523d82523d6000602084013e6103be565b606091505b50915091506103cf878383876103da565b979650505050505050565b60608315610449578251600003610442576001600160a01b0385163b6104425760405162461bcd60e51b815260206004820152601d60248201527f416464726573733a2063616c6c20746f206e6f6e2d636f6e74726163740000006044820152606401610135565b50816102f7565b6102f7838381511561045e5781518083602001fd5b8060405162461bcd60e51b81526004016101359190610519565b6000806040838503121561048b57600080fd5b82356001600160a01b03811681146104a257600080fd5b946020939093013593505050565b6000602082840312156104c257600080fd5b815180151581146104d257600080fd5b9392505050565b60005b838110156104f45781810151838201526020016104dc565b50506000910152565b6000825161050f8184602087016104d9565b9190910192915050565b60208152600082518060208401526105388160408501602087016104d9565b601f01601f1916919091016040019291505056fea2646970667358221220d04d6976df75835549796e117a3126fcf93b72dc858f6fea8d7f8516cfc3f78964736f6c63430008100033a2646970667358221220aa7e6575a197c969e13e2ac8aa50069984c0068793af5bda4b6175240a3f79f464736f6c63430008100033",
  "devdoc": {
    "kind": "dev",
    "methods": {},
    "version": 1
  },
  "userdoc": {
    "kind": "user",
    "methods": {},
    "version": 1
  },
  "storageLayout": {
    "storage": [
      {
        "astId": 4060,
        "contract": "contracts/pool/LiquidityLockerFactory.sol:LiquidityLockerFactory",
        "label": "owner",
        "offset": 0,
        "slot": "0",
        "type": "t_mapping(t_address,t_address)"
      },
      {
        "astId": 4064,
        "contract": "contracts/pool/LiquidityLockerFactory.sol:LiquidityLockerFactory",
        "label": "isLocker",
        "offset": 0,
        "slot": "1",
        "type": "t_mapping(t_address,t_bool)"
      }
    ],
    "types": {
      "t_address": {
        "encoding": "inplace",
        "label": "address",
        "numberOfBytes": "20"
      },
      "t_bool": {
        "encoding": "inplace",
        "label": "bool",
        "numberOfBytes": "1"
      },
      "t_mapping(t_address,t_address)": {
        "encoding": "mapping",
        "key": "t_address",
        "label": "mapping(address => address)",
        "numberOfBytes": "32",
        "value": "t_address"
      },
      "t_mapping(t_address,t_bool)": {
        "encoding": "mapping",
        "key": "t_address",
        "label": "mapping(address => bool)",
        "numberOfBytes": "32",
        "value": "t_bool"
      }
    }
  }
}