{
  "address": "0x21284fc9256a66104930195F54d7D68F40C5d45f",
  "abi": [
    {
      "inputs": [
        {
          "internalType": "address",
          "name": "_globals",
          "type": "address"
        }
      ],
      "stateMutability": "nonpayable",
      "type": "constructor"
    },
    {
      "anonymous": false,
      "inputs": [
        {
          "indexed": false,
          "internalType": "address",
          "name": "account",
          "type": "address"
        }
      ],
      "name": "Paused",
      "type": "event"
    },
    {
      "anonymous": false,
      "inputs": [
        {
          "indexed": false,
          "internalType": "string",
          "name": "poolId",
          "type": "string"
        },
        {
          "indexed": false,
          "internalType": "address",
          "name": "liquidityAsset",
          "type": "address"
        },
        {
          "indexed": true,
          "internalType": "address",
          "name": "pool",
          "type": "address"
        },
        {
          "indexed": true,
          "internalType": "address",
          "name": "delegate",
          "type": "address"
        }
      ],
      "name": "PoolCreated",
      "type": "event"
    },
    {
      "anonymous": false,
      "inputs": [
        {
          "indexed": true,
          "internalType": "address",
          "name": "poolFactoryAdmin",
          "type": "address"
        },
        {
          "indexed": false,
          "internalType": "bool",
          "name": "allowed",
          "type": "bool"
        }
      ],
      "name": "PoolFactoryAdminSet",
      "type": "event"
    },
    {
      "anonymous": false,
      "inputs": [
        {
          "indexed": false,
          "internalType": "address",
          "name": "account",
          "type": "address"
        }
      ],
      "name": "Unpaused",
      "type": "event"
    },
    {
      "inputs": [
        {
          "internalType": "string",
          "name": "poolId",
          "type": "string"
        },
        {
          "internalType": "address",
          "name": "liquidityAsset",
          "type": "address"
        },
        {
          "internalType": "address",
          "name": "llFactory",
          "type": "address"
        },
        {
          "internalType": "uint256",
          "name": "lockupPeriod",
          "type": "uint256"
        },
        {
          "internalType": "uint256",
          "name": "apy",
          "type": "uint256"
        },
        {
          "internalType": "uint256",
          "name": "duration",
          "type": "uint256"
        },
        {
          "internalType": "uint256",
          "name": "investmentPoolSize",
          "type": "uint256"
        },
        {
          "internalType": "uint256",
          "name": "minInvestmentAmount",
          "type": "uint256"
        }
      ],
      "name": "createPool",
      "outputs": [
        {
          "internalType": "address",
          "name": "poolAddress",
          "type": "address"
        }
      ],
      "stateMutability": "nonpayable",
      "type": "function"
    },
    {
      "inputs": [],
      "name": "globals",
      "outputs": [
        {
          "internalType": "contract IHeliosGlobals",
          "name": "",
          "type": "address"
        }
      ],
      "stateMutability": "view",
      "type": "function"
    },
    {
      "inputs": [
        {
          "internalType": "address",
          "name": "",
          "type": "address"
        }
      ],
      "name": "isPool",
      "outputs": [
        {
          "internalType": "bool",
          "name": "",
          "type": "bool"
        }
      ],
      "stateMutability": "view",
      "type": "function"
    },
    {
      "inputs": [],
      "name": "pause",
      "outputs": [],
      "stateMutability": "nonpayable",
      "type": "function"
    },
    {
      "inputs": [],
      "name": "paused",
      "outputs": [
        {
          "internalType": "bool",
          "name": "",
          "type": "bool"
        }
      ],
      "stateMutability": "view",
      "type": "function"
    },
    {
      "inputs": [
        {
          "internalType": "address",
          "name": "",
          "type": "address"
        }
      ],
      "name": "poolFactoryAdmins",
      "outputs": [
        {
          "internalType": "bool",
          "name": "",
          "type": "bool"
        }
      ],
      "stateMutability": "view",
      "type": "function"
    },
    {
      "inputs": [
        {
          "internalType": "string",
          "name": "",
          "type": "string"
        }
      ],
      "name": "pools",
      "outputs": [
        {
          "internalType": "address",
          "name": "",
          "type": "address"
        }
      ],
      "stateMutability": "view",
      "type": "function"
    },
    {
      "inputs": [
        {
          "internalType": "address",
          "name": "newGlobals",
          "type": "address"
        }
      ],
      "name": "setGlobals",
      "outputs": [],
      "stateMutability": "nonpayable",
      "type": "function"
    },
    {
      "inputs": [
        {
          "internalType": "address",
          "name": "poolFactoryAdmin",
          "type": "address"
        },
        {
          "internalType": "bool",
          "name": "allowed",
          "type": "bool"
        }
      ],
      "name": "setPoolFactoryAdmin",
      "outputs": [],
      "stateMutability": "nonpayable",
      "type": "function"
    },
    {
      "inputs": [],
      "name": "unpause",
      "outputs": [],
      "stateMutability": "nonpayable",
      "type": "function"
    }
  ],
  "transactionHash": "0x33abdbcc01830300fb6b6b3fcbded3a5bc99601293c3c81ae572f91fb5ba62fd",
  "args": [
    "0x5Cad1ffe2bd441E42A7293bC98b3bCaEf367FaC9"
  ],
  "numDeployments": 5,
  "solcInputHash": "401fc9c37981d9342477527972694d4c",
  "bytecode": "0x608060405234801561001057600080fd5b50604051613dca380380613dca83398101604081905261002f91610062565b6000805460ff1916905560018055600280546001600160a01b0319166001600160a01b0392909216919091179055610092565b60006020828403121561007457600080fd5b81516001600160a01b038116811461008b57600080fd5b9392505050565b613d29806100a16000396000f3fe60806040523480156200001157600080fd5b5060043610620000ab5760003560e01c80639d6f17a8116200006e5780639d6f17a81462000133578063c31245251462000183578063cc2e0a261462000197578063dd7d699914620001ae578063f3f616c014620001c557600080fd5b80633f4ba83a14620000b05780635b16ebb714620000bc5780635c975abb14620000f75780636050abb214620001035780638456cb591462000129575b600080fd5b620000ba620001dc565b005b620000e2620000cd36600462000a00565b60046020526000908152604090205460ff1681565b60405190151581526020015b60405180910390f35b60005460ff16620000e2565b620000e26200011436600462000a00565b60056020526000908152604090205460ff1681565b620000ba620001f2565b6200016a6200014436600462000a3d565b80516020818301810180516003825292820191909301209152546001600160a01b031681565b6040516001600160a01b039091168152602001620000ee565b6002546200016a906001600160a01b031681565b620000ba620001a836600462000a00565b62000206565b6200016a620001bf36600462000af8565b62000291565b620000ba620001d636600462000bcf565b620004d9565b620001e662000542565b620001f06200062d565b565b620001fc62000542565b620001f062000681565b62000210620006c1565b6001600160a01b038116620002625760405162461bcd60e51b815260206004820152601360248201527250463a5a45524f5f4e45575f474c4f42414c5360681b60448201526064015b60405180910390fd5b6002805473ffffffffffffffffffffffffffffffffffffffff19166001600160a01b0392909216919091179055565b60006200029d6200078a565b620002a7620007d2565b620002b16200082d565b600254604051631b971aa360e11b81523360048201526001600160a01b0390911690819063372e354690602401602060405180830381865afa158015620002fc573d6000803e3d6000fd5b505050506040513d601f19601f8201168201806040525081019062000322919062000c0d565b620003625760405162461bcd60e51b815260206004820152600f60248201526e50463a4e4f545f44454c454741544560881b604482015260640162000259565b6200036e8b8b620008e8565b6000338a8a8a8a8a8a8a6040516200038690620009c7565b6001600160a01b03988916815296881660208801529690941660408601526060850192909252608084015260a083015260c082015260e081019190915261010001604051809103906000f080158015620003e4573d6000803e3d6000fd5b5090508092508260038d8d604051620003ff92919062000c2d565b908152602001604051809103902060006101000a8154816001600160a01b0302191690836001600160a01b03160217905550600160046000856001600160a01b03166001600160a01b0316815260200190815260200160002060006101000a81548160ff021916908315150217905550336001600160a01b0316836001600160a01b03167fcf2a5a138ba5b498559fc2ecefc1acc601b97f9c65726e53ce8543d03a3a2d698e8e8e604051620004b89392919062000c3d565b60405180910390a35050620004cc60018055565b9998505050505050505050565b620004e3620006c1565b6001600160a01b038216600081815260056020908152604091829020805460ff191685151590811790915591519182527fc0d8ae32722eafe08b35b2bb46dec31dcbbd5bb18069f66995df3c9f47f4d64f910160405180910390a25050565b600260009054906101000a90046001600160a01b03166001600160a01b0316630c340a246040518163ffffffff1660e01b8152600401602060405180830381865afa15801562000596573d6000803e3d6000fd5b505050506040513d601f19601f82011682018060405250810190620005bc919062000c7f565b6001600160a01b0316336001600160a01b03161480620005eb57503360009081526005602052604090205460ff165b620001f05760405162461bcd60e51b815260206004820152601160248201527050463a4e4f545f474f565f4f525f41444d60781b604482015260640162000259565b6200063762000973565b6000805460ff191690557f5db9ee0a495bf2e6ff9c91a7834c1ba4fdd244a5e8aa4e537bd38aeae4b073aa335b6040516001600160a01b03909116815260200160405180910390a1565b6200068b6200078a565b6000805460ff191660011790557f62e78cea01bee320cd4e420270b5ea74000d11b0c9f74754ebdbfc544b05a258620006643390565b600260009054906101000a90046001600160a01b03166001600160a01b0316630c340a246040518163ffffffff1660e01b8152600401602060405180830381865afa15801562000715573d6000803e3d6000fd5b505050506040513d601f19601f820116820180604052508101906200073b919062000c7f565b6001600160a01b0316336001600160a01b031614620001f05760405162461bcd60e51b815260206004820152600a60248201526928231d2727aa2fa3a7ab60b11b604482015260640162000259565b60005460ff1615620001f05760405162461bcd60e51b815260206004820152601060248201526f14185d5cd8589b194e881c185d5cd95960821b604482015260640162000259565b600260015403620008265760405162461bcd60e51b815260206004820152601f60248201527f5265656e7472616e637947756172643a207265656e7472616e742063616c6c00604482015260640162000259565b6002600155565b600260009054906101000a90046001600160a01b03166001600160a01b031663425fad586040518163ffffffff1660e01b8152600401602060405180830381865afa15801562000881573d6000803e3d6000fd5b505050506040513d601f19601f82011682018060405250810190620008a7919062000c0d565b15620001f05760405162461bcd60e51b815260206004820152600f60248201526e14118e941493d513d7d4105554d151608a1b604482015260640162000259565b60006001600160a01b0316600383836040516200090792919062000c2d565b908152604051908190036020019020546001600160a01b0316146200096f5760405162461bcd60e51b815260206004820152601960248201527f50463a504f4f4c5f49445f414c52454144595f45584953545300000000000000604482015260640162000259565b5050565b60005460ff16620001f05760405162461bcd60e51b815260206004820152601460248201527f5061757361626c653a206e6f7420706175736564000000000000000000000000604482015260640162000259565b6130548062000ca083390190565b6001600160a01b0381168114620009eb57600080fd5b50565b8035620009fb81620009d5565b919050565b60006020828403121562000a1357600080fd5b813562000a2081620009d5565b9392505050565b634e487b7160e01b600052604160045260246000fd5b60006020828403121562000a5057600080fd5b813567ffffffffffffffff8082111562000a6957600080fd5b818401915084601f83011262000a7e57600080fd5b81358181111562000a935762000a9362000a27565b604051601f8201601f19908116603f0116810190838211818310171562000abe5762000abe62000a27565b8160405282815287602084870101111562000ad857600080fd5b826020860160208301376000928101602001929092525095945050505050565b60008060008060008060008060006101008a8c03121562000b1857600080fd5b893567ffffffffffffffff8082111562000b3157600080fd5b818c0191508c601f83011262000b4657600080fd5b81358181111562000b5657600080fd5b8d602082850101111562000b6957600080fd5b60209283019b50995062000b81918c019050620009ee565b965062000b9160408b01620009ee565b989b979a5095986060810135976080820135975060a0820135965060c0820135955060e0909101359350915050565b8015158114620009eb57600080fd5b6000806040838503121562000be357600080fd5b823562000bf081620009d5565b9150602083013562000c028162000bc0565b809150509250929050565b60006020828403121562000c2057600080fd5b815162000a208162000bc0565b8183823760009101908152919050565b604081528260408201528284606083013760006060848301015260006060601f19601f86011683010190506001600160a01b0383166020830152949350505050565b60006020828403121562000c9257600080fd5b815162000a2081620009d556fe6101206040523480156200001257600080fd5b50604051620030543803806200305483398101604081905262000035916200048b565b6040518060400160405280600f81526020016e12195b1a5bdcc81512d388141bdbdb608a1b815250604051806040016040528060058152602001640484c532d560dc1b815250818181818160039081620000909190620005b4565b5060046200009f8282620005b4565b505060016005555050506001600160a01b0389169150620000fc90505760405162461bcd60e51b815260206004820152601060248201526f140e96915493d7d3125457d054d4d15560821b60448201526064015b60405180910390fd5b6001600160a01b038816620001465760405162461bcd60e51b815260206004820152600f60248201526e503a5a45524f5f504f4f4c5f444c4760881b6044820152606401620000f3565b6001600160a01b0386166200019e5760405162461bcd60e51b815260206004820152601960248201527f503a5a45524f5f4c49515f4c4f434b45525f464143544f5259000000000000006044820152606401620000f3565b6001600160a01b03871660e08190526040805163313ce56760e01b8152905163313ce567916004808201926020929091908290030181865afa158015620001e9573d6000803e3d6000fd5b505050506040513d601f19601f820116820180604052508101906200020f919062000680565b60ff16610100523360809081526001600160a01b03891660c0526040805160a08101825287815260208101879052908101859052606081018490528101829052600f86905560108590556011849055601283905560138290556014805460ff19169055516200027e9062000405565b60405163434a88c560e11b81526001600160a01b0389811660048301529190911690638695118a90602401602060405180830381865afa158015620002c7573d6000803e3d6000fd5b505050506040513d601f19601f82011682018060405250810190620002ed9190620006ac565b6200033b5760405162461bcd60e51b815260206004820152601360248201527f503a494e56414c49445f4c49515f4153534554000000000000000000000000006044820152606401620000f3565b604051630cf5bc1d60e11b81526001600160a01b0388811660048301528716906319eb783a906024016020604051808303816000875af115801562000384573d6000803e3d6000fd5b505050506040513d601f19601f82011682018060405250810190620003aa9190620006d0565b6001600160a01b031660a0526014546040517f24b0afb747a8213aea796b9518bfa667de187b83390eda7cc93b8e57f80fcd1a91620003ef9160ff90911690620006f0565b60405180910390a1505050505050505062000719565b6000816001600160a01b031663c31245256040518163ffffffff1660e01b8152600401602060405180830381865afa15801562000446573d6000803e3d6000fd5b505050506040513d601f19601f820116820180604052508101906200046c9190620006d0565b92915050565b6001600160a01b03811681146200048857600080fd5b50565b600080600080600080600080610100898b031215620004a957600080fd5b8851620004b68162000472565b60208a0151909850620004c98162000472565b60408a0151909750620004dc8162000472565b60608a015160808b015160a08c015160c08d015160e0909d01519b9e9a9d50929b919a9099929850909650945092505050565b634e487b7160e01b600052604160045260246000fd5b600181811c908216806200053a57607f821691505b6020821081036200055b57634e487b7160e01b600052602260045260246000fd5b50919050565b601f821115620005af57600081815260208120601f850160051c810160208610156200058a5750805b601f850160051c820191505b81811015620005ab5782815560010162000596565b5050505b505050565b81516001600160401b03811115620005d057620005d06200050f565b620005e881620005e1845462000525565b8462000561565b602080601f831160018114620006205760008415620006075750858301515b600019600386901b1c1916600185901b178555620005ab565b600085815260208120601f198616915b82811015620006515788860151825594840194600190910190840162000630565b5085821015620006705787850151600019600388901b60f8161c191681555b5050505050600190811b01905550565b6000602082840312156200069357600080fd5b815160ff81168114620006a557600080fd5b9392505050565b600060208284031215620006bf57600080fd5b81518015158114620006a557600080fd5b600060208284031215620006e357600080fd5b8151620006a58162000472565b60208101600383106200071357634e487b7160e01b600052602160045260246000fd5b91905290565b60805160a05160c05160e0516101005161289b620007b960003960006103bb01526000818161034201528181610e070152818161108d015281816115f201528181611b5101526120620152600081816103fd0152611a1a01526000818161055c015281816109f501528181610e2a01528181611061015281816115550152818161161c01526120370152600081816102fb015261140e015261289b6000f3fe608060405234801561001057600080fd5b506004361061027d5760003560e01c8063641ad8a911610156578063a457c2d7116100d3578063d16987f911610097578063fbe85f0611610071578063fbe85f061461064e578063fe84967e14610661578063ff50abdc1461068a57600080fd5b8063d16987f9146105ef578063dd62ed3e14610602578063fa8c00d41461063b57600080fd5b8063a457c2d71461059a578063a9059cbb146105ad578063ac641655146105c0578063b6b55f25146105c9578063c762d5f7146105dc57600080fd5b80639185192a1161011a5780639185192a1461053c57806395d89b411461054f5780639759164a146105575780639f3c73251461057e578063a079a4dd1461058757600080fd5b8063641ad8a9146104d557806370a08231146104ef57806371073bac1461051857806373e835ee146105215780637df1f1b91461052957600080fd5b8063313ce567116101ff5780634bb278f3116101c357806351b42b001161019d57806351b42b00146104685780635a2f3d0914610470578063613384f2146104b257600080fd5b80634bb278f31461043a5780634e97415f146104425780635114cb521461045557600080fd5b8063313ce567146103b457806339509351146103e55780634046af2b146103f8578063443bb2931461041f57806346c162de1461043257600080fd5b8063209b2bca11610246578063209b2bca1461033d57806323b872dd1461036457806324600fc31461037757806324b92e8e146103815780632e1a7d4d146103a157600080fd5b806241c52c1461028257806306fdde03146102be578063095ea7b3146102d35780630d49b38c146102f657806318160ddd14610335575b600080fd5b6102ab610290366004612543565b6001600160a01b031660009081526009602052604090205490565b6040519081526020015b60405180910390f35b6102c6610692565b6040516102b59190612584565b6102e66102e13660046125b7565b610724565b60405190151581526020016102b5565b61031d7f000000000000000000000000000000000000000000000000000000000000000081565b6040516001600160a01b0390911681526020016102b5565b6002546102ab565b61031d7f000000000000000000000000000000000000000000000000000000000000000081565b6102e66103723660046125e3565b61073e565b61037f610762565b005b6102ab61038f366004612543565b60166020526000908152604090205481565b61037f6103af366004612624565b6107ad565b60405160ff7f00000000000000000000000000000000000000000000000000000000000000001681526020016102b5565b6102e66103f33660046125b7565b6107f1565b61031d7f000000000000000000000000000000000000000000000000000000000000000081565b6102ab61042d366004612543565b610830565b61037f61085c565b61037f610884565b6102ab610450366004612543565b6108eb565b61037f610463366004612624565b61094b565b61037f610a7a565b600f5460105460115460125460135461048a949392919085565b604080519586526020860194909452928401919091526060830152608082015260a0016102b5565b6102e66104c0366004612543565b60156020526000908152604090205460ff1681565b6014546104e29060ff1681565b6040516102b59190612653565b6102ab6104fd366004612543565b6001600160a01b031660009081526020819052604090205490565b6102ab600b5481565b6102ab610aa0565b600e5461031d906001600160a01b031681565b61037f61054a366004612689565b610aaf565b6102c6610b16565b61031d7f000000000000000000000000000000000000000000000000000000000000000081565b6102ab600c5481565b61037f610595366004612624565b610b25565b6102e66105a83660046125b7565b610c7b565b6102e66105bb3660046125b7565b610d0d565b6102ab600d5481565b61037f6105d7366004612624565b610d1b565b61037f6105ea366004612543565b610e93565b61037f6105fd366004612624565b610f3a565b6102ab6106103660046126c2565b6001600160a01b03918216600090815260016020908152604080832093909416825291909152205490565b6102ab610649366004612543565b610fe2565b6102e661065c366004612624565b611118565b6102ab61066f366004612543565b6001600160a01b03166000908152600a602052604090205490565b6007546102ab565b6060600380546106a1906126f0565b80601f01602080910402602001604051908101604052809291908181526020018280546106cd906126f0565b801561071a5780601f106106ef5761010080835404028352916020019161071a565b820191906000526020600020905b8154815290600101906020018083116106fd57829003601f168201915b5050505050905090565b60003361073281858561112c565b60019150505b92915050565b60003361074c858285611250565b6107578585856112e2565b506001949350505050565b61076a611409565b60006107746114d3565b90508061077e5750565b6107883382611551565b506107916115f0565b600b5461079e9082611680565b600b556107a961168c565b5050565b6107b56116aa565b6107bd611409565b6107c73382611703565b6107d1338261182f565b6107db3382611551565b506107e46115f0565b6107ee6001600555565b50565b3360008181526001602090815260408083206001600160a01b0387168452909152812054909190610732908290869061082b908790612740565b61112c565b6001600160a01b03811660009081526009602052604081205461073890610856846108eb565b90611680565b600061086661168c565b9050600081136108735750565b6107ee61087f826118d3565b611913565b61088c611a0f565b6108966000611a7b565b601480546001919060ff191682805b02179055506014546040517f24b0afb747a8213aea796b9518bfa667de187b83390eda7cc93b8e57f80fcd1a916108e19160ff90911690612653565b60405180910390a1565b6001600160a01b03811660009081526008602090815260408083205491839052822054600654670de0b6b3a7640000926109419261093c92610936916109319190611adf565b611aeb565b90611b2c565b6118d3565b6107389190612753565b600e546001600160a01b0316331461099b5760405162461bcd60e51b815260206004820152600e60248201526d281d2727aa2fa127a92927aba2a960911b60448201526064015b60405180910390fd5b6109a36116aa565b6000600d5482116109c45781600d546109bc9190612775565b600d556109df565b600d546109d19083612775565b600d80546000909155925090505b600b546109ec9082611b38565b600b55610a23337f0000000000000000000000000000000000000000000000000000000000000000610a1e8585611b38565b611b44565b610a2b61085c565b600b5460405133917f9643c1b5b172b26d5f028be7fe646349bd5e3cd9367bb18f9e825afa828b7d9391610a6791868252602082015260400190565b60405180910390a2506107ee6001600555565b610a82611a0f565b610a8c6001611a7b565b601480546002919060ff19166001836108a5565b6000610aaa611b79565b905090565b610ab7611a0f565b6001600160a01b038216600081815260156020908152604091829020805460ff191685151590811790915591519182527f353578bbc0ab907b7018b0f7b50b5f822d31dc9fcf4c16fffa780e109ca7c930910160405180910390a25050565b6060600480546106a1906126f0565b600e546001600160a01b03163314610b705760405162461bcd60e51b815260206004820152600e60248201526d281d2727aa2fa127a92927aba2a960911b6044820152606401610992565b610b786116aa565b60008111610bbb5760405162461bcd60e51b815260206004820152601060248201526f140e9253959053125117d05353d5539560821b6044820152606401610992565b610bc3611b79565b811115610c125760405162461bcd60e51b815260206004820152601b60248201527f503a494e53554646494349454e545f544f54414c5f535550504c5900000000006044820152606401610992565b600d54610c1f9082611b38565b600d55610c2c3382611551565b50600d5460405133917feb82ce5153cfaaf31e19ab47dcbb1d8b7243fc661b67f650fef772e2fe396f4c91610c6991858252602082015260400190565b60405180910390a26107ee6001600555565b3360008181526001602090815260408083206001600160a01b038716845290915281205490919083811015610d005760405162461bcd60e51b815260206004820152602560248201527f45524332303a2064656372656173656420616c6c6f77616e63652062656c6f77604482015264207a65726f60d81b6064820152608401610992565b610757828686840361112c565b6000336107328185856112e2565b610d236116aa565b601354811015610d6b5760405162461bcd60e51b8152602060048201526013602482015272281d2222a82fa0a6aa2fa122a627abafa6a4a760691b6044820152606401610992565b601254600754610d7c908390612740565b1115610dca5760405162461bcd60e51b815260206004820152601b60248201527f503a4445505f414d545f455843454544535f504f4f4c5f53495a4500000000006044820152606401610992565b610dd2611409565b610ddc6001611a7b565b33600090815260208190526040902054610dfa906016908333611b91565b610e4f6001600160a01b037f000000000000000000000000000000000000000000000000000000000000000016337f000000000000000000000000000000000000000000000000000000000000000084611c41565b610e593382611c9b565b610e616115f0565b60405181815233907fe1fffcc4923d04b559f4d29a8bfc6cda04eb5b0d3c460751c2402c5c5cc9109c90602001610c69565b6001600160a01b038116610edb5760405162461bcd60e51b815260206004820152600f60248201526e281d2d22a927afa127a92927aba2a960891b6044820152606401610992565b610ee3611a0f565b600e805473ffffffffffffffffffffffffffffffffffffffff19166001600160a01b0383169081179091556040517f47746d41e99a865bf52730f5e1401445396e9025e37301a8f7f720896ee3f30390600090a250565b610f42611409565b6000610f4d82611d28565b905080821115610fa95760405162461bcd60e51b815260206004820152602160248201527f503a494e53554646494349454e545f574954484452415741424c455f46554e446044820152605360f81b6064820152608401610992565b80610fb2575050565b610fbc3383611551565b50610fc56115f0565b600b54610fd29083611680565b600b55610fdd61168c565b505050565b600f546001600160a01b0382166000908152601660205260408120549091429161100b91611b38565b111561104a5760405162461bcd60e51b815260206004820152600e60248201526d140e9195539114d7d313d0d2d15160921b6044820152606401610992565b6040516370a0823160e01b81526001600160a01b037f000000000000000000000000000000000000000000000000000000000000000081166004830152610738917f0000000000000000000000000000000000000000000000000000000000000000909116906370a0823190602401602060405180830381865afa1580156110d6573d6000803e3d6000fd5b505050506040513d601f19601f820116820180604052508101906110fa9190612788565b6001600160a01b038416600090815260208190526040902054611df6565b60006111243383611703565b506001919050565b6001600160a01b03831661118e5760405162461bcd60e51b8152602060048201526024808201527f45524332303a20617070726f76652066726f6d20746865207a65726f206164646044820152637265737360e01b6064820152608401610992565b6001600160a01b0382166111ef5760405162461bcd60e51b815260206004820152602260248201527f45524332303a20617070726f766520746f20746865207a65726f206164647265604482015261737360f01b6064820152608401610992565b6001600160a01b0383811660008181526001602090815260408083209487168084529482529182902085905590518481527f8c5be1e5ebec7d5bd14f71427d1e84f3dd0314c0f7b2291e5b200ac8c7c3b925910160405180910390a3505050565b6001600160a01b0383811660009081526001602090815260408083209386168352929052205460001981146112dc57818110156112cf5760405162461bcd60e51b815260206004820152601d60248201527f45524332303a20696e73756666696369656e7420616c6c6f77616e63650000006044820152606401610992565b6112dc848484840361112c565b50505050565b6112ed838383611e0c565b600061130761093183600654611adf90919063ffffffff16565b6001600160a01b0385166000908152600860205260408120549192509061132e9083611b2c565b6001600160a01b03808716600090815260086020526040808220849055918716815290812054919250906113629084611fb0565b6001600160a01b0380871660009081526008602052604090819020839055519192508716907ff694bebd33ada288ae2f4485315db76739e2d5501daf315e71c9d8f841aa7773906113b69085815260200190565b60405180910390a2846001600160a01b03167ff694bebd33ada288ae2f4485315db76739e2d5501daf315e71c9d8f841aa7773826040516113f991815260200190565b60405180910390a2505050505050565b6114327f0000000000000000000000000000000000000000000000000000000000000000611fbc565b6001600160a01b031663425fad586040518163ffffffff1660e01b8152600401602060405180830381865afa15801561146f573d6000803e3d6000fd5b505050506040513d601f19601f8201168201806040525081019061149391906127a1565b156114d15760405162461bcd60e51b815260206004820152600e60248201526d140e941493d513d7d4105554d15160921b6044820152606401610992565b565b60006114de33610830565b33600090815260096020526040812054919250906114fc9083611b38565b33600081815260096020908152604091829020849055815186815290810184905292935090917ffbc3a599b784fe88772fc5abcc07223f64ca0b13acc341f4fb1e46bef0510eb4910160405180910390a25090565b60007f000000000000000000000000000000000000000000000000000000000000000060405163a9059cbb60e01b81526001600160a01b03858116600483015260248201859052919091169063a9059cbb906044016020604051808303816000875af11580156115c5573d6000803e3d6000fd5b505050506040513d601f19601f820116820180604052508101906115e991906127a1565b9392505050565b7f00000000000000000000000000000000000000000000000000000000000000006001600160a01b03167f00000000000000000000000000000000000000000000000000000000000000006001600160a01b03167f2047d1633ff7768462ae07d28cb16e484203bfd6d85ce832494270ebcd9081a261166d612020565b60405190815260200160405180910390a3565b60006115e98284612775565b600c8054600b54918290556000916116a49082611fb0565b91505090565b6002600554036116fc5760405162461bcd60e51b815260206004820152601f60248201527f5265656e7472616e637947756172643a207265656e7472616e742063616c6c006044820152606401610992565b6002600555565b600f546001600160a01b038316600090815260166020526040902054429161172b9190611b38565b111561176a5760405162461bcd60e51b815260206004820152600e60248201526d140e9195539114d7d313d0d2d15160921b6044820152606401610992565b8061178a836001600160a01b031660009081526020819052604090205490565b10156117d85760405162461bcd60e51b815260206004820152601660248201527f503a494e53554646494349454e545f42414c414e4345000000000000000000006044820152606401610992565b6117e0612020565b8111156107a95760405162461bcd60e51b815260206004820152601860248201527f503a494e53554646494349454e545f4c495155494449545900000000000000006044820152606401610992565b61183982826120cf565b600061187561185661093184600654611adf90919063ffffffff16565b6001600160a01b03851660009081526008602052604090205490611b2c565b6001600160a01b0384166000818152600860205260409081902083905551919250907ff694bebd33ada288ae2f4485315db76739e2d5501daf315e71c9d8f841aa7773906118c69084815260200190565b60405180910390a2505050565b60008082121561190f5760405162461bcd60e51b8152602060048201526007602482015266534d493a4e454760c81b6044820152606401610992565b5090565b600061191e60025490565b1161195d5760405162461bcd60e51b815260206004820152600f60248201526e4644543a5a45524f5f535550504c5960881b6044820152606401610992565b806000036119685750565b61199961197460025490565b61198683670de0b6b3a7640000611adf565b6119909190612753565b60065490611b38565b60065560405181815233907f26536799ace2c3dbe12e638ec3ade6b4173dcf1289be0a58d51a5003015649bd9060200160405180910390a27f1f8d7705f31c3337a080803a8ad7e71946fb88d84738879be2bf402f97156e96600654604051611a0491815260200190565b60405180910390a150565b336001600160a01b037f00000000000000000000000000000000000000000000000000000000000000001614611a735760405162461bcd60e51b8152602060048201526009602482015268140e9393d517d1115360ba1b6044820152606401610992565b6114d1611409565b806002811115611a8d57611a8d61263d565b60145460ff166002811115611aa457611aa461263d565b146107ee5760405162461bcd60e51b815260206004820152600b60248201526a503a4241445f535441544560a81b6044820152606401610992565b60006115e982846127be565b806000811215611b275760405162461bcd60e51b815260206004820152600760248201526629a6aa9d27a7a160c91b6044820152606401610992565b919050565b60006115e982846127dd565b60006115e98284612740565b610fdd6001600160a01b037f000000000000000000000000000000000000000000000000000000000000000016848484611c41565b6000600d54611b8760025490565b610aaa9190612775565b6001600160a01b0381166000908152602085905260408120549080611bb68587612740565b11611bc15781611bf2565b611bf2611beb611bd18688612740565b611be587611bdf4288611680565b90611adf565b90612201565b8390611b38565b6001600160a01b03841660008181526020898152604091829020849055905183815292935090917ff9b842c70d79466435b46540bb988aa5c998b3243bf91c36380ddb5887c0f0e491016113f9565b604080516001600160a01b0385811660248301528416604482015260648082018490528251808303909101815260849091019091526020810180516001600160e01b03166323b872dd60e01b1790526112dc90859061220d565b611ca582826122df565b600754611cb29082611b38565b6007556001600160a01b0382166000908152600a6020526040902054611cd89082611b38565b6001600160a01b0383166000908152600a602052604081209190915560065461187590611d09906109319085611adf565b6001600160a01b03851660009081526008602052604090205490611fb0565b6000611d3333610830565b905080821115611d855760405162461bcd60e51b815260206004820152601660248201527f4644543a494e53554646494349454e545f46554e4453000000000000000000006044820152606401610992565b33600090815260096020526040812054611d9f9084611b38565b33600081815260096020908152604091829020849055815186815290810184905292935090917ffbc3a599b784fe88772fc5abcc07223f64ca0b13acc341f4fb1e46bef0510eb4910160405180910390a250919050565b6000818310611e0557816115e9565b5090919050565b6001600160a01b038316611e705760405162461bcd60e51b815260206004820152602560248201527f45524332303a207472616e736665722066726f6d20746865207a65726f206164604482015264647265737360d81b6064820152608401610992565b6001600160a01b038216611ed25760405162461bcd60e51b815260206004820152602360248201527f45524332303a207472616e7366657220746f20746865207a65726f206164647260448201526265737360e81b6064820152608401610992565b6001600160a01b03831660009081526020819052604090205481811015611f4a5760405162461bcd60e51b815260206004820152602660248201527f45524332303a207472616e7366657220616d6f756e7420657863656564732062604482015265616c616e636560d01b6064820152608401610992565b6001600160a01b03848116600081815260208181526040808320878703905593871680835291849020805487019055925185815290927fddf252ad1be2c89b69c2b068fc378daa952ba7f163c4a11628f55a4df523b3ef910160405180910390a36112dc565b60006115e98284612805565b6000816001600160a01b031663c31245256040518163ffffffff1660e01b8152600401602060405180830381865afa158015611ffc573d6000803e3d6000fd5b505050506040513d601f19601f82011682018060405250810190610738919061282c565b6040516370a0823160e01b81526001600160a01b037f0000000000000000000000000000000000000000000000000000000000000000811660048301526000917f0000000000000000000000000000000000000000000000000000000000000000909116906370a0823190602401602060405180830381865afa1580156120ab573d6000803e3d6000fd5b505050506040513d601f19601f82011682018060405250810190610aaa9190612788565b6001600160a01b03821661212f5760405162461bcd60e51b815260206004820152602160248201527f45524332303a206275726e2066726f6d20746865207a65726f206164647265736044820152607360f81b6064820152608401610992565b6001600160a01b038216600090815260208190526040902054818110156121a35760405162461bcd60e51b815260206004820152602260248201527f45524332303a206275726e20616d6f756e7420657863656564732062616c616e604482015261636560f01b6064820152608401610992565b6001600160a01b0383166000818152602081815260408083208686039055600280548790039055518581529192917fddf252ad1be2c89b69c2b068fc378daa952ba7f163c4a11628f55a4df523b3ef910160405180910390a3505050565b60006115e98284612753565b6000612262826040518060400160405280602081526020017f5361666545524332303a206c6f772d6c6576656c2063616c6c206661696c6564815250856001600160a01b031661239e9092919063ffffffff16565b805190915015610fdd578080602001905181019061228091906127a1565b610fdd5760405162461bcd60e51b815260206004820152602a60248201527f5361666545524332303a204552433230206f7065726174696f6e20646964206e6044820152691bdd081cdd58d8d9595960b21b6064820152608401610992565b6001600160a01b0382166123355760405162461bcd60e51b815260206004820152601f60248201527f45524332303a206d696e7420746f20746865207a65726f2061646472657373006044820152606401610992565b80600260008282546123479190612740565b90915550506001600160a01b038216600081815260208181526040808320805486019055518481527fddf252ad1be2c89b69c2b068fc378daa952ba7f163c4a11628f55a4df523b3ef910160405180910390a35050565b60606123ad84846000856123b5565b949350505050565b6060824710156124165760405162461bcd60e51b815260206004820152602660248201527f416464726573733a20696e73756666696369656e742062616c616e636520666f6044820152651c8818d85b1b60d21b6064820152608401610992565b600080866001600160a01b031685876040516124329190612849565b60006040518083038185875af1925050503d806000811461246f576040519150601f19603f3d011682016040523d82523d6000602084013e612474565b606091505b509150915061248587838387612490565b979650505050505050565b606083156124ff5782516000036124f8576001600160a01b0385163b6124f85760405162461bcd60e51b815260206004820152601d60248201527f416464726573733a2063616c6c20746f206e6f6e2d636f6e74726163740000006044820152606401610992565b50816123ad565b6123ad83838151156125145781518083602001fd5b8060405162461bcd60e51b81526004016109929190612584565b6001600160a01b03811681146107ee57600080fd5b60006020828403121561255557600080fd5b81356115e98161252e565b60005b8381101561257b578181015183820152602001612563565b50506000910152565b60208152600082518060208401526125a3816040850160208701612560565b601f01601f19169190910160400192915050565b600080604083850312156125ca57600080fd5b82356125d58161252e565b946020939093013593505050565b6000806000606084860312156125f857600080fd5b83356126038161252e565b925060208401356126138161252e565b929592945050506040919091013590565b60006020828403121561263657600080fd5b5035919050565b634e487b7160e01b600052602160045260246000fd5b602081016003831061267557634e487b7160e01b600052602160045260246000fd5b91905290565b80151581146107ee57600080fd5b6000806040838503121561269c57600080fd5b82356126a78161252e565b915060208301356126b78161267b565b809150509250929050565b600080604083850312156126d557600080fd5b82356126e08161252e565b915060208301356126b78161252e565b600181811c9082168061270457607f821691505b60208210810361272457634e487b7160e01b600052602260045260246000fd5b50919050565b634e487b7160e01b600052601160045260246000fd5b808201808211156107385761073861272a565b60008261277057634e487b7160e01b600052601260045260246000fd5b500490565b818103818111156107385761073861272a565b60006020828403121561279a57600080fd5b5051919050565b6000602082840312156127b357600080fd5b81516115e98161267b565b60008160001904831182151516156127d8576127d861272a565b500290565b80820182811260008312801582168215821617156127fd576127fd61272a565b505092915050565b81810360008312801583831316838312821617156128255761282561272a565b5092915050565b60006020828403121561283e57600080fd5b81516115e98161252e565b6000825161285b818460208701612560565b919091019291505056fea264697066735822122033d4a6e68923f260f17ce9e8cc94e01a34b85f6b0759e1ef4b692274329701dd64736f6c63430008100033a2646970667358221220bc56f1aa17bd79d7a7bd3cb36e0aeb1ae34461a4cca9a2506a15773fb5ca877c64736f6c63430008100033",
  "devdoc": {
    "kind": "dev",
    "methods": {
      "paused()": {
        "details": "Returns true if the contract is paused, and false otherwise."
      }
    },
    "version": 1
  },
  "userdoc": {
    "kind": "user",
    "methods": {},
    "version": 1
  },
  "storageLayout": {
    "storage": [
      {
        "astId": 17,
        "contract": "contracts/pool/PoolFactory.sol:PoolFactory",
        "label": "_paused",
        "offset": 0,
        "slot": "0",
        "type": "t_bool"
      },
      {
        "astId": 118,
        "contract": "contracts/pool/PoolFactory.sol:PoolFactory",
        "label": "_status",
        "offset": 0,
        "slot": "1",
        "type": "t_uint256"
      },
      {
        "astId": 5442,
        "contract": "contracts/pool/PoolFactory.sol:PoolFactory",
        "label": "globals",
        "offset": 0,
        "slot": "2",
        "type": "t_contract(IHeliosGlobals)4350"
      },
      {
        "astId": 5446,
        "contract": "contracts/pool/PoolFactory.sol:PoolFactory",
        "label": "pools",
        "offset": 0,
        "slot": "3",
        "type": "t_mapping(t_string_memory_ptr,t_address)"
      },
      {
        "astId": 5450,
        "contract": "contracts/pool/PoolFactory.sol:PoolFactory",
        "label": "isPool",
        "offset": 0,
        "slot": "4",
        "type": "t_mapping(t_address,t_bool)"
      },
      {
        "astId": 5454,
        "contract": "contracts/pool/PoolFactory.sol:PoolFactory",
        "label": "poolFactoryAdmins",
        "offset": 0,
        "slot": "5",
        "type": "t_mapping(t_address,t_bool)"
      }
    ],
    "types": {
      "t_address": {
        "encoding": "inplace",
        "label": "address",
        "numberOfBytes": "20"
      },
      "t_bool": {
        "encoding": "inplace",
        "label": "bool",
        "numberOfBytes": "1"
      },
      "t_contract(IHeliosGlobals)4350": {
        "encoding": "inplace",
        "label": "contract IHeliosGlobals",
        "numberOfBytes": "20"
      },
      "t_mapping(t_address,t_bool)": {
        "encoding": "mapping",
        "key": "t_address",
        "label": "mapping(address => bool)",
        "numberOfBytes": "32",
        "value": "t_bool"
      },
      "t_mapping(t_string_memory_ptr,t_address)": {
        "encoding": "mapping",
        "key": "t_string_memory_ptr",
        "label": "mapping(string => address)",
        "numberOfBytes": "32",
        "value": "t_address"
      },
      "t_string_memory_ptr": {
        "encoding": "bytes",
        "label": "string",
        "numberOfBytes": "32"
      },
      "t_uint256": {
        "encoding": "inplace",
        "label": "uint256",
        "numberOfBytes": "32"
      }
    }
  }
}