{
  "address": "0x547A67c350ad4EdD4273b6292E722A80baf37353",
  "abi": [
    {
      "inputs": [
        {
          "internalType": "address",
          "name": "_globals",
          "type": "address"
        }
      ],
      "stateMutability": "nonpayable",
      "type": "constructor"
    },
    {
      "anonymous": false,
      "inputs": [
        {
          "indexed": false,
          "internalType": "address",
          "name": "account",
          "type": "address"
        }
      ],
      "name": "Paused",
      "type": "event"
    },
    {
      "anonymous": false,
      "inputs": [
        {
          "indexed": false,
          "internalType": "string",
          "name": "poolId",
          "type": "string"
        },
        {
          "indexed": false,
          "internalType": "address",
          "name": "liquidityAsset",
          "type": "address"
        },
        {
          "indexed": true,
          "internalType": "address",
          "name": "pool",
          "type": "address"
        },
        {
          "indexed": true,
          "internalType": "address",
          "name": "delegate",
          "type": "address"
        }
      ],
      "name": "PoolCreated",
      "type": "event"
    },
    {
      "anonymous": false,
      "inputs": [
        {
          "indexed": true,
          "internalType": "address",
          "name": "poolFactoryAdmin",
          "type": "address"
        },
        {
          "indexed": false,
          "internalType": "bool",
          "name": "allowed",
          "type": "bool"
        }
      ],
      "name": "PoolFactoryAdminSet",
      "type": "event"
    },
    {
      "anonymous": false,
      "inputs": [
        {
          "indexed": false,
          "internalType": "address",
          "name": "account",
          "type": "address"
        }
      ],
      "name": "Unpaused",
      "type": "event"
    },
    {
      "inputs": [
        {
          "internalType": "string",
          "name": "poolId",
          "type": "string"
        },
        {
          "internalType": "address",
          "name": "liquidityAsset",
          "type": "address"
        },
        {
          "internalType": "address",
          "name": "llFactory",
          "type": "address"
        },
        {
          "internalType": "uint256",
          "name": "lockupPeriod",
          "type": "uint256"
        },
        {
          "internalType": "uint256",
          "name": "apy",
          "type": "uint256"
        },
        {
          "internalType": "uint256",
          "name": "duration",
          "type": "uint256"
        },
        {
          "internalType": "uint256",
          "name": "investmentPoolSize",
          "type": "uint256"
        },
        {
          "internalType": "uint256",
          "name": "minInvestmentAmount",
          "type": "uint256"
        }
      ],
      "name": "createPool",
      "outputs": [
        {
          "internalType": "address",
          "name": "poolAddress",
          "type": "address"
        }
      ],
      "stateMutability": "nonpayable",
      "type": "function"
    },
    {
      "inputs": [],
      "name": "globals",
      "outputs": [
        {
          "internalType": "contract IHeliosGlobals",
          "name": "",
          "type": "address"
        }
      ],
      "stateMutability": "view",
      "type": "function"
    },
    {
      "inputs": [
        {
          "internalType": "address",
          "name": "",
          "type": "address"
        }
      ],
      "name": "isPool",
      "outputs": [
        {
          "internalType": "bool",
          "name": "",
          "type": "bool"
        }
      ],
      "stateMutability": "view",
      "type": "function"
    },
    {
      "inputs": [],
      "name": "pause",
      "outputs": [],
      "stateMutability": "nonpayable",
      "type": "function"
    },
    {
      "inputs": [],
      "name": "paused",
      "outputs": [
        {
          "internalType": "bool",
          "name": "",
          "type": "bool"
        }
      ],
      "stateMutability": "view",
      "type": "function"
    },
    {
      "inputs": [
        {
          "internalType": "address",
          "name": "",
          "type": "address"
        }
      ],
      "name": "poolFactoryAdmins",
      "outputs": [
        {
          "internalType": "bool",
          "name": "",
          "type": "bool"
        }
      ],
      "stateMutability": "view",
      "type": "function"
    },
    {
      "inputs": [
        {
          "internalType": "string",
          "name": "",
          "type": "string"
        }
      ],
      "name": "pools",
      "outputs": [
        {
          "internalType": "address",
          "name": "",
          "type": "address"
        }
      ],
      "stateMutability": "view",
      "type": "function"
    },
    {
      "inputs": [
        {
          "internalType": "address",
          "name": "newGlobals",
          "type": "address"
        }
      ],
      "name": "setGlobals",
      "outputs": [],
      "stateMutability": "nonpayable",
      "type": "function"
    },
    {
      "inputs": [
        {
          "internalType": "address",
          "name": "poolFactoryAdmin",
          "type": "address"
        },
        {
          "internalType": "bool",
          "name": "allowed",
          "type": "bool"
        }
      ],
      "name": "setPoolFactoryAdmin",
      "outputs": [],
      "stateMutability": "nonpayable",
      "type": "function"
    },
    {
      "inputs": [],
      "name": "unpause",
      "outputs": [],
      "stateMutability": "nonpayable",
      "type": "function"
    }
  ],
  "transactionHash": "0xcfba515b083902de59108b6a2ca51e7b93412e847e3a315e4b9c1817f2b8915e",
  "args": [
    "0x5Cad1ffe2bd441E42A7293bC98b3bCaEf367FaC9"
  ],
  "numDeployments": 1,
  "solcInputHash": "5a416a0a2636aa74fa380c12754d55b0",
  "bytecode": "0x608060405234801561001057600080fd5b50604051613af3380380613af383398101604081905261002f91610062565b6000805460ff1916905560018055600280546001600160a01b0319166001600160a01b0392909216919091179055610092565b60006020828403121561007457600080fd5b81516001600160a01b038116811461008b57600080fd5b9392505050565b613a52806100a16000396000f3fe60806040523480156200001157600080fd5b5060043610620000ab5760003560e01c80639d6f17a8116200006e5780639d6f17a81462000133578063c31245251462000183578063cc2e0a261462000197578063dd7d699914620001ae578063f3f616c014620001c557600080fd5b80633f4ba83a14620000b05780635b16ebb714620000bc5780635c975abb14620000f75780636050abb214620001035780638456cb591462000129575b600080fd5b620000ba620001dc565b005b620000e2620000cd36600462000a00565b60046020526000908152604090205460ff1681565b60405190151581526020015b60405180910390f35b60005460ff16620000e2565b620000e26200011436600462000a00565b60056020526000908152604090205460ff1681565b620000ba620001f2565b6200016a6200014436600462000a3d565b80516020818301810180516003825292820191909301209152546001600160a01b031681565b6040516001600160a01b039091168152602001620000ee565b6002546200016a906001600160a01b031681565b620000ba620001a836600462000a00565b62000206565b6200016a620001bf36600462000af8565b62000291565b620000ba620001d636600462000bcf565b620004d9565b620001e662000542565b620001f06200062d565b565b620001fc62000542565b620001f062000681565b62000210620006c1565b6001600160a01b038116620002625760405162461bcd60e51b815260206004820152601360248201527250463a5a45524f5f4e45575f474c4f42414c5360681b60448201526064015b60405180910390fd5b6002805473ffffffffffffffffffffffffffffffffffffffff19166001600160a01b0392909216919091179055565b60006200029d6200078a565b620002a7620007d2565b620002b16200082d565b600254604051631b971aa360e11b81523360048201526001600160a01b0390911690819063372e354690602401602060405180830381865afa158015620002fc573d6000803e3d6000fd5b505050506040513d601f19601f8201168201806040525081019062000322919062000c0d565b620003625760405162461bcd60e51b815260206004820152600f60248201526e50463a4e4f545f44454c454741544560881b604482015260640162000259565b6200036e8b8b620008e8565b6000338a8a8a8a8a8a8a6040516200038690620009c7565b6001600160a01b03988916815296881660208801529690941660408601526060850192909252608084015260a083015260c082015260e081019190915261010001604051809103906000f080158015620003e4573d6000803e3d6000fd5b5090508092508260038d8d604051620003ff92919062000c2d565b908152602001604051809103902060006101000a8154816001600160a01b0302191690836001600160a01b03160217905550600160046000856001600160a01b03166001600160a01b0316815260200190815260200160002060006101000a81548160ff021916908315150217905550336001600160a01b0316836001600160a01b03167fcf2a5a138ba5b498559fc2ecefc1acc601b97f9c65726e53ce8543d03a3a2d698e8e8e604051620004b89392919062000c3d565b60405180910390a35050620004cc60018055565b9998505050505050505050565b620004e3620006c1565b6001600160a01b038216600081815260056020908152604091829020805460ff191685151590811790915591519182527fc0d8ae32722eafe08b35b2bb46dec31dcbbd5bb18069f66995df3c9f47f4d64f910160405180910390a25050565b600260009054906101000a90046001600160a01b03166001600160a01b0316630c340a246040518163ffffffff1660e01b8152600401602060405180830381865afa15801562000596573d6000803e3d6000fd5b505050506040513d601f19601f82011682018060405250810190620005bc919062000c7f565b6001600160a01b0316336001600160a01b03161480620005eb57503360009081526005602052604090205460ff165b620001f05760405162461bcd60e51b815260206004820152601160248201527050463a4e4f545f474f565f4f525f41444d60781b604482015260640162000259565b6200063762000973565b6000805460ff191690557f5db9ee0a495bf2e6ff9c91a7834c1ba4fdd244a5e8aa4e537bd38aeae4b073aa335b6040516001600160a01b03909116815260200160405180910390a1565b6200068b6200078a565b6000805460ff191660011790557f62e78cea01bee320cd4e420270b5ea74000d11b0c9f74754ebdbfc544b05a258620006643390565b600260009054906101000a90046001600160a01b03166001600160a01b0316630c340a246040518163ffffffff1660e01b8152600401602060405180830381865afa15801562000715573d6000803e3d6000fd5b505050506040513d601f19601f820116820180604052508101906200073b919062000c7f565b6001600160a01b0316336001600160a01b031614620001f05760405162461bcd60e51b815260206004820152600a60248201526928231d2727aa2fa3a7ab60b11b604482015260640162000259565b60005460ff1615620001f05760405162461bcd60e51b815260206004820152601060248201526f14185d5cd8589b194e881c185d5cd95960821b604482015260640162000259565b600260015403620008265760405162461bcd60e51b815260206004820152601f60248201527f5265656e7472616e637947756172643a207265656e7472616e742063616c6c00604482015260640162000259565b6002600155565b600260009054906101000a90046001600160a01b03166001600160a01b031663425fad586040518163ffffffff1660e01b8152600401602060405180830381865afa15801562000881573d6000803e3d6000fd5b505050506040513d601f19601f82011682018060405250810190620008a7919062000c0d565b15620001f05760405162461bcd60e51b815260206004820152600f60248201526e14118e941493d513d7d4105554d151608a1b604482015260640162000259565b60006001600160a01b0316600383836040516200090792919062000c2d565b908152604051908190036020019020546001600160a01b0316146200096f5760405162461bcd60e51b815260206004820152601960248201527f50463a504f4f4c5f49445f414c52454144595f45584953545300000000000000604482015260640162000259565b5050565b60005460ff16620001f05760405162461bcd60e51b815260206004820152601460248201527f5061757361626c653a206e6f7420706175736564000000000000000000000000604482015260640162000259565b612d7d8062000ca083390190565b6001600160a01b0381168114620009eb57600080fd5b50565b8035620009fb81620009d5565b919050565b60006020828403121562000a1357600080fd5b813562000a2081620009d5565b9392505050565b634e487b7160e01b600052604160045260246000fd5b60006020828403121562000a5057600080fd5b813567ffffffffffffffff8082111562000a6957600080fd5b818401915084601f83011262000a7e57600080fd5b81358181111562000a935762000a9362000a27565b604051601f8201601f19908116603f0116810190838211818310171562000abe5762000abe62000a27565b8160405282815287602084870101111562000ad857600080fd5b826020860160208301376000928101602001929092525095945050505050565b60008060008060008060008060006101008a8c03121562000b1857600080fd5b893567ffffffffffffffff8082111562000b3157600080fd5b818c0191508c601f83011262000b4657600080fd5b81358181111562000b5657600080fd5b8d602082850101111562000b6957600080fd5b60209283019b50995062000b81918c019050620009ee565b965062000b9160408b01620009ee565b989b979a5095986060810135976080820135975060a0820135965060c0820135955060e0909101359350915050565b8015158114620009eb57600080fd5b6000806040838503121562000be357600080fd5b823562000bf081620009d5565b9150602083013562000c028162000bc0565b809150509250929050565b60006020828403121562000c2057600080fd5b815162000a208162000bc0565b8183823760009101908152919050565b604081528260408201528284606083013760006060848301015260006060601f19601f86011683010190506001600160a01b0383166020830152949350505050565b60006020828403121562000c9257600080fd5b815162000a2081620009d556fe6101206040523480156200001257600080fd5b5060405162002d7d38038062002d7d83398101604081905262000035916200048b565b6040518060400160405280600f81526020016e12195b1a5bdcc81512d388141bdbdb608a1b815250604051806040016040528060058152602001640484c532d560dc1b815250818181818160039081620000909190620005b4565b5060046200009f8282620005b4565b505060016005555050506001600160a01b0389169150620000fc90505760405162461bcd60e51b815260206004820152601060248201526f140e96915493d7d3125457d054d4d15560821b60448201526064015b60405180910390fd5b6001600160a01b038816620001465760405162461bcd60e51b815260206004820152600f60248201526e503a5a45524f5f504f4f4c5f444c4760881b6044820152606401620000f3565b6001600160a01b0386166200019e5760405162461bcd60e51b815260206004820152601960248201527f503a5a45524f5f4c49515f4c4f434b45525f464143544f5259000000000000006044820152606401620000f3565b6001600160a01b03871660e08190526040805163313ce56760e01b8152905163313ce567916004808201926020929091908290030181865afa158015620001e9573d6000803e3d6000fd5b505050506040513d601f19601f820116820180604052508101906200020f919062000680565b60ff16610100523360809081526001600160a01b03891660c0526040805160a08101825287815260208101879052908101859052606081018490528101829052600e869055600f8590556010849055601183905560128290556013805460ff19169055516200027e9062000405565b60405163434a88c560e11b81526001600160a01b0389811660048301529190911690638695118a90602401602060405180830381865afa158015620002c7573d6000803e3d6000fd5b505050506040513d601f19601f82011682018060405250810190620002ed9190620006ac565b6200033b5760405162461bcd60e51b815260206004820152601360248201527f503a494e56414c49445f4c49515f4153534554000000000000000000000000006044820152606401620000f3565b604051630cf5bc1d60e11b81526001600160a01b0388811660048301528716906319eb783a906024016020604051808303816000875af115801562000384573d6000803e3d6000fd5b505050506040513d601f19601f82011682018060405250810190620003aa9190620006d0565b6001600160a01b031660a0526013546040517f24b0afb747a8213aea796b9518bfa667de187b83390eda7cc93b8e57f80fcd1a91620003ef9160ff90911690620006f0565b60405180910390a1505050505050505062000719565b6000816001600160a01b031663c31245256040518163ffffffff1660e01b8152600401602060405180830381865afa15801562000446573d6000803e3d6000fd5b505050506040513d601f19601f820116820180604052508101906200046c9190620006d0565b92915050565b6001600160a01b03811681146200048857600080fd5b50565b600080600080600080600080610100898b031215620004a957600080fd5b8851620004b68162000472565b60208a0151909850620004c98162000472565b60408a0151909750620004dc8162000472565b60608a015160808b015160a08c015160c08d015160e0909d01519b9e9a9d50929b919a9099929850909650945092505050565b634e487b7160e01b600052604160045260246000fd5b600181811c908216806200053a57607f821691505b6020821081036200055b57634e487b7160e01b600052602260045260246000fd5b50919050565b601f821115620005af57600081815260208120601f850160051c810160208610156200058a5750805b601f850160051c820191505b81811015620005ab5782815560010162000596565b5050505b505050565b81516001600160401b03811115620005d057620005d06200050f565b620005e881620005e1845462000525565b8462000561565b602080601f831160018114620006205760008415620006075750858301515b600019600386901b1c1916600185901b178555620005ab565b600085815260208120601f198616915b82811015620006515788860151825594840194600190910190840162000630565b5085821015620006705787850151600019600388901b60f8161c191681555b5050505050600190811b01905550565b6000602082840312156200069357600080fd5b815160ff81168114620006a557600080fd5b9392505050565b600060208284031215620006bf57600080fd5b81518015158114620006a557600080fd5b600060208284031215620006e357600080fd5b8151620006a58162000472565b60208101600383106200071357634e487b7160e01b600052602160045260246000fd5b91905290565b60805160a05160c05160e051610100516125d2620007ab600039600061038501526000818161030c01528181610d9501528181611449015281816119a80152611d990152600081816103c701526118710152600081816105260152818161098301528181610db8015281816113ac015281816114730152611d6e0152600081816102c5015261126501526125d26000f3fe608060405234801561001057600080fd5b50600436106102475760003560e01c8063613384f21161013b578063a079a4dd116100b8578063c762d5f71161007c578063c762d5f7146105a6578063d16987f9146105b9578063dd62ed3e146105cc578063fbe85f0614610605578063ff50abdc1461061857600080fd5b8063a079a4dd14610551578063a457c2d714610564578063a9059cbb14610577578063ac6416551461058a578063b6b55f251461059357600080fd5b80637df1f1b9116100ff5780637df1f1b9146104f35780639185192a1461050657806395d89b41146105195780639759164a146105215780639f3c73251461054857600080fd5b8063613384f21461047c578063641ad8a91461049f57806370a08231146104b957806371073bac146104e257806373e835ee146104eb57600080fd5b8063313ce567116101c95780634bb278f31161018d5780634bb278f3146104045780634e97415f1461040c5780635114cb521461041f57806351b42b00146104325780635a2f3d091461043a57600080fd5b8063313ce5671461037e57806339509351146103af5780634046af2b146103c2578063443bb293146103e957806346c162de146103fc57600080fd5b8063209b2bca11610210578063209b2bca1461030757806323b872dd1461032e57806324600fc31461034157806324b92e8e1461034b5780632e1a7d4d1461036b57600080fd5b806241c52c1461024c57806306fdde0314610288578063095ea7b31461029d5780630d49b38c146102c057806318160ddd146102ff575b600080fd5b61027561025a36600461227a565b6001600160a01b031660009081526009602052604090205490565b6040519081526020015b60405180910390f35b610290610620565b60405161027f91906122bb565b6102b06102ab3660046122ee565b6106b2565b604051901515815260200161027f565b6102e77f000000000000000000000000000000000000000000000000000000000000000081565b6040516001600160a01b03909116815260200161027f565b600254610275565b6102e77f000000000000000000000000000000000000000000000000000000000000000081565b6102b061033c36600461231a565b6106cc565b6103496106f0565b005b61027561035936600461227a565b60156020526000908152604090205481565b61034961037936600461235b565b61073b565b60405160ff7f000000000000000000000000000000000000000000000000000000000000000016815260200161027f565b6102b06103bd3660046122ee565b61077f565b6102e77f000000000000000000000000000000000000000000000000000000000000000081565b6102756103f736600461227a565b6107be565b6103496107ea565b610349610812565b61027561041a36600461227a565b610879565b61034961042d36600461235b565b6108d9565b610349610a08565b600e54600f54601054601154601254610454949392919085565b604080519586526020860194909452928401919091526060830152608082015260a00161027f565b6102b061048a36600461227a565b60146020526000908152604090205460ff1681565b6013546104ac9060ff1681565b60405161027f919061238a565b6102756104c736600461227a565b6001600160a01b031660009081526020819052604090205490565b610275600a5481565b610275610a2e565b600d546102e7906001600160a01b031681565b6103496105143660046123c0565b610a3d565b610290610aa4565b6102e77f000000000000000000000000000000000000000000000000000000000000000081565b610275600b5481565b61034961055f36600461235b565b610ab3565b6102b06105723660046122ee565b610c09565b6102b06105853660046122ee565b610c9b565b610275600c5481565b6103496105a136600461235b565b610ca9565b6103496105b436600461227a565b610e21565b6103496105c736600461235b565b610ec8565b6102756105da3660046123f9565b6001600160a01b03918216600090815260016020908152604080832093909416825291909152205490565b6102b061061336600461235b565b610f6f565b600754610275565b60606003805461062f90612427565b80601f016020809104026020016040519081016040528092919081815260200182805461065b90612427565b80156106a85780601f1061067d576101008083540402835291602001916106a8565b820191906000526020600020905b81548152906001019060200180831161068b57829003601f168201915b5050505050905090565b6000336106c0818585610f83565b60019150505b92915050565b6000336106da8582856110a7565b6106e5858585611139565b506001949350505050565b6106f8611260565b600061070261132a565b90508061070c5750565b61071633826113a8565b5061071f611447565b600a5461072c90826114d7565b600a556107376114e3565b5050565b610743611501565b61074b611260565b610755338261155a565b61075f3382611686565b61076933826113a8565b50610772611447565b61077c6001600555565b50565b3360008181526001602090815260408083206001600160a01b03871684529091528120549091906106c090829086906107b9908790612477565b610f83565b6001600160a01b0381166000908152600960205260408120546106c6906107e484610879565b906114d7565b60006107f46114e3565b9050600081136108015750565b61077c61080d8261172a565b61176a565b61081a611866565b61082460006118d2565b601380546001919060ff191682805b02179055506013546040517f24b0afb747a8213aea796b9518bfa667de187b83390eda7cc93b8e57f80fcd1a9161086f9160ff9091169061238a565b60405180910390a1565b6001600160a01b03811660009081526008602090815260408083205491839052822054600654670de0b6b3a7640000926108cf926108ca926108c4916108bf9190611936565b611942565b90611983565b61172a565b6106c6919061248a565b600d546001600160a01b031633146109295760405162461bcd60e51b815260206004820152600e60248201526d281d2727aa2fa127a92927aba2a960911b60448201526064015b60405180910390fd5b610931611501565b6000600c5482116109525781600c5461094a91906124ac565b600c5561096d565b600c5461095f90836124ac565b600c80546000909155925090505b600a5461097a908261198f565b600a556109b1337f00000000000000000000000000000000000000000000000000000000000000006109ac858561198f565b61199b565b6109b96107ea565b600a5460405133917f9643c1b5b172b26d5f028be7fe646349bd5e3cd9367bb18f9e825afa828b7d93916109f591868252602082015260400190565b60405180910390a25061077c6001600555565b610a10611866565b610a1a60016118d2565b601380546002919060ff1916600183610833565b6000610a386119d0565b905090565b610a45611866565b6001600160a01b038216600081815260146020908152604091829020805460ff191685151590811790915591519182527f353578bbc0ab907b7018b0f7b50b5f822d31dc9fcf4c16fffa780e109ca7c930910160405180910390a25050565b60606004805461062f90612427565b600d546001600160a01b03163314610afe5760405162461bcd60e51b815260206004820152600e60248201526d281d2727aa2fa127a92927aba2a960911b6044820152606401610920565b610b06611501565b60008111610b495760405162461bcd60e51b815260206004820152601060248201526f140e9253959053125117d05353d5539560821b6044820152606401610920565b610b516119d0565b811115610ba05760405162461bcd60e51b815260206004820152601b60248201527f503a494e53554646494349454e545f544f54414c5f535550504c5900000000006044820152606401610920565b600c54610bad908261198f565b600c55610bba33826113a8565b50600c5460405133917feb82ce5153cfaaf31e19ab47dcbb1d8b7243fc661b67f650fef772e2fe396f4c91610bf791858252602082015260400190565b60405180910390a261077c6001600555565b3360008181526001602090815260408083206001600160a01b038716845290915281205490919083811015610c8e5760405162461bcd60e51b815260206004820152602560248201527f45524332303a2064656372656173656420616c6c6f77616e63652062656c6f77604482015264207a65726f60d81b6064820152608401610920565b6106e58286868403610f83565b6000336106c0818585611139565b610cb1611501565b601254811015610cf95760405162461bcd60e51b8152602060048201526013602482015272281d2222a82fa0a6aa2fa122a627abafa6a4a760691b6044820152606401610920565b601154600754610d0a908390612477565b1115610d585760405162461bcd60e51b815260206004820152601b60248201527f503a4445505f414d545f455843454544535f504f4f4c5f53495a4500000000006044820152606401610920565b610d60611260565b610d6a60016118d2565b33600090815260208190526040902054610d889060159083336119e8565b610ddd6001600160a01b037f000000000000000000000000000000000000000000000000000000000000000016337f000000000000000000000000000000000000000000000000000000000000000084611a98565b610de73382611af2565b610def611447565b60405181815233907fc059ec2495d8c6ef830fa41e9f4c53520df8a3e2c1128af5493ebf22b2313e5f90602001610bf7565b6001600160a01b038116610e695760405162461bcd60e51b815260206004820152600f60248201526e281d2d22a927afa127a92927aba2a960891b6044820152606401610920565b610e71611866565b600d805473ffffffffffffffffffffffffffffffffffffffff19166001600160a01b0383169081179091556040517f47746d41e99a865bf52730f5e1401445396e9025e37301a8f7f720896ee3f30390600090a250565b610ed0611260565b6000610eda61132a565b905080821115610f365760405162461bcd60e51b815260206004820152602160248201527f503a494e53554646494349454e545f574954484452415741424c455f46554e446044820152605360f81b6064820152608401610920565b80610f3f575050565b610f4933836113a8565b50610f52611447565b600a54610f5f90836114d7565b600a55610f6a6114e3565b505050565b6000610f7b338361155a565b506001919050565b6001600160a01b038316610fe55760405162461bcd60e51b8152602060048201526024808201527f45524332303a20617070726f76652066726f6d20746865207a65726f206164646044820152637265737360e01b6064820152608401610920565b6001600160a01b0382166110465760405162461bcd60e51b815260206004820152602260248201527f45524332303a20617070726f766520746f20746865207a65726f206164647265604482015261737360f01b6064820152608401610920565b6001600160a01b0383811660008181526001602090815260408083209487168084529482529182902085905590518481527f8c5be1e5ebec7d5bd14f71427d1e84f3dd0314c0f7b2291e5b200ac8c7c3b925910160405180910390a3505050565b6001600160a01b03838116600090815260016020908152604080832093861683529290522054600019811461113357818110156111265760405162461bcd60e51b815260206004820152601d60248201527f45524332303a20696e73756666696369656e7420616c6c6f77616e63650000006044820152606401610920565b6111338484848403610f83565b50505050565b611144838383611b43565b600061115e6108bf8360065461193690919063ffffffff16565b6001600160a01b038516600090815260086020526040812054919250906111859083611983565b6001600160a01b03808716600090815260086020526040808220849055918716815290812054919250906111b99084611ce7565b6001600160a01b0380871660009081526008602052604090819020839055519192508716907ff694bebd33ada288ae2f4485315db76739e2d5501daf315e71c9d8f841aa77739061120d9085815260200190565b60405180910390a2846001600160a01b03167ff694bebd33ada288ae2f4485315db76739e2d5501daf315e71c9d8f841aa77738260405161125091815260200190565b60405180910390a2505050505050565b6112897f0000000000000000000000000000000000000000000000000000000000000000611cf3565b6001600160a01b031663425fad586040518163ffffffff1660e01b8152600401602060405180830381865afa1580156112c6573d6000803e3d6000fd5b505050506040513d601f19601f820116820180604052508101906112ea91906124bf565b156113285760405162461bcd60e51b815260206004820152600e60248201526d140e941493d513d7d4105554d15160921b6044820152606401610920565b565b6000611335336107be565b3360009081526009602052604081205491925090611353908361198f565b33600081815260096020908152604091829020849055815186815290810184905292935090917ffbc3a599b784fe88772fc5abcc07223f64ca0b13acc341f4fb1e46bef0510eb4910160405180910390a25090565b60007f000000000000000000000000000000000000000000000000000000000000000060405163a9059cbb60e01b81526001600160a01b03858116600483015260248201859052919091169063a9059cbb906044016020604051808303816000875af115801561141c573d6000803e3d6000fd5b505050506040513d601f19601f8201168201806040525081019061144091906124bf565b9392505050565b7f00000000000000000000000000000000000000000000000000000000000000006001600160a01b03167f00000000000000000000000000000000000000000000000000000000000000006001600160a01b03167f2047d1633ff7768462ae07d28cb16e484203bfd6d85ce832494270ebcd9081a26114c4611d57565b60405190815260200160405180910390a3565b600061144082846124ac565b600b8054600a54918290556000916114fb9082611ce7565b91505090565b6002600554036115535760405162461bcd60e51b815260206004820152601f60248201527f5265656e7472616e637947756172643a207265656e7472616e742063616c6c006044820152606401610920565b6002600555565b600e546001600160a01b0383166000908152601560205260409020544291611582919061198f565b11156115c15760405162461bcd60e51b815260206004820152600e60248201526d140e9195539114d7d313d0d2d15160921b6044820152606401610920565b806115e1836001600160a01b031660009081526020819052604090205490565b101561162f5760405162461bcd60e51b815260206004820152601660248201527f503a494e53554646494349454e545f42414c414e4345000000000000000000006044820152606401610920565b611637611d57565b8111156107375760405162461bcd60e51b815260206004820152601860248201527f503a494e53554646494349454e545f4c495155494449545900000000000000006044820152606401610920565b6116908282611e06565b60006116cc6116ad6108bf8460065461193690919063ffffffff16565b6001600160a01b03851660009081526008602052604090205490611983565b6001600160a01b0384166000818152600860205260409081902083905551919250907ff694bebd33ada288ae2f4485315db76739e2d5501daf315e71c9d8f841aa77739061171d9084815260200190565b60405180910390a2505050565b6000808212156117665760405162461bcd60e51b8152602060048201526007602482015266534d493a4e454760c81b6044820152606401610920565b5090565b600061177560025490565b116117b45760405162461bcd60e51b815260206004820152600f60248201526e4644543a5a45524f5f535550504c5960881b6044820152606401610920565b806000036117bf5750565b6117f06117cb60025490565b6117dd83670de0b6b3a7640000611936565b6117e7919061248a565b6006549061198f565b60065560405181815233907f26536799ace2c3dbe12e638ec3ade6b4173dcf1289be0a58d51a5003015649bd9060200160405180910390a27f1f8d7705f31c3337a080803a8ad7e71946fb88d84738879be2bf402f97156e9660065460405161185b91815260200190565b60405180910390a150565b336001600160a01b037f000000000000000000000000000000000000000000000000000000000000000016146118ca5760405162461bcd60e51b8152602060048201526009602482015268140e9393d517d1115360ba1b6044820152606401610920565b611328611260565b8060028111156118e4576118e4612374565b60135460ff1660028111156118fb576118fb612374565b1461077c5760405162461bcd60e51b815260206004820152600b60248201526a503a4241445f535441544560a81b6044820152606401610920565b600061144082846124dc565b80600081121561197e5760405162461bcd60e51b815260206004820152600760248201526629a6aa9d27a7a160c91b6044820152606401610920565b919050565b600061144082846124fb565b60006114408284612477565b610f6a6001600160a01b037f000000000000000000000000000000000000000000000000000000000000000016848484611a98565b6000600c546119de60025490565b610a3891906124ac565b6001600160a01b0381166000908152602085905260408120549080611a0d8587612477565b11611a185781611a49565b611a49611a42611a288688612477565b611a3c87611a3642886114d7565b90611936565b90611f38565b839061198f565b6001600160a01b03841660008181526020898152604091829020849055905183815292935090917ff9b842c70d79466435b46540bb988aa5c998b3243bf91c36380ddb5887c0f0e49101611250565b604080516001600160a01b0385811660248301528416604482015260648082018490528251808303909101815260849091019091526020810180516001600160e01b03166323b872dd60e01b179052611133908590611f44565b611afc8282612016565b600754611b09908261198f565b6007556006546000906116cc90611b24906108bf9085611936565b6001600160a01b03851660009081526008602052604090205490611ce7565b6001600160a01b038316611ba75760405162461bcd60e51b815260206004820152602560248201527f45524332303a207472616e736665722066726f6d20746865207a65726f206164604482015264647265737360d81b6064820152608401610920565b6001600160a01b038216611c095760405162461bcd60e51b815260206004820152602360248201527f45524332303a207472616e7366657220746f20746865207a65726f206164647260448201526265737360e81b6064820152608401610920565b6001600160a01b03831660009081526020819052604090205481811015611c815760405162461bcd60e51b815260206004820152602660248201527f45524332303a207472616e7366657220616d6f756e7420657863656564732062604482015265616c616e636560d01b6064820152608401610920565b6001600160a01b03848116600081815260208181526040808320878703905593871680835291849020805487019055925185815290927fddf252ad1be2c89b69c2b068fc378daa952ba7f163c4a11628f55a4df523b3ef910160405180910390a3611133565b60006114408284612523565b6000816001600160a01b031663c31245256040518163ffffffff1660e01b8152600401602060405180830381865afa158015611d33573d6000803e3d6000fd5b505050506040513d601f19601f820116820180604052508101906106c6919061254a565b6040516370a0823160e01b81526001600160a01b037f0000000000000000000000000000000000000000000000000000000000000000811660048301526000917f0000000000000000000000000000000000000000000000000000000000000000909116906370a0823190602401602060405180830381865afa158015611de2573d6000803e3d6000fd5b505050506040513d601f19601f82011682018060405250810190610a389190612567565b6001600160a01b038216611e665760405162461bcd60e51b815260206004820152602160248201527f45524332303a206275726e2066726f6d20746865207a65726f206164647265736044820152607360f81b6064820152608401610920565b6001600160a01b03821660009081526020819052604090205481811015611eda5760405162461bcd60e51b815260206004820152602260248201527f45524332303a206275726e20616d6f756e7420657863656564732062616c616e604482015261636560f01b6064820152608401610920565b6001600160a01b0383166000818152602081815260408083208686039055600280548790039055518581529192917fddf252ad1be2c89b69c2b068fc378daa952ba7f163c4a11628f55a4df523b3ef910160405180910390a3505050565b6000611440828461248a565b6000611f99826040518060400160405280602081526020017f5361666545524332303a206c6f772d6c6576656c2063616c6c206661696c6564815250856001600160a01b03166120d59092919063ffffffff16565b805190915015610f6a5780806020019051810190611fb791906124bf565b610f6a5760405162461bcd60e51b815260206004820152602a60248201527f5361666545524332303a204552433230206f7065726174696f6e20646964206e6044820152691bdd081cdd58d8d9595960b21b6064820152608401610920565b6001600160a01b03821661206c5760405162461bcd60e51b815260206004820152601f60248201527f45524332303a206d696e7420746f20746865207a65726f2061646472657373006044820152606401610920565b806002600082825461207e9190612477565b90915550506001600160a01b038216600081815260208181526040808320805486019055518481527fddf252ad1be2c89b69c2b068fc378daa952ba7f163c4a11628f55a4df523b3ef910160405180910390a35050565b60606120e484846000856120ec565b949350505050565b60608247101561214d5760405162461bcd60e51b815260206004820152602660248201527f416464726573733a20696e73756666696369656e742062616c616e636520666f6044820152651c8818d85b1b60d21b6064820152608401610920565b600080866001600160a01b031685876040516121699190612580565b60006040518083038185875af1925050503d80600081146121a6576040519150601f19603f3d011682016040523d82523d6000602084013e6121ab565b606091505b50915091506121bc878383876121c7565b979650505050505050565b6060831561223657825160000361222f576001600160a01b0385163b61222f5760405162461bcd60e51b815260206004820152601d60248201527f416464726573733a2063616c6c20746f206e6f6e2d636f6e74726163740000006044820152606401610920565b50816120e4565b6120e4838381511561224b5781518083602001fd5b8060405162461bcd60e51b815260040161092091906122bb565b6001600160a01b038116811461077c57600080fd5b60006020828403121561228c57600080fd5b813561144081612265565b60005b838110156122b257818101518382015260200161229a565b50506000910152565b60208152600082518060208401526122da816040850160208701612297565b601f01601f19169190910160400192915050565b6000806040838503121561230157600080fd5b823561230c81612265565b946020939093013593505050565b60008060006060848603121561232f57600080fd5b833561233a81612265565b9250602084013561234a81612265565b929592945050506040919091013590565b60006020828403121561236d57600080fd5b5035919050565b634e487b7160e01b600052602160045260246000fd5b60208101600383106123ac57634e487b7160e01b600052602160045260246000fd5b91905290565b801515811461077c57600080fd5b600080604083850312156123d357600080fd5b82356123de81612265565b915060208301356123ee816123b2565b809150509250929050565b6000806040838503121561240c57600080fd5b823561241781612265565b915060208301356123ee81612265565b600181811c9082168061243b57607f821691505b60208210810361245b57634e487b7160e01b600052602260045260246000fd5b50919050565b634e487b7160e01b600052601160045260246000fd5b808201808211156106c6576106c6612461565b6000826124a757634e487b7160e01b600052601260045260246000fd5b500490565b818103818111156106c6576106c6612461565b6000602082840312156124d157600080fd5b8151611440816123b2565b60008160001904831182151516156124f6576124f6612461565b500290565b808201828112600083128015821682158216171561251b5761251b612461565b505092915050565b818103600083128015838313168383128216171561254357612543612461565b5092915050565b60006020828403121561255c57600080fd5b815161144081612265565b60006020828403121561257957600080fd5b5051919050565b60008251612592818460208701612297565b919091019291505056fea2646970667358221220c0d2750c3c76375e5906431fad76d1ca1d3914e79b4aac15985463ad34115baa64736f6c63430008100033a26469706673582212200d98ace6e53f73a508869c4af4b93dbe0e7c9c6b5e3c90252f9ca38d92a2bccd64736f6c63430008100033",
  "devdoc": {
    "kind": "dev",
    "methods": {
      "paused()": {
        "details": "Returns true if the contract is paused, and false otherwise."
      }
    },
    "version": 1
  },
  "userdoc": {
    "kind": "user",
    "methods": {},
    "version": 1
  },
  "storageLayout": {
    "storage": [
      {
        "astId": 17,
        "contract": "contracts/pool/PoolFactory.sol:PoolFactory",
        "label": "_paused",
        "offset": 0,
        "slot": "0",
        "type": "t_bool"
      },
      {
        "astId": 118,
        "contract": "contracts/pool/PoolFactory.sol:PoolFactory",
        "label": "_status",
        "offset": 0,
        "slot": "1",
        "type": "t_uint256"
      },
      {
        "astId": 5011,
        "contract": "contracts/pool/PoolFactory.sol:PoolFactory",
        "label": "globals",
        "offset": 0,
        "slot": "2",
        "type": "t_contract(IHeliosGlobals)3779"
      },
      {
        "astId": 5015,
        "contract": "contracts/pool/PoolFactory.sol:PoolFactory",
        "label": "pools",
        "offset": 0,
        "slot": "3",
        "type": "t_mapping(t_string_memory_ptr,t_address)"
      },
      {
        "astId": 5019,
        "contract": "contracts/pool/PoolFactory.sol:PoolFactory",
        "label": "isPool",
        "offset": 0,
        "slot": "4",
        "type": "t_mapping(t_address,t_bool)"
      },
      {
        "astId": 5023,
        "contract": "contracts/pool/PoolFactory.sol:PoolFactory",
        "label": "poolFactoryAdmins",
        "offset": 0,
        "slot": "5",
        "type": "t_mapping(t_address,t_bool)"
      }
    ],
    "types": {
      "t_address": {
        "encoding": "inplace",
        "label": "address",
        "numberOfBytes": "20"
      },
      "t_bool": {
        "encoding": "inplace",
        "label": "bool",
        "numberOfBytes": "1"
      },
      "t_contract(IHeliosGlobals)3779": {
        "encoding": "inplace",
        "label": "contract IHeliosGlobals",
        "numberOfBytes": "20"
      },
      "t_mapping(t_address,t_bool)": {
        "encoding": "mapping",
        "key": "t_address",
        "label": "mapping(address => bool)",
        "numberOfBytes": "32",
        "value": "t_bool"
      },
      "t_mapping(t_string_memory_ptr,t_address)": {
        "encoding": "mapping",
        "key": "t_string_memory_ptr",
        "label": "mapping(string => address)",
        "numberOfBytes": "32",
        "value": "t_address"
      },
      "t_string_memory_ptr": {
        "encoding": "bytes",
        "label": "string",
        "numberOfBytes": "32"
      },
      "t_uint256": {
        "encoding": "inplace",
        "label": "uint256",
        "numberOfBytes": "32"
      }
    }
  }
}