{
  "abi": [
    {
      "inputs": [
        {
          "internalType": "address",
          "name": "_poolDelegate",
          "type": "address"
        },
        {
          "internalType": "address",
          "name": "_liquidityAsset",
          "type": "address"
        },
        {
          "internalType": "address",
          "name": "_llFactory",
          "type": "address"
        },
        {
          "internalType": "uint256",
          "name": "_lockupPeriod",
          "type": "uint256"
        },
        {
          "internalType": "uint256",
          "name": "_apy",
          "type": "uint256"
        },
        {
          "internalType": "uint256",
          "name": "_duration",
          "type": "uint256"
        },
        {
          "internalType": "uint256",
          "name": "_investmentPoolSize",
          "type": "uint256"
        },
        {
          "internalType": "uint256",
          "name": "_minInvestmentAmount",
          "type": "uint256"
        }
      ],
      "stateMutability": "nonpayable",
      "type": "constructor"
    },
    {
      "anonymous": false,
      "inputs": [
        {
          "indexed": true,
          "internalType": "address",
          "name": "owner",
          "type": "address"
        },
        {
          "indexed": true,
          "internalType": "address",
          "name": "spender",
          "type": "address"
        },
        {
          "indexed": false,
          "internalType": "uint256",
          "name": "value",
          "type": "uint256"
        }
      ],
      "name": "Approval",
      "type": "event"
    },
    {
      "anonymous": false,
      "inputs": [
        {
          "indexed": true,
          "internalType": "address",
          "name": "liquidityProvider",
          "type": "address"
        },
        {
          "indexed": true,
          "internalType": "address",
          "name": "token",
          "type": "address"
        },
        {
          "indexed": false,
          "internalType": "uint256",
          "name": "balance",
          "type": "uint256"
        }
      ],
      "name": "BalanceUpdated",
      "type": "event"
    },
    {
      "anonymous": false,
      "inputs": [
        {
          "indexed": true,
          "internalType": "address",
          "name": "borrower",
          "type": "address"
        }
      ],
      "name": "BorrowerSet",
      "type": "event"
    },
    {
      "anonymous": false,
      "inputs": [
        {
          "indexed": true,
          "internalType": "address",
          "name": "investor",
          "type": "address"
        },
        {
          "indexed": false,
          "internalType": "uint256",
          "name": "amount",
          "type": "uint256"
        }
      ],
      "name": "Deposit",
      "type": "event"
    },
    {
      "anonymous": false,
      "inputs": [
        {
          "indexed": true,
          "internalType": "address",
          "name": "borrower",
          "type": "address"
        },
        {
          "indexed": false,
          "internalType": "uint256",
          "name": "amount",
          "type": "uint256"
        },
        {
          "indexed": false,
          "internalType": "uint256",
          "name": "principalOut",
          "type": "uint256"
        }
      ],
      "name": "Drawdown",
      "type": "event"
    },
    {
      "anonymous": false,
      "inputs": [
        {
          "indexed": true,
          "internalType": "address",
          "name": "by",
          "type": "address"
        },
        {
          "indexed": false,
          "internalType": "uint256",
          "name": "fundsDistributed",
          "type": "uint256"
        }
      ],
      "name": "FundsDistributed",
      "type": "event"
    },
    {
      "anonymous": false,
      "inputs": [
        {
          "indexed": true,
          "internalType": "address",
          "name": "by",
          "type": "address"
        },
        {
          "indexed": false,
          "internalType": "uint256",
          "name": "fundsWithdrawn",
          "type": "uint256"
        },
        {
          "indexed": false,
          "internalType": "uint256",
          "name": "totalWithdrawn",
          "type": "uint256"
        }
      ],
      "name": "FundsWithdrawn",
      "type": "event"
    },
    {
      "anonymous": false,
      "inputs": [
        {
          "indexed": true,
          "internalType": "address",
          "name": "previousOwner",
          "type": "address"
        },
        {
          "indexed": true,
          "internalType": "address",
          "name": "newOwner",
          "type": "address"
        }
      ],
      "name": "OwnershipTransferred",
      "type": "event"
    },
    {
      "anonymous": false,
      "inputs": [
        {
          "indexed": false,
          "internalType": "address",
          "name": "account",
          "type": "address"
        }
      ],
      "name": "Paused",
      "type": "event"
    },
    {
      "anonymous": false,
      "inputs": [
        {
          "indexed": true,
          "internalType": "address",
          "name": "borrower",
          "type": "address"
        },
        {
          "indexed": false,
          "internalType": "uint256",
          "name": "amount",
          "type": "uint256"
        },
        {
          "indexed": false,
          "internalType": "uint256",
          "name": "principalOut",
          "type": "uint256"
        }
      ],
      "name": "Payment",
      "type": "event"
    },
    {
      "anonymous": false,
      "inputs": [
        {
          "indexed": true,
          "internalType": "address",
          "name": "recipient",
          "type": "address"
        },
        {
          "indexed": false,
          "internalType": "uint256",
          "name": "amount",
          "type": "uint256"
        }
      ],
      "name": "PendingReward",
      "type": "event"
    },
    {
      "anonymous": false,
      "inputs": [
        {
          "indexed": true,
          "internalType": "address",
          "name": "recipient",
          "type": "address"
        },
        {
          "indexed": false,
          "internalType": "uint256",
          "name": "amount",
          "type": "uint256"
        }
      ],
      "name": "PendingRewardConcluded",
      "type": "event"
    },
    {
      "anonymous": false,
      "inputs": [
        {
          "indexed": true,
          "internalType": "address",
          "name": "investor",
          "type": "address"
        },
        {
          "indexed": false,
          "internalType": "uint256",
          "name": "amount",
          "type": "uint256"
        }
      ],
      "name": "PendingWithdrawal",
      "type": "event"
    },
    {
      "anonymous": false,
      "inputs": [
        {
          "indexed": true,
          "internalType": "address",
          "name": "investor",
          "type": "address"
        },
        {
          "indexed": false,
          "internalType": "uint256",
          "name": "amount",
          "type": "uint256"
        }
      ],
      "name": "PendingWithdrawalConcluded",
      "type": "event"
    },
    {
      "anonymous": false,
      "inputs": [
        {
          "indexed": true,
          "internalType": "address",
          "name": "account",
          "type": "address"
        },
        {
          "indexed": false,
          "internalType": "int256",
          "name": "pointsCorrection",
          "type": "int256"
        }
      ],
      "name": "PointsCorrectionUpdated",
      "type": "event"
    },
    {
      "anonymous": false,
      "inputs": [
        {
          "indexed": false,
          "internalType": "uint256",
          "name": "pointsPerShare",
          "type": "uint256"
        }
      ],
      "name": "PointsPerShareUpdated",
      "type": "event"
    },
    {
      "anonymous": false,
      "inputs": [
        {
          "indexed": true,
          "internalType": "address",
          "name": "poolAdmin",
          "type": "address"
        },
        {
          "indexed": false,
          "internalType": "bool",
          "name": "allowed",
          "type": "bool"
        }
      ],
      "name": "PoolAdminSet",
      "type": "event"
    },
    {
      "anonymous": false,
      "inputs": [
        {
          "indexed": false,
          "internalType": "enum Pool.State",
          "name": "state",
          "type": "uint8"
        }
      ],
      "name": "PoolStateChanged",
      "type": "event"
    },
    {
      "anonymous": false,
      "inputs": [
        {
          "indexed": true,
          "internalType": "address",
          "name": "recipient",
          "type": "address"
        },
        {
          "indexed": false,
          "internalType": "uint256",
          "name": "amount",
          "type": "uint256"
        }
      ],
      "name": "RewardClaimed",
      "type": "event"
    },
    {
      "anonymous": false,
      "inputs": [
        {
          "indexed": true,
          "internalType": "address",
          "name": "from",
          "type": "address"
        },
        {
          "indexed": true,
          "internalType": "address",
          "name": "to",
          "type": "address"
        },
        {
          "indexed": false,
          "internalType": "uint256",
          "name": "value",
          "type": "uint256"
        }
      ],
      "name": "Transfer",
      "type": "event"
    },
    {
      "anonymous": false,
      "inputs": [
        {
          "indexed": false,
          "internalType": "address",
          "name": "account",
          "type": "address"
        }
      ],
      "name": "Unpaused",
      "type": "event"
    },
    {
      "anonymous": false,
      "inputs": [
        {
          "indexed": true,
          "internalType": "address",
          "name": "investor",
          "type": "address"
        },
        {
          "indexed": false,
          "internalType": "uint256",
          "name": "amount",
          "type": "uint256"
        }
      ],
      "name": "Withdrawal",
      "type": "event"
    },
    {
      "inputs": [
        {
          "internalType": "address",
          "name": "owner",
          "type": "address"
        }
      ],
      "name": "accumulativeFundsOf",
      "outputs": [
        {
          "internalType": "uint256",
          "name": "",
          "type": "uint256"
        }
      ],
      "stateMutability": "view",
      "type": "function"
    },
    {
      "inputs": [
        {
          "internalType": "address",
          "name": "owner",
          "type": "address"
        },
        {
          "internalType": "address",
          "name": "spender",
          "type": "address"
        }
      ],
      "name": "allowance",
      "outputs": [
        {
          "internalType": "uint256",
          "name": "",
          "type": "uint256"
        }
      ],
      "stateMutability": "view",
      "type": "function"
    },
    {
      "inputs": [
        {
          "internalType": "address",
          "name": "spender",
          "type": "address"
        },
        {
          "internalType": "uint256",
          "name": "amount",
          "type": "uint256"
        }
      ],
      "name": "approve",
      "outputs": [
        {
          "internalType": "bool",
          "name": "",
          "type": "bool"
        }
      ],
      "stateMutability": "nonpayable",
      "type": "function"
    },
    {
      "inputs": [
        {
          "internalType": "address",
          "name": "account",
          "type": "address"
        }
      ],
      "name": "balanceOf",
      "outputs": [
        {
          "internalType": "uint256",
          "name": "",
          "type": "uint256"
        }
      ],
      "stateMutability": "view",
      "type": "function"
    },
    {
      "inputs": [],
      "name": "blendedPool",
      "outputs": [
        {
          "internalType": "contract BlendedPool",
          "name": "",
          "type": "address"
        }
      ],
      "stateMutability": "view",
      "type": "function"
    },
    {
      "inputs": [],
      "name": "borrower",
      "outputs": [
        {
          "internalType": "address",
          "name": "",
          "type": "address"
        }
      ],
      "stateMutability": "view",
      "type": "function"
    },
    {
      "inputs": [
        {
          "internalType": "uint256",
          "name": "amount",
          "type": "uint256"
        }
      ],
      "name": "canWithdraw",
      "outputs": [
        {
          "internalType": "bool",
          "name": "",
          "type": "bool"
        }
      ],
      "stateMutability": "view",
      "type": "function"
    },
    {
      "inputs": [],
      "name": "claimReward",
      "outputs": [
        {
          "internalType": "bool",
          "name": "",
          "type": "bool"
        }
      ],
      "stateMutability": "nonpayable",
      "type": "function"
    },
    {
      "inputs": [
        {
          "internalType": "address",
          "name": "_recipient",
          "type": "address"
        }
      ],
      "name": "concludePendingReward",
      "outputs": [],
      "stateMutability": "nonpayable",
      "type": "function"
    },
    {
      "inputs": [
        {
          "internalType": "address",
          "name": "_recipient",
          "type": "address"
        }
      ],
      "name": "concludePendingWithdrawal",
      "outputs": [],
      "stateMutability": "nonpayable",
      "type": "function"
    },
    {
      "inputs": [],
      "name": "deactivate",
      "outputs": [],
      "stateMutability": "nonpayable",
      "type": "function"
    },
    {
      "inputs": [],
      "name": "decimals",
      "outputs": [
        {
          "internalType": "uint8",
          "name": "",
          "type": "uint8"
        }
      ],
      "stateMutability": "view",
      "type": "function"
    },
    {
      "inputs": [
        {
          "internalType": "address",
          "name": "spender",
          "type": "address"
        },
        {
          "internalType": "uint256",
          "name": "subtractedValue",
          "type": "uint256"
        }
      ],
      "name": "decreaseAllowance",
      "outputs": [
        {
          "internalType": "bool",
          "name": "",
          "type": "bool"
        }
      ],
      "stateMutability": "nonpayable",
      "type": "function"
    },
    {
      "inputs": [
        {
          "internalType": "uint256",
          "name": "_amount",
          "type": "uint256"
        }
      ],
      "name": "deposit",
      "outputs": [],
      "stateMutability": "nonpayable",
      "type": "function"
    },
    {
      "inputs": [
        {
          "internalType": "address",
          "name": "",
          "type": "address"
        }
      ],
      "name": "depositDate",
      "outputs": [
        {
          "internalType": "uint256",
          "name": "",
          "type": "uint256"
        }
      ],
      "stateMutability": "view",
      "type": "function"
    },
    {
      "inputs": [
        {
          "internalType": "uint256",
          "name": "_amount",
          "type": "uint256"
        },
        {
          "internalType": "address[]",
          "name": "_holders",
          "type": "address[]"
        }
      ],
      "name": "distributeRewards",
      "outputs": [],
      "stateMutability": "nonpayable",
      "type": "function"
    },
    {
      "inputs": [
        {
          "internalType": "uint256",
          "name": "amount",
          "type": "uint256"
        }
      ],
      "name": "drawdown",
      "outputs": [],
      "stateMutability": "nonpayable",
      "type": "function"
    },
    {
      "inputs": [],
      "name": "drawdownAmount",
      "outputs": [
        {
          "internalType": "uint256",
          "name": "",
          "type": "uint256"
        }
      ],
      "stateMutability": "view",
      "type": "function"
    },
    {
      "inputs": [],
      "name": "finalize",
      "outputs": [],
      "stateMutability": "nonpayable",
      "type": "function"
    },
    {
      "inputs": [
        {
          "internalType": "address",
          "name": "spender",
          "type": "address"
        },
        {
          "internalType": "uint256",
          "name": "addedValue",
          "type": "uint256"
        }
      ],
      "name": "increaseAllowance",
      "outputs": [
        {
          "internalType": "bool",
          "name": "",
          "type": "bool"
        }
      ],
      "stateMutability": "nonpayable",
      "type": "function"
    },
    {
      "inputs": [],
      "name": "interestBalance",
      "outputs": [
        {
          "internalType": "uint256",
          "name": "",
          "type": "uint256"
        }
      ],
      "stateMutability": "view",
      "type": "function"
    },
    {
      "inputs": [],
      "name": "interestSum",
      "outputs": [
        {
          "internalType": "uint256",
          "name": "",
          "type": "uint256"
        }
      ],
      "stateMutability": "view",
      "type": "function"
    },
    {
      "inputs": [],
      "name": "liquidityAsset",
      "outputs": [
        {
          "internalType": "contract IERC20",
          "name": "",
          "type": "address"
        }
      ],
      "stateMutability": "view",
      "type": "function"
    },
    {
      "inputs": [],
      "name": "liquidityLocker",
      "outputs": [
        {
          "internalType": "contract ILiquidityLocker",
          "name": "",
          "type": "address"
        }
      ],
      "stateMutability": "view",
      "type": "function"
    },
    {
      "inputs": [
        {
          "internalType": "uint256",
          "name": "principalClaim",
          "type": "uint256"
        }
      ],
      "name": "makePayment",
      "outputs": [],
      "stateMutability": "nonpayable",
      "type": "function"
    },
    {
      "inputs": [],
      "name": "name",
      "outputs": [
        {
          "internalType": "string",
          "name": "",
          "type": "string"
        }
      ],
      "stateMutability": "view",
      "type": "function"
    },
    {
      "inputs": [],
      "name": "owner",
      "outputs": [
        {
          "internalType": "address",
          "name": "",
          "type": "address"
        }
      ],
      "stateMutability": "view",
      "type": "function"
    },
    {
      "inputs": [],
      "name": "paused",
      "outputs": [
        {
          "internalType": "bool",
          "name": "",
          "type": "bool"
        }
      ],
      "stateMutability": "view",
      "type": "function"
    },
    {
      "inputs": [
        {
          "internalType": "address",
          "name": "",
          "type": "address"
        }
      ],
      "name": "pendingRewards",
      "outputs": [
        {
          "internalType": "uint256",
          "name": "",
          "type": "uint256"
        }
      ],
      "stateMutability": "view",
      "type": "function"
    },
    {
      "inputs": [
        {
          "internalType": "address",
          "name": "",
          "type": "address"
        }
      ],
      "name": "pendingWithdrawals",
      "outputs": [
        {
          "internalType": "uint256",
          "name": "",
          "type": "uint256"
        }
      ],
      "stateMutability": "view",
      "type": "function"
    },
    {
      "inputs": [
        {
          "internalType": "address",
          "name": "",
          "type": "address"
        }
      ],
      "name": "poolAdmins",
      "outputs": [
        {
          "internalType": "bool",
          "name": "",
          "type": "bool"
        }
      ],
      "stateMutability": "view",
      "type": "function"
    },
    {
      "inputs": [],
      "name": "poolDelegate",
      "outputs": [
        {
          "internalType": "address",
          "name": "",
          "type": "address"
        }
      ],
      "stateMutability": "view",
      "type": "function"
    },
    {
      "inputs": [],
      "name": "poolInfo",
      "outputs": [
        {
          "internalType": "uint256",
          "name": "lockupPeriod",
          "type": "uint256"
        },
        {
          "internalType": "uint256",
          "name": "apy",
          "type": "uint256"
        },
        {
          "internalType": "uint256",
          "name": "duration",
          "type": "uint256"
        },
        {
          "internalType": "uint256",
          "name": "investmentPoolSize",
          "type": "uint256"
        },
        {
          "internalType": "uint256",
          "name": "minInvestmentAmount",
          "type": "uint256"
        }
      ],
      "stateMutability": "view",
      "type": "function"
    },
    {
      "inputs": [],
      "name": "poolState",
      "outputs": [
        {
          "internalType": "enum Pool.State",
          "name": "",
          "type": "uint8"
        }
      ],
      "stateMutability": "view",
      "type": "function"
    },
    {
      "inputs": [],
      "name": "principalOut",
      "outputs": [
        {
          "internalType": "uint256",
          "name": "",
          "type": "uint256"
        }
      ],
      "stateMutability": "view",
      "type": "function"
    },
    {
      "inputs": [],
      "name": "renounceOwnership",
      "outputs": [],
      "stateMutability": "nonpayable",
      "type": "function"
    },
    {
      "inputs": [
        {
          "internalType": "address",
          "name": "",
          "type": "address"
        }
      ],
      "name": "rewards",
      "outputs": [
        {
          "internalType": "uint256",
          "name": "",
          "type": "uint256"
        }
      ],
      "stateMutability": "view",
      "type": "function"
    },
    {
      "inputs": [
        {
          "internalType": "address",
          "name": "_blendedPool",
          "type": "address"
        }
      ],
      "name": "setBlendedPool",
      "outputs": [],
      "stateMutability": "nonpayable",
      "type": "function"
    },
    {
      "inputs": [
        {
          "internalType": "address",
          "name": "_borrower",
          "type": "address"
        }
      ],
      "name": "setBorrower",
      "outputs": [],
      "stateMutability": "nonpayable",
      "type": "function"
    },
    {
      "inputs": [
        {
          "internalType": "address",
          "name": "poolAdmin",
          "type": "address"
        },
        {
          "internalType": "bool",
          "name": "allowed",
          "type": "bool"
        }
      ],
      "name": "setPoolAdmin",
      "outputs": [],
      "stateMutability": "nonpayable",
      "type": "function"
    },
    {
      "inputs": [],
      "name": "superFactory",
      "outputs": [
        {
          "internalType": "address",
          "name": "",
          "type": "address"
        }
      ],
      "stateMutability": "view",
      "type": "function"
    },
    {
      "inputs": [],
      "name": "symbol",
      "outputs": [
        {
          "internalType": "string",
          "name": "",
          "type": "string"
        }
      ],
      "stateMutability": "view",
      "type": "function"
    },
    {
      "inputs": [],
      "name": "totalDeposited",
      "outputs": [
        {
          "internalType": "uint256",
          "name": "",
          "type": "uint256"
        }
      ],
      "stateMutability": "view",
      "type": "function"
    },
    {
      "inputs": [
        {
          "internalType": "address",
          "name": "owner",
          "type": "address"
        }
      ],
      "name": "totalMintedFor",
      "outputs": [
        {
          "internalType": "uint256",
          "name": "",
          "type": "uint256"
        }
      ],
      "stateMutability": "view",
      "type": "function"
    },
    {
      "inputs": [],
      "name": "totalSupply",
      "outputs": [
        {
          "internalType": "uint256",
          "name": "",
          "type": "uint256"
        }
      ],
      "stateMutability": "view",
      "type": "function"
    },
    {
      "inputs": [
        {
          "internalType": "address",
          "name": "to",
          "type": "address"
        },
        {
          "internalType": "uint256",
          "name": "amount",
          "type": "uint256"
        }
      ],
      "name": "transfer",
      "outputs": [
        {
          "internalType": "bool",
          "name": "",
          "type": "bool"
        }
      ],
      "stateMutability": "nonpayable",
      "type": "function"
    },
    {
      "inputs": [
        {
          "internalType": "address",
          "name": "from",
          "type": "address"
        },
        {
          "internalType": "address",
          "name": "to",
          "type": "address"
        },
        {
          "internalType": "uint256",
          "name": "amount",
          "type": "uint256"
        }
      ],
      "name": "transferFrom",
      "outputs": [
        {
          "internalType": "bool",
          "name": "",
          "type": "bool"
        }
      ],
      "stateMutability": "nonpayable",
      "type": "function"
    },
    {
      "inputs": [
        {
          "internalType": "address",
          "name": "newOwner",
          "type": "address"
        }
      ],
      "name": "transferOwnership",
      "outputs": [],
      "stateMutability": "nonpayable",
      "type": "function"
    },
    {
      "inputs": [],
      "name": "updateFundsReceived",
      "outputs": [],
      "stateMutability": "nonpayable",
      "type": "function"
    },
    {
      "inputs": [
        {
          "internalType": "uint256",
          "name": "_amount",
          "type": "uint256"
        }
      ],
      "name": "withdraw",
      "outputs": [
        {
          "internalType": "bool",
          "name": "",
          "type": "bool"
        }
      ],
      "stateMutability": "nonpayable",
      "type": "function"
    },
    {
      "inputs": [],
      "name": "withdrawFunds",
      "outputs": [],
      "stateMutability": "nonpayable",
      "type": "function"
    },
    {
      "inputs": [
        {
          "internalType": "uint256",
          "name": "amount",
          "type": "uint256"
        }
      ],
      "name": "withdrawFundsAmount",
      "outputs": [],
      "stateMutability": "nonpayable",
      "type": "function"
    },
    {
      "inputs": [
        {
          "internalType": "address",
          "name": "owner",
          "type": "address"
        }
      ],
      "name": "withdrawableFundsOf",
      "outputs": [
        {
          "internalType": "uint256",
          "name": "",
          "type": "uint256"
        }
      ],
      "stateMutability": "view",
      "type": "function"
    },
    {
      "inputs": [
        {
          "internalType": "address",
          "name": "_holder",
          "type": "address"
        }
      ],
      "name": "withdrawableOf",
      "outputs": [
        {
          "internalType": "uint256",
          "name": "",
          "type": "uint256"
        }
      ],
      "stateMutability": "view",
      "type": "function"
    },
    {
      "inputs": [
        {
          "internalType": "address",
          "name": "owner",
          "type": "address"
        }
      ],
      "name": "withdrawnFundsOf",
      "outputs": [
        {
          "internalType": "uint256",
          "name": "",
          "type": "uint256"
        }
      ],
      "stateMutability": "view",
      "type": "function"
    }
  ],
  "bytecode": {
    "object": "0x6101206040523480156200001257600080fd5b5060405162003c6838038062003c688339810160408190526200003591620004c8565b86866040518060400160405280600f81526020016e12195b1a5bdcc81512d388141bdbdb608a1b815250604051806040016040528060058152602001640484c532d560dc1b8152508181818181818160039081620000949190620005f1565b506004620000a38282620005f1565b505060016005555050600d805460ff1916905550620000c69150339050620003e8565b6001600160a01b03841660a08190526040805163313ce56760e01b8152905163313ce567916004808201926020929091908290030181865afa15801562000111573d6000803e3d6000fd5b505050506040513d601f19601f82011682018060405250810190620001379190620006bd565b60ff1660c052604051630cf5bc1d60e11b81526001600160a01b0385811660048301528416906319eb783a906024016020604051808303816000875af115801562000186573d6000803e3d6000fd5b505050506040513d601f19601f82011682018060405250810190620001ac9190620006e9565b6001600160a01b039081166080528b16935062000207925050505760405162461bcd60e51b815260206004820152601060248201526f140e96915493d7d3125457d054d4d15560821b60448201526064015b60405180910390fd5b6001600160a01b038816620002515760405162461bcd60e51b815260206004820152600f60248201526e503a5a45524f5f504f4f4c5f444c4760881b6044820152606401620001fe565b6001600160a01b038616620002a95760405162461bcd60e51b815260206004820152601960248201527f503a5a45524f5f4c49515f4c4f434b45525f464143544f5259000000000000006044820152606401620001fe565b3360e08190526001600160a01b038916610100526019805460ff60a01b19169055620002d59062000442565b60405163434a88c560e11b81526001600160a01b0389811660048301529190911690638695118a90602401602060405180830381865afa1580156200031e573d6000803e3d6000fd5b505050506040513d601f19601f8201168201806040525081019062000344919062000709565b620003925760405162461bcd60e51b815260206004820152601360248201527f503a494e56414c49445f4c49515f4153534554000000000000000000000000006044820152606401620001fe565b7f24b0afb747a8213aea796b9518bfa667de187b83390eda7cc93b8e57f80fcd1a601960149054906101000a900460ff16604051620003d291906200072d565b60405180910390a1505050505050505062000756565b600d80546001600160a01b03838116610100818102610100600160a81b031985161790945560405193909204169182907f8be0079c531659141344cd1fd0a4f28419497f9722a3daafe3b4186f6b6457e090600090a35050565b6000816001600160a01b031663c31245256040518163ffffffff1660e01b8152600401602060405180830381865afa15801562000483573d6000803e3d6000fd5b505050506040513d601f19601f82011682018060405250810190620004a99190620006e9565b92915050565b6001600160a01b0381168114620004c557600080fd5b50565b600080600080600080600080610100898b031215620004e657600080fd5b8851620004f381620004af565b60208a01519098506200050681620004af565b60408a01519097506200051981620004af565b60608a015160808b015160a08c015160c08d015160e0909d01519b9e9a9d50929b919a9099929850909650945092505050565b634e487b7160e01b600052604160045260246000fd5b600181811c908216806200057757607f821691505b6020821081036200059857634e487b7160e01b600052602260045260246000fd5b50919050565b601f821115620005ec57600081815260208120601f850160051c81016020861015620005c75750805b601f850160051c820191505b81811015620005e857828155600101620005d3565b5050505b505050565b81516001600160401b038111156200060d576200060d6200054c565b62000625816200061e845462000562565b846200059e565b602080601f8311600181146200065d5760008415620006445750858301515b600019600386901b1c1916600185901b178555620005e8565b600085815260208120601f198616915b828110156200068e578886015182559484019460019091019084016200066d565b5085821015620006ad5787850151600019600388901b60f8161c191681555b5050505050600190811b01905550565b600060208284031215620006d057600080fd5b815160ff81168114620006e257600080fd5b9392505050565b600060208284031215620006fc57600080fd5b8151620006e281620004af565b6000602082840312156200071c57600080fd5b81518015158114620006e257600080fd5b60208101600383106200075057634e487b7160e01b600052602160045260246000fd5b91905290565b60805160a05160c05160e0516101005161344f620008196000396000818161055501526123b20152600081816103fa0152611eeb015260006104f3015260008181610469015281816114aa01528181611ad90152818161204f015281816124eb0152612e0f0152600081816106e101528181610a7b01528181610c5901528181610f8101528181611112015281816114cd0152818161154a01528181611aad01528181611fd701528181612079015281816120c40152612de4015261344f6000f3fe608060405234801561001057600080fd5b506004361061035c5760003560e01c8063641ad8a9116101d3578063a81b354511610104578063dd62ed3e116100a2578063fa8c00d41161007c578063fa8c00d4146107e8578063fbe85f06146107fb578063fe84967e1461080e578063ff50abdc1461083757600080fd5b8063dd62ed3e146107a2578063f2fde38b146107b5578063f3f43703146107c857600080fd5b8063b6b55f25116100de578063b6b55f2514610761578063b88a802f14610774578063c762d5f71461077c578063d16987f91461078f57600080fd5b8063a81b354514610732578063a9059cbb14610745578063ac6416551461075857600080fd5b80639185192a116101715780639759164a1161014b5780639759164a146106dc5780639f3c732514610703578063a079a4dd1461070c578063a457c2d71461071f57600080fd5b80639185192a146106ae5780639264fd53146106c157806395d89b41146106d457600080fd5b8063715018a6116101ad578063715018a61461067557806373e835ee1461067d5780637df1f1b9146106855780638da5cb5b1461069857600080fd5b8063641ad8a91461063857806370a082311461065957806371073bac1461066c57600080fd5b80632e1a7d4d116102ad5780634bb278f31161024b57806351b42b001161022557806351b42b00146105c05780635a2f3d09146105c85780635c975abb1461060a578063613384f21461061557600080fd5b80634bb278f3146105925780634e97415f1461059a5780635114cb52146105ad57600080fd5b80633950935111610287578063395093511461053d5780634046af2b14610550578063443bb2931461057757806346c162de1461058a57600080fd5b80632e1a7d4d146104d9578063313ce567146104ec57806331d7a2621461051d57600080fd5b80631aa595421161031a57806323b872dd116102f457806323b872dd1461048b57806324600fc31461049e57806324b92e8e146104a65780632dfbf503146104c657600080fd5b80631aa595421461043c5780631e0a596714610451578063209b2bca1461046457600080fd5b806241c52c1461036157806306fdde031461039d5780630700037d146103b2578063095ea7b3146103d25780630d49b38c146103f557806318160ddd14610434575b600080fd5b61038a61036f366004613021565b6001600160a01b031660009081526009602052604090205490565b6040519081526020015b60405180910390f35b6103a561083f565b6040516103949190613062565b61038a6103c0366004613021565b600e6020526000908152604090205481565b6103e56103e0366004613095565b6108d1565b6040519015158152602001610394565b61041c7f000000000000000000000000000000000000000000000000000000000000000081565b6040516001600160a01b039091168152602001610394565b60025461038a565b61044f61044a3660046130c1565b6108eb565b005b61044f61045f366004613021565b610a39565b61041c7f000000000000000000000000000000000000000000000000000000000000000081565b6103e5610499366004613140565b610b8d565b61044f600080fd5b61038a6104b4366004613021565b60116020526000908152604090205481565b60175461041c906001600160a01b031681565b6103e56104e7366004613181565b610bb5565b60405160ff7f0000000000000000000000000000000000000000000000000000000000000000168152602001610394565b61038a61052b366004613021565b60106020526000908152604090205481565b6103e561054b366004613095565b610d91565b61041c7f000000000000000000000000000000000000000000000000000000000000000081565b61038a610585366004613021565b610db3565b61044f610ddf565b61044f610e0a565b61038a6105a8366004613021565b610e7f565b61044f6105bb366004613181565b610edc565b61044f611006565b6012546013546014546015546016546105e2949392919085565b604080519586526020860194909452928401919091526060830152608082015260a001610394565b600d5460ff166103e5565b6103e5610623366004613021565b601a6020526000908152604090205460ff1681565b60195461064c90600160a01b900460ff1681565b60405161039491906131b0565b61038a610667366004613021565b611032565b61038a600b5481565b61044f61104d565b61038a611061565b60195461041c906001600160a01b031681565b600d5461010090046001600160a01b031661041c565b61044f6106bc3660046131e6565b611070565b61044f6106cf366004613021565b6110d0565b6103a5611218565b61041c7f000000000000000000000000000000000000000000000000000000000000000081565b61038a600c5481565b61044f61071a366004613181565b611227565b6103e561072d366004613095565b61137d565b61044f610740366004613021565b6113f8565b6103e5610753366004613095565b611422565b61038a60185481565b61044f61076f366004613181565b611430565b6103e5611536565b61044f61078a366004613021565b611871565b61044f61079d366004613181565b61190b565b61038a6107b036600461321f565b6119ae565b61044f6107c3366004613021565b6119d9565b61038a6107d6366004613021565b600f6020526000908152604090205481565b61038a6107f6366004613021565b611a4f565b6103e5610809366004613181565b611b54565b61038a61081c366004613021565b6001600160a01b03166000908152600a602052604090205490565b60075461038a565b60606003805461084e9061324d565b80601f016020809104026020016040519081016040528092919081815260200182805461087a9061324d565b80156108c75780601f1061089c576101008083540402835291602001916108c7565b820191906000526020600020905b8154815290600101906020018083116108aa57829003601f168201915b5050505050905090565b6000336108df818585611b68565b60019150505b92915050565b6108f3611c8c565b6108fb611cec565b6000831161093f5760405162461bcd60e51b815260206004820152600c60248201526b503a5a45524f5f434c41494d60a01b60448201526064015b60405180910390fd5b8061097d5760405162461bcd60e51b815260206004820152600e60248201526d503a5a45524f5f484f4c4445525360901b6044820152606401610936565b60005b81811015610a2957600083838381811061099c5761099c613287565b90506020020160208101906109b19190613021565b905060006109be82611032565b905060006109cb60025490565b6109d583896132b3565b6109df91906132d2565b6001600160a01b0384166000908152600e6020526040812080549293508392909190610a0c9084906132f4565b925050819055505050508080610a2190613307565b915050610980565b50610a346001600555565b505050565b610a41611c8c565b6001600160a01b038181166000818152600f60205260409081902054905163a9059cbb60e01b8152600481019290925260248201819052917f0000000000000000000000000000000000000000000000000000000000000000169063a9059cbb906044016020604051808303816000875af1158015610ac4573d6000803e3d6000fd5b505050506040513d601f19601f82011682018060405250810190610ae89190613320565b610b345760405162461bcd60e51b815260206004820152601c60248201527f503a434f4e434c5544455f5749544844524157414c5f4641494c4544000000006044820152606401610936565b6001600160a01b0382166000818152600f602052604080822091909155517f2687ab3014fc32ee1bbb5acb4d4879d56644ad540a426c06d7deaa8f127b232390610b819084815260200190565b60405180910390a25050565b600033610b9b858285611d45565b610ba6858585611dbf565b506001949350505050565b5050565b6000610bbf612181565b81610bc933611032565b1015610c105760405162461bcd60e51b8152602060048201526016602482015275503a494e53554646494349454e545f42414c414e434560501b6044820152606401610936565b601254336000908152601160205260409020544291610c2e916132f4565b1115610c4c5760405162461bcd60e51b81526004016109369061333d565b610c5633836121c7565b817f00000000000000000000000000000000000000000000000000000000000000006001600160a01b031663ad7a672f6040518163ffffffff1660e01b8152600401602060405180830381865afa158015610cb5573d6000803e3d6000fd5b505050506040513d601f19601f82011682018060405250810190610cd99190613365565b1015610d4057336000908152600f602052604081208054849290610cfe9084906132f4565b909155505060405182815233907f39d9cf4ffb93650d8ce789639cb8cf3c8d7b039e1f9795c038af55b4ae643fca9060200160405180910390a2506000919050565b610d4a3383611fae565b50610d5361204d565b60405182815233907f7fcf532c15f0a6db0bd6d0e038bea71d30d808c7d98cb3bf7268a95bf5081b659060200160405180910390a25060015b919050565b6000336108df818585610da483836119ae565b610dae91906132f4565b611b68565b6001600160a01b0381166000908152600960205260408120546108e590610dd984610e7f565b90612157565b6000610de9612163565b905060008113610df65750565b610e07610e028261226b565b6122ab565b50565b610e126123a7565b610e1c6000612413565b601980546001919060ff60a01b1916600160a01b835b02179055507f24b0afb747a8213aea796b9518bfa667de187b83390eda7cc93b8e57f80fcd1a601960149054906101000a900460ff16604051610e7591906131b0565b60405180910390a1565b6001600160a01b038116600090815260086020526040812054670de0b6b3a764000090610ed290610ecd90610ec7610ec2610eb988611032565b6006549061247e565b61248a565b906124c6565b61226b565b6108e591906132d2565b6019546001600160a01b03163314610f275760405162461bcd60e51b815260206004820152600e60248201526d281d2727aa2fa127a92927aba2a960911b6044820152606401610936565b610f2f611cec565b60006018548211610f505781601854610f48919061337e565b601855610f6b565b601854610f5d908361337e565b601880546000909155925090505b600b54610f7890826124d2565b600b55610faf337f0000000000000000000000000000000000000000000000000000000000000000610faa85856124d2565b6124de565b610fb7610ddf565b600b5460405133917f9643c1b5b172b26d5f028be7fe646349bd5e3cd9367bb18f9e825afa828b7d9391610ff391868252602082015260400190565b60405180910390a250610e076001600555565b61100e6123a7565b6110186001612413565b601980546002919060ff60a01b1916600160a01b83610e32565b6001600160a01b031660009081526020819052604090205490565b611055611c8c565b61105f6000612513565b565b600061106b61256d565b905090565b6110786123a7565b6001600160a01b0382166000818152601a6020908152604091829020805460ff191685151590811790915591519182527f353578bbc0ab907b7018b0f7b50b5f822d31dc9fcf4c16fffa780e109ca7c9309101610b81565b6110d8611c8c565b6001600160a01b038181166000818152601060205260409081902054905163a9059cbb60e01b8152600481019290925260248201819052917f0000000000000000000000000000000000000000000000000000000000000000169063a9059cbb906044016020604051808303816000875af115801561115b573d6000803e3d6000fd5b505050506040513d601f19601f8201168201806040525081019061117f9190613320565b6111cb5760405162461bcd60e51b815260206004820152601860248201527f503a434f4e434c5544455f5245574152445f4641494c454400000000000000006044820152606401610936565b6001600160a01b03821660008181526010602052604080822091909155517f3c7e767b6741d1e3a8f90a3c95937bb07453eaf2dfee591a5a308f04f498e8b890610b819084815260200190565b60606004805461084e9061324d565b6019546001600160a01b031633146112725760405162461bcd60e51b815260206004820152600e60248201526d281d2727aa2fa127a92927aba2a960911b6044820152606401610936565b61127a611cec565b600081116112bd5760405162461bcd60e51b815260206004820152601060248201526f140e9253959053125117d05353d5539560821b6044820152606401610936565b6112c561256d565b8111156113145760405162461bcd60e51b815260206004820152601b60248201527f503a494e53554646494349454e545f544f54414c5f535550504c5900000000006044820152606401610936565b60185461132190826124d2565b60185561132e3382611fae565b5060185460405133917feb82ce5153cfaaf31e19ab47dcbb1d8b7243fc661b67f650fef772e2fe396f4c9161136b91858252602082015260400190565b60405180910390a2610e076001600555565b6000338161138b82866119ae565b9050838110156113eb5760405162461bcd60e51b815260206004820152602560248201527f45524332303a2064656372656173656420616c6c6f77616e63652062656c6f77604482015264207a65726f60d81b6064820152608401610936565b610ba68286868403611b68565b611400611c8c565b601780546001600160a01b0319166001600160a01b0392909216919091179055565b6000336108df818585611dbf565b611438612181565b611440611cec565b6016548110156114885760405162461bcd60e51b8152602060048201526013602482015272281d2222a82fa0a6aa2fa122a627abafa6a4a760691b6044820152606401610936565b61149d601161149633611032565b8333612585565b6114f26001600160a01b037f000000000000000000000000000000000000000000000000000000000000000016337f000000000000000000000000000000000000000000000000000000000000000084612635565b6114fc338261268f565b61150461204d565b60405181815233907fe1fffcc4923d04b559f4d29a8bfc6cda04eb5b0d3c460751c2402c5c5cc9109c9060200161136b565b336000908152600e602052604081205460007f00000000000000000000000000000000000000000000000000000000000000006001600160a01b031663ad7a672f6040518163ffffffff1660e01b8152600401602060405180830381865afa1580156115a6573d6000803e3d6000fd5b505050506040513d601f19601f820116820180604052508101906115ca9190613365565b336000908152600e60205260408120559050818110156117dd5760006115f0828461337e565b905080601760009054906101000a90046001600160a01b03166001600160a01b03166342103e8e6040518163ffffffff1660e01b8152600401602060405180830381865afa158015611646573d6000803e3d6000fd5b505050506040513d601f19601f8201168201806040525081019061166a9190613365565b10156116d357336000908152601060205260408120805485929061168f9084906132f4565b909155505060405183815233907f19adda954c72f22df5078ae925d620d455e095989b72be2f895e10473b5379779060200160405180910390a26000935050505090565b601754604051633d2332c160e21b8152600481018390526001600160a01b039091169063f48ccb0490602401600060405180830381600087803b15801561171957600080fd5b505af115801561172d573d6000803e3d6000fd5b505060175461174892506001600160a01b031690508261268f565b6117523384611fae565b61179e5760405162461bcd60e51b815260206004820152601b60248201527f503a4552524f525f5452414e5346455252494e475f52455741524400000000006044820152606401610936565b60405183815233907f106f923f993c2149d49b4255ff723acafa1f2d94393f561d3eda32ae348f72419060200160405180910390a26001935050505090565b6117e73383611fae565b6118335760405162461bcd60e51b815260206004820152601b60248201527f503a4552524f525f5452414e5346455252494e475f52455741524400000000006044820152606401610936565b60405182815233907f106f923f993c2149d49b4255ff723acafa1f2d94393f561d3eda32ae348f72419060200160405180910390a260019250505090565b6001600160a01b0381166118b95760405162461bcd60e51b815260206004820152600f60248201526e281d2d22a927afa127a92927aba2a960891b6044820152606401610936565b6118c16123a7565b601980546001600160a01b0319166001600160a01b0383169081179091556040517f47746d41e99a865bf52730f5e1401445396e9025e37301a8f7f720896ee3f30390600090a250565b611913611ee6565b600061191e8261271c565b90508082111561197a5760405162461bcd60e51b815260206004820152602160248201527f503a494e53554646494349454e545f574954484452415741424c455f46554e446044820152605360f81b6064820152608401610936565b80611983575050565b61198d3383611fae565b5061199661204d565b600b546119a39083612157565b600b55610a34612163565b6001600160a01b03918216600090815260016020908152604080832093909416825291909152205490565b6119e1611c8c565b6001600160a01b038116611a465760405162461bcd60e51b815260206004820152602660248201527f4f776e61626c653a206e6577206f776e657220697320746865207a65726f206160448201526564647265737360d01b6064820152608401610936565b610e0781612513565b6012546001600160a01b03821660009081526011602052604081205490914291611a78916124d2565b1115611a965760405162461bcd60e51b81526004016109369061333d565b6040516370a0823160e01b81526001600160a01b037f0000000000000000000000000000000000000000000000000000000000000000811660048301526108e5917f0000000000000000000000000000000000000000000000000000000000000000909116906370a0823190602401602060405180830381865afa158015611b22573d6000803e3d6000fd5b505050506040513d601f19601f82011682018060405250810190611b469190613365565b611b4f84611032565b6127e3565b6000611b6033836127f9565b506001919050565b6001600160a01b038316611bca5760405162461bcd60e51b8152602060048201526024808201527f45524332303a20617070726f76652066726f6d20746865207a65726f206164646044820152637265737360e01b6064820152608401610936565b6001600160a01b038216611c2b5760405162461bcd60e51b815260206004820152602260248201527f45524332303a20617070726f766520746f20746865207a65726f206164647265604482015261737360f01b6064820152608401610936565b6001600160a01b0383811660008181526001602090815260408083209487168084529482529182902085905590518481527f8c5be1e5ebec7d5bd14f71427d1e84f3dd0314c0f7b2291e5b200ac8c7c3b925910160405180910390a3505050565b600d546001600160a01b0361010090910416331461105f5760405162461bcd60e51b815260206004820181905260248201527f4f776e61626c653a2063616c6c6572206973206e6f7420746865206f776e65726044820152606401610936565b600260055403611d3e5760405162461bcd60e51b815260206004820152601f60248201527f5265656e7472616e637947756172643a207265656e7472616e742063616c6c006044820152606401610936565b6002600555565b6000611d5184846119ae565b90506000198114611db95781811015611dac5760405162461bcd60e51b815260206004820152601d60248201527f45524332303a20696e73756666696369656e7420616c6c6f77616e63650000006044820152606401610936565b611db98484848403611b68565b50505050565b611dca8383836128e7565b6000611de4610ec28360065461247e90919063ffffffff16565b6001600160a01b03851660009081526008602052604081205491925090611e0b90836124c6565b6001600160a01b0380871660009081526008602052604080822084905591871681529081205491925090611e3f9084612a8b565b6001600160a01b0380871660009081526008602052604090819020839055519192508716907ff694bebd33ada288ae2f4485315db76739e2d5501daf315e71c9d8f841aa777390611e939085815260200190565b60405180910390a2846001600160a01b03167ff694bebd33ada288ae2f4485315db76739e2d5501daf315e71c9d8f841aa777382604051611ed691815260200190565b60405180910390a2505050505050565b611f0f7f0000000000000000000000000000000000000000000000000000000000000000612a97565b6001600160a01b031663425fad586040518163ffffffff1660e01b8152600401602060405180830381865afa158015611f4c573d6000803e3d6000fd5b505050506040513d601f19601f82011682018060405250810190611f709190613320565b1561105f5760405162461bcd60e51b815260206004820152600e60248201526d140e941493d513d7d4105554d15160921b6044820152606401610936565b60405163a9059cbb60e01b81526001600160a01b038381166004830152602482018390526000917f00000000000000000000000000000000000000000000000000000000000000009091169063a9059cbb906044016020604051808303816000875af1158015612022573d6000803e3d6000fd5b505050506040513d601f19601f820116820180604052508101906120469190613320565b9392505050565b7f00000000000000000000000000000000000000000000000000000000000000006001600160a01b03167f00000000000000000000000000000000000000000000000000000000000000006001600160a01b03167f2047d1633ff7768462ae07d28cb16e484203bfd6d85ce832494270ebcd9081a27f00000000000000000000000000000000000000000000000000000000000000006001600160a01b031663ad7a672f6040518163ffffffff1660e01b8152600401602060405180830381865afa158015612120573d6000803e3d6000fd5b505050506040513d601f19601f820116820180604052508101906121449190613365565b60405190815260200160405180910390a3565b6000612046828461337e565b600c8054600b549182905560009161217b9082612a8b565b91505090565b600d5460ff161561105f5760405162461bcd60e51b815260206004820152601060248201526f14185d5cd8589b194e881c185d5cd95960821b6044820152606401610936565b6121d18282612afb565b600061220d6121ee610ec28460065461247e90919063ffffffff16565b6001600160a01b038516600090815260086020526040902054906124c6565b6001600160a01b0384166000818152600860205260409081902083905551919250907ff694bebd33ada288ae2f4485315db76739e2d5501daf315e71c9d8f841aa77739061225e9084815260200190565b60405180910390a2505050565b6000808212156122a75760405162461bcd60e51b8152602060048201526007602482015266534d493a4e454760c81b6044820152606401610936565b5090565b60006122b660025490565b116122f55760405162461bcd60e51b815260206004820152600f60248201526e4644543a5a45524f5f535550504c5960881b6044820152606401610936565b806000036123005750565b61233161230c60025490565b61231e83670de0b6b3a764000061247e565b61232891906132d2565b600654906124d2565b60065560405181815233907f26536799ace2c3dbe12e638ec3ade6b4173dcf1289be0a58d51a5003015649bd9060200160405180910390a27f1f8d7705f31c3337a080803a8ad7e71946fb88d84738879be2bf402f97156e9660065460405161239c91815260200190565b60405180910390a150565b336001600160a01b037f0000000000000000000000000000000000000000000000000000000000000000161461240b5760405162461bcd60e51b8152602060048201526009602482015268140e9393d517d1115360ba1b6044820152606401610936565b61105f611ee6565b8060028111156124255761242561319a565b601954600160a01b900460ff1660028111156124435761244361319a565b14610e075760405162461bcd60e51b815260206004820152600b60248201526a503a4241445f535441544560a81b6044820152606401610936565b600061204682846132b3565b806000811215610d8c5760405162461bcd60e51b815260206004820152600760248201526629a6aa9d27a7a160c91b6044820152606401610936565b60006120468284613391565b600061204682846132f4565b610a346001600160a01b037f000000000000000000000000000000000000000000000000000000000000000016848484612635565b600d80546001600160a01b03838116610100818102610100600160a81b031985161790945560405193909204169182907f8be0079c531659141344cd1fd0a4f28419497f9722a3daafe3b4186f6b6457e090600090a35050565b600060185461257b60025490565b61106b919061337e565b6001600160a01b03811660009081526020859052604081205490806125aa85876132f4565b116125b557816125e6565b6125e66125df6125c586886132f4565b6125d9876125d34288612157565b9061247e565b90612c2d565b83906124d2565b6001600160a01b03841660008181526020898152604091829020849055905183815292935090917ff9b842c70d79466435b46540bb988aa5c998b3243bf91c36380ddb5887c0f0e49101611ed6565b604080516001600160a01b0385811660248301528416604482015260648082018490528251808303909101815260849091019091526020810180516001600160e01b03166323b872dd60e01b179052611db9908590612c39565b6126998282612d0e565b6007546126a690826124d2565b6007556001600160a01b0382166000908152600a60205260409020546126cc90826124d2565b6001600160a01b0383166000908152600a602052604081209190915560065461220d906126fd90610ec2908561247e565b6001600160a01b03851660009081526008602052604090205490612a8b565b600061272733610db3565b9050808211156127725760405162461bcd60e51b81526020600482015260166024820152754644543a494e53554646494349454e545f46554e445360501b6044820152606401610936565b3360009081526009602052604081205461278c90846124d2565b33600081815260096020908152604091829020849055815186815290810184905292935090917ffbc3a599b784fe88772fc5abcc07223f64ca0b13acc341f4fb1e46bef0510eb4910160405180910390a250919050565b60008183106127f25781612046565b5090919050565b6012546001600160a01b038316600090815260116020526040902054429161282191906124d2565b111561283f5760405162461bcd60e51b81526004016109369061333d565b8061284983611032565b10156128905760405162461bcd60e51b8152602060048201526016602482015275503a494e53554646494349454e545f42414c414e434560501b6044820152606401610936565b612898612dcd565b811115610bb15760405162461bcd60e51b815260206004820152601860248201527f503a494e53554646494349454e545f4c495155494449545900000000000000006044820152606401610936565b6001600160a01b03831661294b5760405162461bcd60e51b815260206004820152602560248201527f45524332303a207472616e736665722066726f6d20746865207a65726f206164604482015264647265737360d81b6064820152608401610936565b6001600160a01b0382166129ad5760405162461bcd60e51b815260206004820152602360248201527f45524332303a207472616e7366657220746f20746865207a65726f206164647260448201526265737360e81b6064820152608401610936565b6001600160a01b03831660009081526020819052604090205481811015612a255760405162461bcd60e51b815260206004820152602660248201527f45524332303a207472616e7366657220616d6f756e7420657863656564732062604482015265616c616e636560d01b6064820152608401610936565b6001600160a01b03848116600081815260208181526040808320878703905593871680835291849020805487019055925185815290927fddf252ad1be2c89b69c2b068fc378daa952ba7f163c4a11628f55a4df523b3ef910160405180910390a3611db9565b600061204682846133b9565b6000816001600160a01b031663c31245256040518163ffffffff1660e01b8152600401602060405180830381865afa158015612ad7573d6000803e3d6000fd5b505050506040513d601f19601f820116820180604052508101906108e591906133e0565b6001600160a01b038216612b5b5760405162461bcd60e51b815260206004820152602160248201527f45524332303a206275726e2066726f6d20746865207a65726f206164647265736044820152607360f81b6064820152608401610936565b6001600160a01b03821660009081526020819052604090205481811015612bcf5760405162461bcd60e51b815260206004820152602260248201527f45524332303a206275726e20616d6f756e7420657863656564732062616c616e604482015261636560f01b6064820152608401610936565b6001600160a01b0383166000818152602081815260408083208686039055600280548790039055518581529192917fddf252ad1be2c89b69c2b068fc378daa952ba7f163c4a11628f55a4df523b3ef910160405180910390a3505050565b600061204682846132d2565b6000612c8e826040518060400160405280602081526020017f5361666545524332303a206c6f772d6c6576656c2063616c6c206661696c6564815250856001600160a01b0316612e7c9092919063ffffffff16565b9050805160001480612caf575080806020019051810190612caf9190613320565b610a345760405162461bcd60e51b815260206004820152602a60248201527f5361666545524332303a204552433230206f7065726174696f6e20646964206e6044820152691bdd081cdd58d8d9595960b21b6064820152608401610936565b6001600160a01b038216612d645760405162461bcd60e51b815260206004820152601f60248201527f45524332303a206d696e7420746f20746865207a65726f2061646472657373006044820152606401610936565b8060026000828254612d7691906132f4565b90915550506001600160a01b038216600081815260208181526040808320805486019055518481527fddf252ad1be2c89b69c2b068fc378daa952ba7f163c4a11628f55a4df523b3ef910160405180910390a35050565b6040516370a0823160e01b81526001600160a01b037f0000000000000000000000000000000000000000000000000000000000000000811660048301526000917f0000000000000000000000000000000000000000000000000000000000000000909116906370a0823190602401602060405180830381865afa158015612e58573d6000803e3d6000fd5b505050506040513d601f19601f8201168201806040525081019061106b9190613365565b6060612e8b8484600085612e93565b949350505050565b606082471015612ef45760405162461bcd60e51b815260206004820152602660248201527f416464726573733a20696e73756666696369656e742062616c616e636520666f6044820152651c8818d85b1b60d21b6064820152608401610936565b600080866001600160a01b03168587604051612f1091906133fd565b60006040518083038185875af1925050503d8060008114612f4d576040519150601f19603f3d011682016040523d82523d6000602084013e612f52565b606091505b5091509150612f6387838387612f6e565b979650505050505050565b60608315612fdd578251600003612fd6576001600160a01b0385163b612fd65760405162461bcd60e51b815260206004820152601d60248201527f416464726573733a2063616c6c20746f206e6f6e2d636f6e74726163740000006044820152606401610936565b5081612e8b565b612e8b8383815115612ff25781518083602001fd5b8060405162461bcd60e51b81526004016109369190613062565b6001600160a01b0381168114610e0757600080fd5b60006020828403121561303357600080fd5b81356120468161300c565b60005b83811015613059578181015183820152602001613041565b50506000910152565b602081526000825180602084015261308181604085016020870161303e565b601f01601f19169190910160400192915050565b600080604083850312156130a857600080fd5b82356130b38161300c565b946020939093013593505050565b6000806000604084860312156130d657600080fd5b83359250602084013567ffffffffffffffff808211156130f557600080fd5b818601915086601f83011261310957600080fd5b81358181111561311857600080fd5b8760208260051b850101111561312d57600080fd5b6020830194508093505050509250925092565b60008060006060848603121561315557600080fd5b83356131608161300c565b925060208401356131708161300c565b929592945050506040919091013590565b60006020828403121561319357600080fd5b5035919050565b634e487b7160e01b600052602160045260246000fd5b60208101600383106131d257634e487b7160e01b600052602160045260246000fd5b91905290565b8015158114610e0757600080fd5b600080604083850312156131f957600080fd5b82356132048161300c565b91506020830135613214816131d8565b809150509250929050565b6000806040838503121561323257600080fd5b823561323d8161300c565b915060208301356132148161300c565b600181811c9082168061326157607f821691505b60208210810361328157634e487b7160e01b600052602260045260246000fd5b50919050565b634e487b7160e01b600052603260045260246000fd5b634e487b7160e01b600052601160045260246000fd5b60008160001904831182151516156132cd576132cd61329d565b500290565b6000826132ef57634e487b7160e01b600052601260045260246000fd5b500490565b808201808211156108e5576108e561329d565b6000600182016133195761331961329d565b5060010190565b60006020828403121561333257600080fd5b8151612046816131d8565b6020808252600e908201526d140e9195539114d7d313d0d2d15160921b604082015260600190565b60006020828403121561337757600080fd5b5051919050565b818103818111156108e5576108e561329d565b80820182811260008312801582168215821617156133b1576133b161329d565b505092915050565b81810360008312801583831316838312821617156133d9576133d961329d565b5092915050565b6000602082840312156133f257600080fd5b81516120468161300c565b6000825161340f81846020870161303e565b919091019291505056fea2646970667358221220e1da30c94e4624842fce27811c674b8e1ecb58040ee9c0b6fca75c3ec37792f764736f6c63430008100033",
    "linkReferences": {}
  },
  "methodIdentifiers": {
    "accumulativeFundsOf(address)": "4e97415f",
    "allowance(address,address)": "dd62ed3e",
    "approve(address,uint256)": "095ea7b3",
    "balanceOf(address)": "70a08231",
    "blendedPool()": "2dfbf503",
    "borrower()": "7df1f1b9",
    "canWithdraw(uint256)": "fbe85f06",
    "claimReward()": "b88a802f",
    "concludePendingReward(address)": "9264fd53",
    "concludePendingWithdrawal(address)": "1e0a5967",
    "deactivate()": "51b42b00",
    "decimals()": "313ce567",
    "decreaseAllowance(address,uint256)": "a457c2d7",
    "deposit(uint256)": "b6b55f25",
    "depositDate(address)": "24b92e8e",
    "distributeRewards(uint256,address[])": "1aa59542",
    "drawdown(uint256)": "a079a4dd",
    "drawdownAmount()": "73e835ee",
    "finalize()": "4bb278f3",
    "increaseAllowance(address,uint256)": "39509351",
    "interestBalance()": "9f3c7325",
    "interestSum()": "71073bac",
    "liquidityAsset()": "209b2bca",
    "liquidityLocker()": "9759164a",
    "makePayment(uint256)": "5114cb52",
    "name()": "06fdde03",
    "owner()": "8da5cb5b",
    "paused()": "5c975abb",
    "pendingRewards(address)": "31d7a262",
    "pendingWithdrawals(address)": "f3f43703",
    "poolAdmins(address)": "613384f2",
    "poolDelegate()": "4046af2b",
    "poolInfo()": "5a2f3d09",
    "poolState()": "641ad8a9",
    "principalOut()": "ac641655",
    "renounceOwnership()": "715018a6",
    "rewards(address)": "0700037d",
    "setBlendedPool(address)": "a81b3545",
    "setBorrower(address)": "c762d5f7",
    "setPoolAdmin(address,bool)": "9185192a",
    "superFactory()": "0d49b38c",
    "symbol()": "95d89b41",
    "totalDeposited()": "ff50abdc",
    "totalMintedFor(address)": "fe84967e",
    "totalSupply()": "18160ddd",
    "transfer(address,uint256)": "a9059cbb",
    "transferFrom(address,address,uint256)": "23b872dd",
    "transferOwnership(address)": "f2fde38b",
    "updateFundsReceived()": "46c162de",
    "withdraw(uint256)": "2e1a7d4d",
    "withdrawFunds()": "24600fc3",
    "withdrawFundsAmount(uint256)": "d16987f9",
    "withdrawableFundsOf(address)": "443bb293",
    "withdrawableOf(address)": "fa8c00d4",
    "withdrawnFundsOf(address)": "0041c52c"
  },
  "id": 13
}